{
  "_format": "hh-sol-artifact-1",
  "contractName": "Battleground",
  "sourceName": "contracts/Battleground.sol",
  "abi": [
    {
      "inputs": [],
      "name": "InvalidInitialization",
      "type": "error"
    },
    {
      "inputs": [],
      "name": "NotInitializing",
      "type": "error"
    },
    {
      "inputs": [
        {
          "internalType": "address",
          "name": "owner",
          "type": "address"
        }
      ],
      "name": "OwnableInvalidOwner",
      "type": "error"
    },
    {
      "inputs": [
        {
          "internalType": "address",
          "name": "account",
          "type": "address"
        }
      ],
      "name": "OwnableUnauthorizedAccount",
      "type": "error"
    },
    {
      "anonymous": false,
      "inputs": [
        {
          "indexed": false,
          "internalType": "int16",
          "name": "x",
          "type": "int16"
        },
        {
          "indexed": false,
          "internalType": "int16",
          "name": "y",
          "type": "int16"
        },
        {
          "indexed": true,
          "internalType": "address",
          "name": "owner",
          "type": "address"
        },
        {
          "indexed": false,
          "internalType": "uint16",
          "name": "buildingId",
          "type": "uint16"
        }
      ],
      "name": "BuildingPlaced",
      "type": "event"
    },
    {
      "anonymous": false,
      "inputs": [
        {
          "indexed": false,
          "internalType": "address",
          "name": "buildingsContract",
          "type": "address"
        }
      ],
      "name": "BuildingsContractSet",
      "type": "event"
    },
    {
      "anonymous": false,
      "inputs": [
        {
          "indexed": false,
          "internalType": "address",
          "name": "constructionContract",
          "type": "address"
        }
      ],
      "name": "ConstructionContractSet",
      "type": "event"
    },
    {
      "anonymous": false,
      "inputs": [
        {
          "indexed": false,
          "internalType": "uint64",
          "name": "version",
          "type": "uint64"
        }
      ],
      "name": "Initialized",
      "type": "event"
    },
    {
      "anonymous": false,
      "inputs": [
        {
          "indexed": true,
          "internalType": "address",
          "name": "previousOwner",
          "type": "address"
        },
        {
          "indexed": true,
          "internalType": "address",
          "name": "newOwner",
          "type": "address"
        }
      ],
      "name": "OwnershipTransferred",
      "type": "event"
    },
    {
      "anonymous": false,
      "inputs": [
        {
          "indexed": false,
          "internalType": "int16",
          "name": "x",
          "type": "int16"
        },
        {
          "indexed": false,
          "internalType": "int16",
          "name": "y",
          "type": "int16"
        },
        {
          "indexed": true,
          "internalType": "address",
          "name": "owner",
          "type": "address"
        },
        {
          "indexed": false,
          "internalType": "uint16",
          "name": "unitId",
          "type": "uint16"
        },
        {
          "indexed": false,
          "internalType": "uint16",
          "name": "quantity",
          "type": "uint16"
        }
      ],
      "name": "UnitsAdded",
      "type": "event"
    },
    {
      "inputs": [
        {
          "internalType": "int16",
          "name": "x",
          "type": "int16"
        },
        {
          "internalType": "int16",
          "name": "y",
          "type": "int16"
        },
        {
          "internalType": "uint16",
          "name": "unitId",
          "type": "uint16"
        },
        {
          "internalType": "uint16",
          "name": "quantity",
          "type": "uint16"
        }
      ],
      "name": "addUnits",
      "outputs": [],
      "stateMutability": "nonpayable",
      "type": "function"
    },
    {
      "inputs": [],
      "name": "buildingsContract",
      "outputs": [
        {
          "internalType": "contract IBuildings",
          "name": "",
          "type": "address"
        }
      ],
      "stateMutability": "view",
      "type": "function"
    },
    {
      "inputs": [],
      "name": "constructionContract",
      "outputs": [
        {
          "internalType": "address",
          "name": "",
          "type": "address"
        }
      ],
      "stateMutability": "view",
      "type": "function"
    },
    {
      "inputs": [
        {
          "internalType": "int16",
          "name": "x",
          "type": "int16"
        },
        {
          "internalType": "int16",
          "name": "y",
          "type": "int16"
        }
      ],
      "name": "getTile",
      "outputs": [
        {
          "components": [
            {
              "internalType": "address",
              "name": "owner",
              "type": "address"
            },
            {
              "internalType": "uint16",
              "name": "buildingId",
              "type": "uint16"
            },
            {
              "components": [
                {
                  "internalType": "uint16",
                  "name": "unitId",
                  "type": "uint16"
                },
                {
                  "internalType": "uint16",
                  "name": "quantity",
                  "type": "uint16"
                }
              ],
              "internalType": "struct Battleground.UnitQuantity[]",
              "name": "units",
              "type": "tuple[]"
            }
          ],
          "internalType": "struct Battleground.Tile",
          "name": "",
          "type": "tuple"
        }
      ],
      "stateMutability": "view",
      "type": "function"
    },
    {
      "inputs": [
        {
          "components": [
            {
              "internalType": "int16",
              "name": "x",
              "type": "int16"
            },
            {
              "internalType": "int16",
              "name": "y",
              "type": "int16"
            }
          ],
          "internalType": "struct Battleground.Coordinates[]",
          "name": "coordinates",
          "type": "tuple[]"
        }
      ],
      "name": "getTiles",
      "outputs": [
        {
          "components": [
            {
              "internalType": "address",
              "name": "owner",
              "type": "address"
            },
            {
              "internalType": "uint16",
              "name": "buildingId",
              "type": "uint16"
            },
            {
              "components": [
                {
                  "internalType": "uint16",
                  "name": "unitId",
                  "type": "uint16"
                },
                {
                  "internalType": "uint16",
                  "name": "quantity",
                  "type": "uint16"
                }
              ],
              "internalType": "struct Battleground.UnitQuantity[]",
              "name": "units",
              "type": "tuple[]"
            }
          ],
          "internalType": "struct Battleground.Tile[]",
          "name": "",
          "type": "tuple[]"
        }
      ],
      "stateMutability": "view",
      "type": "function"
    },
    {
      "inputs": [
        {
          "internalType": "address",
          "name": "user",
          "type": "address"
        }
      ],
      "name": "hasHeadquarters",
      "outputs": [
        {
          "internalType": "bool",
          "name": "",
          "type": "bool"
        }
      ],
      "stateMutability": "view",
      "type": "function"
    },
    {
      "inputs": [
        {
          "internalType": "int16",
          "name": "_minTileX",
          "type": "int16"
        },
        {
          "internalType": "int16",
          "name": "_minTileY",
          "type": "int16"
        },
        {
          "internalType": "int16",
          "name": "_maxTileX",
          "type": "int16"
        },
        {
          "internalType": "int16",
          "name": "_maxTileY",
          "type": "int16"
        }
      ],
      "name": "initialize",
      "outputs": [],
      "stateMutability": "nonpayable",
      "type": "function"
    },
    {
      "inputs": [],
      "name": "maxTileX",
      "outputs": [
        {
          "internalType": "int16",
          "name": "",
          "type": "int16"
        }
      ],
      "stateMutability": "view",
      "type": "function"
    },
    {
      "inputs": [],
      "name": "maxTileY",
      "outputs": [
        {
          "internalType": "int16",
          "name": "",
          "type": "int16"
        }
      ],
      "stateMutability": "view",
      "type": "function"
    },
    {
      "inputs": [],
      "name": "minTileX",
      "outputs": [
        {
          "internalType": "int16",
          "name": "",
          "type": "int16"
        }
      ],
      "stateMutability": "view",
      "type": "function"
    },
    {
      "inputs": [],
      "name": "minTileY",
      "outputs": [
        {
          "internalType": "int16",
          "name": "",
          "type": "int16"
        }
      ],
      "stateMutability": "view",
      "type": "function"
    },
    {
      "inputs": [],
      "name": "owner",
      "outputs": [
        {
          "internalType": "address",
          "name": "",
          "type": "address"
        }
      ],
      "stateMutability": "view",
      "type": "function"
    },
    {
      "inputs": [
        {
          "internalType": "int16",
          "name": "x",
          "type": "int16"
        },
        {
          "internalType": "int16",
          "name": "y",
          "type": "int16"
        },
        {
          "internalType": "address",
          "name": "newOwner",
          "type": "address"
        },
        {
          "internalType": "uint16",
          "name": "buildingId",
          "type": "uint16"
        }
      ],
      "name": "placeBuilding",
      "outputs": [],
      "stateMutability": "nonpayable",
      "type": "function"
    },
    {
      "inputs": [],
      "name": "renounceOwnership",
      "outputs": [],
      "stateMutability": "nonpayable",
      "type": "function"
    },
    {
      "inputs": [
        {
          "internalType": "address",
          "name": "_buildingsContract",
          "type": "address"
        }
      ],
      "name": "setBuildingsContract",
      "outputs": [],
      "stateMutability": "nonpayable",
      "type": "function"
    },
    {
      "inputs": [
        {
          "internalType": "address",
          "name": "_constructionContract",
          "type": "address"
        }
      ],
      "name": "setConstructionContract",
      "outputs": [],
      "stateMutability": "nonpayable",
      "type": "function"
    },
    {
      "inputs": [
        {
          "internalType": "address",
          "name": "_trainingContract",
          "type": "address"
        }
      ],
      "name": "setTrainingContract",
      "outputs": [],
      "stateMutability": "nonpayable",
      "type": "function"
    },
    {
      "inputs": [
        {
          "internalType": "int16",
          "name": "",
          "type": "int16"
        },
        {
          "internalType": "int16",
          "name": "",
          "type": "int16"
        }
      ],
      "name": "tiles",
      "outputs": [
        {
          "internalType": "address",
          "name": "owner",
          "type": "address"
        },
        {
          "internalType": "uint16",
          "name": "buildingId",
          "type": "uint16"
        }
      ],
      "stateMutability": "view",
      "type": "function"
    },
    {
      "inputs": [],
      "name": "trainingContract",
      "outputs": [
        {
          "internalType": "address",
          "name": "",
          "type": "address"
        }
      ],
      "stateMutability": "view",
      "type": "function"
    },
    {
      "inputs": [
        {
          "internalType": "address",
          "name": "newOwner",
          "type": "address"
        }
      ],
      "name": "transferOwnership",
      "outputs": [],
      "stateMutability": "nonpayable",
      "type": "function"
    },
    {
      "inputs": [
        {
          "internalType": "address",
          "name": "",
          "type": "address"
        },
        {
          "internalType": "uint256",
          "name": "",
          "type": "uint256"
        }
      ],
      "name": "userHeadquarters",
      "outputs": [
        {
          "internalType": "int16",
          "name": "x",
          "type": "int16"
        },
        {
          "internalType": "int16",
          "name": "y",
          "type": "int16"
        }
      ],
      "stateMutability": "view",
      "type": "function"
    }
  ],
  "bytecode": "0x6080806040523460155761167e908161001b8239f35b600080fdfe608080604052600436101561001357600080fd5b60003560e01c908163134a1463146112a9575080631cf89f79146112855780633ae948d11461103357806348cb164214610ff057806348f6da1c146109925780636398072414610930578063715018a6146108c657806376fa283f1461089d57806377b9a7a71461083157806377f19a8f146107c55780638da5cb5b1461078f5780638ec8b2d71461076b5780638ecb9f12146105a5578063a6c0d3d014610581578063a8b6837614610558578063ade2e2da14610534578063bf6f5b4e146102cc578063d40835441461026d578063dcc01f0f14610172578063f2fde38b146101475763f7625ef01461010657600080fd5b34610142576020366003190112610142576001600160a01b0361012761130c565b16600052600460205260206040600020541515604051908152f35b600080fd5b346101425760203660031901126101425761017061016361130c565b61016b6115a4565b6114ca565b005b346101425760403660031901126101425761018b6112cd565b6101936112dd565b9061019c611495565b5060010b600052600360205260406000209060010b60005260205260406000206001604051916101cb8361136c565b61ffff8154838060a01b038116855260a01c166020840152019081546101f0816113aa565b926101fe6040519485611388565b818452602084019060005260206000206000915b83831061023b57610237858760408201526040519182916020835260208301906113c2565b0390f35b60016020819260405161024d81611350565b61ffff8654818116835260101c1683820152815201920192019190610212565b34610142576040366003190112610142576102866112cd565b61028e6112dd565b9060010b600052600360205260406000209060010b6000526020526040806000205461ffff82519160018060a01b038116835260a01c166020820152f35b346101425760203660031901126101425760043567ffffffffffffffff81116101425736602382011215610142578060040135610308816113aa565b916103166040519384611388565b8183526024602084019260061b8201019036821161014257602401915b8183106104f557838051610346816113aa565b906103546040519283611388565b808252601f19610363826113aa565b0160005b8181106104d65750506000925b8184106103e357826040518091602082016020835281518091526040830190602060408260051b8601019301916000905b8282106103b457505050500390f35b919360019193955060206103d38192603f198a820301865288516113c2565b96019201920185949391926103a5565b60406103ef85836114b6565b51805160010b600052600360205260208260002091015160010b9060009160010b825260205220936001604051956104268761136c565b61ffff8154838060a01b038116895260a01c1660208801520194855461044b816113aa565b906104596040519283611388565b80825260208201976000526020600020976000905b8282106104a35750505060019394959650604082015261048e82876114b6565b5261049981866114b6565b5001929190610374565b6001602081928c61ffff604051916104ba83611350565b54818116835260101c16838201528152019a019101909861046e565b6020906104e595939495611495565b8282880101520193929193610367565b604083360312610142576020604091825161050f81611350565b610518866112ed565b81526105258387016112ed565b83820152815201920191610333565b3461014257600036600319011261014257602060025460a01c60010b604051908152f35b34610142576000366003190112610142576000546040516001600160a01b039091168152602090f35b3461014257600036600319011261014257602060025460b01c60010b604051908152f35b34610142576080366003190112610142576105be6112cd565b6105c66112dd565b6044358060010b810361014257606435918260010b830361014257600080516020611629833981519152549360ff8560401c16159467ffffffffffffffff811680159081610763575b6001149081610759575b159081610750575b5061073f5767ffffffffffffffff1981166001176000805160206116298339815191525585610712575b506106546115da565b61065c6115da565b610665336114ca565b6002549360d01b61ffff60d01b169361ffff60d01b199161ffff60a01b9060a01b169065ffffffffffff60a01b191617169061ffff60b01b9060b01b16179060c01b61ffff60c01b1617176002556106b957005b68ff0000000000000000196000805160206116298339815191525416600080516020611629833981519152557fc7f505b2f371ae2175ee4913f4499e1f2633a7b5936321eed1cdaeb6115181d2602060405160018152a1005b68ffffffffffffffffff19166801000000000000000117600080516020611629833981519152558561064b565b63f92ee8a960e01b60005260046000fd5b90501587610621565b303b159150610619565b87915061060f565b3461014257600036600319011261014257602060025460d01c60010b604051908152f35b3461014257600036600319011261014257600080516020611609833981519152546040516001600160a01b039091168152602090f35b34610142576020366003190112610142577f3eda8bb8d2e997700e220c062c04ff8e25da48db31c7ee1c2552c63668ae284d602061080161130c565b6108096115a4565b600080546001600160a01b0319166001600160a01b03929092169182179055604051908152a1005b34610142576020366003190112610142577f01a3c02569192838f69d01f75ce99f198722ba42c619599c574b1933d9f4ed51602061086d61130c565b6108756115a4565b600180546001600160a01b0319166001600160a01b03929092169182179055604051908152a1005b34610142576000366003190112610142576001546040516001600160a01b039091168152602090f35b34610142576000366003190112610142576108df6115a4565b60008051602061160983398151915280546001600160a01b031981169091556000906001600160a01b03167f8be0079c531659141344cd1fd0a4f28419497f9722a3daafe3b4186f6b6457e08280a3005b346101425760403660031901126101425761094961130c565b6001600160a01b03166000908152600460205260409020805460243591908210156101425760409161097a91611322565b50548151908060010b825260101c60010b6020820152f35b34610142576080366003190112610142576109ab6112cd565b6109b36112dd565b6044356001600160a01b038116929190839003610142576109d26112fb565b6001549092906001600160a01b03163303610f91578315610f4d576109ff6109fa8383611540565b611431565b60010b9081600052600360205260406000208160010b600052602052604060002060405190610a2d8261136c565b80546001600160a01b038116835260a01c61ffff16602083019081526001919091018054610a5a816113aa565b91610a686040519384611388565b818352602083019060005260206000206000915b838310610f1b5750505050604083015281516001600160a01b031680159087908215610f11575b505015610ebe576000848152600360209081526040808320600187900b84529091529020805461ffff60a01b60a088901b166001600160b01b031990911661ffff60a01b19891617179055815161ffff909516946001600160a01b031615159081610e55575b5015610d3157600054604051630a228fcb60e41b81526004810186905290602090829060249082906001600160a01b03165afa908115610d2557600091610cf6575b5015610b90575b50907f6df58bf922f5aecca29cc197257297640cbdd34d284647555c414be3d294e0a9926060925b60405192835260010b60208301526040820152a2005b516001600160a01b031660009081526004602052604081208054915b828110610bbb575b5050610b52565b84610bc68284611322565b505460010b1480610cd9575b610bde57600101610bac565b9094929392916000198101908111610cc357610bfd610c059187611322565b509186611322565b610c6357818103610c8f575b505083548015610c79576000190192610c2a8486611322565b949094610c63577f6df58bf922f5aecca29cc197257297640cbdd34d284647555c414be3d294e0a9956000606096555591928194610bb4565b634e487b7160e01b600052600060045260246000fd5b634e487b7160e01b600052603160045260246000fd5b8154815461ffff19811661ffff9092169182178355925463ffff00001663ffffffff19909316179190911790558580610c11565b634e487b7160e01b600052601160045260246000fd5b50610ce48183611322565b505460101c60010b8460010b14610bd2565b610d18915060203d602011610d1e575b610d108183611388565b81019061147d565b86610b4b565b503d610d06565b6040513d6000823e3d90fd5b50600054604051630a228fcb60e41b81526004810185905292939290602090829060249082906001600160a01b03165afa908115610d2557600091610e36575b50610da2575b916060917f6df58bf922f5aecca29cc197257297640cbdd34d284647555c414be3d294e0a993610b7a565b9183600052600460205260406000209160405193610dbf85611350565b82855260208501938160010b85528054600160401b811015610e2057610dea91600182018155611322565b959095610c6357518554945160101b63ffff00001661ffff90911663ffffffff1990951694909417939093179093559190610d77565b634e487b7160e01b600052604160045260246000fd5b610e4f915060203d602011610d1e57610d108183611388565b85610d71565b6000549051604051630a228fcb60e41b815261ffff90911660048201529150602090829060249082906001600160a01b03165afa908115610d2557600091610e9f575b5086610b09565b610eb8915060203d602011610d1e57610d108183611388565b86610e98565b60405162461bcd60e51b815260206004820152602560248201527f54696c6520616c7265616479206f6363757069656420627920616e6f74686572604482015264103ab9b2b960d91b6064820152608490fd5b1490508688610aa3565b600160208192604051610f2d81611350565b61ffff8654818116835260101c1683820152815201920192019190610a7c565b606460405162461bcd60e51b815260206004820152602060248201527f4e6577206f776e65722063616e6e6f74206265207a65726f20616464726573736044820152fd5b60405162461bcd60e51b815260206004820152603160248201527f4f6e6c7920636f6e737472756374696f6e20636f6e74726163742063616e206360448201527030b636103a3434b990333ab731ba34b7b760791b6064820152608490fd5b346101425760203660031901126101425761100961130c565b6110116115a4565b600280546001600160a01b0319166001600160a01b0392909216919091179055005b346101425760803660031901126101425761104c6112cd565b6110546112dd565b906044359061ffff82168092036101425761106d6112fb565b6002549091906001600160a01b0316330361122a5761108f6109fa8583611540565b60010b80600052600360205260406000208460010b600052602052604060002091600093600060018501905b815481101561121f578261ffff6110d28385611322565b505416146110e2576001016110bb565b816110f292939495969750611322565b5061ffff815460101c1661ffff85160161ffff8111610cc357815463ffff0000191660109190911b63ffff00001617905560015b1561117e575b506080929161ffff917ff4b9943b7a12921a6e9be46d082876e5caba906245b3ded486ef5c306b38df769560018060a01b039054169660405194855260010b60208501526040840152166060820152a2005b9392916040519161118e83611350565b808352602083019561ffff831687528054600160401b811015610e20576111ba91600182018155611322565b959095610c635761121460809661ffff7ff4b9943b7a12921a6e9be46d082876e5caba906245b3ded486ef5c306b38df769981809851168219845416178355511663ffff000082549160101b169063ffff00001916179055565b95509150919261112c565b509091929394611126565b60405162461bcd60e51b815260206004820152602d60248201527f4f6e6c7920747261696e696e6720636f6e74726163742063616e2063616c6c2060448201526c3a3434b990333ab731ba34b7b760991b6064820152608490fd5b3461014257600036600319011261014257602060025460c01c60010b604051908152f35b34610142576000366003190112610142576002546001600160a01b03168152602090f35b600435908160010b820361014257565b602435908160010b820361014257565b35908160010b820361014257565b6064359061ffff8216820361014257565b600435906001600160a01b038216820361014257565b805482101561133a5760005260206000200190600090565b634e487b7160e01b600052603260045260246000fd5b6040810190811067ffffffffffffffff821117610e2057604052565b6060810190811067ffffffffffffffff821117610e2057604052565b90601f8019910116810190811067ffffffffffffffff821117610e2057604052565b67ffffffffffffffff8111610e205760051b60200190565b602060806040606085019360018060a01b03815116865261ffff8482015116848701520151936060604082015284518094520192019060005b8181106114085750505090565b8251805161ffff90811686526020918201511681860152604090940193909201916001016113fb565b1561143857565b60405162461bcd60e51b815260206004820152601960248201527f436f6f7264696e61746573206f7574206f6620626f756e6473000000000000006044820152606490fd5b90816020910312610142575180151581036101425790565b604051906114a28261136c565b606060408360008152600060208201520152565b805182101561133a5760209160051b010190565b6001600160a01b0316801561152a5760008051602061160983398151915280546001600160a01b0319811683179091556001600160a01b03167f8be0079c531659141344cd1fd0a4f28419497f9722a3daafe3b4186f6b6457e0600080a3565b631e4fbdf760e01b600052600060045260246000fd5b906002549160010b918060a01c60010b8312159283611592575b508261157d575b8261156b57505090565b90915060d01c60010b9060010b131590565b80925060b01c60010b8160010b121591611561565b60c082901c60010b121592503861155a565b600080516020611609833981519152546001600160a01b031633036115c557565b63118cdaa760e01b6000523360045260246000fd5b60ff6000805160206116298339815191525460401c16156115f757565b631afcd79f60e31b60005260046000fdfe9016d09d72d40fdae2fd8ceac6b6234c7706214fd39c1cd1e609a0528c199300f0c57e16840df040f15088dc2f81fe391c3923bec73e23a9662efc9c229c6a00a2646970667358221220bff428a6a098e9f6b7422c46083da6ab68ceb54aefb30a6a67dd34456579126c64736f6c634300081c0033",
  "linkReferences": {},
  "deployedLinkReferences": {}
}