{
  "_format": "hh-sol-artifact-1",
  "contractName": "Battleground",
  "sourceName": "contracts/Battleground.sol",
  "abi": [
    {
      "inputs": [],
      "name": "InvalidInitialization",
      "type": "error"
    },
    {
      "inputs": [],
      "name": "NotInitializing",
      "type": "error"
    },
    {
      "inputs": [
        {
          "internalType": "address",
          "name": "owner",
          "type": "address"
        }
      ],
      "name": "OwnableInvalidOwner",
      "type": "error"
    },
    {
      "inputs": [
        {
          "internalType": "address",
          "name": "account",
          "type": "address"
        }
      ],
      "name": "OwnableUnauthorizedAccount",
      "type": "error"
    },
    {
      "anonymous": false,
      "inputs": [
        {
          "indexed": false,
          "internalType": "int16",
          "name": "x",
          "type": "int16"
        },
        {
          "indexed": false,
          "internalType": "int16",
          "name": "y",
          "type": "int16"
        },
        {
          "indexed": true,
          "internalType": "address",
          "name": "occupant",
          "type": "address"
        },
        {
          "indexed": false,
          "internalType": "uint16",
          "name": "buildingId",
          "type": "uint16"
        }
      ],
      "name": "BuildingPlaced",
      "type": "event"
    },
    {
      "anonymous": false,
      "inputs": [
        {
          "indexed": false,
          "internalType": "address",
          "name": "buildingsContract",
          "type": "address"
        }
      ],
      "name": "BuildingsContractSet",
      "type": "event"
    },
    {
      "anonymous": false,
      "inputs": [
        {
          "indexed": false,
          "internalType": "address",
          "name": "constructionContract",
          "type": "address"
        }
      ],
      "name": "ConstructionContractSet",
      "type": "event"
    },
    {
      "anonymous": false,
      "inputs": [
        {
          "indexed": false,
          "internalType": "uint64",
          "name": "version",
          "type": "uint64"
        }
      ],
      "name": "Initialized",
      "type": "event"
    },
    {
      "anonymous": false,
      "inputs": [
        {
          "indexed": true,
          "internalType": "address",
          "name": "previousOwner",
          "type": "address"
        },
        {
          "indexed": true,
          "internalType": "address",
          "name": "newOwner",
          "type": "address"
        }
      ],
      "name": "OwnershipTransferred",
      "type": "event"
    },
    {
      "inputs": [],
      "name": "buildingsContract",
      "outputs": [
        {
          "internalType": "contract IBuildings",
          "name": "",
          "type": "address"
        }
      ],
      "stateMutability": "view",
      "type": "function"
    },
    {
      "inputs": [],
      "name": "constructionContract",
      "outputs": [
        {
          "internalType": "address",
          "name": "",
          "type": "address"
        }
      ],
      "stateMutability": "view",
      "type": "function"
    },
    {
      "inputs": [
        {
          "internalType": "int16",
          "name": "x",
          "type": "int16"
        },
        {
          "internalType": "int16",
          "name": "y",
          "type": "int16"
        }
      ],
      "name": "getTile",
      "outputs": [
        {
          "components": [
            {
              "internalType": "address",
              "name": "occupant",
              "type": "address"
            },
            {
              "internalType": "uint16",
              "name": "buildingId",
              "type": "uint16"
            }
          ],
          "internalType": "struct Battleground.Tile",
          "name": "",
          "type": "tuple"
        }
      ],
      "stateMutability": "view",
      "type": "function"
    },
    {
      "inputs": [
        {
          "components": [
            {
              "internalType": "int16",
              "name": "x",
              "type": "int16"
            },
            {
              "internalType": "int16",
              "name": "y",
              "type": "int16"
            }
          ],
          "internalType": "struct Battleground.Coordinates[]",
          "name": "coordinates",
          "type": "tuple[]"
        }
      ],
      "name": "getTiles",
      "outputs": [
        {
          "components": [
            {
              "internalType": "address",
              "name": "occupant",
              "type": "address"
            },
            {
              "internalType": "uint16",
              "name": "buildingId",
              "type": "uint16"
            }
          ],
          "internalType": "struct Battleground.Tile[]",
          "name": "",
          "type": "tuple[]"
        }
      ],
      "stateMutability": "view",
      "type": "function"
    },
    {
      "inputs": [
        {
          "internalType": "address",
          "name": "user",
          "type": "address"
        }
      ],
      "name": "hasHeadquarters",
      "outputs": [
        {
          "internalType": "bool",
          "name": "",
          "type": "bool"
        }
      ],
      "stateMutability": "view",
      "type": "function"
    },
    {
      "inputs": [
        {
          "internalType": "int16",
          "name": "_minTileX",
          "type": "int16"
        },
        {
          "internalType": "int16",
          "name": "_minTileY",
          "type": "int16"
        },
        {
          "internalType": "int16",
          "name": "_maxTileX",
          "type": "int16"
        },
        {
          "internalType": "int16",
          "name": "_maxTileY",
          "type": "int16"
        }
      ],
      "name": "initialize",
      "outputs": [],
      "stateMutability": "nonpayable",
      "type": "function"
    },
    {
      "inputs": [],
      "name": "maxTileX",
      "outputs": [
        {
          "internalType": "int16",
          "name": "",
          "type": "int16"
        }
      ],
      "stateMutability": "view",
      "type": "function"
    },
    {
      "inputs": [],
      "name": "maxTileY",
      "outputs": [
        {
          "internalType": "int16",
          "name": "",
          "type": "int16"
        }
      ],
      "stateMutability": "view",
      "type": "function"
    },
    {
      "inputs": [],
      "name": "minTileX",
      "outputs": [
        {
          "internalType": "int16",
          "name": "",
          "type": "int16"
        }
      ],
      "stateMutability": "view",
      "type": "function"
    },
    {
      "inputs": [],
      "name": "minTileY",
      "outputs": [
        {
          "internalType": "int16",
          "name": "",
          "type": "int16"
        }
      ],
      "stateMutability": "view",
      "type": "function"
    },
    {
      "inputs": [],
      "name": "owner",
      "outputs": [
        {
          "internalType": "address",
          "name": "",
          "type": "address"
        }
      ],
      "stateMutability": "view",
      "type": "function"
    },
    {
      "inputs": [
        {
          "internalType": "int16",
          "name": "x",
          "type": "int16"
        },
        {
          "internalType": "int16",
          "name": "y",
          "type": "int16"
        },
        {
          "internalType": "address",
          "name": "occupant",
          "type": "address"
        },
        {
          "internalType": "uint16",
          "name": "buildingId",
          "type": "uint16"
        }
      ],
      "name": "placeBuilding",
      "outputs": [],
      "stateMutability": "nonpayable",
      "type": "function"
    },
    {
      "inputs": [
        {
          "internalType": "int16",
          "name": "x",
          "type": "int16"
        },
        {
          "internalType": "int16",
          "name": "y",
          "type": "int16"
        }
      ],
      "name": "removeBuilding",
      "outputs": [],
      "stateMutability": "nonpayable",
      "type": "function"
    },
    {
      "inputs": [],
      "name": "renounceOwnership",
      "outputs": [],
      "stateMutability": "nonpayable",
      "type": "function"
    },
    {
      "inputs": [
        {
          "internalType": "address",
          "name": "_buildingsContract",
          "type": "address"
        }
      ],
      "name": "setBuildingsContract",
      "outputs": [],
      "stateMutability": "nonpayable",
      "type": "function"
    },
    {
      "inputs": [
        {
          "internalType": "address",
          "name": "_constructionContract",
          "type": "address"
        }
      ],
      "name": "setConstructionContract",
      "outputs": [],
      "stateMutability": "nonpayable",
      "type": "function"
    },
    {
      "inputs": [
        {
          "internalType": "int16",
          "name": "",
          "type": "int16"
        },
        {
          "internalType": "int16",
          "name": "",
          "type": "int16"
        }
      ],
      "name": "tiles",
      "outputs": [
        {
          "internalType": "address",
          "name": "occupant",
          "type": "address"
        },
        {
          "internalType": "uint16",
          "name": "buildingId",
          "type": "uint16"
        }
      ],
      "stateMutability": "view",
      "type": "function"
    },
    {
      "inputs": [
        {
          "internalType": "address",
          "name": "newOwner",
          "type": "address"
        }
      ],
      "name": "transferOwnership",
      "outputs": [],
      "stateMutability": "nonpayable",
      "type": "function"
    },
    {
      "inputs": [
        {
          "internalType": "address",
          "name": "",
          "type": "address"
        },
        {
          "internalType": "uint256",
          "name": "",
          "type": "uint256"
        }
      ],
      "name": "userHeadquarters",
      "outputs": [
        {
          "internalType": "int16",
          "name": "x",
          "type": "int16"
        },
        {
          "internalType": "int16",
          "name": "y",
          "type": "int16"
        }
      ],
      "stateMutability": "view",
      "type": "function"
    }
  ],
  "bytecode": "0x608080604052346015576111ff908161001b8239f35b600080fdfe608080604052600436101561001357600080fd5b60003560e01c9081631cf89f7914610e63575080632b20e12314610b4c57806348f6da1c1461088a5780636398072414610828578063715018a6146107be57806376fa283f1461079557806377b9a7a71461072957806377f19a8f146106bd5780638da5cb5b146106875780638ec8b2d7146106635780638ecb9f121461049d578063a6c0d3d014610479578063a8b6837614610450578063ade2e2da1461042c578063bf6f5b4e14610248578063d4083544146101e9578063dcc01f0f1461015c578063f2fde38b146101315763f7625ef0146100f057600080fd5b3461012c57602036600319011261012c576001600160a01b03610111610eb2565b16600052600360205260206040600020541515604051908152f35b600080fd5b3461012c57602036600319011261012c5761015a61014d610eb2565b610155611105565b61108f565b005b3461012c57604036600319011261012c57610175610e84565b61017d610e94565b90610186611062565b5060010b600052600260205260406000209060010b60005260205260408060002061ffff8251916101b683610ef6565b546001600160a01b03811680845260a09190911c91909116602092830190815283519182525161ffff1691810191909152f35b3461012c57604036600319011261012c57610202610e84565b61020a610e94565b9060010b600052600260205260406000209060010b6000526020526040806000205461ffff82519160018060a01b038116835260a01c166020820152f35b3461012c57602036600319011261012c5760043567ffffffffffffffff811161012c573660238201121561012c57806004013561028481610f34565b916102926040519384610f12565b8183526024602084019260061b8201019036821161012c57602401915b8183106103ed578380516102c281610f34565b916102d06040519384610f12565b818352601f196102df83610f34565b0160005b8181106103c857505060005b828110610355578360405180916020820160208352815180915260206040840192019060005b818110610323575050500390f35b825180516001600160a01b0316855260209081015161ffff168186015286955060409094019390920191600101610315565b8060406103646001938561107b565b518051840b6000526002602052602082600020910151840b90600091850b82526020522061ffff6040519161039883610ef6565b54848060a01b038116835260a01c1660208201526103b6828761107b565b526103c1818661107b565b50016102ef565b6020906040516103d781610ef6565b60008152600083820152828288010152016102e3565b60408336031261012c576020604091825161040781610ef6565b61041086610ea4565b815261041d838701610ea4565b838201528152019201916102af565b3461012c57600036600319011261012c57602060015460a01c60010b604051908152f35b3461012c57600036600319011261012c576000546040516001600160a01b039091168152602090f35b3461012c57600036600319011261012c57602060015460b01c60010b604051908152f35b3461012c57608036600319011261012c576104b6610e84565b6104be610e94565b6044358060010b810361012c57606435918260010b830361012c576000805160206111aa833981519152549360ff8560401c16159467ffffffffffffffff81168015908161065b575b6001149081610651575b159081610648575b506106375767ffffffffffffffff1981166001176000805160206111aa833981519152558561060a575b5061054c61113b565b61055461113b565b61055d3361108f565b6001549360d01b61ffff60d01b169361ffff60d01b199161ffff60a01b9060a01b169065ffffffffffff60a01b191617169061ffff60b01b9060b01b16179060c01b61ffff60c01b1617176001556105b157005b68ff0000000000000000196000805160206111aa83398151915254166000805160206111aa833981519152557fc7f505b2f371ae2175ee4913f4499e1f2633a7b5936321eed1cdaeb6115181d2602060405160018152a1005b68ffffffffffffffffff191668010000000000000001176000805160206111aa8339815191525585610543565b63f92ee8a960e01b60005260046000fd5b90501587610519565b303b159150610511565b879150610507565b3461012c57600036600319011261012c57602060015460d01c60010b604051908152f35b3461012c57600036600319011261012c5760008051602061118a833981519152546040516001600160a01b039091168152602090f35b3461012c57602036600319011261012c577f3eda8bb8d2e997700e220c062c04ff8e25da48db31c7ee1c2552c63668ae284d60206106f9610eb2565b610701611105565b600080546001600160a01b0319166001600160a01b03929092169182179055604051908152a1005b3461012c57602036600319011261012c577f01a3c02569192838f69d01f75ce99f198722ba42c619599c574b1933d9f4ed516020610765610eb2565b61076d611105565b600180546001600160a01b0319166001600160a01b03929092169182179055604051908152a1005b3461012c57600036600319011261012c576001546040516001600160a01b039091168152602090f35b3461012c57600036600319011261012c576107d7611105565b60008051602061118a83398151915280546001600160a01b031981169091556000906001600160a01b03167f8be0079c531659141344cd1fd0a4f28419497f9722a3daafe3b4186f6b6457e08280a3005b3461012c57604036600319011261012c57610841610eb2565b6001600160a01b031660009081526003602052604090208054602435919082101561012c5760409161087291610ec8565b50548151908060010b825260101c60010b6020820152f35b3461012c57608036600319011261012c576108a3610e84565b6108ab610e94565b6044356001600160a01b038116929083900361012c576064359061ffff821680920361012c5760015490610925906108ed336001600160a01b03851614610f4c565b60010b938260a01c60010b85121580610b3b575b61090a90610fb2565b60010b918060b01c60010b8312159081610b2a575b50610ffe565b60008381526002602090815260408083208484529091529020546001600160a01b0316610aed5760405161095881610ef6565b8481526020808201848152600086815260028352604080822086835284528082209451855493516001600160b01b03199094166001600160a01b039182161760a09490941b61ffff60a01b1693909317909455549251630a228fcb60e41b8152600481018690529283916024918391165afa908115610ae157600091610ab2575b50610a06575b9160609160008051602061116a8339815191529360405192835260208301526040820152a2005b9183600052600360205260406000209160405193610a2385610ef6565b8285526020850193818552805468010000000000000000811015610a9c57610a5091600182018155610ec8565b959095610a8657518554945160101b63ffff00001661ffff90911663ffffffff19909516949094179390931790935591906109df565b634e487b7160e01b600052600060045260246000fd5b634e487b7160e01b600052604160045260246000fd5b610ad4915060203d602011610ada575b610acc8183610f12565b81019061104a565b856109d9565b503d610ac2565b6040513d6000823e3d90fd5b60405162461bcd60e51b8152602060048201526015602482015274151a5b1948185b1c9958591e481bd8d8dd5c1a5959605a1b6044820152606490fd5b905060d01c60010b8213158661091f565b5060c083901c60010b851315610901565b3461012c57604036600319011261012c57610b65610e84565b610b6d610e94565b6001549091610bc190610b8a336001600160a01b03851614610f4c565b60010b928260a01c60010b84121580610e52575b610ba790610fb2565b60010b918060b01c60010b8312159081610e415750610ffe565b816000526002602052604060002081600052602052604060002060405190610be882610ef6565b5460018060a01b03811680835261ffff602084019260a01c16825215610dfc57602061ffff60018060a01b0360005416925116602460405180948193630a228fcb60e41b835260048301525afa908115610ae157600091610ddd575b50610c8b575b600060008051602061116a833981519152606085858185526002602052604085208186526020528460408120556040519182526020820152836040820152a2005b516001600160a01b03166000908152600360205260408120905b815480821015610dc05784610cba8385610ec8565b505460010b1480610da6575b610cd35750600101610ca5565b9192916000198101908111610d9057610cef610cf79185610ec8565b509184610ec8565b610a8657818103610d5c575b505081548015610d46576000190192610d1c8484610ec8565b929092610a865760009460008051602061116a833981519152948660609555555b92509250610c4a565b634e487b7160e01b600052603160045260246000fd5b8154815461ffff19811661ffff9092169182178355925463ffff00001663ffffffff19909316179190911790558380610d03565b634e487b7160e01b600052601160045260246000fd5b5083610db28385610ec8565b505460101c60010b14610cc6565b505050606060009260008051602061116a83398151915292610d3d565b610df6915060203d602011610ada57610acc8183610f12565b84610c44565b60405162461bcd60e51b815260206004820152601860248201527f4e6f206275696c64696e67206f6e20746869732074696c6500000000000000006044820152606490fd5b905060d01c60010b8213158461091f565b5060c083901c60010b841315610b9e565b3461012c57600036600319011261012c5760209060015460c01c60010b8152f35b600435908160010b820361012c57565b602435908160010b820361012c57565b35908160010b820361012c57565b600435906001600160a01b038216820361012c57565b8054821015610ee05760005260206000200190600090565b634e487b7160e01b600052603260045260246000fd5b6040810190811067ffffffffffffffff821117610a9c57604052565b90601f8019910116810190811067ffffffffffffffff821117610a9c57604052565b67ffffffffffffffff8111610a9c5760051b60200190565b15610f5357565b60405162461bcd60e51b815260206004820152603160248201527f4f6e6c7920636f6e737472756374696f6e20636f6e74726163742063616e206360448201527030b636103a3434b990333ab731ba34b7b760791b6064820152608490fd5b15610fb957565b60405162461bcd60e51b815260206004820152601a60248201527f5820636f6f7264696e617465206f7574206f6620626f756e64730000000000006044820152606490fd5b1561100557565b60405162461bcd60e51b815260206004820152601a60248201527f5920636f6f7264696e617465206f7574206f6620626f756e64730000000000006044820152606490fd5b9081602091031261012c5751801515810361012c5790565b6040519061106f82610ef6565b60006020838281520152565b8051821015610ee05760209160051b010190565b6001600160a01b031680156110ef5760008051602061118a83398151915280546001600160a01b0319811683179091556001600160a01b03167f8be0079c531659141344cd1fd0a4f28419497f9722a3daafe3b4186f6b6457e0600080a3565b631e4fbdf760e01b600052600060045260246000fd5b60008051602061118a833981519152546001600160a01b0316330361112657565b63118cdaa760e01b6000523360045260246000fd5b60ff6000805160206111aa8339815191525460401c161561115857565b631afcd79f60e31b60005260046000fdfe6df58bf922f5aecca29cc197257297640cbdd34d284647555c414be3d294e0a99016d09d72d40fdae2fd8ceac6b6234c7706214fd39c1cd1e609a0528c199300f0c57e16840df040f15088dc2f81fe391c3923bec73e23a9662efc9c229c6a00a264697066735822122035ea055219010efcc64c501b7949ebbd4d92ec1f4ad470da78b2ca4173fbfa4d64736f6c634300081c0033",
  "linkReferences": {},
  "deployedLinkReferences": {}
}