{
  "_format": "hh-sol-artifact-1",
  "contractName": "Battleground",
  "sourceName": "contracts/Battleground.sol",
  "abi": [
    {
      "inputs": [],
      "name": "InvalidInitialization",
      "type": "error"
    },
    {
      "inputs": [],
      "name": "NotInitializing",
      "type": "error"
    },
    {
      "inputs": [
        {
          "internalType": "address",
          "name": "owner",
          "type": "address"
        }
      ],
      "name": "OwnableInvalidOwner",
      "type": "error"
    },
    {
      "inputs": [
        {
          "internalType": "address",
          "name": "account",
          "type": "address"
        }
      ],
      "name": "OwnableUnauthorizedAccount",
      "type": "error"
    },
    {
      "anonymous": false,
      "inputs": [
        {
          "indexed": false,
          "internalType": "uint16",
          "name": "x",
          "type": "uint16"
        },
        {
          "indexed": false,
          "internalType": "uint16",
          "name": "y",
          "type": "uint16"
        },
        {
          "indexed": true,
          "internalType": "address",
          "name": "occupant",
          "type": "address"
        },
        {
          "indexed": false,
          "internalType": "uint16",
          "name": "buildingId",
          "type": "uint16"
        }
      ],
      "name": "BuildingPlaced",
      "type": "event"
    },
    {
      "anonymous": false,
      "inputs": [
        {
          "indexed": false,
          "internalType": "address",
          "name": "buildingsContract",
          "type": "address"
        }
      ],
      "name": "BuildingsContractSet",
      "type": "event"
    },
    {
      "anonymous": false,
      "inputs": [
        {
          "indexed": false,
          "internalType": "address",
          "name": "constructionContract",
          "type": "address"
        }
      ],
      "name": "ConstructionContractSet",
      "type": "event"
    },
    {
      "anonymous": false,
      "inputs": [
        {
          "indexed": false,
          "internalType": "uint64",
          "name": "version",
          "type": "uint64"
        }
      ],
      "name": "Initialized",
      "type": "event"
    },
    {
      "anonymous": false,
      "inputs": [
        {
          "indexed": true,
          "internalType": "address",
          "name": "previousOwner",
          "type": "address"
        },
        {
          "indexed": true,
          "internalType": "address",
          "name": "newOwner",
          "type": "address"
        }
      ],
      "name": "OwnershipTransferred",
      "type": "event"
    },
    {
      "inputs": [],
      "name": "buildingsContract",
      "outputs": [
        {
          "internalType": "contract IBuildings",
          "name": "",
          "type": "address"
        }
      ],
      "stateMutability": "view",
      "type": "function"
    },
    {
      "inputs": [],
      "name": "constructionContract",
      "outputs": [
        {
          "internalType": "address",
          "name": "",
          "type": "address"
        }
      ],
      "stateMutability": "view",
      "type": "function"
    },
    {
      "inputs": [
        {
          "internalType": "uint16",
          "name": "x",
          "type": "uint16"
        },
        {
          "internalType": "uint16",
          "name": "y",
          "type": "uint16"
        }
      ],
      "name": "getTile",
      "outputs": [
        {
          "components": [
            {
              "internalType": "address",
              "name": "occupant",
              "type": "address"
            },
            {
              "internalType": "uint16",
              "name": "buildingId",
              "type": "uint16"
            }
          ],
          "internalType": "struct Battleground.Tile",
          "name": "",
          "type": "tuple"
        }
      ],
      "stateMutability": "view",
      "type": "function"
    },
    {
      "inputs": [
        {
          "internalType": "address",
          "name": "user",
          "type": "address"
        }
      ],
      "name": "hasHeadquarters",
      "outputs": [
        {
          "internalType": "bool",
          "name": "",
          "type": "bool"
        }
      ],
      "stateMutability": "view",
      "type": "function"
    },
    {
      "inputs": [],
      "name": "height",
      "outputs": [
        {
          "internalType": "uint16",
          "name": "",
          "type": "uint16"
        }
      ],
      "stateMutability": "view",
      "type": "function"
    },
    {
      "inputs": [
        {
          "internalType": "uint16",
          "name": "_width",
          "type": "uint16"
        },
        {
          "internalType": "uint16",
          "name": "_height",
          "type": "uint16"
        }
      ],
      "name": "initialize",
      "outputs": [],
      "stateMutability": "nonpayable",
      "type": "function"
    },
    {
      "inputs": [],
      "name": "owner",
      "outputs": [
        {
          "internalType": "address",
          "name": "",
          "type": "address"
        }
      ],
      "stateMutability": "view",
      "type": "function"
    },
    {
      "inputs": [
        {
          "internalType": "uint16",
          "name": "x",
          "type": "uint16"
        },
        {
          "internalType": "uint16",
          "name": "y",
          "type": "uint16"
        },
        {
          "internalType": "address",
          "name": "occupant",
          "type": "address"
        },
        {
          "internalType": "uint16",
          "name": "buildingId",
          "type": "uint16"
        }
      ],
      "name": "placeBuilding",
      "outputs": [],
      "stateMutability": "nonpayable",
      "type": "function"
    },
    {
      "inputs": [
        {
          "internalType": "uint16",
          "name": "x",
          "type": "uint16"
        },
        {
          "internalType": "uint16",
          "name": "y",
          "type": "uint16"
        }
      ],
      "name": "removeBuilding",
      "outputs": [],
      "stateMutability": "nonpayable",
      "type": "function"
    },
    {
      "inputs": [],
      "name": "renounceOwnership",
      "outputs": [],
      "stateMutability": "nonpayable",
      "type": "function"
    },
    {
      "inputs": [
        {
          "internalType": "address",
          "name": "_buildingsContract",
          "type": "address"
        }
      ],
      "name": "setBuildingsContract",
      "outputs": [],
      "stateMutability": "nonpayable",
      "type": "function"
    },
    {
      "inputs": [
        {
          "internalType": "address",
          "name": "_constructionContract",
          "type": "address"
        }
      ],
      "name": "setConstructionContract",
      "outputs": [],
      "stateMutability": "nonpayable",
      "type": "function"
    },
    {
      "inputs": [
        {
          "internalType": "uint16",
          "name": "",
          "type": "uint16"
        },
        {
          "internalType": "uint16",
          "name": "",
          "type": "uint16"
        }
      ],
      "name": "tiles",
      "outputs": [
        {
          "internalType": "address",
          "name": "occupant",
          "type": "address"
        },
        {
          "internalType": "uint16",
          "name": "buildingId",
          "type": "uint16"
        }
      ],
      "stateMutability": "view",
      "type": "function"
    },
    {
      "inputs": [
        {
          "internalType": "address",
          "name": "newOwner",
          "type": "address"
        }
      ],
      "name": "transferOwnership",
      "outputs": [],
      "stateMutability": "nonpayable",
      "type": "function"
    },
    {
      "inputs": [
        {
          "internalType": "address",
          "name": "",
          "type": "address"
        },
        {
          "internalType": "uint256",
          "name": "",
          "type": "uint256"
        }
      ],
      "name": "userHeadquarters",
      "outputs": [
        {
          "internalType": "uint16",
          "name": "x",
          "type": "uint16"
        },
        {
          "internalType": "uint16",
          "name": "y",
          "type": "uint16"
        }
      ],
      "stateMutability": "view",
      "type": "function"
    },
    {
      "inputs": [],
      "name": "width",
      "outputs": [
        {
          "internalType": "uint16",
          "name": "",
          "type": "uint16"
        }
      ],
      "stateMutability": "view",
      "type": "function"
    }
  ],
  "bytecode": "0x60808060405234601557610ea9908161001b8239f35b600080fdfe608080604052600436101561001357600080fd5b60003560e01c9081630ef2674314610b5d5750806325181bd214610ace578063271d34e0146108945780632dc936e2146108335780633c84b5d3146106a65780636398072414610644578063715018a6146105da57806376fa283f146105b157806377b9a7a71461054557806377f19a8f146104d95780638da5cb5b146104a35780639ededf771461047e578063a8b6837614610455578063c64bb4d81461013b578063f2fde38b146101105763f7625ef0146100cf57600080fd5b3461010b57602036600319011261010b576001600160a01b036100f0610ba1565b16600052600360205260206040600020541515604051908152f35b600080fd5b3461010b57602036600319011261010b5761013961012c610ba1565b610134610daf565b610d39565b005b3461010b57604036600319011261010b57610154610b7f565b61015c610b90565b9061019b61ffff80806001549461017c60018060a01b0387163314610c23565b169461018e828660a01c168710610c89565b169260b01c168210610cd5565b8160005260026020526040600020816000526020526040600020604051906101c282610be5565b5460018060a01b03811680835261ffff602084019260a01c1682521561041057602061ffff60018060a01b0360005416925116602460405180948193630a228fcb60e41b835260048301525afa908115610404576000916103d5575b50610265575b6000600080516020610e34833981519152606085858185526002602052604085208186526020528460408120556040519182526020820152836040820152a2005b516001600160a01b03166000908152600360205260408120905b8154808210156103b8578461ffff6102978486610bb7565b505416148061039d575b6102ae575060010161027f565b9192916000198101908111610387576102ca6102d29185610bb7565b509184610bb7565b6103215781810361034d575b5050815480156103375760001901926102f78484610bb7565b92909261032157600094600080516020610e34833981519152948660609555555b92509250610224565b634e487b7160e01b600052600060045260246000fd5b634e487b7160e01b600052603160045260246000fd5b61ffff8281806103809554161682198454161783555460101c1663ffff000082549160101b169063ffff00001916179055565b83806102de565b634e487b7160e01b600052601160045260246000fd5b508361ffff6103ac8486610bb7565b505460101c16146102a1565b5050506060600092600080516020610e3483398151915292610318565b6103f7915060203d6020116103fd575b6103ef8183610c01565b810190610d21565b8461021e565b503d6103e5565b6040513d6000823e3d90fd5b60405162461bcd60e51b815260206004820152601860248201527f4e6f206275696c64696e67206f6e20746869732074696c6500000000000000006044820152606490fd5b3461010b57600036600319011261010b576000546040516001600160a01b039091168152602090f35b3461010b57600036600319011261010b57602061ffff60015460a01c16604051908152f35b3461010b57600036600319011261010b57600080516020610e14833981519152546040516001600160a01b039091168152602090f35b3461010b57602036600319011261010b577f3eda8bb8d2e997700e220c062c04ff8e25da48db31c7ee1c2552c63668ae284d6020610515610ba1565b61051d610daf565b600080546001600160a01b0319166001600160a01b03929092169182179055604051908152a1005b3461010b57602036600319011261010b577f01a3c02569192838f69d01f75ce99f198722ba42c619599c574b1933d9f4ed516020610581610ba1565b610589610daf565b600180546001600160a01b0319166001600160a01b03929092169182179055604051908152a1005b3461010b57600036600319011261010b576001546040516001600160a01b039091168152602090f35b3461010b57600036600319011261010b576105f3610daf565b600080516020610e1483398151915280546001600160a01b031981169091556000906001600160a01b03167f8be0079c531659141344cd1fd0a4f28419497f9722a3daafe3b4186f6b6457e08280a3005b3461010b57604036600319011261010b5761065d610ba1565b6001600160a01b031660009081526003602052604090208054602435919082101561010b5760409161068e91610bb7565b505461ffff825191818116835260101c166020820152f35b3461010b57604036600319011261010b576106bf610b7f565b6106c7610b90565b90600080516020610e54833981519152549160ff8360401c16159267ffffffffffffffff81168015908161082b575b6001149081610821575b159081610818575b506108075767ffffffffffffffff198116600117600080516020610e5483398151915255836107da575b5061073b610de5565b610743610de5565b61074c33610d39565b6001805463ffffffff60a01b191660a09390931b61ffff60a01b169290921760b09190911b61ffff60b01b1617905561078157005b68ff000000000000000019600080516020610e548339815191525416600080516020610e54833981519152557fc7f505b2f371ae2175ee4913f4499e1f2633a7b5936321eed1cdaeb6115181d2602060405160018152a1005b68ffffffffffffffffff19166801000000000000000117600080516020610e548339815191525583610732565b63f92ee8a960e01b60005260046000fd5b90501585610708565b303b159150610700565b8591506106f6565b3461010b57604036600319011261010b5761084c610b7f565b61ffff610857610b90565b9116600052600260205261ffff604060002091166000526020526040806000205461ffff82519160018060a01b038116835260a01c166020820152f35b3461010b57608036600319011261010b576108ad610b7f565b6108b5610b90565b6044356001600160a01b03811692919083900361010b576064359161ffff831680930361010b576108fb61ffff80806001549461017c60018060a01b0387163314610c23565b60008281526002602090815260408083208484529091529020546001600160a01b0316610a915760405161092e81610be5565b8481526020808201858152600085815260028352604080822086835284528082209451855493516001600160b01b03199094166001600160a01b039182161760a09490941b61ffff60a01b1693909317909455549251630a228fcb60e41b8152600481018790529283916024918391165afa90811561040457600091610a72575b506109dc575b90600080516020610e348339815191529260609260405192835260208301526040820152a2005b90836000526003602052604060002092604051926109f984610be5565b8284526020840194818652805468010000000000000000811015610a5c57610a2691600182018155610bb7565b9590956103215793518554945163ffffffff1990951661ffff9091161760109490941b63ffff00001693909317909355906109b5565b634e487b7160e01b600052604160045260246000fd5b610a8b915060203d6020116103fd576103ef8183610c01565b856109af565b60405162461bcd60e51b8152602060048201526015602482015274151a5b1948185b1c9958591e481bd8d8dd5c1a5959605a1b6044820152606490fd5b3461010b57604036600319011261010b57610ae7610b7f565b61ffff610af2610b90565b9160006020604051610b0381610be5565b828152015216600052600260205261ffff6040600020911660005260205260408060002061ffff825191610b3683610be5565b5481602060018060a01b03831694858152019160a01c168152835192835251166020820152f35b3461010b57600036600319011261010b5760209061ffff60015460b01c168152f35b6004359061ffff8216820361010b57565b6024359061ffff8216820361010b57565b600435906001600160a01b038216820361010b57565b8054821015610bcf5760005260206000200190600090565b634e487b7160e01b600052603260045260246000fd5b6040810190811067ffffffffffffffff821117610a5c57604052565b90601f8019910116810190811067ffffffffffffffff821117610a5c57604052565b15610c2a57565b60405162461bcd60e51b815260206004820152603160248201527f4f6e6c7920636f6e737472756374696f6e20636f6e74726163742063616e206360448201527030b636103a3434b990333ab731ba34b7b760791b6064820152608490fd5b15610c9057565b60405162461bcd60e51b815260206004820152601a60248201527f5820636f6f7264696e617465206f7574206f6620626f756e64730000000000006044820152606490fd5b15610cdc57565b60405162461bcd60e51b815260206004820152601a60248201527f5920636f6f7264696e617465206f7574206f6620626f756e64730000000000006044820152606490fd5b9081602091031261010b5751801515810361010b5790565b6001600160a01b03168015610d9957600080516020610e1483398151915280546001600160a01b0319811683179091556001600160a01b03167f8be0079c531659141344cd1fd0a4f28419497f9722a3daafe3b4186f6b6457e0600080a3565b631e4fbdf760e01b600052600060045260246000fd5b600080516020610e14833981519152546001600160a01b03163303610dd057565b63118cdaa760e01b6000523360045260246000fd5b60ff600080516020610e548339815191525460401c1615610e0257565b631afcd79f60e31b60005260046000fdfe9016d09d72d40fdae2fd8ceac6b6234c7706214fd39c1cd1e609a0528c199300f726ff0ca6cf7dd1ff7fc82898695b17e76c02cbb345abd7b396658b9b142febf0c57e16840df040f15088dc2f81fe391c3923bec73e23a9662efc9c229c6a00a2646970667358221220bf0f8fb74e9316f1ecc6bca5fed47b047b8d29f14599fd56c75c0e7fdd9efeb464736f6c634300081c0033",
  "linkReferences": {},
  "deployedLinkReferences": {}
}