{
  "_format": "hh-sol-artifact-1",
  "contractName": "Battleground",
  "sourceName": "contracts/Battleground.sol",
  "abi": [
    {
      "inputs": [],
      "name": "InvalidInitialization",
      "type": "error"
    },
    {
      "inputs": [],
      "name": "NotInitializing",
      "type": "error"
    },
    {
      "inputs": [
        {
          "internalType": "address",
          "name": "owner",
          "type": "address"
        }
      ],
      "name": "OwnableInvalidOwner",
      "type": "error"
    },
    {
      "inputs": [
        {
          "internalType": "address",
          "name": "account",
          "type": "address"
        }
      ],
      "name": "OwnableUnauthorizedAccount",
      "type": "error"
    },
    {
      "anonymous": false,
      "inputs": [
        {
          "indexed": false,
          "internalType": "int16",
          "name": "x",
          "type": "int16"
        },
        {
          "indexed": false,
          "internalType": "int16",
          "name": "y",
          "type": "int16"
        },
        {
          "indexed": true,
          "internalType": "address",
          "name": "owner",
          "type": "address"
        },
        {
          "indexed": false,
          "internalType": "uint16",
          "name": "buildingId",
          "type": "uint16"
        }
      ],
      "name": "BuildingPlaced",
      "type": "event"
    },
    {
      "anonymous": false,
      "inputs": [
        {
          "indexed": false,
          "internalType": "address",
          "name": "buildingsContract",
          "type": "address"
        }
      ],
      "name": "BuildingsContractSet",
      "type": "event"
    },
    {
      "anonymous": false,
      "inputs": [
        {
          "indexed": false,
          "internalType": "address",
          "name": "constructionContract",
          "type": "address"
        }
      ],
      "name": "ConstructionContractSet",
      "type": "event"
    },
    {
      "anonymous": false,
      "inputs": [
        {
          "indexed": false,
          "internalType": "uint64",
          "name": "version",
          "type": "uint64"
        }
      ],
      "name": "Initialized",
      "type": "event"
    },
    {
      "anonymous": false,
      "inputs": [
        {
          "indexed": true,
          "internalType": "address",
          "name": "previousOwner",
          "type": "address"
        },
        {
          "indexed": true,
          "internalType": "address",
          "name": "newOwner",
          "type": "address"
        }
      ],
      "name": "OwnershipTransferred",
      "type": "event"
    },
    {
      "inputs": [],
      "name": "buildingsContract",
      "outputs": [
        {
          "internalType": "contract IBuildings",
          "name": "",
          "type": "address"
        }
      ],
      "stateMutability": "view",
      "type": "function"
    },
    {
      "inputs": [],
      "name": "constructionContract",
      "outputs": [
        {
          "internalType": "address",
          "name": "",
          "type": "address"
        }
      ],
      "stateMutability": "view",
      "type": "function"
    },
    {
      "inputs": [
        {
          "internalType": "int16",
          "name": "x",
          "type": "int16"
        },
        {
          "internalType": "int16",
          "name": "y",
          "type": "int16"
        }
      ],
      "name": "getTile",
      "outputs": [
        {
          "components": [
            {
              "internalType": "address",
              "name": "owner",
              "type": "address"
            },
            {
              "internalType": "uint16",
              "name": "buildingId",
              "type": "uint16"
            }
          ],
          "internalType": "struct Battleground.Tile",
          "name": "",
          "type": "tuple"
        }
      ],
      "stateMutability": "view",
      "type": "function"
    },
    {
      "inputs": [
        {
          "components": [
            {
              "internalType": "int16",
              "name": "x",
              "type": "int16"
            },
            {
              "internalType": "int16",
              "name": "y",
              "type": "int16"
            }
          ],
          "internalType": "struct Battleground.Coordinates[]",
          "name": "coordinates",
          "type": "tuple[]"
        }
      ],
      "name": "getTiles",
      "outputs": [
        {
          "components": [
            {
              "internalType": "address",
              "name": "owner",
              "type": "address"
            },
            {
              "internalType": "uint16",
              "name": "buildingId",
              "type": "uint16"
            }
          ],
          "internalType": "struct Battleground.Tile[]",
          "name": "",
          "type": "tuple[]"
        }
      ],
      "stateMutability": "view",
      "type": "function"
    },
    {
      "inputs": [
        {
          "internalType": "address",
          "name": "user",
          "type": "address"
        }
      ],
      "name": "hasHeadquarters",
      "outputs": [
        {
          "internalType": "bool",
          "name": "",
          "type": "bool"
        }
      ],
      "stateMutability": "view",
      "type": "function"
    },
    {
      "inputs": [
        {
          "internalType": "int16",
          "name": "_minTileX",
          "type": "int16"
        },
        {
          "internalType": "int16",
          "name": "_minTileY",
          "type": "int16"
        },
        {
          "internalType": "int16",
          "name": "_maxTileX",
          "type": "int16"
        },
        {
          "internalType": "int16",
          "name": "_maxTileY",
          "type": "int16"
        }
      ],
      "name": "initialize",
      "outputs": [],
      "stateMutability": "nonpayable",
      "type": "function"
    },
    {
      "inputs": [],
      "name": "maxTileX",
      "outputs": [
        {
          "internalType": "int16",
          "name": "",
          "type": "int16"
        }
      ],
      "stateMutability": "view",
      "type": "function"
    },
    {
      "inputs": [],
      "name": "maxTileY",
      "outputs": [
        {
          "internalType": "int16",
          "name": "",
          "type": "int16"
        }
      ],
      "stateMutability": "view",
      "type": "function"
    },
    {
      "inputs": [],
      "name": "minTileX",
      "outputs": [
        {
          "internalType": "int16",
          "name": "",
          "type": "int16"
        }
      ],
      "stateMutability": "view",
      "type": "function"
    },
    {
      "inputs": [],
      "name": "minTileY",
      "outputs": [
        {
          "internalType": "int16",
          "name": "",
          "type": "int16"
        }
      ],
      "stateMutability": "view",
      "type": "function"
    },
    {
      "inputs": [],
      "name": "owner",
      "outputs": [
        {
          "internalType": "address",
          "name": "",
          "type": "address"
        }
      ],
      "stateMutability": "view",
      "type": "function"
    },
    {
      "inputs": [
        {
          "internalType": "int16",
          "name": "x",
          "type": "int16"
        },
        {
          "internalType": "int16",
          "name": "y",
          "type": "int16"
        },
        {
          "internalType": "address",
          "name": "newOwner",
          "type": "address"
        },
        {
          "internalType": "uint16",
          "name": "buildingId",
          "type": "uint16"
        }
      ],
      "name": "placeBuilding",
      "outputs": [],
      "stateMutability": "nonpayable",
      "type": "function"
    },
    {
      "inputs": [
        {
          "internalType": "int16",
          "name": "x",
          "type": "int16"
        },
        {
          "internalType": "int16",
          "name": "y",
          "type": "int16"
        }
      ],
      "name": "removeBuilding",
      "outputs": [],
      "stateMutability": "nonpayable",
      "type": "function"
    },
    {
      "inputs": [],
      "name": "renounceOwnership",
      "outputs": [],
      "stateMutability": "nonpayable",
      "type": "function"
    },
    {
      "inputs": [
        {
          "internalType": "address",
          "name": "_buildingsContract",
          "type": "address"
        }
      ],
      "name": "setBuildingsContract",
      "outputs": [],
      "stateMutability": "nonpayable",
      "type": "function"
    },
    {
      "inputs": [
        {
          "internalType": "address",
          "name": "_constructionContract",
          "type": "address"
        }
      ],
      "name": "setConstructionContract",
      "outputs": [],
      "stateMutability": "nonpayable",
      "type": "function"
    },
    {
      "inputs": [
        {
          "internalType": "int16",
          "name": "",
          "type": "int16"
        },
        {
          "internalType": "int16",
          "name": "",
          "type": "int16"
        }
      ],
      "name": "tiles",
      "outputs": [
        {
          "internalType": "address",
          "name": "owner",
          "type": "address"
        },
        {
          "internalType": "uint16",
          "name": "buildingId",
          "type": "uint16"
        }
      ],
      "stateMutability": "view",
      "type": "function"
    },
    {
      "inputs": [
        {
          "internalType": "address",
          "name": "newOwner",
          "type": "address"
        }
      ],
      "name": "transferOwnership",
      "outputs": [],
      "stateMutability": "nonpayable",
      "type": "function"
    },
    {
      "inputs": [
        {
          "internalType": "address",
          "name": "",
          "type": "address"
        },
        {
          "internalType": "uint256",
          "name": "",
          "type": "uint256"
        }
      ],
      "name": "userHeadquarters",
      "outputs": [
        {
          "internalType": "int16",
          "name": "x",
          "type": "int16"
        },
        {
          "internalType": "int16",
          "name": "y",
          "type": "int16"
        }
      ],
      "stateMutability": "view",
      "type": "function"
    }
  ],
  "bytecode": "0x608080604052346015576112da908161001b8239f35b600080fdfe608080604052600436101561001357600080fd5b60003560e01c9081631cf89f7914610e18575080632b20e12314610c6457806348f6da1c1461088a5780636398072414610828578063715018a6146107be57806376fa283f1461079557806377b9a7a71461072957806377f19a8f146106bd5780638da5cb5b146106875780638ec8b2d7146106635780638ecb9f121461049d578063a6c0d3d014610479578063a8b6837614610450578063ade2e2da1461042c578063bf6f5b4e14610248578063d4083544146101e9578063dcc01f0f1461015c578063f2fde38b146101315763f7625ef0146100f057600080fd5b3461012c57602036600319011261012c576001600160a01b03610111610e67565b16600052600360205260206040600020541515604051908152f35b600080fd5b3461012c57602036600319011261012c5761015a61014d610e67565b610155611200565b610ff8565b005b3461012c57604036600319011261012c57610175610e39565b61017d610e49565b90610186610fcb565b5060010b600052600260205260406000209060010b60005260205260408060002061ffff8251916101b683610eab565b546001600160a01b03811680845260a09190911c91909116602092830190815283519182525161ffff1691810191909152f35b3461012c57604036600319011261012c57610202610e39565b61020a610e49565b9060010b600052600260205260406000209060010b6000526020526040806000205461ffff82519160018060a01b038116835260a01c166020820152f35b3461012c57602036600319011261012c5760043567ffffffffffffffff811161012c573660238201121561012c57806004013561028481610ee9565b916102926040519384610ec7565b8183526024602084019260061b8201019036821161012c57602401915b8183106103ed578380516102c281610ee9565b916102d06040519384610ec7565b818352601f196102df83610ee9565b0160005b8181106103c857505060005b828110610355578360405180916020820160208352815180915260206040840192019060005b818110610323575050500390f35b825180516001600160a01b0316855260209081015161ffff168186015286955060409094019390920191600101610315565b80604061036460019385610fe4565b518051840b6000526002602052602082600020910151840b90600091850b82526020522061ffff6040519161039883610eab565b54848060a01b038116835260a01c1660208201526103b68287610fe4565b526103c18186610fe4565b50016102ef565b6020906040516103d781610eab565b60008152600083820152828288010152016102e3565b60408336031261012c576020604091825161040781610eab565b61041086610e59565b815261041d838701610e59565b838201528152019201916102af565b3461012c57600036600319011261012c57602060015460a01c60010b604051908152f35b3461012c57600036600319011261012c576000546040516001600160a01b039091168152602090f35b3461012c57600036600319011261012c57602060015460b01c60010b604051908152f35b3461012c57608036600319011261012c576104b6610e39565b6104be610e49565b6044358060010b810361012c57606435918260010b830361012c57600080516020611285833981519152549360ff8560401c16159467ffffffffffffffff81168015908161065b575b6001149081610651575b159081610648575b506106375767ffffffffffffffff198116600117600080516020611285833981519152558561060a575b5061054c611236565b610554611236565b61055d33610ff8565b6001549360d01b61ffff60d01b169361ffff60d01b199161ffff60a01b9060a01b169065ffffffffffff60a01b191617169061ffff60b01b9060b01b16179060c01b61ffff60c01b1617176001556105b157005b68ff0000000000000000196000805160206112858339815191525416600080516020611285833981519152557fc7f505b2f371ae2175ee4913f4499e1f2633a7b5936321eed1cdaeb6115181d2602060405160018152a1005b68ffffffffffffffffff191668010000000000000001176000805160206112858339815191525585610543565b63f92ee8a960e01b60005260046000fd5b90501587610519565b303b159150610511565b879150610507565b3461012c57600036600319011261012c57602060015460d01c60010b604051908152f35b3461012c57600036600319011261012c57600080516020611265833981519152546040516001600160a01b039091168152602090f35b3461012c57602036600319011261012c577f3eda8bb8d2e997700e220c062c04ff8e25da48db31c7ee1c2552c63668ae284d60206106f9610e67565b610701611200565b600080546001600160a01b0319166001600160a01b03929092169182179055604051908152a1005b3461012c57602036600319011261012c577f01a3c02569192838f69d01f75ce99f198722ba42c619599c574b1933d9f4ed516020610765610e67565b61076d611200565b600180546001600160a01b0319166001600160a01b03929092169182179055604051908152a1005b3461012c57600036600319011261012c576001546040516001600160a01b039091168152602090f35b3461012c57600036600319011261012c576107d7611200565b60008051602061126583398151915280546001600160a01b031981169091556000906001600160a01b03167f8be0079c531659141344cd1fd0a4f28419497f9722a3daafe3b4186f6b6457e08280a3005b3461012c57604036600319011261012c57610841610e67565b6001600160a01b031660009081526003602052604090208054602435919082101561012c5760409161087291610e7d565b50548151908060010b825260101c60010b6020820152f35b3461012c57608036600319011261012c576108a3610e39565b6108ab610e49565b6044356001600160a01b03811692919083900361012c576064359061ffff821680920361012c576108e760018060a01b03600154163314610f01565b8315610c20576108ff6108fa828561106e565b610f67565b8260010b9283600052600260205260406000208260010b6000526020526040600020906040519161092f83610eab565b549060018060a01b03821680845261ffff602085019360a01c168352878115918215610c16575b505015610bc357825184926001600160a01b0390911615159081610b58575b50610b3b575b50505060405161098a81610eab565b84815260208082018481526000868152600283526040808220600187900b835284528082209451855493516001600160b01b03199094166001600160a01b039182161760a09490941b61ffff60a01b1693909317909455549251630a228fcb60e41b8152600481018690529283916024918391165afa908115610b2f57600091610b00575b50610a51575b916060917f6df58bf922f5aecca29cc197257297640cbdd34d284647555c414be3d294e0a99360405192835260010b60208301526040820152a2005b9183600052600360205260406000209160405193610a6e85610eab565b82855260208501938160010b8552805468010000000000000000811015610aea57610a9e91600182018155610e7d565b959095610ad457518554945160101b63ffff00001661ffff90911663ffffffff1990951694909417939093179093559190610a15565b634e487b7160e01b600052600060045260246000fd5b634e487b7160e01b600052604160045260246000fd5b610b22915060203d602011610b28575b610b1a8183610ec7565b810190610fb3565b85610a0f565b503d610b10565b6040513d6000823e3d90fd5b9151610b5092906001600160a01b03166110d2565b84818161097b565b6000549051604051630a228fcb60e41b815261ffff9091166004820152935060209150839060249082906001600160a01b03165afa8015610b2f578492600091610ba4575b5088610975565b610bbd915060203d602011610b2857610b1a8183610ec7565b88610b9d565b60405162461bcd60e51b815260206004820152602560248201527f54696c6520616c7265616479206f6363757069656420627920616e6f74686572604482015264103ab9b2b960d91b6064820152608490fd5b1490508789610956565b606460405162461bcd60e51b815260206004820152602060248201527f4e6577206f776e65722063616e6e6f74206265207a65726f20616464726573736044820152fd5b3461012c57604036600319011261012c57610c7d610e39565b610c85610e49565b90610c9b60018060a01b03600154163314610f01565b610ca86108fa838361106e565b8060010b80600052600260205260406000208360010b60005260205260406000209060405191610cd783610eab565b549360018060a01b03851680845261ffff602085019660a01c16865215610dd357602061ffff60018060a01b0360005416965116602460405180988193630a228fcb60e41b835260048301525afa928315610b2f57817f6df58bf922f5aecca29cc197257297640cbdd34d284647555c414be3d294e0a9956060956000988991610db4575b50610d97575b5050508185526002602052604085208160010b865260205284604081205560405191825260010b6020820152836040820152a2005b9151610dac92906001600160a01b03166110d2565b858181610d62565b610dcd915060203d602011610b2857610b1a8183610ec7565b89610d5c565b60405162461bcd60e51b815260206004820152601860248201527f4e6f206275696c64696e67206f6e20746869732074696c6500000000000000006044820152606490fd5b3461012c57600036600319011261012c5760209060015460c01c60010b8152f35b600435908160010b820361012c57565b602435908160010b820361012c57565b35908160010b820361012c57565b600435906001600160a01b038216820361012c57565b8054821015610e955760005260206000200190600090565b634e487b7160e01b600052603260045260246000fd5b6040810190811067ffffffffffffffff821117610aea57604052565b90601f8019910116810190811067ffffffffffffffff821117610aea57604052565b67ffffffffffffffff8111610aea5760051b60200190565b15610f0857565b60405162461bcd60e51b815260206004820152603160248201527f4f6e6c7920636f6e737472756374696f6e20636f6e74726163742063616e206360448201527030b636103a3434b990333ab731ba34b7b760791b6064820152608490fd5b15610f6e57565b60405162461bcd60e51b815260206004820152601960248201527f436f6f7264696e61746573206f7574206f6620626f756e6473000000000000006044820152606490fd5b9081602091031261012c5751801515810361012c5790565b60405190610fd882610eab565b60006020838281520152565b8051821015610e955760209160051b010190565b6001600160a01b031680156110585760008051602061126583398151915280546001600160a01b0319811683179091556001600160a01b03167f8be0079c531659141344cd1fd0a4f28419497f9722a3daafe3b4186f6b6457e0600080a3565b631e4fbdf760e01b600052600060045260246000fd5b906001549160010b918060a01c60010b83121592836110c0575b50826110ab575b8261109957505090565b90915060d01c60010b9060010b131590565b80925060b01c60010b8160010b12159161108f565b60c082901c60010b1215925038611088565b6001600160a01b03166000908152600360205260408120805492939092915b828110611100575b5050505050565b61110a8185610e7d565b505460010b8560010b14806111e3575b611126576001016110f1565b9293505060001981019081116111cd5761114361114b9184610e7d565b509183610e7d565b610ad457818103611199575b5050805480156111835760001901906111708282610e7d565b610ad457600090555538808080806110f9565b634e487b7160e01b600052603160045260246000fd5b8154815461ffff19811661ffff9092169182178355925463ffff00001663ffffffff19909316179190911790553880611157565b634e487b7160e01b600052601160045260246000fd5b506111ee8185610e7d565b505460101c60010b8260010b1461111a565b600080516020611265833981519152546001600160a01b0316330361122157565b63118cdaa760e01b6000523360045260246000fd5b60ff6000805160206112858339815191525460401c161561125357565b631afcd79f60e31b60005260046000fdfe9016d09d72d40fdae2fd8ceac6b6234c7706214fd39c1cd1e609a0528c199300f0c57e16840df040f15088dc2f81fe391c3923bec73e23a9662efc9c229c6a00a2646970667358221220d64cc4b3c260a4a5576bbabc505629802d107094f63ce4cbdcf44e3cc2e1ca4364736f6c634300081c0033",
  "linkReferences": {},
  "deployedLinkReferences": {}
}