{
  "_format": "hh-sol-artifact-1",
  "contractName": "Battleground",
  "sourceName": "contracts/core/Battleground.sol",
  "abi": [
    {
      "inputs": [],
      "name": "InvalidInitialization",
      "type": "error"
    },
    {
      "inputs": [],
      "name": "NotInitializing",
      "type": "error"
    },
    {
      "inputs": [
        {
          "internalType": "address",
          "name": "owner",
          "type": "address"
        }
      ],
      "name": "OwnableInvalidOwner",
      "type": "error"
    },
    {
      "inputs": [
        {
          "internalType": "address",
          "name": "account",
          "type": "address"
        }
      ],
      "name": "OwnableUnauthorizedAccount",
      "type": "error"
    },
    {
      "anonymous": false,
      "inputs": [
        {
          "indexed": false,
          "internalType": "uint64",
          "name": "version",
          "type": "uint64"
        }
      ],
      "name": "Initialized",
      "type": "event"
    },
    {
      "anonymous": false,
      "inputs": [
        {
          "indexed": true,
          "internalType": "address",
          "name": "operator",
          "type": "address"
        }
      ],
      "name": "OperatorAdded",
      "type": "event"
    },
    {
      "anonymous": false,
      "inputs": [
        {
          "indexed": true,
          "internalType": "address",
          "name": "operator",
          "type": "address"
        }
      ],
      "name": "OperatorRemoved",
      "type": "event"
    },
    {
      "anonymous": false,
      "inputs": [
        {
          "indexed": true,
          "internalType": "address",
          "name": "previousOwner",
          "type": "address"
        },
        {
          "indexed": true,
          "internalType": "address",
          "name": "newOwner",
          "type": "address"
        }
      ],
      "name": "OwnershipTransferred",
      "type": "event"
    },
    {
      "anonymous": false,
      "inputs": [
        {
          "components": [
            {
              "internalType": "int16",
              "name": "x",
              "type": "int16"
            },
            {
              "internalType": "int16",
              "name": "y",
              "type": "int16"
            }
          ],
          "indexed": false,
          "internalType": "struct IBattleground.Coordinates",
          "name": "coordinates",
          "type": "tuple"
        },
        {
          "components": [
            {
              "internalType": "address",
              "name": "occupant",
              "type": "address"
            },
            {
              "internalType": "uint16",
              "name": "buildingId",
              "type": "uint16"
            },
            {
              "components": [
                {
                  "internalType": "uint16",
                  "name": "unitId",
                  "type": "uint16"
                },
                {
                  "internalType": "uint16",
                  "name": "quantity",
                  "type": "uint16"
                }
              ],
              "internalType": "struct UnitQuantityLib.UnitQuantity[]",
              "name": "units",
              "type": "tuple[]"
            },
            {
              "components": [
                {
                  "internalType": "enum TokenAmountLib.TokenType",
                  "name": "tokenType",
                  "type": "uint8"
                },
                {
                  "internalType": "address",
                  "name": "tokenAddress",
                  "type": "address"
                },
                {
                  "internalType": "uint256",
                  "name": "tokenId",
                  "type": "uint256"
                },
                {
                  "internalType": "uint256",
                  "name": "amount",
                  "type": "uint256"
                }
              ],
              "internalType": "struct TokenAmountLib.TokenAmount[]",
              "name": "loot",
              "type": "tuple[]"
            }
          ],
          "indexed": false,
          "internalType": "struct IBattleground.Tile",
          "name": "tile",
          "type": "tuple"
        }
      ],
      "name": "TileUpdated",
      "type": "event"
    },
    {
      "inputs": [
        {
          "internalType": "address[]",
          "name": "_operators",
          "type": "address[]"
        }
      ],
      "name": "addOperators",
      "outputs": [],
      "stateMutability": "nonpayable",
      "type": "function"
    },
    {
      "inputs": [],
      "name": "buildingManager",
      "outputs": [
        {
          "internalType": "contract IBuildingManager",
          "name": "",
          "type": "address"
        }
      ],
      "stateMutability": "view",
      "type": "function"
    },
    {
      "inputs": [
        {
          "components": [
            {
              "internalType": "int16",
              "name": "x",
              "type": "int16"
            },
            {
              "internalType": "int16",
              "name": "y",
              "type": "int16"
            }
          ],
          "internalType": "struct IBattleground.Coordinates",
          "name": "coordinates",
          "type": "tuple"
        }
      ],
      "name": "collectLoot",
      "outputs": [],
      "stateMutability": "nonpayable",
      "type": "function"
    },
    {
      "inputs": [
        {
          "components": [
            {
              "internalType": "int16",
              "name": "x",
              "type": "int16"
            },
            {
              "internalType": "int16",
              "name": "y",
              "type": "int16"
            }
          ],
          "internalType": "struct IBattleground.Coordinates",
          "name": "coordinates",
          "type": "tuple"
        }
      ],
      "name": "getTile",
      "outputs": [
        {
          "components": [
            {
              "internalType": "address",
              "name": "occupant",
              "type": "address"
            },
            {
              "internalType": "uint16",
              "name": "buildingId",
              "type": "uint16"
            },
            {
              "components": [
                {
                  "internalType": "uint16",
                  "name": "unitId",
                  "type": "uint16"
                },
                {
                  "internalType": "uint16",
                  "name": "quantity",
                  "type": "uint16"
                }
              ],
              "internalType": "struct UnitQuantityLib.UnitQuantity[]",
              "name": "units",
              "type": "tuple[]"
            },
            {
              "components": [
                {
                  "internalType": "enum TokenAmountLib.TokenType",
                  "name": "tokenType",
                  "type": "uint8"
                },
                {
                  "internalType": "address",
                  "name": "tokenAddress",
                  "type": "address"
                },
                {
                  "internalType": "uint256",
                  "name": "tokenId",
                  "type": "uint256"
                },
                {
                  "internalType": "uint256",
                  "name": "amount",
                  "type": "uint256"
                }
              ],
              "internalType": "struct TokenAmountLib.TokenAmount[]",
              "name": "loot",
              "type": "tuple[]"
            }
          ],
          "internalType": "struct IBattleground.Tile",
          "name": "",
          "type": "tuple"
        }
      ],
      "stateMutability": "view",
      "type": "function"
    },
    {
      "inputs": [
        {
          "components": [
            {
              "internalType": "int16",
              "name": "x",
              "type": "int16"
            },
            {
              "internalType": "int16",
              "name": "y",
              "type": "int16"
            }
          ],
          "internalType": "struct IBattleground.Coordinates[]",
          "name": "coordinates",
          "type": "tuple[]"
        }
      ],
      "name": "getTiles",
      "outputs": [
        {
          "components": [
            {
              "internalType": "address",
              "name": "occupant",
              "type": "address"
            },
            {
              "internalType": "uint16",
              "name": "buildingId",
              "type": "uint16"
            },
            {
              "components": [
                {
                  "internalType": "uint16",
                  "name": "unitId",
                  "type": "uint16"
                },
                {
                  "internalType": "uint16",
                  "name": "quantity",
                  "type": "uint16"
                }
              ],
              "internalType": "struct UnitQuantityLib.UnitQuantity[]",
              "name": "units",
              "type": "tuple[]"
            },
            {
              "components": [
                {
                  "internalType": "enum TokenAmountLib.TokenType",
                  "name": "tokenType",
                  "type": "uint8"
                },
                {
                  "internalType": "address",
                  "name": "tokenAddress",
                  "type": "address"
                },
                {
                  "internalType": "uint256",
                  "name": "tokenId",
                  "type": "uint256"
                },
                {
                  "internalType": "uint256",
                  "name": "amount",
                  "type": "uint256"
                }
              ],
              "internalType": "struct TokenAmountLib.TokenAmount[]",
              "name": "loot",
              "type": "tuple[]"
            }
          ],
          "internalType": "struct IBattleground.Tile[]",
          "name": "",
          "type": "tuple[]"
        }
      ],
      "stateMutability": "view",
      "type": "function"
    },
    {
      "inputs": [
        {
          "internalType": "address",
          "name": "player",
          "type": "address"
        }
      ],
      "name": "hasHeadquarters",
      "outputs": [
        {
          "internalType": "bool",
          "name": "",
          "type": "bool"
        }
      ],
      "stateMutability": "view",
      "type": "function"
    },
    {
      "inputs": [],
      "name": "height",
      "outputs": [
        {
          "internalType": "uint16",
          "name": "",
          "type": "uint16"
        }
      ],
      "stateMutability": "view",
      "type": "function"
    },
    {
      "inputs": [
        {
          "internalType": "uint16",
          "name": "_width",
          "type": "uint16"
        },
        {
          "internalType": "uint16",
          "name": "_height",
          "type": "uint16"
        },
        {
          "internalType": "uint16",
          "name": "_maxUnitsPerTile",
          "type": "uint16"
        },
        {
          "internalType": "address",
          "name": "_lootVault",
          "type": "address"
        },
        {
          "internalType": "address",
          "name": "_buildingManager",
          "type": "address"
        }
      ],
      "name": "initialize",
      "outputs": [],
      "stateMutability": "nonpayable",
      "type": "function"
    },
    {
      "inputs": [],
      "name": "lootVault",
      "outputs": [
        {
          "internalType": "contract ILootVault",
          "name": "",
          "type": "address"
        }
      ],
      "stateMutability": "view",
      "type": "function"
    },
    {
      "inputs": [],
      "name": "maxUnitsPerTile",
      "outputs": [
        {
          "internalType": "uint16",
          "name": "",
          "type": "uint16"
        }
      ],
      "stateMutability": "view",
      "type": "function"
    },
    {
      "inputs": [
        {
          "internalType": "address",
          "name": "",
          "type": "address"
        }
      ],
      "name": "operators",
      "outputs": [
        {
          "internalType": "bool",
          "name": "",
          "type": "bool"
        }
      ],
      "stateMutability": "view",
      "type": "function"
    },
    {
      "inputs": [],
      "name": "owner",
      "outputs": [
        {
          "internalType": "address",
          "name": "",
          "type": "address"
        }
      ],
      "stateMutability": "view",
      "type": "function"
    },
    {
      "inputs": [
        {
          "internalType": "address",
          "name": "",
          "type": "address"
        },
        {
          "internalType": "uint256",
          "name": "",
          "type": "uint256"
        }
      ],
      "name": "playerHeadquarters",
      "outputs": [
        {
          "internalType": "int16",
          "name": "x",
          "type": "int16"
        },
        {
          "internalType": "int16",
          "name": "y",
          "type": "int16"
        }
      ],
      "stateMutability": "view",
      "type": "function"
    },
    {
      "inputs": [
        {
          "internalType": "address[]",
          "name": "_operators",
          "type": "address[]"
        }
      ],
      "name": "removeOperators",
      "outputs": [],
      "stateMutability": "nonpayable",
      "type": "function"
    },
    {
      "inputs": [],
      "name": "renounceOwnership",
      "outputs": [],
      "stateMutability": "nonpayable",
      "type": "function"
    },
    {
      "inputs": [
        {
          "internalType": "int16",
          "name": "",
          "type": "int16"
        },
        {
          "internalType": "int16",
          "name": "",
          "type": "int16"
        }
      ],
      "name": "tiles",
      "outputs": [
        {
          "internalType": "address",
          "name": "occupant",
          "type": "address"
        },
        {
          "internalType": "uint16",
          "name": "buildingId",
          "type": "uint16"
        }
      ],
      "stateMutability": "view",
      "type": "function"
    },
    {
      "inputs": [
        {
          "internalType": "address",
          "name": "newOwner",
          "type": "address"
        }
      ],
      "name": "transferOwnership",
      "outputs": [],
      "stateMutability": "nonpayable",
      "type": "function"
    },
    {
      "inputs": [
        {
          "internalType": "address",
          "name": "_buildingManager",
          "type": "address"
        }
      ],
      "name": "updateBuildingManager",
      "outputs": [],
      "stateMutability": "nonpayable",
      "type": "function"
    },
    {
      "inputs": [
        {
          "internalType": "uint16",
          "name": "_width",
          "type": "uint16"
        },
        {
          "internalType": "uint16",
          "name": "_height",
          "type": "uint16"
        }
      ],
      "name": "updateDimensions",
      "outputs": [],
      "stateMutability": "nonpayable",
      "type": "function"
    },
    {
      "inputs": [
        {
          "internalType": "address",
          "name": "_lootVault",
          "type": "address"
        }
      ],
      "name": "updateLootVault",
      "outputs": [],
      "stateMutability": "nonpayable",
      "type": "function"
    },
    {
      "inputs": [
        {
          "internalType": "uint16",
          "name": "_maxUnitsPerTile",
          "type": "uint16"
        }
      ],
      "name": "updateMaxUnitsPerTile",
      "outputs": [],
      "stateMutability": "nonpayable",
      "type": "function"
    },
    {
      "inputs": [
        {
          "components": [
            {
              "internalType": "int16",
              "name": "x",
              "type": "int16"
            },
            {
              "internalType": "int16",
              "name": "y",
              "type": "int16"
            }
          ],
          "internalType": "struct IBattleground.Coordinates",
          "name": "coordinates",
          "type": "tuple"
        },
        {
          "components": [
            {
              "internalType": "address",
              "name": "occupant",
              "type": "address"
            },
            {
              "internalType": "uint16",
              "name": "buildingId",
              "type": "uint16"
            },
            {
              "components": [
                {
                  "internalType": "uint16",
                  "name": "unitId",
                  "type": "uint16"
                },
                {
                  "internalType": "uint16",
                  "name": "quantity",
                  "type": "uint16"
                }
              ],
              "internalType": "struct UnitQuantityLib.UnitQuantity[]",
              "name": "units",
              "type": "tuple[]"
            },
            {
              "components": [
                {
                  "internalType": "enum TokenAmountLib.TokenType",
                  "name": "tokenType",
                  "type": "uint8"
                },
                {
                  "internalType": "address",
                  "name": "tokenAddress",
                  "type": "address"
                },
                {
                  "internalType": "uint256",
                  "name": "tokenId",
                  "type": "uint256"
                },
                {
                  "internalType": "uint256",
                  "name": "amount",
                  "type": "uint256"
                }
              ],
              "internalType": "struct TokenAmountLib.TokenAmount[]",
              "name": "loot",
              "type": "tuple[]"
            }
          ],
          "internalType": "struct IBattleground.Tile",
          "name": "tile",
          "type": "tuple"
        }
      ],
      "name": "updateTile",
      "outputs": [],
      "stateMutability": "nonpayable",
      "type": "function"
    },
    {
      "inputs": [],
      "name": "width",
      "outputs": [
        {
          "internalType": "uint16",
          "name": "",
          "type": "uint16"
        }
      ],
      "stateMutability": "view",
      "type": "function"
    }
  ],
  "bytecode": "0x60808060405234601557612327908161001b8239f35b600080fdfe6080604052600436101561001257600080fd5b6000803560e01c8063036f48c1146119395780630ef267431461191457806313e7c9d8146118d657806324a3e964146118a9578063412f108014611855578063591034621461181057806360e4c393146117e7578063715018a61461177d5780637b4f29e0146117595780637c11a63714611673578063852df5b314610bc55780638ccba74a146109b95780638da5cb5b1461098357806391857971146108e05780639ededf77146108be578063a07aea1c1461079b578063bf6f5b4e14610498578063d365a377146103f5578063d408354414610389578063db2869bb14610329578063f13ca34314610184578063f2fde38b146101575763f7625ef01461011a57600080fd5b34610154576020366003190112610154576020906040906001600160a01b03610141611cb2565b1681526004835220541515604051908152f35b80fd5b503461015457602036600319011261015457610181610174611cb2565b61017c6121c5565b61214f565b80f35b50346101545760403660031901126101545760406101a136611c75565b6101a9612129565b50805160010b83526003602052602082842091015160010b9060009160010b825260205220604051906101db82611bf5565b80546001600160a01b038116835260a01c61ffff16602083015260018101805461020481611d0d565b916102126040519384611c41565b81835285526020808620869184015b8383106102f75787876002888860408401520191825461024081611d0d565b9161024e6040519384611c41565b81835260208301948152602081209080955b8387106102895761028586866060820152604051918291602083526020830190611d99565b0390f35b60405161029581611bf5565b835460ff811660028110156102e357825260081c6001600160a01b03166020808301919091526001858101546040840152600286015460608401529183529701966003939093019201610260565b634e487b7160e01b85526021600452602485fd5b60016020819260405161030981611c26565b61ffff8654818116835260101c1683820152815201920192019190610221565b503461015457604036600319011261015457610343611cb2565b6001600160a01b03168152600460205260408120805460243592908310156101545760406103718484611e78565b50548151908060010b825260101c60010b6020820152f35b503461015457604036600319011261015457600435908160010b80920361015457602435918260010b83036103f1579060409181526003602052209060010b6000526020526040806000205461ffff82519160018060a01b038116835260a01c166020820152f35b5080fd5b50346101545761040436611d24565b9061040d6121c5565b6104188215156120c1565b825b828110610425578380f35b6001906001600160a01b0361044361043e838787612105565b612115565b168086528560205261045b60ff604088205416611ea6565b808652856020526040862060ff1981541690557f80c0b871b97b595b16a7741c1b06fed0c6f6f558639f18ccbce50724325dc40d8680a20161041a565b5034610154576020366003190112610154576004356001600160401b0381116103f157366023820112156103f15780600401356104d481611d0d565b916104e26040519384611c41565b8183526024602084019260061b8201019036821161079757602401915b81831061075857505050805161051481611d0d565b916105226040519384611c41565b818352601f1961053183611d0d565b01845b818110610741575050835b8281106105ad5783856040519182916020830160208452825180915260408401602060408360051b870101940192905b82821061057e57505050500390f35b9193600191939550602061059d8192603f198a82030186528851611d99565b960192019201859493919261056f565b60406105b98284611f22565b51805160010b87526003602052602082882091015160010b9060009160010b825260205220604051906105eb82611bf5565b80546001600160a01b038116835260a01c61ffff16602083015260018101805461061481611d0d565b916106226040519384611c41565b81835289526020808a20908a9084015b83821061070f5750505050604083015260020180549061065182611d0d565b9161065f6040519384611c41565b80835260208301918952602089209189905b8282106106a1575050505060608201526001919061068f8287611f22565b5261069a8186611f22565b500161053f565b6040516106ad81611bf5565b845460ff811660028110156106fb57825260081c6001600160a01b03166020808301919091526001868101546040840152600287015460608401529183526003959095019492019101610671565b634e487b7160e01b8e52602160045260248efd5b60016020819260405161072181611c26565b61ffff8754818116835260101c1683820152815201930191019091610632565b60209061074c612129565b82828801015201610534565b604083360312610797576020604091825161077281611c26565b61077b86611c62565b8152610788838701611c62565b838201528152019201916104ff565b8480fd5b5034610154576107aa36611d24565b906107b36121c5565b6107be8215156120c1565b825b8281106107cb578380f35b6001600160a01b036107e161043e838686612105565b16908115610879578185528460205260ff60408620541661083e5781600192865285602052604086208360ff198254161790557fac6fa858e9350a46cec16539926e0fde25b7629f84b5a72bffaae4df888ae86d8680a2016107c0565b60405162461bcd60e51b815260206004820152601360248201527220b63932b0b23c9030b71037b832b930ba37b960691b6044820152606490fd5b60405162461bcd60e51b815260206004820152601860248201527f496e76616c6964206f70657261746f72206164647265737300000000000000006044820152606490fd5b5034610154578060031936011261015457602061ffff60015416604051908152f35b5034610154576020366003190112610154576108fa611cdc565b6109026121c5565b61ffff81161561092c5765ffff000000006001549160201b169065ffff0000000019161760015580f35b60405162461bcd60e51b815260206004820152602960248201527f4d617820756e697473207065722074696c65206d75737420626520677265617460448201526806572207468616e20360bc1b6064820152608490fd5b50346101545780600319360112610154576000805160206122b2833981519152546040516001600160a01b039091168152602090f35b50346101545760a0366003190112610154576109d3611cdc565b6109db611ced565b60443561ffff81168103610bc157606435906001600160a01b0382168203610797576084356001600160a01b0381169390849003610bbd576000805160206122d2833981519152549460ff8660401c1615956001600160401b03811680159081610bb5575b6001149081610bab575b159081610ba2575b50610b935767ffffffffffffffff1981166001176000805160206122d28339815191525565ffff00000000929163ffff00009188610b66575b50610a94612283565b610a9c612283565b610aa53361214f565b600154956601000000000000600160d01b039060301b169561ffff6601000000000000600160d01b031992169065ffffffffffff191617169160101b16179160201b1617176001556bffffffffffffffffffffffff60a01b6002541617600255610b0c5780f35b68ff0000000000000000196000805160206122d283398151915254166000805160206122d2833981519152557fc7f505b2f371ae2175ee4913f4499e1f2633a7b5936321eed1cdaeb6115181d2602060405160018152a180f35b68ffffffffffffffffff191668010000000000000001176000805160206122d28339815191525538610a8b565b63f92ee8a960e01b8852600488fd5b90501538610a52565b303b159150610a4a565b889150610a40565b8580fd5b8380fd5b503461015457606036600319011261015457610be036611c75565b6044356001600160401b03811161166f576080600319823603011261166f5760405191610c0c83611bf5565b610c1882600401611cc8565b8352610c2660248301611cfe565b926020810193845260448301356001600160401b038111610bbd5783019236602385011215610bbd576004840135610c5d81611d0d565b94610c6b6040519687611c41565b818652602060048188019360061b830101019036821161162857602401915b81831061163057505050604082019384526064810135906001600160401b03821161162c57019336602386011215610bbd576004850135610cca81611d0d565b95610cd86040519788611c41565b818752602060048189019360071b830101019036821161162857602401915b8183106115cb575050506060820194855233865285602052610d1f60ff604088205416611ea6565b60015492617fff61ffff851660011c169161ffff610d4a610d4482861660010b611ee4565b94611f0d565b1660010b92617fff61ffff8760101c1660011c169061ffff610d79610d7382851660010b611ee4565b93611f0d565b1660010b94845160010b9160010b82121591826115c0575b505015611584576020830193845160010b9160010b8212159182611579575b50501561153d578795865b81518051891015610e055761ffff6020610dd68b8394611f22565b5101511691160161ffff8111610df157600190970196610dbb565b634e487b7160e01b8a52601160045260248afd5b50889061ffff808c989960201c169116116114ff57835160010b865260036020526040808720865160010b9060009160010b8252602052209060405192610e4b84611bf5565b82546001600160a01b038116855260a01c61ffff1660208501908152600184018054919491610e7981611d0d565b91610e876040519384611c41565b8183528b526020808c208c9184015b8383106114cd57505050506040860152600201805490610eb582611d0d565b91610ec36040519384611c41565b80835260208301918b5260208b208b925b82841061145e575050505060608501528761ffff60018060a01b036002541694511660246040518096819363e667790760e01b835260048301525afa928315611453578893611437575b508551600190810b8952600360209081526040808b208a51840b6000908152925290208a518154885161ffff60a01b60a09190911b166001600160a01b039092166001600160b01b0319909116171781559151805191830190600160401b83116114235781548383558084106113fd575b50602001908a5260208a208a915b8383106113bd5750505050600201905190815191600160401b83116113a9578154838355808410611347575b506020019088526020882088915b8383106112d457505050508561ffff60018060a01b036002541694511660246040518096819363e667790760e01b835260048301525afa9283156112c95786936112a5575b5081516001600160a01b031615159081611297575b501561124b57805186516001600160a01b039182169116811480159061123f575b6110f3575b5051855194957f7f7c50e66616a5842d6b99587c789864578bc8cc2c3b24d078476016d7b184b2956110cf9391926001600160a01b0391821692869290911683141590816110e5575b506110d5575b50505b6040519384935160010b84525160010b6020840152606060408401526060830190611d99565b0390a180f35b6110de916121fb565b86836110a6565b6020915001511515896110a0565b8552600460205260408520805490865b828110611112575b5050611057565b61111c8183611e78565b505460010b865160010b1480611221575b61113957600101611103565b9091600019810190811161120d5761115461115c9184611e78565b509183611e78565b6111b1578181036111d9575b5050805480156111c55760001901906111818282611e78565b6111b1578790555581837f7f7c50e66616a5842d6b99587c789864578bc8cc2c3b24d078476016d7b184b261110b565b634e487b7160e01b88526004889052602488fd5b634e487b7160e01b87526031600452602487fd5b8154815461ffff19811661ffff9092169182178355925463ffff00001663ffffffff19909316179190911790558780611168565b634e487b7160e01b88526011600452602488fd5b5061122c8183611e78565b505460101c60010b875160010b1461112d565b50602083015115611052565b507f7f7c50e66616a5842d6b99587c789864578bc8cc2c3b24d078476016d7b184b2939460206110cf920151156110a95780516112929084906001600160a01b03166121fb565b6110a9565b602091500151151587611031565b6112c29193503d8088833e6112ba8183611c41565b810190611f52565b918761101c565b6040513d88823e3d90fd5b805180516002811015611333576001926060600393602093875460ff6101008960a81b038785015160081b169216906affffffffffffffffffffff60a81b16171787556040810151868801550151600286015501920192019190610fd7565b634e487b7160e01b8c52602160045260248cfd5b80600302906003820403610df1578360030260038104850361139557838b5260208b2091820191015b81811061137d5750610fc9565b808b600392558b60018201558b600282015501611370565b634e487b7160e01b8b52601160045260248bfd5b634e487b7160e01b89526041600452602489fd5b60016020828183945161ffff81511661ffff19885416178755015163ffff00008087549260101b16169063ffff0000191617855501920192019190610f9d565b828c528360208d2091820191015b8181106114185750610f8f565b8c815560010161140b565b634e487b7160e01b8b52604160045260248bfd5b61144c9193503d808a833e6112ba8183611c41565b9189610f1e565b6040513d8a823e3d90fd5b60405161146a81611bf5565b825460ff811660028110156114b857825260081c6001600160a01b03166020808301919091526001848101546040840152600285015460608401529183529401936003929092019101610ed4565b50634e487b7160e01b8f52602160045260248ffd5b6001602081926040516114df81611c26565b61ffff8654818116835260101c1683820152815201920192019190610e96565b60405162461bcd60e51b8152602060048201526016602482015275546f6f206d616e7920756e697473206f6e2074696c6560501b6044820152606490fd5b60405162461bcd60e51b8152602060048201526014602482015273496e76616c6964207920636f6f7264696e61746560601b6044820152606490fd5b131590503880610db0565b60405162461bcd60e51b8152602060048201526014602482015273496e76616c6964207820636f6f7264696e61746560601b6044820152606490fd5b131590503880610d91565b60808336031261162857604051906115e282611bf5565b8335906002821015611624578260209260809452611601838701611cc8565b838201526040860135604082015260608601356060820152815201920191610cf7565b8a80fd5b8880fd5b8680fd5b604083360312611628576020604091825161164a81611c26565b61165386611cfe565b8152611660838701611cfe565b83820152815201920191610c8a565b8280fd5b50346101545760403660031901126101545761168d611cdc565b61ffff611698611ced565b916116a16121c5565b1680156117145761ffff8216156116cf5763ffff00006001549260101b169163ffffffff1916171760015580f35b60405162461bcd60e51b815260206004820152601d60248201527f486569676874206d7573742062652067726561746572207468616e20300000006044820152606490fd5b60405162461bcd60e51b815260206004820152601c60248201527f5769647468206d7573742062652067726561746572207468616e2030000000006044820152606490fd5b5034610154578060031936011261015457602061ffff600154821c16604051908152f35b50346101545780600319360112610154576117966121c5565b6000805160206122b283398151915280546001600160a01b0319811690915581906001600160a01b03167f8be0079c531659141344cd1fd0a4f28419497f9722a3daafe3b4186f6b6457e08280a380f35b50346101545780600319360112610154576002546040516001600160a01b039091168152602090f35b50346101545760203660031901126101545761182a611cb2565b6118326121c5565b60018060a01b03166bffffffffffffffffffffffff60a01b600254161760025580f35b50346101545760203660031901126101545761186f611cb2565b6118776121c5565b600180546601000000000000600160d01b03191660309290921b6601000000000000600160d01b031691909117905580f35b503461015457806003193601126101545760015460405160309190911c6001600160a01b03168152602090f35b50346101545760203660031901126101545760209060ff906040906001600160a01b03611901611cb2565b1681528084522054166040519015158152f35b5034610154578060031936011261015457602061ffff60015460101c16604051908152f35b50346101545760403660031901126101545761195436611c75565b805160010b8252600360205260206040832091015160010b60010b8252602052604081209060018060a01b038254163303611bb0576001546002929092019160301c6001600160a01b0316803b156103f15781604051809263450f339560e11b82526044820133600484015260406024840152865480915260648301908785526020852090855b818110611b5e575050508383809203925af18015611b5357611b43575b5060405190916020611a0a8184611c41565b8383528392600160401b8411611b2f5781908354858555808610611ab1575b500191845280842084925b848410611a3f578580f35b805180516002811015611a9d5760019260606003938793875460ff6101008960a81b038785015160081b169216906affffffffffffffffffffff60a81b16171787556040810151868801550151600286015501920193019290611a34565b634e487b7160e01b88526021600452602488fd5b80919250600302906003820403611b1b5784600302600381048603611b0757848752838720849392810191015b818110611aeb5750611a29565b8781556001810188905560028101889055849350600301611ade565b634e487b7160e01b87526011600452602487fd5b634e487b7160e01b86526011600452602486fd5b634e487b7160e01b85526041600452602485fd5b81611b4d91611c41565b386119f8565b6040513d84823e3d90fd5b9260039194965082955060809060019354611b7c8260ff8316611d76565b848060a01b039060081c166020820152838701546040820152600287015460608201520194019101908694928694926119db565b60405162461bcd60e51b815260206004820152601860248201527f596f7520646f206e6f74206f776e20746869732074696c6500000000000000006044820152606490fd5b608081019081106001600160401b03821117611c1057604052565b634e487b7160e01b600052604160045260246000fd5b604081019081106001600160401b03821117611c1057604052565b90601f801991011681019081106001600160401b03821117611c1057604052565b35908160010b8203611c7057565b600080fd5b6040906003190112611c705760405190611c8e82611c26565b816004358060010b8103611c70578152602435908160010b8203611c705760200152565b600435906001600160a01b0382168203611c7057565b35906001600160a01b0382168203611c7057565b6004359061ffff82168203611c7057565b6024359061ffff82168203611c7057565b359061ffff82168203611c7057565b6001600160401b038111611c105760051b60200190565b906020600319830112611c70576004356001600160401b038111611c705782602382011215611c70578060040135926001600160401b038411611c705760248460051b83010111611c70576024019190565b906002821015611d835752565b634e487b7160e01b600052602160045260246000fd5b80516001600160a01b0316825260208082015161ffff16818401526040808301516080918501829052805191850182905260a085019392019060005b818110611e4f57505050606001519160608183039101526020808351928381520192019060005b818110611e095750505090565b9091926020608060019260608751611e22838251611d76565b858060a01b0385820151168584015260408101516040840152015160608201520194019101919091611dfc565b8251805161ffff9081168752602091820151168187015260409095019490920191600101611dd5565b8054821015611e905760005260206000200190600090565b634e487b7160e01b600052603260045260246000fd5b15611ead57565b60405162461bcd60e51b815260206004820152600f60248201526e2737ba1030b71037b832b930ba37b960891b6044820152606490fd5b60010b617fff198114611ef75760000390565b634e487b7160e01b600052601160045260246000fd5b61ffff6000199116019061ffff8211611ef757565b8051821015611e905760209160051b010190565b519061ffff82168203611c7057565b51908115158203611c7057565b602081830312611c70578051906001600160401b038211611c70570160e081830312611c70576040519160e083018381106001600160401b03821117611c1057604052611f9e82611f36565b8352611fac60208301611f45565b6020840152611fbd60408301611f36565b6040840152611fce60608301611f36565b6060840152611fdf60808301611f36565b608084015260a08201516001600160401b038111611c7057820181601f82011215611c705780519061201082611d0d565b9261201e6040519485611c41565b82845260208085019360071b83010191818311611c7057602001925b82841061205e575050505060a08301526120569060c001611f45565b60c082015290565b608084830312611c70576040519061207582611bf5565b84516002811015611c705782526020850151906001600160a01b0382168203611c705782602092836080950152604087015160408201526060870151606082015281520193019261203a565b156120c857565b60405162461bcd60e51b8152602060048201526015602482015274139bc81bdc195c985d1bdc9cc81c1c9bdd9a591959605a1b6044820152606490fd5b9190811015611e905760051b0190565b356001600160a01b0381168103611c705790565b6040519061213682611bf5565b6060808360008152600060208201528160408201520152565b6001600160a01b031680156121af576000805160206122b283398151915280546001600160a01b0319811683179091556001600160a01b03167f8be0079c531659141344cd1fd0a4f28419497f9722a3daafe3b4186f6b6457e0600080a3565b631e4fbdf760e01b600052600060045260246000fd5b6000805160206122b2833981519152546001600160a01b031633036121e657565b63118cdaa760e01b6000523360045260246000fd5b6001600160a01b031660009081526004602052604090208054600160401b811015611c105761222f91600182018155611e78565b61226d5760208261226b935160010b61ffff198454169061ffff16178355015160010b81549060101b63ffff0000169063ffff00001916179055565b565b634e487b7160e01b600052600060045260246000fd5b60ff6000805160206122d28339815191525460401c16156122a057565b631afcd79f60e31b60005260046000fdfe9016d09d72d40fdae2fd8ceac6b6234c7706214fd39c1cd1e609a0528c199300f0c57e16840df040f15088dc2f81fe391c3923bec73e23a9662efc9c229c6a00a26469706673582212200c2bdaa9f1791bf9168d1df66b82f14140ba9ade1a6829d063c59fe87b8797be64736f6c634300081c0033",
  "linkReferences": {},
  "deployedLinkReferences": {}
}