{
  "_format": "hh-sol-artifact-1",
  "contractName": "Buildings",
  "sourceName": "contracts/entities/Buildings.sol",
  "abi": [
    {
      "inputs": [],
      "name": "InvalidInitialization",
      "type": "error"
    },
    {
      "inputs": [],
      "name": "NotInitializing",
      "type": "error"
    },
    {
      "inputs": [
        {
          "internalType": "address",
          "name": "owner",
          "type": "address"
        }
      ],
      "name": "OwnableInvalidOwner",
      "type": "error"
    },
    {
      "inputs": [
        {
          "internalType": "address",
          "name": "account",
          "type": "address"
        }
      ],
      "name": "OwnableUnauthorizedAccount",
      "type": "error"
    },
    {
      "anonymous": false,
      "inputs": [
        {
          "indexed": false,
          "internalType": "uint64",
          "name": "version",
          "type": "uint64"
        }
      ],
      "name": "Initialized",
      "type": "event"
    },
    {
      "anonymous": false,
      "inputs": [
        {
          "indexed": true,
          "internalType": "address",
          "name": "previousOwner",
          "type": "address"
        },
        {
          "indexed": true,
          "internalType": "address",
          "name": "newOwner",
          "type": "address"
        }
      ],
      "name": "OwnershipTransferred",
      "type": "event"
    },
    {
      "inputs": [
        {
          "internalType": "uint16",
          "name": "previousBuildingId",
          "type": "uint16"
        },
        {
          "components": [
            {
              "internalType": "contract IERC20",
              "name": "tokenAddress",
              "type": "address"
            },
            {
              "internalType": "uint256",
              "name": "amount",
              "type": "uint256"
            }
          ],
          "internalType": "struct IBuildings.ConstructionCost[]",
          "name": "constructionCosts",
          "type": "tuple[]"
        },
        {
          "internalType": "bool",
          "name": "isHeadquarters",
          "type": "bool"
        },
        {
          "internalType": "uint16",
          "name": "constructionRange",
          "type": "uint16"
        },
        {
          "internalType": "bool",
          "name": "canBeConstructed",
          "type": "bool"
        }
      ],
      "name": "addBuilding",
      "outputs": [],
      "stateMutability": "nonpayable",
      "type": "function"
    },
    {
      "inputs": [
        {
          "internalType": "uint16",
          "name": "",
          "type": "uint16"
        }
      ],
      "name": "buildings",
      "outputs": [
        {
          "internalType": "uint16",
          "name": "previousBuildingId",
          "type": "uint16"
        },
        {
          "internalType": "bool",
          "name": "isHeadquarters",
          "type": "bool"
        },
        {
          "internalType": "uint16",
          "name": "constructionRange",
          "type": "uint16"
        },
        {
          "internalType": "bool",
          "name": "canBeConstructed",
          "type": "bool"
        }
      ],
      "stateMutability": "view",
      "type": "function"
    },
    {
      "inputs": [
        {
          "internalType": "uint16",
          "name": "buildingId",
          "type": "uint16"
        }
      ],
      "name": "canBeConstructed",
      "outputs": [
        {
          "internalType": "bool",
          "name": "",
          "type": "bool"
        }
      ],
      "stateMutability": "view",
      "type": "function"
    },
    {
      "inputs": [
        {
          "internalType": "uint16",
          "name": "buildingId",
          "type": "uint16"
        }
      ],
      "name": "getConstructionCosts",
      "outputs": [
        {
          "components": [
            {
              "internalType": "contract IERC20",
              "name": "tokenAddress",
              "type": "address"
            },
            {
              "internalType": "uint256",
              "name": "amount",
              "type": "uint256"
            }
          ],
          "internalType": "struct IBuildings.ConstructionCost[]",
          "name": "",
          "type": "tuple[]"
        }
      ],
      "stateMutability": "view",
      "type": "function"
    },
    {
      "inputs": [
        {
          "internalType": "uint16",
          "name": "buildingId",
          "type": "uint16"
        }
      ],
      "name": "getConstructionRange",
      "outputs": [
        {
          "internalType": "uint16",
          "name": "",
          "type": "uint16"
        }
      ],
      "stateMutability": "view",
      "type": "function"
    },
    {
      "inputs": [],
      "name": "initialize",
      "outputs": [],
      "stateMutability": "nonpayable",
      "type": "function"
    },
    {
      "inputs": [
        {
          "internalType": "uint16",
          "name": "buildingId",
          "type": "uint16"
        }
      ],
      "name": "isHeadquarters",
      "outputs": [
        {
          "internalType": "bool",
          "name": "",
          "type": "bool"
        }
      ],
      "stateMutability": "view",
      "type": "function"
    },
    {
      "inputs": [],
      "name": "nextBuildingId",
      "outputs": [
        {
          "internalType": "uint16",
          "name": "",
          "type": "uint16"
        }
      ],
      "stateMutability": "view",
      "type": "function"
    },
    {
      "inputs": [],
      "name": "owner",
      "outputs": [
        {
          "internalType": "address",
          "name": "",
          "type": "address"
        }
      ],
      "stateMutability": "view",
      "type": "function"
    },
    {
      "inputs": [],
      "name": "renounceOwnership",
      "outputs": [],
      "stateMutability": "nonpayable",
      "type": "function"
    },
    {
      "inputs": [
        {
          "internalType": "uint16",
          "name": "buildingId",
          "type": "uint16"
        },
        {
          "internalType": "bool",
          "name": "canBeConstructed",
          "type": "bool"
        }
      ],
      "name": "setConstructability",
      "outputs": [],
      "stateMutability": "nonpayable",
      "type": "function"
    },
    {
      "inputs": [
        {
          "internalType": "address",
          "name": "newOwner",
          "type": "address"
        }
      ],
      "name": "transferOwnership",
      "outputs": [],
      "stateMutability": "nonpayable",
      "type": "function"
    }
  ],
  "bytecode": "0x60808060405234601557610afd908161001b8239f35b600080fdfe6080604052600436101561001257600080fd5b60003560e01c8063083d527f1461085b57806328b7d276146107a75780634b02d47c14610417578063715018a6146103ad5780638129fc1c146102535780638da5cb5b1461021d578063a228fcb0146101e0578063bac10560146101a0578063c5b5d7931461013d578063e24d4a6b1461011b578063ea07c5e6146100dc5763f2fde38b146100a057600080fd5b346100d75760203660031901126100d7576004356001600160a01b03811681036100d7576100d5906100d0610a23565b6109ad565b005b600080fd5b346100d75760203660031901126100d75761ffff6100f861093e565b166000526001602052602061ffff60026040600020015460081c16604051908152f35b346100d75760003660031901126100d757602061ffff60005416604051908152f35b346100d75760203660031901126100d75761ffff61015961093e565b1660005260016020526080604060002060ff600261ffff8354169201546040519283528181161515602084015261ffff8160081c16604084015260181c1615156060820152f35b346100d75760203660031901126100d75761ffff6101bc61093e565b166000526001602052602060ff60026040600020015460181c166040519015158152f35b346100d75760203660031901126100d75761ffff6101fc61093e565b166000526001602052602060ff600260406000200154166040519015158152f35b346100d75760003660031901126100d757600080516020610a88833981519152546040516001600160a01b039091168152602090f35b346100d75760003660031901126100d757600080516020610aa88339815191525460ff8160401c16159067ffffffffffffffff8116801590816103a5575b600114908161039b575b159081610392575b506103815767ffffffffffffffff198116600117600080516020610aa88339815191525581610354575b506102d6610a59565b6102de610a59565b6102e7336109ad565b600161ffff1960005416176000556102fb57005b68ff000000000000000019600080516020610aa88339815191525416600080516020610aa8833981519152557fc7f505b2f371ae2175ee4913f4499e1f2633a7b5936321eed1cdaeb6115181d2602060405160018152a1005b68ffffffffffffffffff19166801000000000000000117600080516020610aa883398151915255816102cd565b63f92ee8a960e01b60005260046000fd5b905015836102a3565b303b15915061029b565b839150610291565b346100d75760003660031901126100d7576103c6610a23565b600080516020610a8883398151915280546001600160a01b031981169091556000906001600160a01b03167f8be0079c531659141344cd1fd0a4f28419497f9722a3daafe3b4186f6b6457e08280a3005b346100d75760a03660031901126100d75761043061093e565b60243567ffffffffffffffff81116100d757366023820112156100d75780600401359167ffffffffffffffff83116100d75760248360061b830101903682116100d757604435918215158093036100d7576064359061ffff82168092036100d757608435928315158094036100d7576104a7610a23565b6000549161ffff80841692169282841015610763578815610712576001830161ffff81116106fc5761ffff169061ffff1916176000556040519260a0840184811067ffffffffffffffff8211176106e6576040528352602061051061050b8a610995565b61096f565b809981520190602460009801915b81831061069e57505050602082019687526040820194855260608201928352608082019384528552600160205261ffff6040862091511661ffff1982541617815560018101955180519068010000000000000000821161068a578754828955808310610623575b50602001968652602086209686905b8282106105e757876105e488888860028901925115159060ff62ffff008554925160081b1692169062ffffff19161717825551151563ff000000825491151560181b169063ff0000001916179055565b80f35b600260208281600194518d868060a01b038251166bffffffffffffffffffffffff60a01b8254161790550151848d015501990191019097610594565b6001600160ff1b0381168103610676576001600160ff1b038316830361067657888852602088209060011b8101908360011b015b8181106106645750610585565b80896002925589600182015501610657565b634e487b7160e01b88526011600452602488fd5b634e487b7160e01b87526041600452602487fd5b6040833603126106e2576106b061094f565b83356001600160a01b03811681036106de57918160409360209352828601358382015281520192019161051e565b8a80fd5b8880fd5b634e487b7160e01b600052604160045260246000fd5b634e487b7160e01b600052601160045260246000fd5b60405162461bcd60e51b815260206004820152602360248201527f436f6e737472756374696f6e20636f737473206d7573742062652070726f766960448201526219195960ea1b6064820152608490fd5b606460405162461bcd60e51b815260206004820152602060248201527f50726576696f7573206275696c64696e6720646f6573206e6f742065786973746044820152fd5b346100d75760403660031901126100d7576107c061093e565b60243580151581036100d7576107d4610a23565b61ffff8060005416921691821015610816576100d591600052600160205260026040600020019063ff000000825491151560181b169063ff0000001916179055565b60405162461bcd60e51b815260206004820152601760248201527f4275696c64696e6720646f6573206e6f742065786973740000000000000000006044820152606490fd5b346100d75760203660031901126100d75761ffff61087761093e565b166000526001602052600160406000200180549061089761050b83610995565b9180835260208301809260005260206000206000915b83831061090e5784866040519182916020830190602084525180915260408301919060005b8181106108e0575050500390f35b825180516001600160a01b0316855260209081015181860152869550604090940193909201916001016108d2565b6002602060019261091d61094f565b848060a01b03865416815284860154838201528152019201920191906108ad565b6004359061ffff821682036100d757565b604051906040820182811067ffffffffffffffff8211176106e657604052565b6040519190601f01601f1916820167ffffffffffffffff8111838210176106e657604052565b67ffffffffffffffff81116106e65760051b60200190565b6001600160a01b03168015610a0d57600080516020610a8883398151915280546001600160a01b0319811683179091556001600160a01b03167f8be0079c531659141344cd1fd0a4f28419497f9722a3daafe3b4186f6b6457e0600080a3565b631e4fbdf760e01b600052600060045260246000fd5b600080516020610a88833981519152546001600160a01b03163303610a4457565b63118cdaa760e01b6000523360045260246000fd5b60ff600080516020610aa88339815191525460401c1615610a7657565b631afcd79f60e31b60005260046000fdfe9016d09d72d40fdae2fd8ceac6b6234c7706214fd39c1cd1e609a0528c199300f0c57e16840df040f15088dc2f81fe391c3923bec73e23a9662efc9c229c6a00a2646970667358221220b41b1c6d3de8f2f84d4606923772e35584add7eedec7539535200442d501ea9264736f6c634300081c0033",
  "linkReferences": {},
  "deployedLinkReferences": {}
}