{
  "_format": "hh-sol-artifact-1",
  "contractName": "Buildings",
  "sourceName": "contracts/entities/Buildings.sol",
  "abi": [
    {
      "inputs": [],
      "name": "InvalidInitialization",
      "type": "error"
    },
    {
      "inputs": [],
      "name": "NotInitializing",
      "type": "error"
    },
    {
      "inputs": [
        {
          "internalType": "address",
          "name": "owner",
          "type": "address"
        }
      ],
      "name": "OwnableInvalidOwner",
      "type": "error"
    },
    {
      "inputs": [
        {
          "internalType": "address",
          "name": "account",
          "type": "address"
        }
      ],
      "name": "OwnableUnauthorizedAccount",
      "type": "error"
    },
    {
      "anonymous": false,
      "inputs": [
        {
          "indexed": false,
          "internalType": "uint64",
          "name": "version",
          "type": "uint64"
        }
      ],
      "name": "Initialized",
      "type": "event"
    },
    {
      "anonymous": false,
      "inputs": [
        {
          "indexed": true,
          "internalType": "address",
          "name": "previousOwner",
          "type": "address"
        },
        {
          "indexed": true,
          "internalType": "address",
          "name": "newOwner",
          "type": "address"
        }
      ],
      "name": "OwnershipTransferred",
      "type": "event"
    },
    {
      "inputs": [
        {
          "internalType": "uint16",
          "name": "previousBuildingId",
          "type": "uint16"
        },
        {
          "components": [
            {
              "internalType": "contract IERC20",
              "name": "tokenAddress",
              "type": "address"
            },
            {
              "internalType": "uint256",
              "name": "amount",
              "type": "uint256"
            }
          ],
          "internalType": "struct IBuildings.ConstructionCost[]",
          "name": "constructionCosts",
          "type": "tuple[]"
        },
        {
          "internalType": "bool",
          "name": "isHeadquarters",
          "type": "bool"
        },
        {
          "internalType": "uint16",
          "name": "constructionRange",
          "type": "uint16"
        },
        {
          "internalType": "bool",
          "name": "canBeConstructed",
          "type": "bool"
        }
      ],
      "name": "addBuilding",
      "outputs": [],
      "stateMutability": "nonpayable",
      "type": "function"
    },
    {
      "inputs": [
        {
          "internalType": "uint16",
          "name": "",
          "type": "uint16"
        }
      ],
      "name": "buildings",
      "outputs": [
        {
          "internalType": "uint16",
          "name": "previousBuildingId",
          "type": "uint16"
        },
        {
          "internalType": "bool",
          "name": "isHeadquarters",
          "type": "bool"
        },
        {
          "internalType": "uint16",
          "name": "constructionRange",
          "type": "uint16"
        },
        {
          "internalType": "bool",
          "name": "canBeConstructed",
          "type": "bool"
        }
      ],
      "stateMutability": "view",
      "type": "function"
    },
    {
      "inputs": [
        {
          "internalType": "uint16",
          "name": "buildingId",
          "type": "uint16"
        }
      ],
      "name": "canBeConstructed",
      "outputs": [
        {
          "internalType": "bool",
          "name": "",
          "type": "bool"
        }
      ],
      "stateMutability": "view",
      "type": "function"
    },
    {
      "inputs": [
        {
          "internalType": "uint16",
          "name": "buildingId",
          "type": "uint16"
        }
      ],
      "name": "getConstructionCosts",
      "outputs": [
        {
          "components": [
            {
              "internalType": "contract IERC20",
              "name": "tokenAddress",
              "type": "address"
            },
            {
              "internalType": "uint256",
              "name": "amount",
              "type": "uint256"
            }
          ],
          "internalType": "struct IBuildings.ConstructionCost[]",
          "name": "",
          "type": "tuple[]"
        }
      ],
      "stateMutability": "view",
      "type": "function"
    },
    {
      "inputs": [
        {
          "internalType": "uint16",
          "name": "buildingId",
          "type": "uint16"
        }
      ],
      "name": "getConstructionRange",
      "outputs": [
        {
          "internalType": "uint16",
          "name": "",
          "type": "uint16"
        }
      ],
      "stateMutability": "view",
      "type": "function"
    },
    {
      "inputs": [
        {
          "internalType": "uint16",
          "name": "buildingId",
          "type": "uint16"
        }
      ],
      "name": "getParentBuildingId",
      "outputs": [
        {
          "internalType": "uint16",
          "name": "",
          "type": "uint16"
        }
      ],
      "stateMutability": "view",
      "type": "function"
    },
    {
      "inputs": [],
      "name": "initialize",
      "outputs": [],
      "stateMutability": "nonpayable",
      "type": "function"
    },
    {
      "inputs": [
        {
          "internalType": "uint16",
          "name": "buildingId",
          "type": "uint16"
        }
      ],
      "name": "isHeadquarters",
      "outputs": [
        {
          "internalType": "bool",
          "name": "",
          "type": "bool"
        }
      ],
      "stateMutability": "view",
      "type": "function"
    },
    {
      "inputs": [],
      "name": "nextBuildingId",
      "outputs": [
        {
          "internalType": "uint16",
          "name": "",
          "type": "uint16"
        }
      ],
      "stateMutability": "view",
      "type": "function"
    },
    {
      "inputs": [],
      "name": "owner",
      "outputs": [
        {
          "internalType": "address",
          "name": "",
          "type": "address"
        }
      ],
      "stateMutability": "view",
      "type": "function"
    },
    {
      "inputs": [],
      "name": "renounceOwnership",
      "outputs": [],
      "stateMutability": "nonpayable",
      "type": "function"
    },
    {
      "inputs": [
        {
          "internalType": "uint16",
          "name": "buildingId",
          "type": "uint16"
        },
        {
          "internalType": "bool",
          "name": "canBeConstructed",
          "type": "bool"
        }
      ],
      "name": "setConstructability",
      "outputs": [],
      "stateMutability": "nonpayable",
      "type": "function"
    },
    {
      "inputs": [
        {
          "internalType": "address",
          "name": "newOwner",
          "type": "address"
        }
      ],
      "name": "transferOwnership",
      "outputs": [],
      "stateMutability": "nonpayable",
      "type": "function"
    }
  ],
  "bytecode": "0x60808060405234601557610b41908161001b8239f35b600080fdfe6080604052600436101561001257600080fd5b60003560e01c8063083d527f1461089f57806328b7d276146107eb5780634b02d47c1461045b578063715018a6146103f15780637956a762146103b85780638129fc1c1461025e5780638da5cb5b14610228578063a228fcb0146101eb578063bac10560146101ab578063c5b5d79314610148578063e24d4a6b14610126578063ea07c5e6146100e75763f2fde38b146100ab57600080fd5b346100e25760203660031901126100e2576004356001600160a01b03811681036100e2576100e0906100db610a67565b6109f1565b005b600080fd5b346100e25760203660031901126100e25761ffff610103610982565b166000526001602052602061ffff60026040600020015460081c16604051908152f35b346100e25760003660031901126100e257602061ffff60005416604051908152f35b346100e25760203660031901126100e25761ffff610164610982565b1660005260016020526080604060002060ff600261ffff8354169201546040519283528181161515602084015261ffff8160081c16604084015260181c1615156060820152f35b346100e25760203660031901126100e25761ffff6101c7610982565b166000526001602052602060ff60026040600020015460181c166040519015158152f35b346100e25760203660031901126100e25761ffff610207610982565b166000526001602052602060ff600260406000200154166040519015158152f35b346100e25760003660031901126100e257600080516020610acc833981519152546040516001600160a01b039091168152602090f35b346100e25760003660031901126100e257600080516020610aec8339815191525460ff8160401c16159067ffffffffffffffff8116801590816103b0575b60011490816103a6575b15908161039d575b5061038c5767ffffffffffffffff198116600117600080516020610aec833981519152558161035f575b506102e1610a9d565b6102e9610a9d565b6102f2336109f1565b600161ffff19600054161760005561030657005b68ff000000000000000019600080516020610aec8339815191525416600080516020610aec833981519152557fc7f505b2f371ae2175ee4913f4499e1f2633a7b5936321eed1cdaeb6115181d2602060405160018152a1005b68ffffffffffffffffff19166801000000000000000117600080516020610aec83398151915255816102d8565b63f92ee8a960e01b60005260046000fd5b905015836102ae565b303b1591506102a6565b83915061029c565b346100e25760203660031901126100e25761ffff6103d4610982565b166000526001602052602061ffff60406000205416604051908152f35b346100e25760003660031901126100e25761040a610a67565b600080516020610acc83398151915280546001600160a01b031981169091556000906001600160a01b03167f8be0079c531659141344cd1fd0a4f28419497f9722a3daafe3b4186f6b6457e08280a3005b346100e25760a03660031901126100e257610474610982565b60243567ffffffffffffffff81116100e257366023820112156100e25780600401359167ffffffffffffffff83116100e25760248360061b830101903682116100e257604435918215158093036100e2576064359061ffff82168092036100e257608435928315158094036100e2576104eb610a67565b6000549161ffff808416921692828410156107a7578815610756576001830161ffff81116107405761ffff169061ffff1916176000556040519260a0840184811067ffffffffffffffff82111761072a576040528352602061055461054f8a6109d9565b6109b3565b809981520190602460009801915b8183106106e257505050602082019687526040820194855260608201928352608082019384528552600160205261ffff6040862091511661ffff198254161781556001810195518051906801000000000000000082116106ce578754828955808310610667575b50602001968652602086209686905b82821061062b578761062888888860028901925115159060ff62ffff008554925160081b1692169062ffffff19161717825551151563ff000000825491151560181b169063ff0000001916179055565b80f35b600260208281600194518d868060a01b038251166bffffffffffffffffffffffff60a01b8254161790550151848d0155019901910190976105d8565b6001600160ff1b03811681036106ba576001600160ff1b03831683036106ba57888852602088209060011b8101908360011b015b8181106106a857506105c9565b8089600292558960018201550161069b565b634e487b7160e01b88526011600452602488fd5b634e487b7160e01b87526041600452602487fd5b604083360312610726576106f4610993565b83356001600160a01b0381168103610722579181604093602093528286013583820152815201920191610562565b8a80fd5b8880fd5b634e487b7160e01b600052604160045260246000fd5b634e487b7160e01b600052601160045260246000fd5b60405162461bcd60e51b815260206004820152602360248201527f436f6e737472756374696f6e20636f737473206d7573742062652070726f766960448201526219195960ea1b6064820152608490fd5b606460405162461bcd60e51b815260206004820152602060248201527f50726576696f7573206275696c64696e6720646f6573206e6f742065786973746044820152fd5b346100e25760403660031901126100e257610804610982565b60243580151581036100e257610818610a67565b61ffff806000541692169182101561085a576100e091600052600160205260026040600020019063ff000000825491151560181b169063ff0000001916179055565b60405162461bcd60e51b815260206004820152601760248201527f4275696c64696e6720646f6573206e6f742065786973740000000000000000006044820152606490fd5b346100e25760203660031901126100e25761ffff6108bb610982565b16600052600160205260016040600020018054906108db61054f836109d9565b9180835260208301809260005260206000206000915b8383106109525784866040519182916020830190602084525180915260408301919060005b818110610924575050500390f35b825180516001600160a01b031685526020908101518186015286955060409094019390920191600101610916565b60026020600192610961610993565b848060a01b03865416815284860154838201528152019201920191906108f1565b6004359061ffff821682036100e257565b604051906040820182811067ffffffffffffffff82111761072a57604052565b6040519190601f01601f1916820167ffffffffffffffff81118382101761072a57604052565b67ffffffffffffffff811161072a5760051b60200190565b6001600160a01b03168015610a5157600080516020610acc83398151915280546001600160a01b0319811683179091556001600160a01b03167f8be0079c531659141344cd1fd0a4f28419497f9722a3daafe3b4186f6b6457e0600080a3565b631e4fbdf760e01b600052600060045260246000fd5b600080516020610acc833981519152546001600160a01b03163303610a8857565b63118cdaa760e01b6000523360045260246000fd5b60ff600080516020610aec8339815191525460401c1615610aba57565b631afcd79f60e31b60005260046000fdfe9016d09d72d40fdae2fd8ceac6b6234c7706214fd39c1cd1e609a0528c199300f0c57e16840df040f15088dc2f81fe391c3923bec73e23a9662efc9c229c6a00a2646970667358221220579fd8e672954875350b576ef4b5c99087f467985dc6fb795305b58880b0a3d764736f6c634300081c0033",
  "linkReferences": {},
  "deployedLinkReferences": {}
}