{
  "_format": "hh-sol-artifact-1",
  "contractName": "Units",
  "sourceName": "contracts/entities/Units.sol",
  "abi": [
    {
      "inputs": [],
      "name": "InvalidInitialization",
      "type": "error"
    },
    {
      "inputs": [],
      "name": "NotInitializing",
      "type": "error"
    },
    {
      "inputs": [
        {
          "internalType": "address",
          "name": "owner",
          "type": "address"
        }
      ],
      "name": "OwnableInvalidOwner",
      "type": "error"
    },
    {
      "inputs": [
        {
          "internalType": "address",
          "name": "account",
          "type": "address"
        }
      ],
      "name": "OwnableUnauthorizedAccount",
      "type": "error"
    },
    {
      "anonymous": false,
      "inputs": [
        {
          "indexed": false,
          "internalType": "uint64",
          "name": "version",
          "type": "uint64"
        }
      ],
      "name": "Initialized",
      "type": "event"
    },
    {
      "anonymous": false,
      "inputs": [
        {
          "indexed": true,
          "internalType": "address",
          "name": "previousOwner",
          "type": "address"
        },
        {
          "indexed": true,
          "internalType": "address",
          "name": "newOwner",
          "type": "address"
        }
      ],
      "name": "OwnershipTransferred",
      "type": "event"
    },
    {
      "inputs": [
        {
          "internalType": "uint16[]",
          "name": "trainingBuildingIds",
          "type": "uint16[]"
        },
        {
          "internalType": "uint16",
          "name": "healthPoints",
          "type": "uint16"
        },
        {
          "internalType": "uint16",
          "name": "attackDamage",
          "type": "uint16"
        },
        {
          "internalType": "uint8",
          "name": "attackRange",
          "type": "uint8"
        },
        {
          "internalType": "uint8",
          "name": "movementRange",
          "type": "uint8"
        },
        {
          "components": [
            {
              "internalType": "contract IERC20",
              "name": "tokenAddress",
              "type": "address"
            },
            {
              "internalType": "uint256",
              "name": "amount",
              "type": "uint256"
            }
          ],
          "internalType": "struct IUnits.TrainingCost[]",
          "name": "trainingCosts",
          "type": "tuple[]"
        },
        {
          "internalType": "bool",
          "name": "canBeTrained",
          "type": "bool"
        }
      ],
      "name": "addUnit",
      "outputs": [],
      "stateMutability": "nonpayable",
      "type": "function"
    },
    {
      "inputs": [
        {
          "internalType": "uint16",
          "name": "unitId",
          "type": "uint16"
        }
      ],
      "name": "canBeTrained",
      "outputs": [
        {
          "internalType": "bool",
          "name": "",
          "type": "bool"
        }
      ],
      "stateMutability": "view",
      "type": "function"
    },
    {
      "inputs": [
        {
          "internalType": "uint16",
          "name": "unitId",
          "type": "uint16"
        }
      ],
      "name": "getTrainingBuildingIds",
      "outputs": [
        {
          "internalType": "uint16[]",
          "name": "",
          "type": "uint16[]"
        }
      ],
      "stateMutability": "view",
      "type": "function"
    },
    {
      "inputs": [
        {
          "internalType": "uint16",
          "name": "unitId",
          "type": "uint16"
        }
      ],
      "name": "getTrainingCosts",
      "outputs": [
        {
          "components": [
            {
              "internalType": "contract IERC20",
              "name": "tokenAddress",
              "type": "address"
            },
            {
              "internalType": "uint256",
              "name": "amount",
              "type": "uint256"
            }
          ],
          "internalType": "struct IUnits.TrainingCost[]",
          "name": "",
          "type": "tuple[]"
        }
      ],
      "stateMutability": "view",
      "type": "function"
    },
    {
      "inputs": [],
      "name": "initialize",
      "outputs": [],
      "stateMutability": "nonpayable",
      "type": "function"
    },
    {
      "inputs": [],
      "name": "nextUnitId",
      "outputs": [
        {
          "internalType": "uint16",
          "name": "",
          "type": "uint16"
        }
      ],
      "stateMutability": "view",
      "type": "function"
    },
    {
      "inputs": [],
      "name": "owner",
      "outputs": [
        {
          "internalType": "address",
          "name": "",
          "type": "address"
        }
      ],
      "stateMutability": "view",
      "type": "function"
    },
    {
      "inputs": [],
      "name": "renounceOwnership",
      "outputs": [],
      "stateMutability": "nonpayable",
      "type": "function"
    },
    {
      "inputs": [
        {
          "internalType": "uint16",
          "name": "unitId",
          "type": "uint16"
        },
        {
          "internalType": "bool",
          "name": "canBeTrained",
          "type": "bool"
        }
      ],
      "name": "setTrainability",
      "outputs": [],
      "stateMutability": "nonpayable",
      "type": "function"
    },
    {
      "inputs": [
        {
          "internalType": "address",
          "name": "newOwner",
          "type": "address"
        }
      ],
      "name": "transferOwnership",
      "outputs": [],
      "stateMutability": "nonpayable",
      "type": "function"
    },
    {
      "inputs": [
        {
          "internalType": "uint16",
          "name": "",
          "type": "uint16"
        }
      ],
      "name": "units",
      "outputs": [
        {
          "internalType": "uint16",
          "name": "healthPoints",
          "type": "uint16"
        },
        {
          "internalType": "uint16",
          "name": "attackDamage",
          "type": "uint16"
        },
        {
          "internalType": "uint8",
          "name": "attackRange",
          "type": "uint8"
        },
        {
          "internalType": "uint8",
          "name": "movementRange",
          "type": "uint8"
        },
        {
          "internalType": "bool",
          "name": "canBeTrained",
          "type": "bool"
        }
      ],
      "stateMutability": "view",
      "type": "function"
    }
  ],
  "bytecode": "0x608080604052346015576110aa908161001b8239f35b600080fdfe6080604052600436101561001257600080fd5b60003560e01c806337d798fb14610e0257806355f5797814610772578063715018a6146107085780637e3b128b146106e65780638129fc1c1461058c578063813e4fe81461051c578063827b1440146104df5780638da5cb5b146104a9578063940ea7e714610453578063b7392d8c146100d15763f2fde38b1461009557600080fd5b346100cc5760203660031901126100cc576004356001600160a01b03811681036100cc576100ca906100c5610fd0565b610f5a565b005b600080fd5b346100cc5760203660031901126100cc5761ffff6100ed610ef3565b166000526001602052604060002060405190818260208354928381520180936000526020600020926000905b80600f83011061036b576101b2945491818110610356575b81811061033e575b818110610327575b81811061030f575b8181106102f7575b8181106102df575b8181106102c7575b8181106102af575b818110610297575b81811061027f575b818110610267575b81811061024f575b818110610237575b81811061021f575b818110610207575b106101f9575b509392930382610f20565b6040519182916020830190602084525180915260408301919060005b8181106101dc575050500390f35b825161ffff168452859450602093840193909201916001016101ce565b60f01c8152602001856101a7565b92602060019161ffff8560e01c1681520193016101a1565b92602060019161ffff8560d01c168152019301610199565b92602060019161ffff8560c01c168152019301610191565b92602060019161ffff8560b01c168152019301610189565b92602060019161ffff8560a01c168152019301610181565b92602060019161ffff8560901c168152019301610179565b92602060019161ffff8560801c168152019301610171565b92602060019161ffff8560701c168152019301610169565b92602060019161ffff8560601c168152019301610161565b92602060019161ffff8560501c168152019301610159565b92602060019161ffff8560401c168152019301610151565b92602060019161ffff8560301c168152019301610149565b92602060019161ffff85831c168152019301610141565b92602060019161ffff8560101c168152019301610139565b92602060019161ffff85168152019301610131565b916010919350610200600191865461ffff8116825261ffff81861c16602083015261ffff8160201c16604083015261ffff8160301c16606083015261ffff8160401c16608083015261ffff8160501c1660a083015261ffff8160601c1660c083015261ffff8160701c1660e083015261ffff8160801c1661010083015261ffff8160901c1661012083015261ffff8160a01c1661014083015261ffff8160b01c1661016083015261ffff8160c01c1661018083015261ffff8160d01c166101a083015261ffff8160e01c166101c083015260f01c6101e0820152019401920185929391610119565b346100cc5760403660031901126100cc5761046c610ef3565b60243580151581036100cc5761ffff6100ca92610487610fd0565b16600052600160205260036040600020019060ff801983541691151516179055565b346100cc5760003660031901126100cc57600080516020611035833981519152546040516001600160a01b039091168152602090f35b346100cc5760203660031901126100cc5761ffff6104fb610ef3565b166000526001602052602060ff600360406000200154166040519015158152f35b346100cc5760203660031901126100cc5761ffff610538610ef3565b16600052600160205260a0604060002060ff600360018301549201541660ff6040519261ffff8116845261ffff8160101c166020850152818160201c16604085015260281c16606083015215156080820152f35b346100cc5760003660031901126100cc576000805160206110558339815191525460ff8160401c16159067ffffffffffffffff8116801590816106de575b60011490816106d4575b1590816106cb575b506106ba5767ffffffffffffffff198116600117600080516020611055833981519152558161068d575b5061060f611006565b610617611006565b61062033610f5a565b600161ffff19600054161760005561063457005b68ff0000000000000000196000805160206110558339815191525416600080516020611055833981519152557fc7f505b2f371ae2175ee4913f4499e1f2633a7b5936321eed1cdaeb6115181d2602060405160018152a1005b68ffffffffffffffffff191668010000000000000001176000805160206110558339815191525581610606565b63f92ee8a960e01b60005260046000fd5b905015836105dc565b303b1591506105d4565b8391506105ca565b346100cc5760003660031901126100cc57602061ffff60005416604051908152f35b346100cc5760003660031901126100cc57610721610fd0565b60008051602061103583398151915280546001600160a01b031981169091556000906001600160a01b03167f8be0079c531659141344cd1fd0a4f28419497f9722a3daafe3b4186f6b6457e08280a3005b346100cc5760e03660031901126100cc5760043567ffffffffffffffff81116100cc57366023820112156100cc5780600401359067ffffffffffffffff82116100cc5760248260051b8201013681116100cc5760243561ffff81168091036100cc5760443561ffff81168091036100cc576064359160ff83168093036100cc576084359260ff84168094036100cc5760a4359367ffffffffffffffff85116100cc57366023860112156100cc5784600401359367ffffffffffffffff85116100cc5760248560061b87010198368a116100cc5760c435968715158098036100cc5761085b610fd0565b8115610db15760005b828110156108e757600060248260051b8d0101359061ffff82168092036108e457501561089357600101610864565b60405162461bcd60e51b815260206004820152602360248201527f547261696e696e67206275696c64696e6720494473206d7573742062652076616044820152621b1a5960ea1b6064820152608490fd5b80fd5b508a8615610d5c578715610d17576000549261ffff8416936001850161ffff8111610d015761ffff169061ffff1916176000556040519a60e08c018c811067ffffffffffffffff821117610ceb5760405260249c9061094583610f42565b926109536040519485610f20565b83526020830160009e8f9301925b828410610cca57505050508a5260208a0196875260408a0193845260608a0195865260808a0194855261099388610f42565b976109a1604051998a610f20565b88526024602089019201915b818310610c7d5750505060a0880195865260c088019687528852600160205260408820965180519067ffffffffffffffff8211610c6957600160401b8211610c69578854828a55808310610c0d575b5060200190888a5260208a208160041c918b5b838110610bcd5750600f198116900380610b80575b5050505061ffff6001880194511661ffff19855416178455519163ffff000065ff000000000064ff000000008654935160201b16935160281b169360101b169065ffffffff00001916171717905560028301905190815191600160401b8311610b6c578154838355808410610b05575b506020019085526020852085915b838310610aca5786610ac78760038851151591019060ff801983541691151516179055565b80f35b60026020828160019451858060a01b038151166bffffffffffffffffffffffff60a01b88541617875501518486015501920192019190610aa2565b6001600160ff1b0381168103610b58576001600160ff1b0384168403610b5857828752602087209060011b8101908460011b015b818110610b465750610a94565b80886002925588600182015501610b39565b634e487b7160e01b87526011600452602487fd5b634e487b7160e01b86526041600452602486fd5b928b938c5b818110610b9a57505050015588808080610a24565b9091946020610bc360019261ffff8951169085851b61ffff809160031b9316831b921b19161790565b9601929101610b85565b8c8d5b60108110610be5575083820155600101610a0f565b865190969160019160209161ffff60048b901b81811b199092169216901b1792019601610bd0565b898b5260208b20600f80850160041c8201920160041c0190601e8460011b1680610c4c575b505b818110610c4157506109fc565b8b8155600101610c34565b6000198201908154906000199060200360031b1c1690558c610c32565b634e487b7160e01b8a52604160045260248afd5b604083360312610cc65760405190610c9482610f04565b8335906001600160a01b0382168203610cc257826020926040945282860135838201528152019201916109ad565b8d80fd5b8b80fd5b50823561ffff81168103610ce7578152602092830192018e610961565b8f80fd5b634e487b7160e01b600052604160045260246000fd5b634e487b7160e01b600052601160045260246000fd5b60405162461bcd60e51b815260206004820152601f60248201527f547261696e696e6720636f737473206d7573742062652070726f7669646564006044820152606490fd5b60405162461bcd60e51b815260206004820152602760248201527f4865616c746820706f696e7473206d7573742062652067726561746572207468604482015266616e207a65726f60c81b6064820152608490fd5b60405162461bcd60e51b815260206004820152602360248201527f547261696e696e67206275696c64696e6773206d7573742062652070726f766960448201526219195960ea1b6064820152608490fd5b346100cc5760203660031901126100cc5761ffff610e1e610ef3565b1660005260016020526002604060002001805490610e3b82610f42565b91610e496040519384610f20565b80835260208301809260005260206000206000915b838310610ebf5784866040519182916020830190602084525180915260408301919060005b818110610e91575050500390f35b825180516001600160a01b031685526020908101518186015286955060409094019390920191600101610e83565b60026020600192604051610ed281610f04565b848060a01b0386541681528486015483820152815201920192019190610e5e565b6004359061ffff821682036100cc57565b6040810190811067ffffffffffffffff821117610ceb57604052565b90601f8019910116810190811067ffffffffffffffff821117610ceb57604052565b67ffffffffffffffff8111610ceb5760051b60200190565b6001600160a01b03168015610fba5760008051602061103583398151915280546001600160a01b0319811683179091556001600160a01b03167f8be0079c531659141344cd1fd0a4f28419497f9722a3daafe3b4186f6b6457e0600080a3565b631e4fbdf760e01b600052600060045260246000fd5b600080516020611035833981519152546001600160a01b03163303610ff157565b63118cdaa760e01b6000523360045260246000fd5b60ff6000805160206110558339815191525460401c161561102357565b631afcd79f60e31b60005260046000fdfe9016d09d72d40fdae2fd8ceac6b6234c7706214fd39c1cd1e609a0528c199300f0c57e16840df040f15088dc2f81fe391c3923bec73e23a9662efc9c229c6a00a26469706673582212200532c2397b4ace05c7bedc317bd0a3bddfd9de338bd96d8e9c8125fdc1499d5264736f6c634300081c0033",
  "linkReferences": {},
  "deployedLinkReferences": {}
}