{
  "_format": "hh-sol-artifact-1",
  "contractName": "BuildingManager",
  "sourceName": "contracts/data/BuildingManager.sol",
  "abi": [
    {
      "inputs": [],
      "name": "InvalidInitialization",
      "type": "error"
    },
    {
      "inputs": [],
      "name": "NotInitializing",
      "type": "error"
    },
    {
      "inputs": [
        {
          "internalType": "address",
          "name": "owner",
          "type": "address"
        }
      ],
      "name": "OwnableInvalidOwner",
      "type": "error"
    },
    {
      "inputs": [
        {
          "internalType": "address",
          "name": "account",
          "type": "address"
        }
      ],
      "name": "OwnableUnauthorizedAccount",
      "type": "error"
    },
    {
      "anonymous": false,
      "inputs": [
        {
          "indexed": false,
          "internalType": "uint64",
          "name": "version",
          "type": "uint64"
        }
      ],
      "name": "Initialized",
      "type": "event"
    },
    {
      "anonymous": false,
      "inputs": [
        {
          "indexed": true,
          "internalType": "address",
          "name": "previousOwner",
          "type": "address"
        },
        {
          "indexed": true,
          "internalType": "address",
          "name": "newOwner",
          "type": "address"
        }
      ],
      "name": "OwnershipTransferred",
      "type": "event"
    },
    {
      "inputs": [
        {
          "components": [
            {
              "internalType": "uint16",
              "name": "prerequisiteBuildingId",
              "type": "uint16"
            },
            {
              "internalType": "bool",
              "name": "isHeadquarters",
              "type": "bool"
            },
            {
              "internalType": "uint16",
              "name": "constructionRange",
              "type": "uint16"
            },
            {
              "internalType": "uint16",
              "name": "healthBoostPercentage",
              "type": "uint16"
            },
            {
              "internalType": "uint16",
              "name": "damageBoostPercentage",
              "type": "uint16"
            },
            {
              "components": [
                {
                  "internalType": "enum TokenAmountLib.TokenType",
                  "name": "tokenType",
                  "type": "uint8"
                },
                {
                  "internalType": "address",
                  "name": "tokenAddress",
                  "type": "address"
                },
                {
                  "internalType": "uint256",
                  "name": "tokenId",
                  "type": "uint256"
                },
                {
                  "internalType": "uint256",
                  "name": "amount",
                  "type": "uint256"
                }
              ],
              "internalType": "struct TokenAmountLib.TokenAmount[]",
              "name": "constructionCost",
              "type": "tuple[]"
            },
            {
              "internalType": "bool",
              "name": "canBeConstructed",
              "type": "bool"
            }
          ],
          "internalType": "struct IBuildingManager.Building",
          "name": "building",
          "type": "tuple"
        }
      ],
      "name": "addBuilding",
      "outputs": [],
      "stateMutability": "nonpayable",
      "type": "function"
    },
    {
      "inputs": [
        {
          "internalType": "uint16",
          "name": "",
          "type": "uint16"
        }
      ],
      "name": "buildings",
      "outputs": [
        {
          "internalType": "uint16",
          "name": "prerequisiteBuildingId",
          "type": "uint16"
        },
        {
          "internalType": "bool",
          "name": "isHeadquarters",
          "type": "bool"
        },
        {
          "internalType": "uint16",
          "name": "constructionRange",
          "type": "uint16"
        },
        {
          "internalType": "uint16",
          "name": "healthBoostPercentage",
          "type": "uint16"
        },
        {
          "internalType": "uint16",
          "name": "damageBoostPercentage",
          "type": "uint16"
        },
        {
          "internalType": "bool",
          "name": "canBeConstructed",
          "type": "bool"
        }
      ],
      "stateMutability": "view",
      "type": "function"
    },
    {
      "inputs": [
        {
          "internalType": "uint16",
          "name": "buildingId",
          "type": "uint16"
        }
      ],
      "name": "getBuilding",
      "outputs": [
        {
          "components": [
            {
              "internalType": "uint16",
              "name": "prerequisiteBuildingId",
              "type": "uint16"
            },
            {
              "internalType": "bool",
              "name": "isHeadquarters",
              "type": "bool"
            },
            {
              "internalType": "uint16",
              "name": "constructionRange",
              "type": "uint16"
            },
            {
              "internalType": "uint16",
              "name": "healthBoostPercentage",
              "type": "uint16"
            },
            {
              "internalType": "uint16",
              "name": "damageBoostPercentage",
              "type": "uint16"
            },
            {
              "components": [
                {
                  "internalType": "enum TokenAmountLib.TokenType",
                  "name": "tokenType",
                  "type": "uint8"
                },
                {
                  "internalType": "address",
                  "name": "tokenAddress",
                  "type": "address"
                },
                {
                  "internalType": "uint256",
                  "name": "tokenId",
                  "type": "uint256"
                },
                {
                  "internalType": "uint256",
                  "name": "amount",
                  "type": "uint256"
                }
              ],
              "internalType": "struct TokenAmountLib.TokenAmount[]",
              "name": "constructionCost",
              "type": "tuple[]"
            },
            {
              "internalType": "bool",
              "name": "canBeConstructed",
              "type": "bool"
            }
          ],
          "internalType": "struct IBuildingManager.Building",
          "name": "",
          "type": "tuple"
        }
      ],
      "stateMutability": "view",
      "type": "function"
    },
    {
      "inputs": [
        {
          "internalType": "uint16",
          "name": "buildingId",
          "type": "uint16"
        }
      ],
      "name": "getConstructionCost",
      "outputs": [
        {
          "components": [
            {
              "internalType": "enum TokenAmountLib.TokenType",
              "name": "tokenType",
              "type": "uint8"
            },
            {
              "internalType": "address",
              "name": "tokenAddress",
              "type": "address"
            },
            {
              "internalType": "uint256",
              "name": "tokenId",
              "type": "uint256"
            },
            {
              "internalType": "uint256",
              "name": "amount",
              "type": "uint256"
            }
          ],
          "internalType": "struct TokenAmountLib.TokenAmount[]",
          "name": "",
          "type": "tuple[]"
        }
      ],
      "stateMutability": "view",
      "type": "function"
    },
    {
      "inputs": [
        {
          "internalType": "uint16",
          "name": "buildingId",
          "type": "uint16"
        }
      ],
      "name": "getTotalBuildingConstructionCost",
      "outputs": [
        {
          "components": [
            {
              "internalType": "enum TokenAmountLib.TokenType",
              "name": "tokenType",
              "type": "uint8"
            },
            {
              "internalType": "address",
              "name": "tokenAddress",
              "type": "address"
            },
            {
              "internalType": "uint256",
              "name": "tokenId",
              "type": "uint256"
            },
            {
              "internalType": "uint256",
              "name": "amount",
              "type": "uint256"
            }
          ],
          "internalType": "struct TokenAmountLib.TokenAmount[]",
          "name": "",
          "type": "tuple[]"
        }
      ],
      "stateMutability": "view",
      "type": "function"
    },
    {
      "inputs": [],
      "name": "initialize",
      "outputs": [],
      "stateMutability": "nonpayable",
      "type": "function"
    },
    {
      "inputs": [],
      "name": "nextBuildingId",
      "outputs": [
        {
          "internalType": "uint16",
          "name": "",
          "type": "uint16"
        }
      ],
      "stateMutability": "view",
      "type": "function"
    },
    {
      "inputs": [],
      "name": "owner",
      "outputs": [
        {
          "internalType": "address",
          "name": "",
          "type": "address"
        }
      ],
      "stateMutability": "view",
      "type": "function"
    },
    {
      "inputs": [],
      "name": "renounceOwnership",
      "outputs": [],
      "stateMutability": "nonpayable",
      "type": "function"
    },
    {
      "inputs": [
        {
          "internalType": "uint16",
          "name": "buildingId",
          "type": "uint16"
        },
        {
          "internalType": "bool",
          "name": "canBeConstructed",
          "type": "bool"
        }
      ],
      "name": "setConstructability",
      "outputs": [],
      "stateMutability": "nonpayable",
      "type": "function"
    },
    {
      "inputs": [
        {
          "internalType": "address",
          "name": "newOwner",
          "type": "address"
        }
      ],
      "name": "transferOwnership",
      "outputs": [],
      "stateMutability": "nonpayable",
      "type": "function"
    }
  ],
  "bytecode": "0x608080604052346015576110aa908161001b8239f35b600080fdfe6080604052600436101561001257600080fd5b60003560e01c806328b7d276146100c7578063715018a6146100c25780637eae5754146100bd5780638129fc1c146100b85780638da5cb5b146100b3578063ade083c0146100ae578063b3c2864f146100a9578063c5b5d793146100a4578063e24d4a6b1461009f578063e66779071461009a5763f2fde38b1461009557600080fd5b6108de565b6107d5565b610700565b610673565b61062b565b61052c565b6104f6565b61038c565b610291565b610196565b6100e7565b61ffff8116036100d857565b600080fd5b801515036100d857565b346100d85760403660031901126100d857600435610104816100cc565b602435610110816100dd565b610118610db3565b61ffff80600054169216918210156101515761014f91600052600160205260026040600020019060ff801983541691151516179055565b005b60405162461bcd60e51b815260206004820152601760248201527f4275696c64696e6720646f6573206e6f742065786973740000000000000000006044820152606490fd5b346100d85760003660031901126100d8576101af610db3565b60008051602061103583398151915280546001600160a01b031981169091556000906001600160a01b03167f8be0079c531659141344cd1fd0a4f28419497f9722a3daafe3b4186f6b6457e08280a3005b908151600281101561023b57608092606091835260018060a01b03602082015116602084015260408101516040840152015160608201520190565b634e487b7160e01b600052602160045260246000fd5b602060408183019282815284518094520192019060005b8181106102755750505090565b90919260206102876001928651610200565b9401929101610268565b346100d85760203660031901126100d8576004356102ae816100cc565b61ffff6060915b16801561037a57600052600160205261ffff61037561036c6040600020936102db610921565b9461033861032d8254878116895260ff8160101c16151560208a01526103146103098261ffff9060181c1690565b61ffff1660408b0152565b61ffff602882901c1660608a01525b60381c61ffff1690565b61ffff166080880152565b61036561035c600261034c600185016109a4565b9360a08a01948552015460ff1690565b151560c0880152565b5190610e8d565b925161ffff1690565b6102b5565b604051806103888482610251565b0390f35b346100d85760003660031901126100d8576000805160206110558339815191525467ffffffffffffffff6103d060ff604084901c16159267ffffffffffffffff1690565b16801590816104ee575b60011490816104e4575b1590816104db575b506104ca5780610425600167ffffffffffffffff1960008051602061105583398151915254161760008051602061105583398151915255565b610493575b610432610a30565b61043857005b61046460ff60401b19600080516020611055833981519152541660008051602061105583398151915255565b604051600181527fc7f505b2f371ae2175ee4913f4499e1f2633a7b5936321eed1cdaeb6115181d290602090a1005b6104c5600160401b60ff60401b1960008051602061105583398151915254161760008051602061105583398151915255565b61042a565b63f92ee8a960e01b60005260046000fd5b905015386103ec565b303b1591506103e4565b8291506103da565b346100d85760003660031901126100d857600080516020611035833981519152546040516001600160a01b039091168152602090f35b346100d85760203660031901126100d85760043567ffffffffffffffff81116100d8578060040160e060031983360301126100d857610569610db3565b8035610574816100cc565b6000549061ffff808316911610156105e7576105b06105e2916105a96105a060a461014f970186610a63565b90501515610a99565b61ffff1690565b6105ce6105bc82610b06565b61ffff1661ffff196000541617600055565b61ffff166000526001602052604060002090565b610c31565b606460405162461bcd60e51b815260206004820152602060248201527f50726576696f7573206275696c64696e6720646f6573206e6f742065786973746044820152fd5b346100d85760203660031901126100d85761ffff60043561064b816100cc565b16600052600160205261038861066760016040600020016109a4565b60405191829182610251565b346100d85760203660031901126100d85761ffff600435610693816100cc565b166000908152600160209081526040918290208054600290910154835161ffff808416825260ff601085901c8116151595830195909552601884901c811695820195909552602883901c8516606082015260389290921c90931660808201529116151560a082015260c090f35b346100d85760003660031901126100d857602061ffff60005416604051908152f35b906020808351928381520192019060005b8181106107405750505090565b90919260206107526001928651610200565b9401929101610733565b6107d2906020815261ffff835116602082015260208301511515604082015261ffff604084015116606082015261079e6060840151608083019061ffff169052565b608083015161ffff1660a082015260e060c06107c860a08601518383860152610100850190610722565b9401511515910152565b90565b346100d85760203660031901126100d85761ffff6004356107f5816100cc565b600060c0610801610921565b828152826020820152826040820152826060820152826080820152606060a0820152015216600052600160205261038860406000206108c16108b86002610846610921565b9361089f610894825461ffff8116885260ff8160101c16151560208901526108816108768261ffff9060181c1690565b61ffff1660408a0152565b61ffff602882901c166060890152610323565b61ffff166080870152565b6108ab600182016109a4565b60a0860152015460ff1690565b151560c0830152565b6040519182918261075c565b6001600160a01b038116036100d857565b346100d85760203660031901126100d85761014f6004356108fe816108cd565b610906610db3565b610d3d565b634e487b7160e01b600052604160045260246000fd5b6040519060e0820182811067ffffffffffffffff82111761094157604052565b61090b565b604051906080820182811067ffffffffffffffff82111761094157604052565b6040519190601f01601f1916820167ffffffffffffffff81118382101761094157604052565b67ffffffffffffffff81116109415760051b60200190565b908154916109b96109b48461098c565b610966565b92808452602084019160005260206000206000925b8284106109db5750505050565b6109e3610946565b9082549060ff821690600282101561023b578360039360209360019652858060a01b039060081c1683820152848601546040820152600286015460608201528152019201930192906109ce565b610a38611006565b610a40611006565b610a4933610d3d565b600161ffff196000541617600055565b356107d2816100cc565b903590601e19813603018212156100d8570180359067ffffffffffffffff82116100d857602001918160071b360383136100d857565b15610aa057565b60405162461bcd60e51b815260206004820152602260248201527f436f6e737472756374696f6e20636f7374206d7573742062652070726f766964604482015261195960f21b6064820152608490fd5b634e487b7160e01b600052601160045260246000fd5b61ffff60019116019061ffff8211610b1a57565b610af0565b356107d2816100dd565b90803560028110156100d85760029160609160ff801986541691161784556020810135610b55816108cd565b8454610100600160a81b03191660089190911b610100600160a81b0316178455604081013560018501550135910155565b90600160401b8311610941578154838355808410610bde575b50610bb09091600052602060002090565b6000915b838310610bc15750505050565b6003608082610bd260019486610b29565b01920192019190610bb4565b80600302906003820403610b1a5783600302600381048503610b1a5783600052602060002091820191015b818110610c165750610b9f565b80600060039255600060018201556000600282015501610c09565b6002610d2860c0610d3b9461ffff8135610c4a816100cc565b1661ffff198654161785556020810135610c63816100dd565b855462ff0000191690151560101b62ff000016178555610ca66040820135610c8a816100cc565b865464ffff000000191660189190911b64ffff00000016178655565b610cd5610cb560608301610a59565b865466ffff0000000000191660289190911b66ffff000000000016178655565b610d08610ce460808301610a59565b865468ffff00000000000000191660389190911b68ffff0000000000000016178655565b610d22610d1860a0830183610a63565b9060018801610b86565b01610b1f565b91019060ff801983541691151516179055565b565b6001600160a01b03168015610d9d5760008051602061103583398151915280546001600160a01b0319811683179091556001600160a01b03167f8be0079c531659141344cd1fd0a4f28419497f9722a3daafe3b4186f6b6457e0600080a3565b631e4fbdf760e01b600052600060045260246000fd5b600080516020611035833981519152546001600160a01b03163303610dd457565b63118cdaa760e01b6000523360045260246000fd5b91908201809211610b1a57565b90610e036109b48361098c565b8281528092610e14601f199161098c565b019060005b828110610e2557505050565b602090610e30610946565b60008152600083820152600060408201526000606082015282828501015201610e19565b8051821015610e685760209160051b010190565b634e487b7160e01b600052603260045260246000fd5b6000198114610b1a5760010190565b91610ea3610e9e8451845190610de9565b610df6565b600091825b8551841015610ee557610edd600191610ec18689610e54565b51610ecc8287610e54565b52610ed78186610e54565b50610e7e565b930192610ea8565b945092600092505b8051831015610fff57600093845b8351811015610ff557610f226020610f138387610e54565b5101516001600160a01b031690565b610f40610f346020610f138988610e54565b6001600160a01b031690565b6001600160a01b039091161480610fd0575b610f5e57600101610efb565b909593919450610f8b6060610f8181610f77868a610e54565b5101519386610e54565b5101918251610de9565b905260015b15610fa1575b600101919392610eed565b91610fc8600191610fb28587610e54565b51610fbd8286610e54565b52610ed78185610e54565b929050610f96565b506040610fdd8286610e54565b5101516040610fec8786610e54565b51015114610f52565b5094929093610f90565b5092835250565b60ff6000805160206110558339815191525460401c161561102357565b631afcd79f60e31b60005260046000fdfe9016d09d72d40fdae2fd8ceac6b6234c7706214fd39c1cd1e609a0528c199300f0c57e16840df040f15088dc2f81fe391c3923bec73e23a9662efc9c229c6a00a26469706673582212209209909853fc605d80d619a5b02472108acf47b7c7fbcb9867dc7ee18ec4922364736f6c634300081c0033",
  "linkReferences": {},
  "deployedLinkReferences": {}
}