{
  "_format": "hh-sol-artifact-1",
  "contractName": "UnitManager",
  "sourceName": "contracts/data/UnitManager.sol",
  "abi": [
    {
      "inputs": [],
      "name": "InvalidInitialization",
      "type": "error"
    },
    {
      "inputs": [],
      "name": "NotInitializing",
      "type": "error"
    },
    {
      "inputs": [
        {
          "internalType": "address",
          "name": "owner",
          "type": "address"
        }
      ],
      "name": "OwnableInvalidOwner",
      "type": "error"
    },
    {
      "inputs": [
        {
          "internalType": "address",
          "name": "account",
          "type": "address"
        }
      ],
      "name": "OwnableUnauthorizedAccount",
      "type": "error"
    },
    {
      "anonymous": false,
      "inputs": [
        {
          "indexed": false,
          "internalType": "uint64",
          "name": "version",
          "type": "uint64"
        }
      ],
      "name": "Initialized",
      "type": "event"
    },
    {
      "anonymous": false,
      "inputs": [
        {
          "indexed": true,
          "internalType": "address",
          "name": "previousOwner",
          "type": "address"
        },
        {
          "indexed": true,
          "internalType": "address",
          "name": "newOwner",
          "type": "address"
        }
      ],
      "name": "OwnershipTransferred",
      "type": "event"
    },
    {
      "inputs": [
        {
          "components": [
            {
              "internalType": "uint16",
              "name": "prerequisiteUnitId",
              "type": "uint16"
            },
            {
              "internalType": "uint16[]",
              "name": "trainingBuildingIds",
              "type": "uint16[]"
            },
            {
              "internalType": "uint16",
              "name": "healthPoints",
              "type": "uint16"
            },
            {
              "internalType": "uint16",
              "name": "attackDamage",
              "type": "uint16"
            },
            {
              "internalType": "uint8",
              "name": "attackRange",
              "type": "uint8"
            },
            {
              "internalType": "uint8",
              "name": "movementRange",
              "type": "uint8"
            },
            {
              "internalType": "uint16",
              "name": "healthBoostPercentage",
              "type": "uint16"
            },
            {
              "internalType": "uint16",
              "name": "damageBoostPercentage",
              "type": "uint16"
            },
            {
              "components": [
                {
                  "internalType": "enum TokenAmountLib.TokenType",
                  "name": "tokenType",
                  "type": "uint8"
                },
                {
                  "internalType": "address",
                  "name": "tokenAddress",
                  "type": "address"
                },
                {
                  "internalType": "uint256",
                  "name": "tokenId",
                  "type": "uint256"
                },
                {
                  "internalType": "uint256",
                  "name": "amount",
                  "type": "uint256"
                }
              ],
              "internalType": "struct TokenAmountLib.TokenAmount[]",
              "name": "trainingCost",
              "type": "tuple[]"
            },
            {
              "components": [
                {
                  "internalType": "enum TokenAmountLib.TokenType",
                  "name": "tokenType",
                  "type": "uint8"
                },
                {
                  "internalType": "address",
                  "name": "tokenAddress",
                  "type": "address"
                },
                {
                  "internalType": "uint256",
                  "name": "tokenId",
                  "type": "uint256"
                },
                {
                  "internalType": "uint256",
                  "name": "amount",
                  "type": "uint256"
                }
              ],
              "internalType": "struct TokenAmountLib.TokenAmount[]",
              "name": "rangedAttackCost",
              "type": "tuple[]"
            },
            {
              "internalType": "bool",
              "name": "canBeTrained",
              "type": "bool"
            }
          ],
          "internalType": "struct IUnitManager.Unit",
          "name": "unit",
          "type": "tuple"
        }
      ],
      "name": "addUnit",
      "outputs": [],
      "stateMutability": "nonpayable",
      "type": "function"
    },
    {
      "inputs": [
        {
          "internalType": "uint16",
          "name": "unitId",
          "type": "uint16"
        }
      ],
      "name": "getTotalUnitTrainingCost",
      "outputs": [
        {
          "components": [
            {
              "internalType": "enum TokenAmountLib.TokenType",
              "name": "tokenType",
              "type": "uint8"
            },
            {
              "internalType": "address",
              "name": "tokenAddress",
              "type": "address"
            },
            {
              "internalType": "uint256",
              "name": "tokenId",
              "type": "uint256"
            },
            {
              "internalType": "uint256",
              "name": "amount",
              "type": "uint256"
            }
          ],
          "internalType": "struct TokenAmountLib.TokenAmount[]",
          "name": "",
          "type": "tuple[]"
        }
      ],
      "stateMutability": "view",
      "type": "function"
    },
    {
      "inputs": [
        {
          "internalType": "uint16",
          "name": "unitId",
          "type": "uint16"
        }
      ],
      "name": "getTrainingBuildingIds",
      "outputs": [
        {
          "internalType": "uint16[]",
          "name": "",
          "type": "uint16[]"
        }
      ],
      "stateMutability": "view",
      "type": "function"
    },
    {
      "inputs": [
        {
          "internalType": "uint16",
          "name": "unitId",
          "type": "uint16"
        }
      ],
      "name": "getTrainingCost",
      "outputs": [
        {
          "components": [
            {
              "internalType": "enum TokenAmountLib.TokenType",
              "name": "tokenType",
              "type": "uint8"
            },
            {
              "internalType": "address",
              "name": "tokenAddress",
              "type": "address"
            },
            {
              "internalType": "uint256",
              "name": "tokenId",
              "type": "uint256"
            },
            {
              "internalType": "uint256",
              "name": "amount",
              "type": "uint256"
            }
          ],
          "internalType": "struct TokenAmountLib.TokenAmount[]",
          "name": "",
          "type": "tuple[]"
        }
      ],
      "stateMutability": "view",
      "type": "function"
    },
    {
      "inputs": [
        {
          "internalType": "uint16",
          "name": "unitId",
          "type": "uint16"
        }
      ],
      "name": "getUnit",
      "outputs": [
        {
          "components": [
            {
              "internalType": "uint16",
              "name": "prerequisiteUnitId",
              "type": "uint16"
            },
            {
              "internalType": "uint16[]",
              "name": "trainingBuildingIds",
              "type": "uint16[]"
            },
            {
              "internalType": "uint16",
              "name": "healthPoints",
              "type": "uint16"
            },
            {
              "internalType": "uint16",
              "name": "attackDamage",
              "type": "uint16"
            },
            {
              "internalType": "uint8",
              "name": "attackRange",
              "type": "uint8"
            },
            {
              "internalType": "uint8",
              "name": "movementRange",
              "type": "uint8"
            },
            {
              "internalType": "uint16",
              "name": "healthBoostPercentage",
              "type": "uint16"
            },
            {
              "internalType": "uint16",
              "name": "damageBoostPercentage",
              "type": "uint16"
            },
            {
              "components": [
                {
                  "internalType": "enum TokenAmountLib.TokenType",
                  "name": "tokenType",
                  "type": "uint8"
                },
                {
                  "internalType": "address",
                  "name": "tokenAddress",
                  "type": "address"
                },
                {
                  "internalType": "uint256",
                  "name": "tokenId",
                  "type": "uint256"
                },
                {
                  "internalType": "uint256",
                  "name": "amount",
                  "type": "uint256"
                }
              ],
              "internalType": "struct TokenAmountLib.TokenAmount[]",
              "name": "trainingCost",
              "type": "tuple[]"
            },
            {
              "components": [
                {
                  "internalType": "enum TokenAmountLib.TokenType",
                  "name": "tokenType",
                  "type": "uint8"
                },
                {
                  "internalType": "address",
                  "name": "tokenAddress",
                  "type": "address"
                },
                {
                  "internalType": "uint256",
                  "name": "tokenId",
                  "type": "uint256"
                },
                {
                  "internalType": "uint256",
                  "name": "amount",
                  "type": "uint256"
                }
              ],
              "internalType": "struct TokenAmountLib.TokenAmount[]",
              "name": "rangedAttackCost",
              "type": "tuple[]"
            },
            {
              "internalType": "bool",
              "name": "canBeTrained",
              "type": "bool"
            }
          ],
          "internalType": "struct IUnitManager.Unit",
          "name": "",
          "type": "tuple"
        }
      ],
      "stateMutability": "view",
      "type": "function"
    },
    {
      "inputs": [],
      "name": "initialize",
      "outputs": [],
      "stateMutability": "nonpayable",
      "type": "function"
    },
    {
      "inputs": [],
      "name": "nextUnitId",
      "outputs": [
        {
          "internalType": "uint16",
          "name": "",
          "type": "uint16"
        }
      ],
      "stateMutability": "view",
      "type": "function"
    },
    {
      "inputs": [],
      "name": "owner",
      "outputs": [
        {
          "internalType": "address",
          "name": "",
          "type": "address"
        }
      ],
      "stateMutability": "view",
      "type": "function"
    },
    {
      "inputs": [],
      "name": "renounceOwnership",
      "outputs": [],
      "stateMutability": "nonpayable",
      "type": "function"
    },
    {
      "inputs": [
        {
          "internalType": "uint16",
          "name": "unitId",
          "type": "uint16"
        },
        {
          "internalType": "bool",
          "name": "canBeTrained",
          "type": "bool"
        }
      ],
      "name": "setTrainability",
      "outputs": [],
      "stateMutability": "nonpayable",
      "type": "function"
    },
    {
      "inputs": [
        {
          "internalType": "address",
          "name": "newOwner",
          "type": "address"
        }
      ],
      "name": "transferOwnership",
      "outputs": [],
      "stateMutability": "nonpayable",
      "type": "function"
    },
    {
      "inputs": [
        {
          "internalType": "uint16",
          "name": "",
          "type": "uint16"
        }
      ],
      "name": "units",
      "outputs": [
        {
          "internalType": "uint16",
          "name": "prerequisiteUnitId",
          "type": "uint16"
        },
        {
          "internalType": "uint16",
          "name": "healthPoints",
          "type": "uint16"
        },
        {
          "internalType": "uint16",
          "name": "attackDamage",
          "type": "uint16"
        },
        {
          "internalType": "uint8",
          "name": "attackRange",
          "type": "uint8"
        },
        {
          "internalType": "uint8",
          "name": "movementRange",
          "type": "uint8"
        },
        {
          "internalType": "uint16",
          "name": "healthBoostPercentage",
          "type": "uint16"
        },
        {
          "internalType": "uint16",
          "name": "damageBoostPercentage",
          "type": "uint16"
        },
        {
          "internalType": "bool",
          "name": "canBeTrained",
          "type": "bool"
        }
      ],
      "stateMutability": "view",
      "type": "function"
    }
  ],
  "bytecode": "0x608080604052346015576118e3908161001b8239f35b600080fdfe6080604052600436101561001257600080fd5b60003560e01c80630ab251cf146100d7578063715018a6146100d25780637e3b128b146100cd5780638129fc1c146100c8578063813e4fe8146100c35780638da5cb5b146100be578063940ea7e7146100b9578063b7392d8c146100b4578063c5be4f37146100af578063cef3af88146100aa578063f2fde38b146100a55763fe07e59d146100a057600080fd5b61098a565b610857565b6107fe565b6106d9565b610689565b6105ac565b61056c565b6104be565b610354565b610332565b6102c8565b61017e565b61ffff8116036100e857565b600080fd5b908151600281101561012857608092606091835260018060a01b03602082015116602084015260408101516040840152015160608201520190565b634e487b7160e01b600052602160045260246000fd5b602060408183019282815284518094520192019060005b8181106101625750505090565b909192602061017460019286516100ed565b9401929101610155565b346100e85760203660031901126100e85760043561019b816100dc565b61ffff6060915b1680156102b657600052600160205261ffff6102b16102a86040600020936101c8610dd7565b946101e06101d8825461ffff1690565b61ffff168752565b6101ec60018201610a96565b6020870152610260610255600283015461021561020a8261ffff1690565b61ffff1660408b0152565b61ffff601082901c1660608a015260ff602082901c1660808a015260ff602882901c1660a08a015261ffff603082901c1660c08a015260401c61ffff1690565b61ffff1660e0880152565b6102a1610297600561027460038501610dff565b936101008a0194855261028960048201610dff565b6101208b0152015460ff1690565b1515610140880152565b5190611690565b925161ffff1690565b6101a2565b604051806102c4848261013e565b0390f35b346100e85760003660031901126100e8576102e1611809565b60008051602061186e83398151915280546001600160a01b031981169091556000906001600160a01b03167f8be0079c531659141344cd1fd0a4f28419497f9722a3daafe3b4186f6b6457e08280a3005b346100e85760003660031901126100e857602061ffff60005416604051908152f35b346100e85760003660031901126100e85760008051602061188e8339815191525467ffffffffffffffff61039860ff604084901c16159267ffffffffffffffff1690565b16801590816104b6575b60011490816104ac575b1590816104a3575b5061049257806103ed600167ffffffffffffffff1960008051602061188e83398151915254161760008051602061188e83398151915255565b61045b575b6103fa610f15565b61040057005b61042c60ff60401b1960008051602061188e833981519152541660008051602061188e83398151915255565b604051600181527fc7f505b2f371ae2175ee4913f4499e1f2633a7b5936321eed1cdaeb6115181d290602090a1005b61048d600160401b60ff60401b1960008051602061188e83398151915254161760008051602061188e83398151915255565b6103f2565b63f92ee8a960e01b60005260046000fd5b905015386103b4565b303b1591506103ac565b8291506103a2565b346100e85760203660031901126100e85761ffff6004356104de816100dc565b166000526001602052604060002061ffff8154166102c46105086005600285015494015460ff1690565b6040805161ffff9485168152848616602080830191909152601087901c86168284015286901c60ff9081166060830152602887901c166080820152603086901c851660a082015294901c90921660c084015290151560e08301528190610100820190565b346100e85760003660031901126100e85760008051602061186e833981519152546040516001600160a01b039091168152602090f35b801515036100e857565b346100e85760403660031901126100e8576004356105c9816100dc565b6024356105d5816105a2565b6105dd611809565b61ffff80600054169216918210156106165761061491600052600160205260056040600020019060ff801983541691151516179055565b005b60405162461bcd60e51b8152602060048201526013602482015272155b9a5d08191bd95cc81b9bdd08195e1a5cdd606a1b6044820152606490fd5b906020808351928381520192019060005b81811061066f5750505090565b825161ffff16845260209384019390920191600101610662565b346100e85760203660031901126100e85761ffff6004356106a9816100dc565b1660005260016020526102c46106c56001604060002001610a96565b604051918291602083526020830190610651565b346100e85760203660031901126100e85760043567ffffffffffffffff81116100e8578060040161016060031983360301126100e857610717611809565b602482016107316107288284610f3e565b90501515610f74565b60005b61073e8284610f3e565b9050811015610780578061077a61077361076c610767600195610761888a610f3e565b90610fe5565b610ffa565b61ffff1690565b1515611004565b01610734565b610614836107b76107ae610104886107a76107a061076c60448401610ffa565b151561105c565b01836110b4565b905015156110ea565b6107f96107c760005461ffff1690565b6107e56107d38261114c565b61ffff1661ffff196000541617600055565b61ffff166000526001602052604060002090565b6113ea565b346100e85760203660031901126100e85761ffff60043561081e816100dc565b1660005260016020526102c461083a6003604060002001610dff565b6040519182918261013e565b6001600160a01b038116036100e857565b346100e85760203660031901126100e85761061460043561087781610846565b61087f611809565b61157e565b906020808351928381520192019060005b8181106108a25750505090565b90919260206108b460019286516100ed565b9401929101610895565b61098790602081526108d760208201845161ffff169052565b61016061014061097d6109676108fc6020880151856040880152610180870190610651565b604088015161ffff166060870152606088015161ffff166080870152608088015160ff1660a087015260a088015160ff1660c087015260c088015161ffff1660e087015260e088015161ffff16610100870152610100880151868203601f1901610120880152610884565b610120870151858203601f190184870152610884565b9401511515910152565b90565b346100e85760203660031901126100e85761ffff6004356109aa816100dc565b60006101406040516109bb81610a36565b828152606060208201528260408201528260608201528260808201528260a08201528260c08201528260e08201526060610100820152606061012082015201521660005260016020526102c4610a146040600020610e94565b604051918291826108be565b634e487b7160e01b600052604160045260246000fd5b610160810190811067ffffffffffffffff821117610a5357604052565b610a20565b6080810190811067ffffffffffffffff821117610a5357604052565b90601f8019910116810190811067ffffffffffffffff821117610a5357604052565b60405181548082529092918390610ab66020830191600052602060002090565b926000905b80600f830110610cd357610b51945491818110610cbe575b818110610ca5575b818110610c8d575b818110610c74575b818110610c5b575b818110610c42575b818110610c29575b818110610c10575b818110610bf7575b818110610bde575b818110610bc5575b818110610bac575b818110610b93575b818110610b7a575b818110610b61575b10610b53575b500383610a74565b565b60f01c815260200138610b49565b60e083901c61ffff168452926001906020019301610b43565b60d083901c61ffff168452926001906020019301610b3b565b60c083901c61ffff168452926001906020019301610b33565b60b083901c61ffff168452926001906020019301610b2b565b60a083901c61ffff168452926001906020019301610b23565b609083901c61ffff168452926001906020019301610b1b565b608083901c61ffff168452926001906020019301610b13565b607083901c61ffff168452926001906020019301610b0b565b606083901c61ffff168452926001906020019301610b03565b605083901c61ffff168452926001906020019301610afb565b604083901c61ffff168452926001906020019301610af3565b603083901c61ffff168452926001906020019301610aeb565b602083811c61ffff1685529093600191019301610ae3565b601083901c61ffff168452926001906020019301610adb565b61ffff83168452926001906020019301610ad3565b916010919350610200600191610dc98754610cf58361ffff831661ffff169052565b80861c61ffff166020840152602081901c61ffff166040840152603081901c61ffff166060840152604081901c61ffff166080840152605081901c61ffff1660a0840152606081901c61ffff1660c0840152607081901c61ffff1660e0840152608081901c61ffff16610100840152609081901c61ffff1661012084015260a081901c61ffff1661014084015260b081901c61ffff1661016084015260c081901c61ffff1661018084015260d081901c61ffff166101a084015260e081901c61ffff166101c084015260f01c6101e0830152565b019401920185929391610abb565b60405190610b5161016083610a74565b67ffffffffffffffff8111610a535760051b60200190565b90815491610e0c83610de7565b92610e1a6040519485610a74565b808452602084019160005260206000206000925b828410610e3b5750505050565b60405190610e4882610a58565b82549060ff8216906002821015610128578360039360209360019652858060a01b039060081c168382015284860154604082015260028601546060820152815201920193019290610e2e565b90610b51610f0b6005610ea5610dd7565b94610eb56101d8825461ffff1690565b610ec160018201610a96565b6020870152610edf610255600283015461021561020a8261ffff1690565b610eeb60038201610dff565b610100870152610efd60048201610dff565b610120870152015460ff1690565b1515610140840152565b610f1d61183f565b610f2561183f565b610f2e3361157e565b600161ffff196000541617600055565b903590601e19813603018212156100e8570180359067ffffffffffffffff82116100e857602001918160051b360383136100e857565b15610f7b57565b60405162461bcd60e51b815260206004820152602660248201527f547261696e696e67206275696c64696e6720494473206d7573742062652070726044820152651bdd9a59195960d21b6064820152608490fd5b634e487b7160e01b600052603260045260246000fd5b9190811015610ff55760051b0190565b610fcf565b35610987816100dc565b1561100b57565b60405162461bcd60e51b815260206004820152602360248201527f547261696e696e67206275696c64696e6720494473206d7573742062652076616044820152621b1a5960ea1b6064820152608490fd5b1561106357565b60405162461bcd60e51b8152602060048201526024808201527f4865616c746820706f696e7473206d75737420626520677265617465722074686044820152630616e20360e41b6064820152608490fd5b903590601e19813603018212156100e8570180359067ffffffffffffffff82116100e857602001918160071b360383136100e857565b156110f157565b60405162461bcd60e51b815260206004820152601e60248201527f547261696e696e6720636f7374206d7573742062652070726f766964656400006044820152606490fd5b634e487b7160e01b600052601160045260246000fd5b61ffff60019116019061ffff821161116057565b611136565b600160401b8211610a535780549082815581831061118257505050565b600052601e6020600020600f80850160041c8201930160041c019260011b16806111c0575b505b8181106111b4575050565b600081556001016111a9565b6000198201908154906000199060200360031b1c169055386111a7565b919067ffffffffffffffff8211610a5357611208906111fc8385611165565b92600052602060002090565b8160041c9160005b83811061127d5750600f19811690038061122b575b50505050565b9260009360005b81811061124757505050015538808080611225565b909194602061127360019261125b89610ffa565b9085851b61ffff809160031b9316831b921b19161790565b9601929101611232565b6000805b60108110611296575083820155600101611210565b959060206112c16001926112a985610ffa565b908a851b61ffff809160031b9316831b921b19161790565b92019601611281565b3560ff811681036100e85790565b90803560028110156100e85760029160609160ff80198654169116178455602081013561130481610846565b8454610100600160a81b03191660089190911b610100600160a81b0316178455604081013560018501550135910155565b90600160401b8311610a5357815483835580841061138d575b5061135f9091600052602060002090565b6000915b8383106113705750505050565b6003608082611381600194866112d8565b01920192019190611363565b8060030290600382040361116057836003026003810485036111605783600052602060002091820191015b8181106113c5575061134e565b806000600392556000600182015560006002820155016113b8565b35610987816105a2565b600561156b610140610b519461141461140282610ffa565b865461ffff191661ffff909116178655565b61142e6114246020830183610f3e565b90600188016111dd565b61152f6002860161145661144460408501610ffa565b825461ffff191661ffff909116178255565b61147f61146560608501610ffa565b825463ffff0000191660109190911b63ffff000016178255565b6114aa61148e608085016112ca565b825464ff00000000191660209190911b64ff0000000016178255565b6114d76114b960a085016112ca565b825465ff0000000000191660289190911b65ff000000000016178255565b6115086114e660c08501610ffa565b825467ffff000000000000191660309190911b67ffff00000000000016178255565b61151460e08401610ffa565b61ffff60401b82549160401b169061ffff60401b1916179055565b61154a6115406101008301836110b4565b9060038801611335565b61156561155b6101208301836110b4565b9060048801611335565b016113e0565b91019060ff801983541691151516179055565b6001600160a01b031680156115de5760008051602061186e83398151915280546001600160a01b0319811683179091556001600160a01b03167f8be0079c531659141344cd1fd0a4f28419497f9722a3daafe3b4186f6b6457e0600080a3565b631e4fbdf760e01b600052600060045260246000fd5b9190820180921161116057565b9061160b82610de7565b6116186040519182610a74565b8281528092611629601f1991610de7565b019060005b82811061163a57505050565b60209060405161164981610a58565b6000815260008382015260006040820152600060608201528282850101520161162e565b8051821015610ff55760209160051b010190565b60001981146111605760010190565b916116a66116a184518451906115f4565b611601565b600091825b85518410156116e8576116e06001916116c4868961166d565b516116cf828761166d565b526116da818661166d565b50611681565b9301926116ab565b945092600092505b805183101561180257600093845b83518110156117f8576117256020611716838761166d565b5101516001600160a01b031690565b6117436117376020611716898861166d565b6001600160a01b031690565b6001600160a01b0390911614806117d3575b611761576001016116fe565b90959391945061178e60606117848161177a868a61166d565b510151938661166d565b51019182516115f4565b905260015b156117a4575b6001019193926116f0565b916117cb6001916117b5858761166d565b516117c0828661166d565b526116da818561166d565b929050611799565b5060406117e0828661166d565b51015160406117ef878661166d565b51015114611755565b5094929093611793565b5092835250565b60008051602061186e833981519152546001600160a01b0316330361182a57565b63118cdaa760e01b6000523360045260246000fd5b60ff60008051602061188e8339815191525460401c161561185c57565b631afcd79f60e31b60005260046000fdfe9016d09d72d40fdae2fd8ceac6b6234c7706214fd39c1cd1e609a0528c199300f0c57e16840df040f15088dc2f81fe391c3923bec73e23a9662efc9c229c6a00a2646970667358221220fc4586d432a234420ca5c8ddccd8b1460963016112e2e7e79d09d714a452efbb64736f6c634300081c0033",
  "linkReferences": {},
  "deployedLinkReferences": {}
}