{
  "_format": "hh-sol-artifact-1",
  "contractName": "Construction",
  "sourceName": "contracts/actions/Construction.sol",
  "abi": [
    {
      "inputs": [],
      "name": "InvalidInitialization",
      "type": "error"
    },
    {
      "inputs": [],
      "name": "NotInitializing",
      "type": "error"
    },
    {
      "inputs": [
        {
          "internalType": "address",
          "name": "owner",
          "type": "address"
        }
      ],
      "name": "OwnableInvalidOwner",
      "type": "error"
    },
    {
      "inputs": [
        {
          "internalType": "address",
          "name": "account",
          "type": "address"
        }
      ],
      "name": "OwnableUnauthorizedAccount",
      "type": "error"
    },
    {
      "anonymous": false,
      "inputs": [
        {
          "indexed": false,
          "internalType": "uint64",
          "name": "version",
          "type": "uint64"
        }
      ],
      "name": "Initialized",
      "type": "event"
    },
    {
      "anonymous": false,
      "inputs": [
        {
          "indexed": true,
          "internalType": "address",
          "name": "previousOwner",
          "type": "address"
        },
        {
          "indexed": true,
          "internalType": "address",
          "name": "newOwner",
          "type": "address"
        }
      ],
      "name": "OwnershipTransferred",
      "type": "event"
    },
    {
      "inputs": [],
      "name": "battleground",
      "outputs": [
        {
          "internalType": "contract Battleground",
          "name": "",
          "type": "address"
        }
      ],
      "stateMutability": "view",
      "type": "function"
    },
    {
      "inputs": [],
      "name": "buildingsContract",
      "outputs": [
        {
          "internalType": "contract IBuildings",
          "name": "",
          "type": "address"
        }
      ],
      "stateMutability": "view",
      "type": "function"
    },
    {
      "inputs": [
        {
          "internalType": "uint16",
          "name": "x",
          "type": "uint16"
        },
        {
          "internalType": "uint16",
          "name": "y",
          "type": "uint16"
        },
        {
          "internalType": "uint16",
          "name": "buildingId",
          "type": "uint16"
        }
      ],
      "name": "constructBuilding",
      "outputs": [],
      "stateMutability": "nonpayable",
      "type": "function"
    },
    {
      "inputs": [],
      "name": "enemyBuildingSearchRange",
      "outputs": [
        {
          "internalType": "uint16",
          "name": "",
          "type": "uint16"
        }
      ],
      "stateMutability": "view",
      "type": "function"
    },
    {
      "inputs": [],
      "name": "headquartersSearchRange",
      "outputs": [
        {
          "internalType": "uint16",
          "name": "",
          "type": "uint16"
        }
      ],
      "stateMutability": "view",
      "type": "function"
    },
    {
      "inputs": [
        {
          "internalType": "address",
          "name": "_battleground",
          "type": "address"
        },
        {
          "internalType": "address",
          "name": "_buildingsContract",
          "type": "address"
        },
        {
          "internalType": "uint16",
          "name": "_hqSearchRange",
          "type": "uint16"
        },
        {
          "internalType": "uint16",
          "name": "_enemySearchRange",
          "type": "uint16"
        }
      ],
      "name": "initialize",
      "outputs": [],
      "stateMutability": "nonpayable",
      "type": "function"
    },
    {
      "inputs": [],
      "name": "owner",
      "outputs": [
        {
          "internalType": "address",
          "name": "",
          "type": "address"
        }
      ],
      "stateMutability": "view",
      "type": "function"
    },
    {
      "inputs": [],
      "name": "renounceOwnership",
      "outputs": [],
      "stateMutability": "nonpayable",
      "type": "function"
    },
    {
      "inputs": [
        {
          "internalType": "uint16",
          "name": "_hqSearchRange",
          "type": "uint16"
        },
        {
          "internalType": "uint16",
          "name": "_enemySearchRange",
          "type": "uint16"
        }
      ],
      "name": "setSearchRanges",
      "outputs": [],
      "stateMutability": "nonpayable",
      "type": "function"
    },
    {
      "inputs": [
        {
          "internalType": "address",
          "name": "newOwner",
          "type": "address"
        }
      ],
      "name": "transferOwnership",
      "outputs": [],
      "stateMutability": "nonpayable",
      "type": "function"
    }
  ],
  "bytecode": "0x608080604052346015576110b8908161001b8239f35b600080fdfe6080604052600436101561001257600080fd5b6000803560e01c80630dafc67c146107ad57806317ddc04e1461078857806356ddea0a14610761578063715018a6146106f75780638da5cb5b146106c1578063a8b6837614610698578063b0569d8114610673578063d8557d6614610291578063df442678146100ba5763f2fde38b1461008b57600080fd5b346100b75760203660031901126100b7576100b46100a7610841565b6100af610963565b6108ed565b80f35b80fd5b50346100b75760803660031901126100b7576100d4610841565b6024356001600160a01b0381169081900361028d576100f1610830565b6064359161ffff8316830361028957600080516020611063833981519152549360ff8560401c16159467ffffffffffffffff811680159081610281575b6001149081610277575b15908161026e575b5061025f5767ffffffffffffffff1981166001176000805160206110638339815191525585610232575b50610173611014565b61017b611014565b610184336108ed565b60018060a01b03166bffffffffffffffffffffffff60a01b8654161785556001549261ffff60b01b9060b01b169267ffffffffffffffff60c01b16179061ffff60a01b9060a01b1617176001556101d85780f35b68ff0000000000000000196000805160206110638339815191525416600080516020611063833981519152557fc7f505b2f371ae2175ee4913f4499e1f2633a7b5936321eed1cdaeb6115181d2602060405160018152a180f35b68ffffffffffffffffff19166801000000000000000117600080516020611063833981519152553861016a565b63f92ee8a960e01b8752600487fd5b90501538610140565b303b159150610138565b87915061012e565b8480fd5b8280fd5b50346100b75760603660031901126100b7576102ab610809565b906102b461081f565b916102bd610830565b8254604051630f7625ef60e41b815233600482015291949190602090829060249082906001600160a01b03165afa9081156105b6578491610654575b50156105ff576103098183610c91565b156105c15761ffff915b60015460405163083d527f60e01b81529390951660048401819052948490849060249082906001600160a01b03165afa9283156105b65784936104c1575b50835b8351811015610449576001600160a01b0361036f82866108c3565b515186549116906020906001600160a01b031660648261038f868a6108c3565b510151918960405195869485936323b872dd60e01b8552336004860152602485015260448401525af190811561043e578691610410575b50156103d457600101610354565b60405162461bcd60e51b815260206004820152601460248201527310dbdcdd081d1c985b9cd9995c8819985a5b195960621b6044820152606490fd5b610431915060203d8111610437575b6104298183610889565b8101906108ab565b386103c6565b503d61041f565b6040513d88823e3d90fd5b848381848960018060a01b03835416803b156104bd5783928360849261ffff9485604051998a978896630138e9a760e51b885216600487015216602485015233604485015260648401525af180156104b0576104a25780f35b6104ab91610889565b818180f35b50604051903d90823e3d90fd5b8380fd5b9092503d8085833e6104d38183610889565b8101906020818303126102895780519067ffffffffffffffff82116105b2570181601f820112156102895780519067ffffffffffffffff821161059e576040519261052460208460051b0185610889565b82845260208085019360061b8301019181831161059a57602001925b82841061055257505050509138610351565b60408483031261059a5760405161056881610857565b84516001600160a01b0381168103610596579181604093602093528287015183820152815201930192610540565b8980fd5b8780fd5b634e487b7160e01b86526041600452602486fd5b8580fd5b6040513d86823e3d90fd5b60405162461bcd60e51b81526020600482015260166024820152754e6f206e65617262792068656164717561727465727360501b6044820152606490fd5b6106098183610a3f565b6106165761ffff91610313565b60405162461bcd60e51b81526020600482015260166024820152754e656172627920656e656d79206275696c64696e677360501b6044820152606490fd5b61066d915060203d602011610437576104298183610889565b386102f9565b50346100b757806003193601126100b757602061ffff60015460b01c16604051908152f35b50346100b757806003193601126100b7576001546040516001600160a01b039091168152602090f35b50346100b757806003193601126100b757600080516020611043833981519152546040516001600160a01b039091168152602090f35b50346100b757806003193601126100b757610710610963565b60008051602061104383398151915280546001600160a01b0319811690915581906001600160a01b03167f8be0079c531659141344cd1fd0a4f28419497f9722a3daafe3b4186f6b6457e08280a380f35b50346100b757806003193601126100b757546040516001600160a01b039091168152602090f35b50346100b757806003193601126100b757602061ffff60015460a01c16604051908152f35b50346100b75760403660031901126100b7576107c7610809565b6107cf61081f565b6107d7610963565b6001805463ffffffff60a01b191660a09390931b61ffff60a01b169290921760b09190911b61ffff60b01b1617905580f35b6004359061ffff8216820361081a57565b600080fd5b6024359061ffff8216820361081a57565b6044359061ffff8216820361081a57565b600435906001600160a01b038216820361081a57565b6040810190811067ffffffffffffffff82111761087357604052565b634e487b7160e01b600052604160045260246000fd5b90601f8019910116810190811067ffffffffffffffff82111761087357604052565b9081602091031261081a5751801515810361081a5790565b80518210156108d75760209160051b010190565b634e487b7160e01b600052603260045260246000fd5b6001600160a01b0316801561094d5760008051602061104383398151915280546001600160a01b0319811683179091556001600160a01b03167f8be0079c531659141344cd1fd0a4f28419497f9722a3daafe3b4186f6b6457e0600080a3565b631e4fbdf760e01b600052600060045260246000fd5b600080516020611043833981519152546001600160a01b0316330361098457565b63118cdaa760e01b6000523360045260246000fd5b60010b617fff1981146109ac5760000390565b634e487b7160e01b600052601160045260246000fd5b60010b617fff81146109ac5760010190565b9060010b9060010b0190617fff198212617fff8313176109ac57565b519061ffff8216820361081a57565b9081604091031261081a5760405190610a1782610857565b80516001600160a01b038116810361081a578252610a37906020016109f0565b602082015290565b9061ffff60015460b01c1660010b610a5681610999565b6000546001600160a01b0316905b828160010b1315610a79575050505050600090565b610a8a8161ffff871660010b6109d4565b60008160010b128015610c20575b610c1657610aa584610999565b9061ffff16905b848160010b1315610ac7575050610ac2906109c2565b610a64565b610ad88161ffff881660010b6109d4565b60008160010b128015610ba5575b610b9b576040805163128c0de960e11b815261ffff858116600483015292909216602483015281604481885afa908115610b8f57600091610b61575b50516001600160a01b03168015159081610b56575b50610b4a57610b45906109c2565b610aac565b50505050505050600190565b905033141538610b37565b610b82915060403d8111610b88575b610b7a8183610889565b8101906109ff565b38610b22565b503d610b70565b6040513d6000823e3d90fd5b50610b45906109c2565b50604051630ef2674360e01b8152602081600481895afa8015610b8f57600090610bdc575b61ffff91501661ffff82161015610ae6565b6020823d8211610c0e575b81610bf460209383610889565b810103126100b75750610c0961ffff916109f0565b610bca565b3d9150610be7565b50610ac2906109c2565b50604051639ededf7760e01b8152602081600481875afa8015610b8f57600090610c57575b61ffff91501661ffff82161015610a98565b6020823d8211610c89575b81610c6f60209383610889565b810103126100b75750610c8461ffff916109f0565b610c45565b3d9150610c62565b60015461ffff8160a01c1660010b610ca881610999565b6000546001600160a01b0316915b8160010b9181831361100857610cd38161ffff881660010b6109d4565b9260008460010b128015610f97575b610f8857956000610cf284610999565b97129361ffff16965b8060010b848113610f6f57610d178261ffff8c1660010b6109d4565b9060008260010b128015610efe575b610db6578615610ef357610d3985610999565b61ffff16905b60001315610ee75761ffff80610d5485610999565b81165b169116019061ffff82116109ac576040805163128c0de960e11b815261ffff8c81166004830152929092166024830152816044818b5afa908115610b8f57600091610ec9575b5080516001600160a01b0316331480610e66575b610dc6575b5050610dc1906109c2565b610cfb565b602090810151604051637503e2f360e11b815261ffff909116600482015290816024816001600160a01b038d165afa908115610b8f57600091610e28575b5061ffff80911691161115610e1a573880610db6565b505050505050505050600190565b906020823d8211610e5e575b81610e4160209383610889565b810103126100b7575061ffff610e5781926109f0565b9150610e04565b3d9150610e34565b50602081810151604051630a228fcb60e41b815261ffff909116600482015290816024816001600160a01b038e165afa908115610b8f57600091610eab575b50610db1565b610ec3915060203d8111610437576104298183610889565b38610ea5565b610ee1915060403d8111610b8857610b7a8183610889565b38610d9d565b61ffff80848116610d57565b8461ffff1690610d3f565b50604051630ef2674360e01b81526020816004818c5afa8015610b8f57600090610f35575b61ffff91501661ffff83161015610d26565b6020823d8211610f67575b81610f4d60209383610889565b810103126100b75750610f6261ffff916109f0565b610f23565b3d9150610f40565b5050969550610f7f9192506109c2565b90949394610cb6565b50610f7f9192509594956109c2565b50604051639ededf7760e01b8152602081600481895afa8015610b8f57600090610fce575b61ffff91501661ffff85161015610ce2565b6020823d8211611000575b81610fe660209383610889565b810103126100b75750610ffb61ffff916109f0565b610fbc565b3d9150610fd9565b50505050505050600090565b60ff6000805160206110638339815191525460401c161561103157565b631afcd79f60e31b60005260046000fdfe9016d09d72d40fdae2fd8ceac6b6234c7706214fd39c1cd1e609a0528c199300f0c57e16840df040f15088dc2f81fe391c3923bec73e23a9662efc9c229c6a00a2646970667358221220c44864d50e05343aff7f5ea17ad88bb29b1582ba262d1acd552df5c1aba4315964736f6c634300081c0033",
  "linkReferences": {},
  "deployedLinkReferences": {}
}