{
  "_format": "hh-sol-artifact-1",
  "contractName": "MaterialTrade",
  "sourceName": "contracts/gaming/MaterialTrade.sol",
  "abi": [
    {
      "anonymous": false,
      "inputs": [
        {
          "indexed": false,
          "internalType": "uint8",
          "name": "version",
          "type": "uint8"
        }
      ],
      "name": "Initialized",
      "type": "event"
    },
    {
      "anonymous": false,
      "inputs": [
        {
          "indexed": true,
          "internalType": "address",
          "name": "materialOwner",
          "type": "address"
        },
        {
          "indexed": true,
          "internalType": "address",
          "name": "materialAddress",
          "type": "address"
        },
        {
          "indexed": false,
          "internalType": "string",
          "name": "name",
          "type": "string"
        },
        {
          "indexed": false,
          "internalType": "string",
          "name": "symbol",
          "type": "string"
        }
      ],
      "name": "MaterialCreated",
      "type": "event"
    },
    {
      "anonymous": false,
      "inputs": [
        {
          "indexed": true,
          "internalType": "address",
          "name": "previousOwner",
          "type": "address"
        },
        {
          "indexed": true,
          "internalType": "address",
          "name": "newOwner",
          "type": "address"
        }
      ],
      "name": "OwnershipTransferred",
      "type": "event"
    },
    {
      "anonymous": false,
      "inputs": [
        {
          "indexed": false,
          "internalType": "uint256",
          "name": "percent",
          "type": "uint256"
        }
      ],
      "name": "SetMaterialOwnerFeePercent",
      "type": "event"
    },
    {
      "anonymous": false,
      "inputs": [
        {
          "indexed": true,
          "internalType": "address",
          "name": "destination",
          "type": "address"
        }
      ],
      "name": "SetProtocolFeeDestination",
      "type": "event"
    },
    {
      "anonymous": false,
      "inputs": [
        {
          "indexed": false,
          "internalType": "uint256",
          "name": "percent",
          "type": "uint256"
        }
      ],
      "name": "SetProtocolFeePercent",
      "type": "event"
    },
    {
      "anonymous": false,
      "inputs": [
        {
          "indexed": true,
          "internalType": "address",
          "name": "trader",
          "type": "address"
        },
        {
          "indexed": true,
          "internalType": "address",
          "name": "materialAddress",
          "type": "address"
        },
        {
          "indexed": true,
          "internalType": "bool",
          "name": "isBuy",
          "type": "bool"
        },
        {
          "indexed": false,
          "internalType": "uint256",
          "name": "amount",
          "type": "uint256"
        },
        {
          "indexed": false,
          "internalType": "uint256",
          "name": "price",
          "type": "uint256"
        },
        {
          "indexed": false,
          "internalType": "uint256",
          "name": "protocolFee",
          "type": "uint256"
        },
        {
          "indexed": false,
          "internalType": "uint256",
          "name": "materialOwnerFee",
          "type": "uint256"
        },
        {
          "indexed": false,
          "internalType": "uint256",
          "name": "supply",
          "type": "uint256"
        }
      ],
      "name": "Trade",
      "type": "event"
    },
    {
      "inputs": [
        {
          "internalType": "address",
          "name": "materialAddress",
          "type": "address"
        },
        {
          "internalType": "uint256",
          "name": "amount",
          "type": "uint256"
        }
      ],
      "name": "buy",
      "outputs": [],
      "stateMutability": "payable",
      "type": "function"
    },
    {
      "inputs": [
        {
          "internalType": "string",
          "name": "name",
          "type": "string"
        },
        {
          "internalType": "string",
          "name": "symbol",
          "type": "string"
        }
      ],
      "name": "createMaterial",
      "outputs": [
        {
          "internalType": "address",
          "name": "",
          "type": "address"
        }
      ],
      "stateMutability": "nonpayable",
      "type": "function"
    },
    {
      "inputs": [
        {
          "internalType": "address",
          "name": "materialAddress",
          "type": "address"
        },
        {
          "internalType": "uint256",
          "name": "amount",
          "type": "uint256"
        }
      ],
      "name": "getBuyPrice",
      "outputs": [
        {
          "internalType": "uint256",
          "name": "",
          "type": "uint256"
        }
      ],
      "stateMutability": "view",
      "type": "function"
    },
    {
      "inputs": [
        {
          "internalType": "address",
          "name": "materialAddress",
          "type": "address"
        },
        {
          "internalType": "uint256",
          "name": "amount",
          "type": "uint256"
        }
      ],
      "name": "getBuyPriceAfterFee",
      "outputs": [
        {
          "internalType": "uint256",
          "name": "",
          "type": "uint256"
        }
      ],
      "stateMutability": "view",
      "type": "function"
    },
    {
      "inputs": [
        {
          "internalType": "uint256",
          "name": "supply",
          "type": "uint256"
        },
        {
          "internalType": "uint256",
          "name": "amount",
          "type": "uint256"
        }
      ],
      "name": "getPrice",
      "outputs": [
        {
          "internalType": "uint256",
          "name": "",
          "type": "uint256"
        }
      ],
      "stateMutability": "view",
      "type": "function"
    },
    {
      "inputs": [
        {
          "internalType": "address",
          "name": "materialAddress",
          "type": "address"
        },
        {
          "internalType": "uint256",
          "name": "amount",
          "type": "uint256"
        }
      ],
      "name": "getSellPrice",
      "outputs": [
        {
          "internalType": "uint256",
          "name": "",
          "type": "uint256"
        }
      ],
      "stateMutability": "view",
      "type": "function"
    },
    {
      "inputs": [
        {
          "internalType": "address",
          "name": "materialAddress",
          "type": "address"
        },
        {
          "internalType": "uint256",
          "name": "amount",
          "type": "uint256"
        }
      ],
      "name": "getSellPriceAfterFee",
      "outputs": [
        {
          "internalType": "uint256",
          "name": "",
          "type": "uint256"
        }
      ],
      "stateMutability": "view",
      "type": "function"
    },
    {
      "inputs": [],
      "name": "initialPricePerToken",
      "outputs": [
        {
          "internalType": "uint256",
          "name": "",
          "type": "uint256"
        }
      ],
      "stateMutability": "view",
      "type": "function"
    },
    {
      "inputs": [
        {
          "internalType": "address payable",
          "name": "_protocolFeeDestination",
          "type": "address"
        },
        {
          "internalType": "uint256",
          "name": "_protocolFeePercent",
          "type": "uint256"
        },
        {
          "internalType": "uint256",
          "name": "_materialOwnerFeePercent",
          "type": "uint256"
        },
        {
          "internalType": "uint256",
          "name": "_initialPricePerToken",
          "type": "uint256"
        },
        {
          "internalType": "uint256",
          "name": "_priceIncrementPerToken",
          "type": "uint256"
        }
      ],
      "name": "initialize",
      "outputs": [],
      "stateMutability": "nonpayable",
      "type": "function"
    },
    {
      "inputs": [],
      "name": "materialOwnerFeePercent",
      "outputs": [
        {
          "internalType": "uint256",
          "name": "",
          "type": "uint256"
        }
      ],
      "stateMutability": "view",
      "type": "function"
    },
    {
      "inputs": [],
      "name": "owner",
      "outputs": [
        {
          "internalType": "address",
          "name": "",
          "type": "address"
        }
      ],
      "stateMutability": "view",
      "type": "function"
    },
    {
      "inputs": [],
      "name": "priceIncrementPerToken",
      "outputs": [
        {
          "internalType": "uint256",
          "name": "",
          "type": "uint256"
        }
      ],
      "stateMutability": "view",
      "type": "function"
    },
    {
      "inputs": [],
      "name": "protocolFeeDestination",
      "outputs": [
        {
          "internalType": "address payable",
          "name": "",
          "type": "address"
        }
      ],
      "stateMutability": "view",
      "type": "function"
    },
    {
      "inputs": [],
      "name": "protocolFeePercent",
      "outputs": [
        {
          "internalType": "uint256",
          "name": "",
          "type": "uint256"
        }
      ],
      "stateMutability": "view",
      "type": "function"
    },
    {
      "inputs": [],
      "name": "renounceOwnership",
      "outputs": [],
      "stateMutability": "nonpayable",
      "type": "function"
    },
    {
      "inputs": [
        {
          "internalType": "address",
          "name": "materialAddress",
          "type": "address"
        },
        {
          "internalType": "uint256",
          "name": "amount",
          "type": "uint256"
        }
      ],
      "name": "sell",
      "outputs": [],
      "stateMutability": "nonpayable",
      "type": "function"
    },
    {
      "inputs": [
        {
          "internalType": "uint256",
          "name": "_feePercent",
          "type": "uint256"
        }
      ],
      "name": "setMaterialOwnerFeePercent",
      "outputs": [],
      "stateMutability": "nonpayable",
      "type": "function"
    },
    {
      "inputs": [
        {
          "internalType": "address payable",
          "name": "_feeDestination",
          "type": "address"
        }
      ],
      "name": "setProtocolFeeDestination",
      "outputs": [],
      "stateMutability": "nonpayable",
      "type": "function"
    },
    {
      "inputs": [
        {
          "internalType": "uint256",
          "name": "_feePercent",
          "type": "uint256"
        }
      ],
      "name": "setProtocolFeePercent",
      "outputs": [],
      "stateMutability": "nonpayable",
      "type": "function"
    },
    {
      "inputs": [
        {
          "internalType": "address",
          "name": "newOwner",
          "type": "address"
        }
      ],
      "name": "transferOwnership",
      "outputs": [],
      "stateMutability": "nonpayable",
      "type": "function"
    }
  ],
  "bytecode": "0x6080806040523461001657613d67908161001c8239f35b600080fdfe604060808152600490813610156200001657600080fd5b600091823560e01c80630f026f6d1462000e18578063150e08691462000df75780632267a89c1462000d9a5780634635256e1462000d6b5780634ce7957c1462000d405780635cf4ee911462000d1957806362b7387b1462000cf85780636c197ff51462000a0a578063715018a614620009a85780638da5cb5b146200097d5780639ae717811462000947578063a10786b014620008d9578063a49834211462000888578063acd3c1c41462000755578063c04aabb11462000704578063cce7ec131462000418578063d6e6eb9f14620003f7578063dc4c132814620003d2578063f2fde38b14620003385763f92ad219146200011257600080fd5b34620003345760a036600319011262000334576200012f62000e75565b9060243560443590855460ff8160081c16159384809562000326575b80156200030d575b15620002b35750917f98d1698e9a7ee55a2ded97de72077c93add26ce8534679021d0e7c44edcb325b602080937fcbed27c3b5051584184ee1ed4b8cccaed83291c58664ae0687f428add9eb793a9587600160ff198316178c55620002a1575b50620001d160ff8b5460081c16620001cb816200122c565b6200122c565b620001dc33620011e3565b895497620001f560ff8a60081c16620001cb816200122c565b600160655560018060a01b031690816bffffffffffffffffffffffff60a01b60975416176097558060985584609955606435609a55608435609b558951917f72fe3f5fb15c2671900303001fbe3a8adf9df5c76bfd269a9508c8753b9c35c98c80a28152a18551908152a162000269578280f35b61ff001916825551600181527f7f26b83ff96e1f2b6a682f133852f6798a09c465da95921460cefb384740249890602090a138808280f35b61ffff1916610101178a5538620001b3565b608490602088519162461bcd60e51b8352820152602e60248201527f496e697469616c697a61626c653a20636f6e747261637420697320616c72656160448201526d191e481a5b9a5d1a585b1a5e995960921b6064820152fd5b50303b158015620001535750600160ff83161462000153565b50600160ff8316106200014b565b8280fd5b50346200033457602036600319011262000334576200035662000e75565b91620003616200118a565b6001600160a01b038316156200038057836200037d84620011e3565b80f35b906020608492519162461bcd60e51b8352820152602660248201527f4f776e61626c653a206e6577206f776e657220697320746865207a65726f206160448201526564647265737360d01b6064820152fd5b505034620003f35781600319360112620003f357602090609a549051908152f35b5080fd5b505034620003f35781600319360112620003f3576020906098549051908152f35b50908060031936011262000334576200043062000e75565b6024359062000440828262000f8a565b92600260655414620006c257600260655560018060a01b0380921693670de0b6b3a76400009182620004756099548462000f44565b0492620004856098548462000f44565b04916200049e8462000498858462000f6e565b62000f6e565b34106200068857863b156200067a5781516340c10f1960e01b815233818a01908152602081018890528a91908290829081906040010381838d5af180156200067e5762000662575b5050620004f88386609754166200128d565b8151638da5cb5b60e01b81526020959086818b818c5afa90811562000658579186916200052f938d9162000624575b50166200128d565b620005408462000498858462000f6e565b3411620005f7575b84825180996318160ddd60e01b8252818a5afa948515620005ed578995620005b2575b600198508251968752860152840152606083015260808201527f2c76e7a47fd53e2854856ac3f0a5f3ee40d15cfaa82266357ea9779c486ab9c360a03392a4600160655580f35b80955088813d8311620005e5575b620005cc818362000eb7565b81010312620005e05760019751946200056b565b600080fd5b503d620005c0565b82513d8b823e3d90fd5b6200061e6200061785620006118662000611863462000f7c565b62000f7c565b336200128d565b62000548565b620006499150893d8b1162000650575b62000640818362000eb7565b81019062001169565b3862000527565b503d62000634565b84513d8d823e3d90fd5b6200066d9062000e8c565b6200067a578838620004e6565b8880fd5b84513d84823e3d90fd5b815162461bcd60e51b81526020818a01526014602482015273125b9cdd59999a58da595b9d081c185e5b595b9d60621b6044820152606490fd5b5162461bcd60e51b8152602081860152601f60248201527f5265656e7472616e637947756172643a207265656e7472616e742063616c6c006044820152606490fd5b50346200033457602036600319011262000334577fcbed27c3b5051584184ee1ed4b8cccaed83291c58664ae0687f428add9eb793a916020913590620007496200118a565b8160995551908152a180f35b509134620008855781600319360112620008855767ffffffffffffffff908335828111620003f3576200078c903690860162000ef7565b936024358381116200033457620007a7903690830162000ef7565b9284519161299c9081840192848410908411176200087257508291620007f59162001396843933815260606020820152620007e6606082018962001127565b90878183039101528562001127565b039082f0908115620008675783518481526020906001600160a01b038416908690829087907fe9de9a3e1dddbf259893723eddfaf2984b03051c5b1a759d16dbf589cb4e5fa290806200085e6200084f8288018f62001127565b8281038a840152339562001127565b0390a351908152f35b8351903d90823e3d90fd5b634e487b7160e01b855260419052602484fd5b80fd5b50346200033457602036600319011262000334577f98d1698e9a7ee55a2ded97de72077c93add26ce8534679021d0e7c44edcb325b916020913590620008cd6200118a565b8160985551908152a180f35b8334620008855760203660031901126200088557620008f762000e75565b620009016200118a565b609780546001600160a01b0319166001600160a01b039290921691821790557f72fe3f5fb15c2671900303001fbe3a8adf9df5c76bfd269a9508c8753b9c35c98280a280f35b505034620003f35780600319360112620003f357602090620009766200096c62000e75565b602435906200109e565b9051908152f35b505034620003f35781600319360112620003f35760335490516001600160a01b039091168152602090f35b83346200088557806003193601126200088557620009c56200118a565b603380546001600160a01b031981169091556000906001600160a01b03167f8be0079c531659141344cd1fd0a4f28419497f9722a3daafe3b4186f6b6457e08280a380f35b50919034620003f35780600319360112620003f35762000a2962000e75565b926024359062000a3a82866200109e565b9260026065541462000cb557600260655560018060a01b0380961693670de0b6b3a7640000918262000a6f6099548462000f44565b049262000a7f6098548462000f44565b049181516370a0823160e01b8152338682015260209081816024818c5afa90811562000c37579088918b9162000c7a575b501062000c4157873b156200067a578251632770a7eb60e21b81523387820190815260208101899052909a908a908c9081906040010381838d5af1801562000c375762000c20575b899a5062000b10620006178762000611888762000f7c565b62000b208582609754166200128d565b8351638da5cb5b60e01b8152828189818d5afa90811562000c165791879162000b52938d9162000bfb5750166200128d565b80835180976318160ddd60e01b8252818b5afa95861562000bf157899662000bb9575b508251968752860152840152606083015260808201527f2c76e7a47fd53e2854856ac3f0a5f3ee40d15cfaa82266357ea9779c486ab9c360a03392a4600160655580f35b809950818097503d831162000be9575b62000bd5818362000eb7565b81010312620005e057889751943862000b75565b503d62000bc9565b83513d8b823e3d90fd5b620006499150853d8711620006505762000640818362000eb7565b85513d8d823e3d90fd5b98909962000c2e9062000e8c565b97899062000af8565b84513d8c823e3d90fd5b8560649184519162461bcd60e51b83528201526014602482015273496e73756666696369656e742062616c616e636560601b6044820152fd5b809250838092503d831162000cad575b62000c96818362000eb7565b8101031262000ca9578790513862000ab0565b8980fd5b503d62000c8a565b906020606492519162461bcd60e51b8352820152601f60248201527f5265656e7472616e637947756172643a207265656e7472616e742063616c6c006044820152fd5b505034620003f35781600319360112620003f357602090609b549051908152f35b50913462000885578160031936011262000885575062000976602092602435903562001014565b505034620003f35781600319360112620003f35760975490516001600160a01b039091168152602090f35b505034620003f35780600319360112620003f3576020906200097662000d9062000e75565b6024359062000f8a565b505034620003f35780600319360112620003f3576020906200097662000dc36200096c62000e75565b62000611670de0b6b3a76400008062000ddf6098548562000f44565b049062000def6099548562000f44565b049262000f7c565b505034620003f35781600319360112620003f3576020906099549051908152f35b505034620003f35780600319360112620003f3576020906200097662000e4162000d9062000e75565b62000498670de0b6b3a76400008062000e5d6098548562000f44565b049062000e6d6099548562000f44565b049262000f6e565b600435906001600160a01b0382168203620005e057565b67ffffffffffffffff811162000ea157604052565b634e487b7160e01b600052604160045260246000fd5b90601f8019910116810190811067ffffffffffffffff82111762000ea157604052565b67ffffffffffffffff811162000ea157601f01601f191660200190565b81601f82011215620005e05780359062000f118262000eda565b9262000f21604051948562000eb7565b82845260208383010111620005e057816000926020809301838601378301015290565b8181029291811591840414171562000f5857565b634e487b7160e01b600052601160045260246000fd5b9190820180921162000f5857565b9190820391821162000f5857565b6040516318160ddd60e01b81529190602090839060049082906001600160a01b03165afa8015620010085760009062000fcd575b62000fca925062001014565b90565b506020823d60201162000fff575b8162000fea6020938362000eb7565b81010312620005e05762000fca915162000fbe565b3d915062000fdb565b6040513d6000823e3d90fd5b609a5491609b54670de0b6b3a7640000926200104a8362001043866200103b868662000f44565b048862000f6e565b9262000f6e565b60001981019290831162000f58576ec097ce7bc90715b34b9f1000000000956200109795620010826200108a93620010919662000f44565b049062000f6e565b9062000f6e565b62000f44565b60011c0490565b6040516318160ddd60e01b81529190602090839060049082906001600160a01b03165afa9182156200100857600092620010ea575b50620010e48162000fca9362000f7c565b62001014565b91506020823d6020116200111e575b81620011086020938362000eb7565b81010312620005e057905190620010e4620010d3565b3d9150620010f9565b919082519283825260005b84811062001154575050826000602080949584010152601f8019910116010190565b60208183018101518483018201520162001132565b90816020910312620005e057516001600160a01b0381168103620005e05790565b6033546001600160a01b031633036200119f57565b606460405162461bcd60e51b815260206004820152602060248201527f4f776e61626c653a2063616c6c6572206973206e6f7420746865206f776e65726044820152fd5b603380546001600160a01b039283166001600160a01b0319821681179092559091167f8be0079c531659141344cd1fd0a4f28419497f9722a3daafe3b4186f6b6457e0600080a3565b156200123457565b60405162461bcd60e51b815260206004820152602b60248201527f496e697469616c697a61626c653a20636f6e7472616374206973206e6f74206960448201526a6e697469616c697a696e6760a81b6064820152608490fd5b81471062001350576000918291829182916001600160a01b03165af13d156200134a573d620012bc8162000eda565b90620012cc604051928362000eb7565b8152600060203d92013e5b15620012df57565b60405162461bcd60e51b815260206004820152603a60248201527f416464726573733a20756e61626c6520746f2073656e642076616c75652c207260448201527f6563697069656e74206d617920686176652072657665727465640000000000006064820152608490fd5b620012d7565b60405162461bcd60e51b815260206004820152601d60248201527f416464726573733a20696e73756666696369656e742062616c616e63650000006044820152606490fdfe6101808060405234620008c6576200299c803803809162000021828562000903565b83398101606082820312620008c6578151916001600160a01b0383168303620008c65760208101516001600160401b038111620008c65782620000669183016200094c565b60408201519092906001600160401b038111620008c6576200008992016200094c565b906040516200009881620008cb565b600881526713585d195c9a585b60c21b602082015260405190620000bc82620008e7565b60008252604051620000ce81620008e7565b6000815260405192620000e184620008cb565b60018452603160f81b60208501528051906001600160401b038211620005735760035490600182811c92168015620008bb575b6020831014620005525781601f84931162000849575b50602090601f8311600114620007ba57600092620007ae575b50508160011b916000199060031b1c1916176003555b8051906001600160401b038211620005735760045490600182811c92168015620007a3575b6020831014620005525781601f8493116200072e575b50602090601f83116001146200069f5760009262000693575b50508160011b916000199060031b1c1916176004555b620001ce8162000a29565b61012052620001dd8262000bad565b6101405260208151910120908160e0526020815191012080610100524660a0526040519060208201927f8b73c3c69bb8fe3d512ecc4cf759cc79239f7b179b0ffacaa9a75d522b39400f8452604083015260608201524660808201523060a082015260a0815260c0810181811060018060401b0382111762000573576040525190206080523060c0526200027133620009d5565b3361016090815281519093906001600160401b0381116200057357600b54600181811c9116801562000688575b60208210146200055257601f81116200061e575b50806020601f8211600114620005955760009162000589575b508160011b916000199060031b1c191617600b555b82516001600160401b0381116200057357600c54600181811c9116801562000568575b60208210146200055257601f8111620004e8575b506020601f82116001146200041f57620003a9936200038c7fadf3ae8bd543b3007d464f15cb8ea1db3f44e84d41d203164f40b95e27558ac69694846000805160206200297c83398151915295620003999560009162000413575b508160011b916000199060031b1c191617600c55620009d5565b60405191829182620009a7565b0390a160405191829182620009a7565b0390a1604051611c77918262000d0583396080518261178a015260a05182611856015260c05182611754015260e051826117d9015261010051826117ff01526101205182610ca601526101405182610cd001525181818161095901528181610f6c01526111290152f35b90508701513862000372565b600c60009081527fdf6966c971051c3d54ec59162606531493a51404a002842f56009d7e5cf4a8c79190601f198416905b818110620004cf57507fadf3ae8bd543b3007d464f15cb8ea1db3f44e84d41d203164f40b95e27558ac696946001856200039995620003a999956000805160206200297c833981519152986200038c9610620004b5575b5050811b01600c55620009d5565b89015160001960f88460031b161c191690553880620004a7565b9192602060018192868b01518155019401920162000450565b600c6000527fdf6966c971051c3d54ec59162606531493a51404a002842f56009d7e5cf4a8c7601f830160051c8101916020841062000547575b601f0160051c01905b8181106200053a575062000317565b600081556001016200052b565b909150819062000522565b634e487b7160e01b600052602260045260246000fd5b90607f169062000303565b634e487b7160e01b600052604160045260246000fd5b905083015138620002cb565b600b60009081527f0175b7a638427703f0dbe7bb9bbf987a2551717b34e79f33b5b1008d1fa01db99250601f198416905b8181106200060557509083600194939210620005eb575b5050811b01600b55620002e0565b85015160001960f88460031b161c191690553880620005dd565b9192602060018192868a015181550194019201620005c6565b600b6000527f0175b7a638427703f0dbe7bb9bbf987a2551717b34e79f33b5b1008d1fa01db9601f830160051c810191602084106200067d575b601f0160051c01905b818110620006705750620002b2565b6000815560010162000661565b909150819062000658565b90607f16906200029e565b015190503880620001ad565b6004600090815293507f8a35acfbc15ff81a39ae7d344fd709f28e8600b4aa8c65c6b64bfe7fe36bd19b91905b601f198416851062000712576001945083601f19811610620006f8575b505050811b01600455620001c3565b015160001960f88460031b161c19169055388080620006e9565b81810151835560209485019460019093019290910190620006cc565b60046000529091507f8a35acfbc15ff81a39ae7d344fd709f28e8600b4aa8c65c6b64bfe7fe36bd19b601f840160051c8101916020851062000798575b90601f859493920160051c01905b81811062000788575062000194565b6000815584935060010162000779565b90915081906200076b565b91607f16916200017e565b01519050388062000143565b6003600090815293507fc2575a0e9e593c00f959f8c92f12db2869c3395a3b0502d05e2516446f71f85b91905b601f19841685106200082d576001945083601f1981161062000813575b505050811b0160035562000159565b015160001960f88460031b161c1916905538808062000804565b81810151835560209485019460019093019290910190620007e7565b60036000529091507fc2575a0e9e593c00f959f8c92f12db2869c3395a3b0502d05e2516446f71f85b601f840160051c810160208510620008b3575b90849392915b601f830160051c82018110620008a35750506200012a565b600081558594506001016200088b565b508062000885565b91607f169162000114565b600080fd5b604081019081106001600160401b038211176200057357604052565b602081019081106001600160401b038211176200057357604052565b601f909101601f19168101906001600160401b038211908210176200057357604052565b60005b8381106200093b5750506000910152565b81810151838201526020016200092a565b81601f82011215620008c65780516001600160401b03811162000573576040519262000983601f8301601f19166020018562000903565b81845260208284010111620008c657620009a4916020808501910162000927565b90565b60409160208252620009c9815180928160208601526020868601910162000927565b601f01601f1916010190565b600a80546001600160a01b0319908116909155600980549182166001600160a01b0393841690811790915591167f8be0079c531659141344cd1fd0a4f28419497f9722a3daafe3b4186f6b6457e0600080a3565b8051602091908281101562000a88575090601f82511162000a67578082519201519080831062000a5857501790565b82600019910360031b1b161790565b60405163305a27a960e01b81528062000a848460048301620009a7565b0390fd5b6001600160401b03811162000573576005928354926001938481811c9116801562000ba2575b838210146200055257601f811162000b6b575b5081601f841160011462000b01575092829391839260009462000af5575b50501b916000199060031b1c191617905560ff90565b01519250388062000adf565b919083601f1981168760005284600020946000905b8883831062000b50575050501062000b36575b505050811b01905560ff90565b015160001960f88460031b161c1916905538808062000b29565b85870151885590960195948501948793509081019062000b16565b8560005284601f846000209201871c820191601f8601881c015b82811062000b9557505062000ac1565b6000815501859062000b85565b90607f169062000aae565b80516020908181101562000bda5750601f82511162000a67578082519201519080831062000a5857501790565b906001600160401b0382116200057357600654926001938481811c9116801562000cf9575b838210146200055257601f811162000cbf575b5081601f841160011462000c53575092829391839260009462000c47575b50501b916000199060031b1c19161760065560ff90565b01519250388062000c30565b919083601f198116600660005284600020946000905b8883831062000ca4575050501062000c8a575b505050811b0160065560ff90565b015160001960f88460031b161c1916905538808062000c7c565b85870151885590960195948501948793509081019062000c69565b600660005284601f84600020920160051c820191601f860160051c015b82811062000cec57505062000c12565b6000815501859062000cdc565b90607f169062000bff56fe608060409080825260048036101561001657600080fd5b600092833560e01c92836306fdde031461118257508263095ea7b314611158578263149243ae1461111457826318160ddd146110f557826323b872dd146110ba578263313ce5671461109e5782633644e5151461107a578263395093511461102a5782633af32abf14610a7a57826340c10f1914610f3d57826370a0823114610f06578263715018a614610e9f57826379ba509714610dd35782637ecebe0014610d9b57826384b0196e14610c8e5782638ab1d68114610bce5782638da5cb5b14610ba557826395d89b4114610ab85782639b19251a14610a7a5782639dc29fac1461092c578263a457c2d714610888578263a9059cbb14610857578263b84c82461461069d578263c47f0027146104c9578263d505accf14610311578263dd62ed3e146102c8578263e30c39781461029b578263e43252d7146101d557505063f2fde38b1461016557600080fd5b346101d25760203660031901126101d25761017e611272565b61018661187c565b600a80546001600160a01b0319166001600160a01b039283169081179091556009549091167f38d16b8cac22d99fc7c124b9cd0de2d3fa1faef420bfe791d8c362d765e227008380a380f35b80fd5b90915034610297576020366003190112610297576101f1611272565b6101f961187c565b6001600160a01b0316808452600d6020528184205490929060ff166102555750818352600d6020528220805460ff191660011790557f75b2135d1c8c3519f3c09c43fe6527089ef09f40c7981ebf0ed46e79e79032c78280a280f35b6020606492519162461bcd60e51b8352820152601e60248201527f4164647265737320697320616c72656164792077686974656c697374656400006044820152fd5b8280fd5b8390346102c457816003193601126102c457600a5490516001600160a01b039091168152602090f35b5080fd5b8390346102c457806003193601126102c457806020926102e6611272565b6102ee61128d565b6001600160a01b0391821683526001865283832091168252845220549051908152f35b8382346102c45760e03660031901126102c45761032c611272565b61033461128d565b906044359260643560843560ff811681036104c5578142116104825760018060a01b0390818516928389526007602052898920908154916001830190558a519060208201927f6e71edae12b1b97f4d1f60370fef10105fa2faae0126114a169c64845d6126c98452868d840152858a1660608401528a608084015260a083015260c082015260c0815260e0810181811067ffffffffffffffff82111761046f578b525190206104179161040f916103e9611751565b908c519161190160f01b83526002830152602282015260c43591604260a4359220611a98565b919091611b27565b160361042c57506104299394506114e1565b80f35b606490602087519162461bcd60e51b8352820152601e60248201527f45524332305065726d69743a20696e76616c6964207369676e617475726500006044820152fd5b634e487b7160e01b8b526041875260248bfd5b875162461bcd60e51b8152602081850152601d60248201527f45524332305065726d69743a206578706972656420646561646c696e650000006044820152606490fd5b8680fd5b8390346102c4576104d9366112f7565b906104e261187c565b81519367ffffffffffffffff851161068a5750610500600b54611368565b601f8111610627575b50602093601f8111600114610581579081610570939285967f4df9dcd34ae35f40f2c756fd8ac83210ed0b76d065543ee73d868aec7c7fcf029691610576575b508160011b916000199060031b1c191617600b555b51918291602083526020830190611232565b0390a180f35b905083015187610549565b600b84527f0175b7a638427703f0dbe7bb9bbf987a2551717b34e79f33b5b1008d1fa01db9601f198216855b81811061060f5750916001917f4df9dcd34ae35f40f2c756fd8ac83210ed0b76d065543ee73d868aec7c7fcf02969782610570979695106105f6575b5050811b01600b5561055e565b85015160001960f88460031b161c1916905587806105e9565b858801518355602097880197600190930192016105ad565b600b84527f0175b7a638427703f0dbe7bb9bbf987a2551717b34e79f33b5b1008d1fa01db9601f860160051c81019160208710610680575b601f0160051c01905b8181106106755750610509565b848155600101610668565b909150819061065f565b634e487b7160e01b845260419052602483fd5b8390346102c4576106ad366112f7565b906106b661187c565b81519367ffffffffffffffff851161068a57506106d4600c54611368565b601f81116107f4575b50602093601f811160011461074e579081610570939285967fadf3ae8bd543b3007d464f15cb8ea1db3f44e84d41d203164f40b95e27558ac69691610743575b508160011b916000199060031b1c191617600c5551918291602083526020830190611232565b90508301518761071d565b600c84527fdf6966c971051c3d54ec59162606531493a51404a002842f56009d7e5cf4a8c7601f198216855b8181106107dc5750916001917fadf3ae8bd543b3007d464f15cb8ea1db3f44e84d41d203164f40b95e27558ac6969782610570979695106107c3575b5050811b01600c5561055e565b85015160001960f88460031b161c1916905587806107b6565b8588015183556020978801976001909301920161077a565b600c84527fdf6966c971051c3d54ec59162606531493a51404a002842f56009d7e5cf4a8c7601f860160051c8101916020871061084d575b601f0160051c01905b81811061084257506106dd565b848155600101610835565b909150819061082c565b8390346102c457806003193601126102c457602090610881610877611272565b60243590336115e3565b5160018152f35b9083346101d257826003193601126101d2576108a2611272565b918360243592338152600160205281812060018060a01b03861682526020522054908282106108db5760208561088185850387336114e1565b608490602086519162461bcd60e51b8352820152602560248201527f45524332303a2064656372656173656420616c6c6f77616e63652062656c6f77604482015264207a65726f60d81b6064820152fd5b8382346102c457826003193601126102c457610946611272565b602435906001600160a01b0390610980337f0000000000000000000000000000000000000000000000000000000000000000841614611482565b16918215610a2d578284528360205284842054908282106109df57508184957fddf252ad1be2c89b69c2b068fc378daa952ba7f163c4a11628f55a4df523b3ef936020938688528785520381872055816002540360025551908152a380f35b608490602087519162461bcd60e51b8352820152602260248201527f45524332303a206275726e20616d6f756e7420657863656564732062616c616e604482015261636560f01b6064820152fd5b608490602086519162461bcd60e51b8352820152602160248201527f45524332303a206275726e2066726f6d20746865207a65726f206164647265736044820152607360f81b6064820152fd5b8390346102c45760203660031901126102c45760209160ff9082906001600160a01b03610aa5611272565b168152600d855220541690519015158152f35b83346101d257806003193601126101d2578151918282600c54610ada81611368565b9081845260209560019187600182169182600014610b7e575050600114610b22575b505050610b1e9291610b0f9103856112d5565b51928284938452830190611232565b0390f35b9190869350600c83527fdf6966c971051c3d54ec59162606531493a51404a002842f56009d7e5cf4a8c75b828410610b665750505082010181610b0f610b1e610afc565b8054848a018601528895508794909301928101610b4d565b60ff19168782015293151560051b86019093019350849250610b0f9150610b1e9050610afc565b8390346102c457816003193601126102c45760095490516001600160a01b039091168152602090f35b9091503461029757602036600319011261029757610bea611272565b610bf261187c565b6001600160a01b0316808452600d6020528184205490929060ff1615610c4c5750818352600d6020528220805460ff191690557f1f756c8b089af6b33ee121fee8badac2553a2fa89c0575ea91ff8792617746c28280a280f35b6020606492519162461bcd60e51b8352820152601a60248201527f41646472657373206973206e6f742077686974656c69737465640000000000006044820152fd5b90915034610297578260031936011261029757610cca7f00000000000000000000000000000000000000000000000000000000000000006118d4565b92610cf47f00000000000000000000000000000000000000000000000000000000000000006119d8565b90825192602092602085019585871067ffffffffffffffff88111761068a5750926020610d51838896610d44998b9996528686528151998a99600f60f81b8b5260e0868c015260e08b0190611232565b91898303908a0152611232565b924660608801523060808801528460a088015286840360c088015251928381520193925b828110610d8457505050500390f35b835185528695509381019392810192600101610d75565b8390346102c45760203660031901126102c45760209181906001600160a01b03610dc3611272565b1681526007845220549051908152f35b90915034610297578260031936011261029757600a54916001600160a01b03913383851603610e4a5750506bffffffffffffffffffffffff60a01b809216600a556009549133908316176009553391167f8be0079c531659141344cd1fd0a4f28419497f9722a3daafe3b4186f6b6457e08380a380f35b906020608492519162461bcd60e51b8352820152602960248201527f4f776e61626c6532537465703a2063616c6c6572206973206e6f7420746865206044820152683732bb9037bbb732b960b91b6064820152fd5b83346101d257806003193601126101d257610eb861187c565b600a80546001600160a01b031990811690915560098054918216905581906001600160a01b03167f8be0079c531659141344cd1fd0a4f28419497f9722a3daafe3b4186f6b6457e08280a380f35b8390346102c45760203660031901126102c45760209181906001600160a01b03610f2e611272565b16815280845220549051908152f35b90915034610297578060031936011261029757610f58611272565b60243591906001600160a01b0390610f93337f0000000000000000000000000000000000000000000000000000000000000000841614611482565b16928315610fe857506020827fddf252ad1be2c89b69c2b068fc378daa952ba7f163c4a11628f55a4df523b3ef92610fce879560025461145f565b60025585855284835280852082815401905551908152a380f35b6020606492519162461bcd60e51b8352820152601f60248201527f45524332303a206d696e7420746f20746865207a65726f2061646472657373006044820152fd5b8390346102c457806003193601126102c45761088160209261107361104d611272565b338352600186528483206001600160a01b0382168452865291849020546024359061145f565b90336114e1565b8390346102c457816003193601126102c457602090611097611751565b9051908152f35b8390346102c457816003193601126102c4576020905160128152f35b8390346102c45760603660031901126102c4576020906110ec6110db611272565b6110e361128d565b604435916113a2565b90519015158152f35b8390346102c457816003193601126102c4576020906002549051908152f35b8390346102c457816003193601126102c457517f00000000000000000000000000000000000000000000000000000000000000006001600160a01b03168152602090f35b8390346102c457806003193601126102c457602090610881611178611272565b60243590336114e1565b8482346102c457816003193601126102c4578282600b546111a281611368565b9081845260209560019187600182169182600014610b7e5750506001146111d657505050610b1e9291610b0f9103856112d5565b9190869350600b83527f0175b7a638427703f0dbe7bb9bbf987a2551717b34e79f33b5b1008d1fa01db95b82841061121a5750505082010181610b0f610b1e610afc565b8054848a018601528895508794909301928101611201565b919082519283825260005b84811061125e575050826000602080949584010152601f8019910116010190565b60208183018101518483018201520161123d565b600435906001600160a01b038216820361128857565b600080fd5b602435906001600160a01b038216820361128857565b6040810190811067ffffffffffffffff8211176112bf57604052565b634e487b7160e01b600052604160045260246000fd5b90601f8019910116810190811067ffffffffffffffff8211176112bf57604052565b60206003198201126112885767ffffffffffffffff60043581811161128857826023820112156112885780600401359182116112bf5760405192611345601f8401601f1916602001856112d5565b828452602483830101116112885781600092602460209301838601378301015290565b90600182811c92168015611398575b602083101461138257565b634e487b7160e01b600052602260045260246000fd5b91607f1691611377565b91906000338152600d60205260ff604082205416611455576001600160a01b038416815260016020818152604080842033855290915290912054939084016113f4575b6113ef93506115e3565b600190565b8284106114105761140b836113ef950333836114e1565b6113e5565b60405162461bcd60e51b815260206004820152601d60248201527f45524332303a20696e73756666696369656e7420616c6c6f77616e63650000006044820152606490fd5b506113ef926115e3565b9190820180921161146c57565b634e487b7160e01b600052601160045260246000fd5b1561148957565b60405162461bcd60e51b815260206004820152602a60248201527f4d6174657269616c3a2063616c6c6572206973206e6f7420746865206d6174656044820152697269616c20747261646560b01b6064820152608490fd5b6001600160a01b0390811691821561159257169182156115425760207f8c5be1e5ebec7d5bd14f71427d1e84f3dd0314c0f7b2291e5b200ac8c7c3b925918360005260018252604060002085600052825280604060002055604051908152a3565b60405162461bcd60e51b815260206004820152602260248201527f45524332303a20617070726f766520746f20746865207a65726f206164647265604482015261737360f01b6064820152608490fd5b60405162461bcd60e51b8152602060048201526024808201527f45524332303a20617070726f76652066726f6d20746865207a65726f206164646044820152637265737360e01b6064820152608490fd5b6001600160a01b039081169182156116fe57169182156116ad5760008281528060205260408120549180831061165957604082827fddf252ad1be2c89b69c2b068fc378daa952ba7f163c4a11628f55a4df523b3ef958760209652828652038282205586815220818154019055604051908152a3565b60405162461bcd60e51b815260206004820152602660248201527f45524332303a207472616e7366657220616d6f756e7420657863656564732062604482015265616c616e636560d01b6064820152608490fd5b60405162461bcd60e51b815260206004820152602360248201527f45524332303a207472616e7366657220746f20746865207a65726f206164647260448201526265737360e81b6064820152608490fd5b60405162461bcd60e51b815260206004820152602560248201527f45524332303a207472616e736665722066726f6d20746865207a65726f206164604482015264647265737360d81b6064820152608490fd5b307f00000000000000000000000000000000000000000000000000000000000000006001600160a01b03161480611853575b156117ac577f000000000000000000000000000000000000000000000000000000000000000090565b60405160208101907f8b73c3c69bb8fe3d512ecc4cf759cc79239f7b179b0ffacaa9a75d522b39400f82527f000000000000000000000000000000000000000000000000000000000000000060408201527f000000000000000000000000000000000000000000000000000000000000000060608201524660808201523060a082015260a0815260c0810181811067ffffffffffffffff8211176112bf5760405251902090565b507f00000000000000000000000000000000000000000000000000000000000000004614611783565b6009546001600160a01b0316330361189057565b606460405162461bcd60e51b815260206004820152602060248201527f4f776e61626c653a2063616c6c6572206973206e6f7420746865206f776e65726044820152fd5b60ff81146119125760ff811690601f821161190057604051916118f6836112a3565b8252602082015290565b604051632cd44ac360e21b8152600490fd5b5060405160055481600061192583611368565b808352926020906001908181169081156119b45750600114611953575b5050611950925003826112d5565b90565b91509260056000527f036b6384b5eca791c62761152d0c79bb0604c104a5fb6f4eb0703f3154bb3db0936000925b82841061199c57506119509450505081016020013880611942565b85548785018301529485019486945092810192611981565b9150506020925061195094915060ff191682840152151560051b8201013880611942565b60ff81146119fa5760ff811690601f821161190057604051916118f6836112a3565b50604051600654816000611a0d83611368565b808352926020906001908181169081156119b45750600114611a37575050611950925003826112d5565b91509260066000527ff652222313e28459528d920b65115c16c04f3efc82aaedc97be59f3f377c0d3f936000925b828410611a8057506119509450505081016020013880611942565b85548785018301529485019486945092810192611a65565b9291907f7fffffffffffffffffffffffffffffff5d576e7357a4501ddfe92f46681b20a08311611b1b5791608094939160ff602094604051948552168484015260408301526060820152600093849182805260015afa15611b0e5781516001600160a01b03811615611b08579190565b50600190565b50604051903d90823e3d90fd5b50505050600090600390565b6005811015611c2b5780611b385750565b60018103611b855760405162461bcd60e51b815260206004820152601860248201527f45434453413a20696e76616c6964207369676e617475726500000000000000006044820152606490fd5b60028103611bd25760405162461bcd60e51b815260206004820152601f60248201527f45434453413a20696e76616c6964207369676e6174757265206c656e677468006044820152606490fd5b600314611bdb57565b60405162461bcd60e51b815260206004820152602260248201527f45434453413a20696e76616c6964207369676e6174757265202773272076616c604482015261756560f01b6064820152608490fd5b634e487b7160e01b600052602160045260246000fdfea2646970667358221220c224c0614ecc32e75bb76d29cec229ebdfab5a35bf915c575fd7e574d87d6e2c64736f6c634300081800334df9dcd34ae35f40f2c756fd8ac83210ed0b76d065543ee73d868aec7c7fcf02a2646970667358221220c2a7f4685f24824209a4e0af8a1784909bb9e6490323928a0436c439a031c3af64736f6c63430008180033",
  "linkReferences": {},
  "deployedLinkReferences": {}
}