{
  "_format": "hh-sol-artifact-1",
  "contractName": "MoveAndAttack",
  "sourceName": "contracts/commands/MoveAndAttack.sol",
  "abi": [
    {
      "inputs": [],
      "name": "InvalidInitialization",
      "type": "error"
    },
    {
      "inputs": [],
      "name": "NotInitializing",
      "type": "error"
    },
    {
      "inputs": [
        {
          "internalType": "address",
          "name": "owner",
          "type": "address"
        }
      ],
      "name": "OwnableInvalidOwner",
      "type": "error"
    },
    {
      "inputs": [
        {
          "internalType": "address",
          "name": "account",
          "type": "address"
        }
      ],
      "name": "OwnableUnauthorizedAccount",
      "type": "error"
    },
    {
      "anonymous": false,
      "inputs": [
        {
          "indexed": false,
          "internalType": "uint64",
          "name": "version",
          "type": "uint64"
        }
      ],
      "name": "Initialized",
      "type": "event"
    },
    {
      "anonymous": false,
      "inputs": [
        {
          "indexed": true,
          "internalType": "address",
          "name": "previousOwner",
          "type": "address"
        },
        {
          "indexed": true,
          "internalType": "address",
          "name": "newOwner",
          "type": "address"
        }
      ],
      "name": "OwnershipTransferred",
      "type": "event"
    },
    {
      "inputs": [],
      "name": "battleground",
      "outputs": [
        {
          "internalType": "contract IBattleground",
          "name": "",
          "type": "address"
        }
      ],
      "stateMutability": "view",
      "type": "function"
    },
    {
      "inputs": [],
      "name": "buildingManager",
      "outputs": [
        {
          "internalType": "contract IBuildingManager",
          "name": "",
          "type": "address"
        }
      ],
      "stateMutability": "view",
      "type": "function"
    },
    {
      "inputs": [
        {
          "internalType": "address",
          "name": "_lootVault",
          "type": "address"
        },
        {
          "internalType": "address",
          "name": "_buildingManager",
          "type": "address"
        },
        {
          "internalType": "address",
          "name": "_unitManager",
          "type": "address"
        },
        {
          "internalType": "address",
          "name": "_battleground",
          "type": "address"
        }
      ],
      "name": "initialize",
      "outputs": [],
      "stateMutability": "nonpayable",
      "type": "function"
    },
    {
      "inputs": [],
      "name": "lootVault",
      "outputs": [
        {
          "internalType": "contract ILootVault",
          "name": "",
          "type": "address"
        }
      ],
      "stateMutability": "view",
      "type": "function"
    },
    {
      "inputs": [
        {
          "components": [
            {
              "internalType": "int16",
              "name": "x",
              "type": "int16"
            },
            {
              "internalType": "int16",
              "name": "y",
              "type": "int16"
            }
          ],
          "internalType": "struct IBattleground.Coordinates",
          "name": "from",
          "type": "tuple"
        },
        {
          "components": [
            {
              "internalType": "int16",
              "name": "x",
              "type": "int16"
            },
            {
              "internalType": "int16",
              "name": "y",
              "type": "int16"
            }
          ],
          "internalType": "struct IBattleground.Coordinates",
          "name": "to",
          "type": "tuple"
        },
        {
          "components": [
            {
              "internalType": "uint16",
              "name": "unitId",
              "type": "uint16"
            },
            {
              "internalType": "uint16",
              "name": "quantity",
              "type": "uint16"
            }
          ],
          "internalType": "struct UnitQuantityLib.UnitQuantity[]",
          "name": "attackerUnits",
          "type": "tuple[]"
        }
      ],
      "name": "moveAndAttack",
      "outputs": [],
      "stateMutability": "nonpayable",
      "type": "function"
    },
    {
      "inputs": [],
      "name": "owner",
      "outputs": [
        {
          "internalType": "address",
          "name": "",
          "type": "address"
        }
      ],
      "stateMutability": "view",
      "type": "function"
    },
    {
      "inputs": [],
      "name": "renounceOwnership",
      "outputs": [],
      "stateMutability": "nonpayable",
      "type": "function"
    },
    {
      "inputs": [
        {
          "internalType": "address",
          "name": "newOwner",
          "type": "address"
        }
      ],
      "name": "transferOwnership",
      "outputs": [],
      "stateMutability": "nonpayable",
      "type": "function"
    },
    {
      "inputs": [],
      "name": "unitManager",
      "outputs": [
        {
          "internalType": "contract IUnitManager",
          "name": "",
          "type": "address"
        }
      ],
      "stateMutability": "view",
      "type": "function"
    },
    {
      "inputs": [
        {
          "internalType": "address",
          "name": "_battleground",
          "type": "address"
        }
      ],
      "name": "updateBattleground",
      "outputs": [],
      "stateMutability": "nonpayable",
      "type": "function"
    },
    {
      "inputs": [
        {
          "internalType": "address",
          "name": "_buildingManager",
          "type": "address"
        }
      ],
      "name": "updateBuildingManager",
      "outputs": [],
      "stateMutability": "nonpayable",
      "type": "function"
    },
    {
      "inputs": [
        {
          "internalType": "address",
          "name": "_lootVault",
          "type": "address"
        }
      ],
      "name": "updateLootVault",
      "outputs": [],
      "stateMutability": "nonpayable",
      "type": "function"
    },
    {
      "inputs": [
        {
          "internalType": "address",
          "name": "_unitManager",
          "type": "address"
        }
      ],
      "name": "updateUnitManager",
      "outputs": [],
      "stateMutability": "nonpayable",
      "type": "function"
    }
  ],
  "bytecode": "0x608080604052346015576128b1908161001b8239f35b600080fdfe6080604052600436101561001257600080fd5b60003560e01c806324a3e964146100e757806338afa821146100e25780633dd9e09f146100dd578063412f1080146100d857806356ddea0a146100d357806359103462146100ce57806360e4c393146100c9578063715018a6146100c457806375876251146100bf578063808167f0146100ba5780638da5cb5b146100b5578063f2fde38b146100b05763f8c8765e146100ab57600080fd5b61059c565b61056f565b610539565b6104f2565b610420565b610286565b61025d565b610216565b6101ed565b6101a6565b61017d565b610136565b6100fc565b60009103126100f757565b600080fd5b346100f75760003660031901126100f7576000546040516001600160a01b039091168152602090f35b6001600160a01b038116036100f757565b346100f75760203660031901126100f75760043561015381610125565b61015b611c28565b600180546001600160a01b0319166001600160a01b0392909216919091179055005b346100f75760003660031901126100f7576002546040516001600160a01b039091168152602090f35b346100f75760203660031901126100f7576004356101c381610125565b6101cb611c28565b600080546001600160a01b0319166001600160a01b0392909216919091179055005b346100f75760003660031901126100f7576001546040516001600160a01b039091168152602090f35b346100f75760203660031901126100f75760043561023381610125565b61023b611c28565b600380546001600160a01b0319166001600160a01b0392909216919091179055005b346100f75760003660031901126100f7576003546040516001600160a01b039091168152602090f35b346100f75760003660031901126100f75761029f611c28565b60008051602061283c83398151915280546001600160a01b031981169091556000906001600160a01b03167f8be0079c531659141344cd1fd0a4f28419497f9722a3daafe3b4186f6b6457e08280a3005b634e487b7160e01b600052604160045260246000fd5b604081019081106001600160401b0382111761032157604052565b6102f0565b608081019081106001600160401b0382111761032157604052565b90601f801991011681019081106001600160401b0382111761032157604052565b6040519061037261016083610341565b565b6040519061037260e083610341565b60409060031901126100f7576040519061039c82610306565b816004358060010b81036100f7578152602435908160010b82036100f75760200152565b60409060431901126100f757604051906103d982610306565b816044358060010b81036100f7578152606435908160010b82036100f75760200152565b6001600160401b0381116103215760051b60200190565b61ffff8116036100f757565b346100f75760a03660031901126100f75761043a36610383565b610443366103c0565b608435906001600160401b0382116100f757366023830112156100f75781600401359261046f846103fd565b9261047d6040519485610341565b8484526024602085019560061b820101903682116100f757602401945b8186106104af5750506104ad93506110c3565b005b6040863603126100f757602060409182516104c981610306565b88356104d481610414565b8152828901356104e381610414565b8382015281520195019461049a565b346100f75760203660031901126100f75760043561050f81610125565b610517611c28565b600280546001600160a01b0319166001600160a01b0392909216919091179055005b346100f75760003660031901126100f75760008051602061283c833981519152546040516001600160a01b039091168152602090f35b346100f75760203660031901126100f7576104ad60043561058f81610125565b610597611c28565b611b2b565b346100f75760803660031901126100f7576004356105b981610125565b602435906105c682610125565b6044356105d281610125565b606435906105df82610125565b60008051602061285c83398151915254936001600160401b0361061160ff604088901c1615966001600160401b031690565b1680159081610733575b6001149081610729575b159081610720575b5061070f57610672938561066960016001600160401b031960008051602061285c83398151915254161760008051602061285c83398151915255565b6106d357611ba1565b61067857005b6106a460ff60401b1960008051602061285c833981519152541660008051602061285c83398151915255565b604051600181527fc7f505b2f371ae2175ee4913f4499e1f2633a7b5936321eed1cdaeb6115181d290602090a1005b61070a6801000000000000000060ff60401b1960008051602061285c83398151915254161760008051602061285c83398151915255565b611ba1565b63f92ee8a960e01b60005260046000fd5b9050153861062d565b303b159150610625565b86915061061b565b1561074257565b60405162461bcd60e51b815260206004820152601760248201527f4e6f20756e69747320746f2061747461636b20776974680000000000000000006044820152606490fd5b519061037282610414565b81601f820112156100f7578051906107a9826103fd565b926107b76040519485610341565b82845260208085019360071b830101918183116100f757602001925b8284106107e1575050505090565b6080848303126100f757604051906107f882610326565b84519060028210156100f75782602092608094528287015161081981610125565b8382015260408701516040820152606087015160608201528152019301926107d3565b6020818303126100f7578051906001600160401b0382116100f757016080818303126100f7576040519161086f83610326565b815161087a81610125565b8352602082015161088a81610414565b602084015260408201516001600160401b0381116100f757820181601f820112156100f75780516108ba816103fd565b916108c86040519384610341565b81835260208084019260061b820101908482116100f757602001915b81831061091857505050604084015260608201516001600160401b0381116100f7576109109201610792565b606082015290565b6040838603126100f7576020604091825161093281610306565b855161093d81610414565b81528286015161094c81610414565b838201528152019201916108e4565b61037290929192604081019360208091805160010b8452015160010b910152565b6040513d6000823e3d90fd5b1561098f57565b60405162461bcd60e51b815260206004820152602e60248201527f596f7520646f206e6f74206f776e207468652074696c6520796f75206172652060448201526d61747461636b696e672066726f6d60901b6064820152608490fd5b156109f257565b60405162461bcd60e51b815260206004820152603060248201527f596f752063616e6e6f742061747461636b20616e20656d7074792074696c652060448201526f6f7220796f7572206f776e2074696c6560801b6064820152608490fd5b8051821015610a645760209160051b010190565b634e487b7160e01b600052603260045260246000fd5b15610a8157565b60405162461bcd60e51b815260206004820152601f60248201527f4e6f7420656e6f75676820756e69747320746f2061747461636b2077697468006044820152606490fd5b15610acd57565b60405162461bcd60e51b815260206004820152601d60248201527f556e6974206e6f7420666f756e6420696e20736f757263652074696c650000006044820152606490fd5b9080601f830112156100f7578151610b29816103fd565b92610b376040519485610341565b81845260208085019260051b8201019283116100f757602001905b828210610b5f5750505090565b602080918351610b6e81610414565b815201910190610b52565b519060ff821682036100f757565b519081151582036100f757565b6020818303126100f7578051906001600160401b0382116100f75701610160818303126100f757610bc3610362565b91610bcd82610787565b835260208201516001600160401b0381116100f75781610bee918401610b12565b6020840152610bff60408301610787565b6040840152610c1060608301610787565b6060840152610c2160808301610b79565b6080840152610c3260a08301610b79565b60a0840152610c4360c08301610787565b60c0840152610c5460e08301610787565b60e08401526101008201516001600160401b0381116100f75781610c79918401610792565b610100840152610120820151916001600160401b0383116100f757610ca661014092610cb2948301610792565b61012085015201610b87565b61014082015290565b15610cc257565b60405162461bcd60e51b815260206004820152601960248201527f556e69742063616e6e6f74206d6f7665207468617420666172000000000000006044820152606490fd5b90602080835192838152019201906000905b808210610d265750505090565b909192835160008151906002821015610d72575082606060209360809360019652858060a01b038582015116858401526040810151604084015201516060820152019401920190610d19565b634e487b7160e01b81526021600452602490fd5b9081610da49194939460208091805160010b8452015160010b910152565b6060604082015260e081019060018060a01b03845116606082015261ffff6020850151166080820152604084015191608060a083015282518091526020610100830193019060005b818110610e14575050506060610e11939401519060c0605f1982850301910152610d07565b90565b8251805161ffff9081168752602091820151168187015260409095019490920191600101610dec565b634e487b7160e01b600052601160045260246000fd5b906127108202918083046127101490151715610e6b57565b610e3d565b81810292918115918404141715610e6b57565b61271001908161271011610e6b57565b91908201809211610e6b57565b8115610eaa570490565b634e487b7160e01b600052601260045260246000fd5b15610ec757565b60405162461bcd60e51b8152602060048201526016602482015275125b999a5b9a5d19481b1bdbdc0819195d1958dd195960521b6044820152606490fd5b60405190610f14602083610341565b600080835282815b828110610f2857505050565b602090604051610f3781610306565b6000815260008382015282828501015201610f1c565b90610f57826103fd565b610f646040519182610341565b8281528092610f75601f19916103fd565b019060005b828110610f8657505050565b602090604051610f9581610306565b6000815260008382015282828501015201610f7a565b906020828203126100f75781516001600160401b0381116100f757610e119201610792565b6001600160a01b039091168152604060208201819052610e1192910190610d07565b60405190611001602083610341565b6000825281601f1961101360006103fd565b019060005b82811061102457505050565b60209060405161103381610326565b60008152600083820152600060408201526000606082015282828501015201611018565b90611061826103fd565b61106e6040519182610341565b828152809261107f601f19916103fd565b019060005b82811061109057505050565b60209060405161109f81610326565b60008152600083820152600060408201526000606082015282828501015201611084565b90926110d18351151561073b565b6001546110ee906001600160a01b03165b6001600160a01b031690565b926040519463f13ca34360e01b86526000868061110e876004830161095b565b0381885afa95861561130d57600096611b10575b508551611142906001600160a01b03166001600160a01b03163314610988565b60405163f13ca34360e01b815260008180611160856004830161095b565b0381895afa90811561130d57600091611aef575b50805161119a906001600160a01b03168015159081611adb575b509691959492966109eb565b6111a48685611c95565b9360009661ffff6111bf6110e260025460018060a01b031690565b9616965b855189101561132657600094855b60408c01805180518310156113125761ffff61121361120c8f6111fd906112068f96896111fd91610a50565b515161ffff1690565b95610a50565b61ffff1690565b91161461122357506001016111d1565b6112a8939694975061ffff61126261120c60208f96999f6112529061125c8f9761125261126b9a869251610a50565b51015161ffff1690565b96610a50565b91161015610a7a565b6112756001610ac6565b60006112846111fd838a610a50565b60405163fe07e59d60e01b815261ffff909116600482015292839081906024820190565b03818b5afa801561130d576112d96112d360a06112e1936001966000916112ec575b50015160ff1690565b60ff1690565b8a1115610cbb565b0197919390926111c3565b611307913d8091833e6112ff8183610341565b810190610b94565b386112ca565b61097c565b50505092986112756112a892959396610ac6565b9650965091935091956040810161133e888251611dc7565b80915261ffff611353602084015161ffff1690565b16159081611ad1575b50611ac8575b823b156100f75761138d926000928360405180968195829463852df5b360e01b845260048401610d86565b03925af1801561130d57611ab3575b50604082019081519260608101948551956000955b60008715611aae57506000195b956000978060001461197e576000985b8b80518b10156113fe576001916113f061120c60206112528f6113f696610a50565b90610e93565b9901986113ce565b5099909192939495969798505b6000821561197957506000195b9960009b836000146118315760009c5b8d86519081511115611455576001918f61120c60206112526113f09361144d96610a50565b9d019c611428565b5096999c509290939491889b979a5b61146d8561224b565b611477918561241c565b989196909a60200199858b5161148e9061ffff1690565b9061149891612338565b6114a2918861241c565b919a6114ae91956126bc565b906114b8916126bc565b9a895115801580611828575b156116bc575050338e52506114db95505050505050565b52805161ffff1690816115c45750506000546114ff906001600160a01b03166110e2565b803b156100f75760405163450f339560e11b815291600091839182908490829061152d903360048401610fd0565b03925af1801561130d576115af575b505b611546610ff2565b905260015461155d906001600160a01b03166110e2565b91823b156100f757611589926000928360405180968195829463852df5b360e01b845260048401610d86565b03925af1801561130d5761159a5750565b806115a9600061037293610341565b806100ec565b806115a960006115be93610341565b3861153c565b600354611606926000916115e0906001600160a01b03166110e2565b6040518080968194631fab95d560e21b83526004830191909161ffff6020820193169052565b03915afa90811561130d5761163d92600092611696575b5060009081905254611637906001600160a01b03166110e2565b926126bc565b90803b156100f75760405163450f339560e11b815291600091839182908490829061166c903360048401610fd0565b03925af1801561130d57611681575b5061153e565b806115a9600061169093610341565b3861167b565b6116b590600092933d8091833e6116ad8183610341565b810190610fab565b919061161d565b80809e9d9e9c9a9b969798999c9061181e575b156116f45750505050505050505050525261155d6110e260015460018060a01b031690565b809b969798999b90611815575b156117cd575050505050505050506000865261171b610f05565b9052805161ffff1680611741575050525b60015461155d906001600160a01b03166110e2565b6003549293611787939091600091611761906001600160a01b03166110e2565b6040518080978194631fab95d560e21b83526004830191909161ffff6020820193169052565b03915afa91821561130d576117a8936000936117af575b50600090526126bc565b905261172c565b6117c690600092943d8091833e6116ad8183610341565b929061179e565b909192939495969c989b9d99509d99969d14918261180b575b5050156118015750506117f99015610ec0565b6001956113b1565b99509096506113b1565b14905038806117e6565b50855115611701565b508b5115156116cf565b508851156114c4565b9a96929098949160009c9a969c989498996118566110e260025460018060a01b031690565b985b8a5180518d10156119315760006118756111fd8f61189d94610a50565b60405163fe07e59d60e01b815261ffff90911660048201529182908d90829081906024820190565b03915afa801561130d57606091600091611918575b50015161ffff1661ffff168c8c51906118ca91610a50565b516020015161ffff1661ffff166118e091610e70565b6118e991610e93565b9b8b8b51906118f791610a50565b516020015161ffff1661ffff1661190d91610e93565b9a6001019a9b611858565b61192b913d8091833e6112ff8183610341565b386118b2565b50869d959c989950869a979e9b509561196d611968866119636020611959611973979c610e53565b95015161ffff1690565b61214e565b610e83565b90610ea0565b97611464565b611418565b600254909960009990979695949392916119a0906001600160a01b03166110e2565b985b8c80518c1015611a83579060006119c86111fd8e6119ec9e9d9c9b9a9998979695610a50565b60405163fe07e59d60e01b815261ffff90911660048201529b8c9081906024820190565b03818d5afa90811561130d5760608f928e9d600091611a6a575b50015161ffff16611a178d84610a50565b516020015161ffff1661ffff16611a2d91610e70565b611a3691610e93565b9b611a4091610a50565b516020015161ffff1661ffff16611a5691610e93565b9860010199989091929394959697986119a2565b611a7d913d8091833e6112ff8183610341565b38611a06565b50611aa8929496989a50611a9c919b9395979950610e53565b61196d6119688d611ffb565b9761140b565b6113be565b806115a96000611ac293610341565b3861139c565b60008152611362565b905051153861135c565b3391506001600160a01b031614153861118e565b611b0a913d8091833e611b028183610341565b81019061083c565b38611174565b611b2491963d8091833e611b028183610341565b9438611122565b6001600160a01b03168015611b8b5760008051602061283c83398151915280546001600160a01b0319811683179091556001600160a01b03167f8be0079c531659141344cd1fd0a4f28419497f9722a3daafe3b4186f6b6457e0600080a3565b631e4fbdf760e01b600052600060045260246000fd5b611ba961280d565b611bb161280d565b611bba33611b2b565b60018060a01b03166001600160601b0360a01b600054161760005560018060a01b03166001600160601b0360a01b600354161760035560018060a01b03166001600160601b0360a01b600254161760025560018060a01b03166001600160601b0360a01b6001541617600155565b60008051602061283c833981519152546001600160a01b03163303611c4957565b63118cdaa760e01b6000523360045260246000fd5b600191820b910b0390617fff198212617fff831317610e6b57565b9060010b9060010b0190617fff198212617fff831317610e6b57565b61120c90610e1192815160010b611cad825160010b90565b611cb78160010b90565b8260010b13600014611d445750506020611ce1611cd5845160010b90565b835160010b5b90611c5e565b925b01906020611cf2835160010b90565b910190611d00825160010b90565b611d0a8160010b90565b8260010b13600014611d37575050611cdb611d29611d31935160010b90565b915160010b90565b90611c79565b909150611d319250611c5e565b602091611d5091611c5e565b92611ce3565b15611d5d57565b60405162461bcd60e51b815260206004820152601c60248201527f4e6f7420656e6f75676820756e69747320746f207375627472616374000000006044820152606490fd5b9061ffff8091169116039061ffff8211610e6b57565b6000198114610e6b5760010190565b91600080915b8451831015611eb95760005b8451811015611eb2578486611df16111fd8783610a50565b61ffff611e0461120c6111fd8787610a50565b911614611e15575050600101611dd9565b61125283611e4d611e539461ffff611e4461120c6020611252611e7e9b8f9d9f8361125261125c92829e610a50565b91161015611d56565b88610a50565b611e766020611e62858a610a50565b510191611e71835161ffff1690565b611da2565b61ffff169052565b611e9061120c60206112528489610a50565b611e9e575b60010191611dcd565b90611eaa600191611db8565b919050611e95565b5091611e7e565b9250611ec59150610f4d565b6000805b8451811015611f2657611ee461120c60206112528489610a50565b611ef1575b600101611ec9565b90611f1e600191611f028488610a50565b51611f0d8287610a50565b52611f188186610a50565b50611db8565b919050611ee9565b50509150565b6020818303126100f7578051906001600160401b0382116100f7570160e0818303126100f757611f5a610374565b91611f6482610787565b8352611f7260208301610b87565b6020840152611f8360408301610787565b6040840152611f9460608301610787565b6060840152611fa560808301610787565b608084015260a0820151916001600160401b0383116100f757611fcf60c092611fda948301610792565b60a085015201610b87565b60c082015290565b9061ffff8091169116029061ffff8216918203610e6b57565b600354909190612013906001600160a01b03166110e2565b60405163e667790760e01b81526000600482018190529091829060249082905afa801561130d57608061120c9161205693600091612131575b50015161ffff1690565b600254909290600090612071906001600160a01b03166110e2565b905b825181101561212c576120b2600061208e6111fd8487610a50565b60405163fe07e59d60e01b815261ffff909116600482015291829081906024820190565b0381865afa90811561130d576120d69160e0916000916121135750015161ffff1690565b61ffff81166120e9575b50600101612073565b81956113f061120c61210c9361210660206112526001988b610a50565b90611fe2565b94906120e0565b612126913d8091833e6112ff8183610341565b3861204c565b505050565b61212691503d806000833e6121468183610341565b810190611f2c565b6003549192916121939160009161216d906001600160a01b03166110e2565b604051808095819463e667790760e01b83526004830191909161ffff6020820193169052565b03915afa801561130d57608061120c916121b8936000916121315750015161ffff1690565b6002549092906000906121d3906001600160a01b03166110e2565b905b825181101561212c576121f0600061208e6111fd8487610a50565b0381865afa90811561130d576122149160e0916000916121135750015161ffff1690565b61ffff8116612227575b506001016121d5565b81956113f061120c6122449361210660206112526001988b610a50565b949061221e565b600354909190612263906001600160a01b03166110e2565b60405163e667790760e01b81526000600482018190529091829060249082905afa801561130d57606061120c916122a5936000916121315750015161ffff1690565b6002549092906000906122c0906001600160a01b03166110e2565b905b825181101561212c576122dd600061208e6111fd8487610a50565b0381865afa90811561130d576123019160c0916000916121135750015161ffff1690565b61ffff8116612314575b506001016122c2565b81956113f061120c6123319361210660206112526001988b610a50565b949061230b565b6003549192916123579160009161216d906001600160a01b03166110e2565b03915afa801561130d57606061120c9161237c936000916121315750015161ffff1690565b600254909290600090612397906001600160a01b03166110e2565b905b825181101561212c576123b4600061208e6111fd8487610a50565b0381865afa90811561130d576123d89160c0916000916121135750015161ffff1690565b61ffff81166123eb575b50600101612399565b81956113f061120c6124089361210660206112526001988b610a50565b94906123e2565b91908203918211610e6b57565b6002549193926060926000918291829061243e906001600160a01b03166110e2565b855185101561263157612459600061208e6111fd888a610a50565b0381855afa801561130d5761248561120c60406124949361249c956000916121135750015161ffff1690565b61248e86610e83565b90610e70565b612710900490565b956124aa61120c888c610ea0565b9961ffff8b169a8b156126155761255b98999a9b6124d061120c60206112528c88610a50565b10612600575b6124f760206124e58a86610a50565b5101611e7683611e71835161ffff1690565b61250961120c60206112528b87610a50565b6125e1575b9061252161ffff61252793169a8b610e70565b9061240f565b9360006125376111fd8985610a50565b604051630ab251cf60e01b815261ffff909116600482015298899081906024820190565b0381865afa97881561130d576000986125c6575b5060005b88518110156125a05780606061258b6001938c610a50565b51016125988c8251610e70565b905201612573565b50939750939891956125b69060019296996126bc565b975b01939792949096959761243e565b6125da91983d8091833e6116ad8183610341565b963861256f565b959061252161ffff6125f561252794611db8565b98929350505061250e565b5061261060206112528985610a50565b6124d6565b5097989296509360019195995061262b90611db8565b986125b8565b50939650506126409150610f4d565b9360009260005b82518110156126b55761266261120c60206112528487610a50565b61266f575b600101612647565b92936126ad61269a6001926126848787610a50565b5161268f828c610a50565b52611f18818b610a50565b956113f061120c60206112528989610a50565b939050612667565b5092505091565b916126d26126cd8451845190610e93565b611057565b600091825b85518410156126f8576126f0600191611f028689610a50565b9301926126d7565b945092600092505b805183101561280657600093845b83518110156127fc5761273560206127268387610a50565b5101516001600160a01b031690565b6127476110e260206127268988610a50565b6001600160a01b0390911614806127d7575b6127655760010161270e565b90959391945061279260606127888161277e868a610a50565b5101519386610a50565b5101918251610e93565b905260015b156127a8575b600101919392612700565b916127cf6001916127b98587610a50565b516127c48286610a50565b52611f188185610a50565b92905061279d565b5060406127e48286610a50565b51015160406127f38786610a50565b51015114612759565b5094929093612797565b5092835250565b60ff60008051602061285c8339815191525460401c161561282a57565b631afcd79f60e31b60005260046000fdfe9016d09d72d40fdae2fd8ceac6b6234c7706214fd39c1cd1e609a0528c199300f0c57e16840df040f15088dc2f81fe391c3923bec73e23a9662efc9c229c6a00a26469706673582212206476eff98b36ec5acbd1f79a13081a15ec113e638d99fd7e450e29eb74e980f464736f6c634300081c0033",
  "linkReferences": {},
  "deployedLinkReferences": {}
}