{
  "_format": "hh-sol-artifact-1",
  "contractName": "RangedAttack",
  "sourceName": "contracts/commands/RangedAttack.sol",
  "abi": [
    {
      "inputs": [],
      "name": "InvalidInitialization",
      "type": "error"
    },
    {
      "inputs": [],
      "name": "NotInitializing",
      "type": "error"
    },
    {
      "inputs": [
        {
          "internalType": "address",
          "name": "owner",
          "type": "address"
        }
      ],
      "name": "OwnableInvalidOwner",
      "type": "error"
    },
    {
      "inputs": [
        {
          "internalType": "address",
          "name": "account",
          "type": "address"
        }
      ],
      "name": "OwnableUnauthorizedAccount",
      "type": "error"
    },
    {
      "inputs": [],
      "name": "ReentrancyGuardReentrantCall",
      "type": "error"
    },
    {
      "anonymous": false,
      "inputs": [
        {
          "indexed": false,
          "internalType": "uint64",
          "name": "version",
          "type": "uint64"
        }
      ],
      "name": "Initialized",
      "type": "event"
    },
    {
      "anonymous": false,
      "inputs": [
        {
          "indexed": true,
          "internalType": "address",
          "name": "previousOwner",
          "type": "address"
        },
        {
          "indexed": true,
          "internalType": "address",
          "name": "newOwner",
          "type": "address"
        }
      ],
      "name": "OwnershipTransferred",
      "type": "event"
    },
    {
      "inputs": [],
      "name": "battleground",
      "outputs": [
        {
          "internalType": "contract IBattleground",
          "name": "",
          "type": "address"
        }
      ],
      "stateMutability": "view",
      "type": "function"
    },
    {
      "inputs": [],
      "name": "buildingManager",
      "outputs": [
        {
          "internalType": "contract IBuildingManager",
          "name": "",
          "type": "address"
        }
      ],
      "stateMutability": "view",
      "type": "function"
    },
    {
      "inputs": [
        {
          "internalType": "address",
          "name": "_lootVault",
          "type": "address"
        },
        {
          "internalType": "address",
          "name": "_buildingManager",
          "type": "address"
        },
        {
          "internalType": "address",
          "name": "_unitManager",
          "type": "address"
        },
        {
          "internalType": "address",
          "name": "_battleground",
          "type": "address"
        }
      ],
      "name": "initialize",
      "outputs": [],
      "stateMutability": "nonpayable",
      "type": "function"
    },
    {
      "inputs": [],
      "name": "lootVault",
      "outputs": [
        {
          "internalType": "contract ILootVault",
          "name": "",
          "type": "address"
        }
      ],
      "stateMutability": "view",
      "type": "function"
    },
    {
      "inputs": [],
      "name": "owner",
      "outputs": [
        {
          "internalType": "address",
          "name": "",
          "type": "address"
        }
      ],
      "stateMutability": "view",
      "type": "function"
    },
    {
      "inputs": [
        {
          "components": [
            {
              "internalType": "int16",
              "name": "x",
              "type": "int16"
            },
            {
              "internalType": "int16",
              "name": "y",
              "type": "int16"
            }
          ],
          "internalType": "struct IBattleground.Coordinates",
          "name": "from",
          "type": "tuple"
        },
        {
          "components": [
            {
              "internalType": "int16",
              "name": "x",
              "type": "int16"
            },
            {
              "internalType": "int16",
              "name": "y",
              "type": "int16"
            }
          ],
          "internalType": "struct IBattleground.Coordinates",
          "name": "to",
          "type": "tuple"
        },
        {
          "components": [
            {
              "internalType": "uint16",
              "name": "unitId",
              "type": "uint16"
            },
            {
              "internalType": "uint16",
              "name": "quantity",
              "type": "uint16"
            }
          ],
          "internalType": "struct UnitQuantityLib.UnitQuantity[]",
          "name": "attackerUnits",
          "type": "tuple[]"
        }
      ],
      "name": "rangedAttack",
      "outputs": [],
      "stateMutability": "nonpayable",
      "type": "function"
    },
    {
      "inputs": [],
      "name": "renounceOwnership",
      "outputs": [],
      "stateMutability": "nonpayable",
      "type": "function"
    },
    {
      "inputs": [
        {
          "internalType": "address",
          "name": "newOwner",
          "type": "address"
        }
      ],
      "name": "transferOwnership",
      "outputs": [],
      "stateMutability": "nonpayable",
      "type": "function"
    },
    {
      "inputs": [],
      "name": "unitManager",
      "outputs": [
        {
          "internalType": "contract IUnitManager",
          "name": "",
          "type": "address"
        }
      ],
      "stateMutability": "view",
      "type": "function"
    },
    {
      "inputs": [
        {
          "internalType": "address",
          "name": "_battleground",
          "type": "address"
        }
      ],
      "name": "updateBattleground",
      "outputs": [],
      "stateMutability": "nonpayable",
      "type": "function"
    },
    {
      "inputs": [
        {
          "internalType": "address",
          "name": "_buildingManager",
          "type": "address"
        }
      ],
      "name": "updateBuildingManager",
      "outputs": [],
      "stateMutability": "nonpayable",
      "type": "function"
    },
    {
      "inputs": [
        {
          "internalType": "address",
          "name": "_lootVault",
          "type": "address"
        }
      ],
      "name": "updateLootVault",
      "outputs": [],
      "stateMutability": "nonpayable",
      "type": "function"
    },
    {
      "inputs": [
        {
          "internalType": "address",
          "name": "_unitManager",
          "type": "address"
        }
      ],
      "name": "updateUnitManager",
      "outputs": [],
      "stateMutability": "nonpayable",
      "type": "function"
    }
  ],
  "bytecode": "0x6080806040523460155761221e908161001b8239f35b600080fdfe6080604052600436101561001257600080fd5b60003560e01c806324a3e964146100e757806338afa821146100e25780633dd9e09f146100dd578063412f1080146100d857806356ddea0a146100d357806359103462146100ce57806360e4c393146100c9578063715018a6146100c4578063808167f0146100bf5780638da5cb5b146100ba578063ccb32af6146100b5578063f2fde38b146100b05763f8c8765e146100ab57600080fd5b61059c565b61056f565b61049d565b610337565b6102f0565b610286565b61025d565b610216565b6101ed565b6101a6565b61017d565b610136565b6100fc565b60009103126100f757565b600080fd5b346100f75760003660031901126100f7576000546040516001600160a01b039091168152602090f35b6001600160a01b038116036100f757565b346100f75760203660031901126100f75760043561015381610125565b61015b611652565b600180546001600160a01b0319166001600160a01b0392909216919091179055005b346100f75760003660031901126100f7576002546040516001600160a01b039091168152602090f35b346100f75760203660031901126100f7576004356101c381610125565b6101cb611652565b600080546001600160a01b0319166001600160a01b0392909216919091179055005b346100f75760003660031901126100f7576001546040516001600160a01b039091168152602090f35b346100f75760203660031901126100f75760043561023381610125565b61023b611652565b600380546001600160a01b0319166001600160a01b0392909216919091179055005b346100f75760003660031901126100f7576003546040516001600160a01b039091168152602090f35b346100f75760003660031901126100f75761029f611652565b60008051602061218983398151915280546001600160a01b031981169091556000906001600160a01b03167f8be0079c531659141344cd1fd0a4f28419497f9722a3daafe3b4186f6b6457e08280a3005b346100f75760203660031901126100f75760043561030d81610125565b610315611652565b600280546001600160a01b0319166001600160a01b0392909216919091179055005b346100f75760003660031901126100f757600080516020612189833981519152546040516001600160a01b039091168152602090f35b634e487b7160e01b600052604160045260246000fd5b604081019081106001600160401b0382111761039e57604052565b61036d565b608081019081106001600160401b0382111761039e57604052565b90601f801991011681019081106001600160401b0382111761039e57604052565b604051906103ef610160836103be565b565b604051906103ef60e0836103be565b60409060031901126100f7576040519061041982610383565b816004358060010b81036100f7578152602435908160010b82036100f75760200152565b60409060431901126100f7576040519061045682610383565b816044358060010b81036100f7578152606435908160010b82036100f75760200152565b6001600160401b03811161039e5760051b60200190565b61ffff8116036100f757565b346100f75760a03660031901126100f7576104b736610400565b6104c03661043d565b608435906001600160401b0382116100f757366023830112156100f7578160040135926104ec8461047a565b926104fa60405194856103be565b8484526024602085019560061b820101903682116100f757602401945b81861061052c57505061052a935061073b565b005b6040863603126100f7576020604091825161054681610383565b883561055181610491565b81528289013561056081610491565b83820152815201950194610517565b346100f75760203660031901126100f75761052a60043561058f81610125565b610597611652565b611551565b346100f75760803660031901126100f7576004356105b981610125565b602435906105c682610125565b6044356105d281610125565b606435906105df82610125565b6000805160206121c983398151915254936001600160401b0361061160ff604088901c1615966001600160401b031690565b1680159081610733575b6001149081610729575b159081610720575b5061070f57610672938561066960016001600160401b03196000805160206121c98339815191525416176000805160206121c983398151915255565b6106d3576115c7565b61067857005b6106a460ff60401b196000805160206121c983398151915254166000805160206121c983398151915255565b604051600181527fc7f505b2f371ae2175ee4913f4499e1f2633a7b5936321eed1cdaeb6115181d290602090a1005b61070a6801000000000000000060ff60401b196000805160206121c98339815191525416176000805160206121c983398151915255565b6115c7565b63f92ee8a960e01b60005260046000fd5b9050153861062d565b303b159150610625565b86915061061b565b9192909260026000805160206121a98339815191525414610ccd5760026000805160206121a98339815191525561077481511515610cde565b600154610791906001600160a01b03165b6001600160a01b031690565b60405163f13ca34360e01b81529390600085806107b18560048301610efe565b0381845afa948515610a5657600095610cb0575b5084516107e5906001600160a01b03166001600160a01b03163314610f2b565b6000604051809263f13ca34360e01b825281806108058b60048301610efe565b03915afa908115610a56578690600092610c8b575b508151919261084892610843906001600160a01b03168015159081610c77575b50989498610f8e565b6116bf565b9460009560609460009361ffff61086961078560025460018060a01b031690565b9316935b8651861015610a7457600092835b60408b0180518051831015610a5b5761ffff6108bc6108b56108a68d8f956108a6896108af92610ff3565b515161ffff1690565b95610ff3565b61ffff1690565b9116146108cc575060010161087b565b610956979495509861ffff6109106108b5959e949c9d989560206109008d9e9d61090a879f6109006109199a869251610ff3565b51015161ffff1690565b96610ff3565b9116101561101d565b6109236001611069565b60006109326108a68a8a610ff3565b60405163fe07e59d60e01b815261ffff909116600482015296879081906024820190565b0381855afa958615610a5657888891600098610a2c575b50916109c36108b56109c9936109bd6020610900610120986109b78f806109ae8f6109a76109a16080606096015160ff1690565b60ff1690565b101561125e565b015161ffff1690565b94610ff3565b906112c0565b906112ee565b9501519760005b8951811015610a0c57808a610a0460606109fa6001956109b78f8f6109006108b592602092610ff3565b5101918251611313565b9052016109d0565b5092959697610a2390600192959a9b93969b6117fb565b9701949061086d565b8598939192933d8091833e610a4181836103be565b8101610a4c91611137565b979291909261096d565b610f1f565b5050509798939099610923610956969394989798611069565b9791989250959350610af49250610a9f610a9861078560005460018060a01b031690565b33866119cd565b610aee6040880195610ae9610ae06020610aba8a51976112fb565b950194610ada610ad585610ad0895161ffff1690565b611c4e565b6112de565b90611326565b935161ffff1690565b611db3565b91611ead565b93918091505115600014610c62575060008552610b0f611346565b905260208401805161ffff1680610bc0575050610b3a90610b35606086019384516117fb565b6117fb565b90525b600154610b52906001600160a01b0316610785565b91823b156100f757610b7e926000928360405180968195829463852df5b360e01b84526004840161149d565b03925af18015610a5657610ba5575b506103ef60016000805160206121a983398151915255565b80610bb46000610bba936103be565b806100ec565b38610b8d565b600354610c039391600091610bdd906001600160a01b0316610785565b6040518080978194631fab95d560e21b83526004830191909161ffff6020820193169052565b03915afa908115610a5657610c3293600092610c39575b506000610b35929352610b35606088019586516117fb565b9052610b3d565b610b359250610c5b6000913d8084833e610c5381836103be565b8101906113ec565b9250610c1a565b610c32929152610b35606086019384516117fb565b3391506001600160a01b031614153861083a565b610caa90610848933d8091833e610ca281836103be565b810190610ddf565b9161081a565b610cc69195503d806000833e610ca281836103be565b93386107c5565b633ee5aeb560e01b60005260046000fd5b15610ce557565b60405162461bcd60e51b815260206004820152601760248201527f4e6f20756e69747320746f2061747461636b20776974680000000000000000006044820152606490fd5b51906103ef82610491565b81601f820112156100f757805190610d4c8261047a565b92610d5a60405194856103be565b82845260208085019360071b830101918183116100f757602001925b828410610d84575050505090565b6080848303126100f75760405190610d9b826103a3565b84519060028210156100f757826020926080945282870151610dbc81610125565b838201526040870151604082015260608701516060820152815201930192610d76565b6020818303126100f7578051906001600160401b0382116100f757016080818303126100f75760405191610e12836103a3565b8151610e1d81610125565b83526020820151610e2d81610491565b602084015260408201516001600160401b0381116100f757820181601f820112156100f7578051610e5d8161047a565b91610e6b60405193846103be565b81835260208084019260061b820101908482116100f757602001915b818310610ebb57505050604084015260608201516001600160401b0381116100f757610eb39201610d35565b606082015290565b6040838603126100f75760206040918251610ed581610383565b8551610ee081610491565b815282860151610eef81610491565b83820152815201920191610e87565b6103ef90929192604081019360208091805160010b8452015160010b910152565b6040513d6000823e3d90fd5b15610f3257565b60405162461bcd60e51b815260206004820152602e60248201527f596f7520646f206e6f74206f776e207468652074696c6520796f75206172652060448201526d61747461636b696e672066726f6d60901b6064820152608490fd5b15610f9557565b60405162461bcd60e51b815260206004820152603060248201527f596f752063616e6e6f742061747461636b20616e20656d7074792074696c652060448201526f6f7220796f7572206f776e2074696c6560801b6064820152608490fd5b80518210156110075760209160051b010190565b634e487b7160e01b600052603260045260246000fd5b1561102457565b60405162461bcd60e51b815260206004820152601f60248201527f4e6f7420656e6f75676820756e69747320746f2061747461636b2077697468006044820152606490fd5b1561107057565b60405162461bcd60e51b815260206004820152601d60248201527f556e6974206e6f7420666f756e6420696e20736f757263652074696c650000006044820152606490fd5b9080601f830112156100f75781516110cc8161047a565b926110da60405194856103be565b81845260208085019260051b8201019283116100f757602001905b8282106111025750505090565b60208091835161111181610491565b8152019101906110f5565b519060ff821682036100f757565b519081151582036100f757565b6020818303126100f7578051906001600160401b0382116100f75701610160818303126100f7576111666103df565b9161117082610d2a565b835260208201516001600160401b0381116100f757816111919184016110b5565b60208401526111a260408301610d2a565b60408401526111b360608301610d2a565b60608401526111c46080830161111c565b60808401526111d560a0830161111c565b60a08401526111e660c08301610d2a565b60c08401526111f760e08301610d2a565b60e08401526101008201516001600160401b0381116100f7578161121c918401610d35565b610100840152610120820151916001600160401b0383116100f75761124961014092611255948301610d35565b6101208501520161112a565b61014082015290565b1561126557565b60405162461bcd60e51b815260206004820152601b60248201527f556e69742063616e6e6f742061747461636b20746861742066617200000000006044820152606490fd5b634e487b7160e01b600052601160045260246000fd5b9061ffff8091169116029061ffff82169182036112d957565b6112aa565b612710019081612710116112d957565b919082018092116112d957565b9061271082029180830461271014901517156112d957565b818102929181159184041417156112d957565b8115611330570490565b634e487b7160e01b600052601260045260246000fd5b604051906113556020836103be565b600080835282815b82811061136957505050565b60209060405161137881610383565b600081526000838201528282850101520161135d565b906113988261047a565b6113a560405191826103be565b82815280926113b6601f199161047a565b019060005b8281106113c757505050565b6020906040516113d681610383565b60008152600083820152828285010152016113bb565b906020828203126100f75781516001600160401b0381116100f7576114119201610d35565b90565b6002111561141e57565b634e487b7160e01b600052602160045260246000fd5b906020808351928381520192019060005b8181106114525750505090565b9091928351805190600282101561141e5782606060809260209460019652858060a01b0385820151168584015260408101516040840152015160608201520194019101919091611445565b90816114bb9194939460208091805160010b8452015160010b910152565b6060604082015260e081019060018060a01b03845116606082015261ffff6020850151166080820152604084015191608060a083015282518091526020610100830193019060005b818110611528575050506060611411939401519060c0605f1982850301910152611434565b8251805161ffff9081168752602091820151168187015260409095019490920191600101611503565b6001600160a01b031680156115b15760008051602061218983398151915280546001600160a01b0319811683179091556001600160a01b03167f8be0079c531659141344cd1fd0a4f28419497f9722a3daafe3b4186f6b6457e0600080a3565b631e4fbdf760e01b600052600060045260246000fd5b6115cf61215a565b6115d761215a565b6115e033611551565b6115e861215a565b6115f061215a565b60016000805160206121a9833981519152819055600080546001600160a01b03199081166001600160a01b0394851617909155600380548216948416949094179093556002805484169483169490941790935582549091169216919091179055565b600080516020612189833981519152546001600160a01b0316330361167357565b63118cdaa760e01b6000523360045260246000fd5b600191820b910b0390617fff198212617fff8313176112d957565b9060010b9060010b0190617fff198212617fff8313176112d957565b6108b59061141192815160010b6116d7825160010b90565b6116e18160010b90565b8260010b1360001461176e575050602061170b6116ff845160010b90565b835160010b5b90611688565b925b0190602061171c835160010b90565b91019061172a825160010b90565b6117348160010b90565b8260010b1360001461176157505061170561175361175b935160010b90565b915160010b90565b906116a3565b90915061175b9250611688565b60209161177a91611688565b9261170d565b9061178a8261047a565b61179760405191826103be565b82815280926117a8601f199161047a565b019060005b8281106117b957505050565b6020906040516117c8816103a3565b600081526000838201526000604082015260006060820152828285010152016117ad565b60001981146112d95760010190565b9161181161180c84518451906112ee565b611780565b600091825b85518410156118535761184b60019161182f8689610ff3565b5161183a8287610ff3565b526118458186610ff3565b506117ec565b930192611816565b945092600092505b805183101561196157600093845b83518110156119575761189060206118818387610ff3565b5101516001600160a01b031690565b6118a261078560206118818988610ff3565b6001600160a01b039091161480611932575b6118c057600101611869565b9095939194506118ed60606118e3816118d9868a610ff3565b5101519386610ff3565b51019182516112ee565b905260015b15611903575b60010191939261185b565b9161192a6001916119148587610ff3565b5161191f8286610ff3565b526118458185610ff3565b9290506118f8565b50604061193f8286610ff3565b510151604061194e8786610ff3565b510151146118b4565b50949290936118f2565b5092835250565b51600281101561141e5790565b908160209103126100f7576114119061112a565b1561199057565b60405162461bcd60e51b8152602060048201526015602482015274151bdad95b881d1c985b9cd9995c8819985a5b1959605a1b6044820152606490fd5b92919260005b8151811015611b91576119ef6119e98284610ff3565b51611968565b6119f881611414565b611ab657806020611a62611a18610785610785846118816000988a610ff3565b6060611a248588610ff3565b5101516040516323b872dd60e01b81526001600160a01b03808a1660048301528b166024820152604481019190915294859283919082906064820190565b03925af1918215610a5657600192611a8291600091611a88575b50611989565b016119d3565b611aa9915060203d8111611aaf575b611aa181836103be565b810190611975565b38611a7c565b503d611a97565b6001611ac56119e98385610ff3565b611ace81611414565b14611adc575b600190611a82565b611af161078561078560206118818587610ff3565b906040611afe8285610ff3565b5101516060611b0d8386610ff3565b510151833b156100f757604051637921219560e11b81526001600160a01b038781166004830152891660248201526044810192909252606482015260a06084820152600060a482018190529092839060c490829084905af1918215610a5657600192611b7c575b509050611ad4565b80610bb46000611b8b936103be565b38611b74565b5050509050565b6020818303126100f7578051906001600160401b0382116100f7570160e0818303126100f757611bc66103f1565b91611bd082610d2a565b8352611bde6020830161112a565b6020840152611bef60408301610d2a565b6040840152611c0060608301610d2a565b6060840152611c1160808301610d2a565b608084015260a0820151916001600160401b0383116100f757611c3b60c092611c46948301610d35565b60a08501520161112a565b60c082015290565b600354919291611c9391600091611c6d906001600160a01b0316610785565b604051808095819463e667790760e01b83526004830191909161ffff6020820193169052565b03915afa8015610a565760806108b591611cb993600091611d96575b50015161ffff1690565b600254909290600090611cd4906001600160a01b0316610785565b905b8251811015611d9157611d156000611cf16108a68487610ff3565b60405163fe07e59d60e01b815261ffff909116600482015291829081906024820190565b0381865afa908115610a5657611d399160e091600091611d705750015161ffff1690565b61ffff8116611d4c575b50600101611cd6565b81956109c36108b5611d69936109bd60206109006001988b610ff3565b9490611d43565b611d8b913d8091833e611d8381836103be565b810190611137565b38611caf565b505050565b611d8b91503d806000833e611dab81836103be565b810190611b98565b600354919291611dd291600091611c6d906001600160a01b0316610785565b03915afa8015610a565760606108b591611df793600091611d965750015161ffff1690565b600254909290600090611e12906001600160a01b0316610785565b905b8251811015611d9157611e2f6000611cf16108a68487610ff3565b0381865afa908115610a5657611e539160c091600091611d705750015161ffff1690565b61ffff8116611e66575b50600101611e14565b81956109c36108b5611e83936109bd60206109006001988b610ff3565b9490611e5d565b9061ffff8091169116039061ffff82116112d957565b919082039182116112d957565b60025491939260609260009182918290611ecf906001600160a01b0316610785565b85518510156120cf57611eea6000611cf16108a6888a610ff3565b0381855afa8015610a5657611f166108b56040611f2593611f2d95600091611d705750015161ffff1690565b611f1f866112de565b90611313565b612710900490565b95611f3b6108b5888c611326565b9961ffff8b169a8b156120b357611ff998999a9b611f616108b560206109008c88610ff3565b1061209e575b611f956020611f768a86610ff3565b5101611f8d83611f88835161ffff1690565b611e8a565b61ffff169052565b611fa76108b560206109008b87610ff3565b61207f575b90611fbf61ffff611fc593169a8b611313565b90611ea0565b936000611fd56108a68985610ff3565b604051630ab251cf60e01b815261ffff909116600482015298899081906024820190565b0381865afa978815610a5657600098612064575b5060005b885181101561203e578060606120296001938c610ff3565b51016120368c8251611313565b905201612011565b50939750939891956120549060019296996117fb565b975b019397929490969597611ecf565b61207891983d8091833e610c5381836103be565b963861200d565b9590611fbf61ffff612093611fc5946117ec565b989293505050611fac565b506120ae60206109008985610ff3565b611f67565b509798929650936001919599506120c9906117ec565b98612056565b50939650506120de915061138e565b9360009260005b8251811015612153576121006108b560206109008487610ff3565b61210d575b6001016120e5565b929361214b6121386001926121228787610ff3565b5161212d828c610ff3565b52611845818b610ff3565b956109c36108b560206109008989610ff3565b939050612105565b5092505091565b60ff6000805160206121c98339815191525460401c161561217757565b631afcd79f60e31b60005260046000fdfe9016d09d72d40fdae2fd8ceac6b6234c7706214fd39c1cd1e609a0528c1993009b779b17422d0df92223018b32b4d1fa46e071723d6817e2486d003becc55f00f0c57e16840df040f15088dc2f81fe391c3923bec73e23a9662efc9c229c6a00a2646970667358221220fa0206859e9fddb4233a7cf23a136fd2c0b827e927d9133503be0b56d547672764736f6c634300081c0033",
  "linkReferences": {},
  "deployedLinkReferences": {}
}