{
  "_format": "hh-sol-artifact-1",
  "contractName": "UpgradeUnit",
  "sourceName": "contracts/commands/UpgradeUnit.sol",
  "abi": [
    {
      "inputs": [],
      "name": "InvalidInitialization",
      "type": "error"
    },
    {
      "inputs": [],
      "name": "NotInitializing",
      "type": "error"
    },
    {
      "inputs": [
        {
          "internalType": "address",
          "name": "owner",
          "type": "address"
        }
      ],
      "name": "OwnableInvalidOwner",
      "type": "error"
    },
    {
      "inputs": [
        {
          "internalType": "address",
          "name": "account",
          "type": "address"
        }
      ],
      "name": "OwnableUnauthorizedAccount",
      "type": "error"
    },
    {
      "inputs": [],
      "name": "ReentrancyGuardReentrantCall",
      "type": "error"
    },
    {
      "anonymous": false,
      "inputs": [
        {
          "indexed": false,
          "internalType": "uint64",
          "name": "version",
          "type": "uint64"
        }
      ],
      "name": "Initialized",
      "type": "event"
    },
    {
      "anonymous": false,
      "inputs": [
        {
          "indexed": true,
          "internalType": "address",
          "name": "previousOwner",
          "type": "address"
        },
        {
          "indexed": true,
          "internalType": "address",
          "name": "newOwner",
          "type": "address"
        }
      ],
      "name": "OwnershipTransferred",
      "type": "event"
    },
    {
      "inputs": [],
      "name": "battleground",
      "outputs": [
        {
          "internalType": "contract IBattleground",
          "name": "",
          "type": "address"
        }
      ],
      "stateMutability": "view",
      "type": "function"
    },
    {
      "inputs": [
        {
          "internalType": "address",
          "name": "_lootVault",
          "type": "address"
        },
        {
          "internalType": "address",
          "name": "_unitManager",
          "type": "address"
        },
        {
          "internalType": "address",
          "name": "_battleground",
          "type": "address"
        }
      ],
      "name": "initialize",
      "outputs": [],
      "stateMutability": "nonpayable",
      "type": "function"
    },
    {
      "inputs": [],
      "name": "lootVault",
      "outputs": [
        {
          "internalType": "contract ILootVault",
          "name": "",
          "type": "address"
        }
      ],
      "stateMutability": "view",
      "type": "function"
    },
    {
      "inputs": [],
      "name": "owner",
      "outputs": [
        {
          "internalType": "address",
          "name": "",
          "type": "address"
        }
      ],
      "stateMutability": "view",
      "type": "function"
    },
    {
      "inputs": [],
      "name": "renounceOwnership",
      "outputs": [],
      "stateMutability": "nonpayable",
      "type": "function"
    },
    {
      "inputs": [
        {
          "internalType": "address",
          "name": "newOwner",
          "type": "address"
        }
      ],
      "name": "transferOwnership",
      "outputs": [],
      "stateMutability": "nonpayable",
      "type": "function"
    },
    {
      "inputs": [],
      "name": "unitManager",
      "outputs": [
        {
          "internalType": "contract IUnitManager",
          "name": "",
          "type": "address"
        }
      ],
      "stateMutability": "view",
      "type": "function"
    },
    {
      "inputs": [
        {
          "internalType": "address",
          "name": "_battleground",
          "type": "address"
        }
      ],
      "name": "updateBattleground",
      "outputs": [],
      "stateMutability": "nonpayable",
      "type": "function"
    },
    {
      "inputs": [
        {
          "internalType": "address",
          "name": "_lootVault",
          "type": "address"
        }
      ],
      "name": "updateLootVault",
      "outputs": [],
      "stateMutability": "nonpayable",
      "type": "function"
    },
    {
      "inputs": [
        {
          "internalType": "address",
          "name": "_unitManager",
          "type": "address"
        }
      ],
      "name": "updateUnitManager",
      "outputs": [],
      "stateMutability": "nonpayable",
      "type": "function"
    },
    {
      "inputs": [
        {
          "components": [
            {
              "internalType": "int16",
              "name": "x",
              "type": "int16"
            },
            {
              "internalType": "int16",
              "name": "y",
              "type": "int16"
            }
          ],
          "internalType": "struct IBattleground.Coordinates",
          "name": "coordinates",
          "type": "tuple"
        },
        {
          "components": [
            {
              "internalType": "uint16",
              "name": "unitId",
              "type": "uint16"
            },
            {
              "internalType": "uint16",
              "name": "quantity",
              "type": "uint16"
            }
          ],
          "internalType": "struct UnitQuantityLib.UnitQuantity",
          "name": "unitQuantity",
          "type": "tuple"
        }
      ],
      "name": "upgradeUnit",
      "outputs": [],
      "stateMutability": "nonpayable",
      "type": "function"
    }
  ],
  "bytecode": "0x60808060405234601557611336908161001b8239f35b600080fdfe608080604052600436101561001357600080fd5b60003560e01c90816324a3e96414610feb5750806338afa82114610fa85780633dd9e09f14610f7f578063412f108014610f3c57806356ddea0a14610f13578063715018a614610ea957806374e0835514610323578063808167f0146102e05780638da5cb5b146102aa578063c0c53b8b146100c85763f2fde38b1461009857600080fd5b346100c35760203660031901126100c3576100c16100b461100f565b6100bc61122f565b6111b9565b005b600080fd5b346100c35760603660031901126100c3576100e161100f565b6024356001600160a01b038116908190036100c3576044356001600160a01b03811691908290036100c3576000805160206112e1833981519152549260ff8460401c1615936001600160401b038116801590816102a2575b6001149081610298575b15908161028f575b5061027e5767ffffffffffffffff1981166001176000805160206112e18339815191525584610251575b5061017e611272565b610186611272565b61018f336111b9565b610197611272565b61019f611272565b60016000805160206112c18339815191525560018060a01b03166001600160601b0360a01b60005416176000556001600160601b0360a01b60025416176002556001600160601b0360a01b60015416176001556101f857005b68ff0000000000000000196000805160206112e183398151915254166000805160206112e1833981519152557fc7f505b2f371ae2175ee4913f4499e1f2633a7b5936321eed1cdaeb6115181d2602060405160018152a1005b68ffffffffffffffffff191668010000000000000001176000805160206112e18339815191525584610175565b63f92ee8a960e01b60005260046000fd5b9050158661014b565b303b159150610143565b869150610139565b346100c35760003660031901126100c3576000805160206112a1833981519152546040516001600160a01b039091168152602090f35b346100c35760203660031901126100c3576102f961100f565b61030161122f565b600280546001600160a01b0319166001600160a01b0392909216919091179055005b346100c3573660031901608081126100c3576040136100c35760405161034881611025565b6004358060010b81036100c35781526024358060010b81036100c357602082015260403660431901126100c35760405161038181611025565b60443561ffff811681036100c357815260643561ffff811681036100c3576020820190815260026000805160206112c18339815191525414610e985760026000805160206112c18339815191525561ffff81511615610e53576001805460405163f13ca34360e01b81528551830b6004820152602086015190920b6024830152600090829060449082906001600160a01b03165afa90811561069857600091610d1f575b5080519091906001600160a01b03163303610ce55760018060a01b036002541692600061ffff82511660246040518097819363fe07e59d60e01b835260048301525afa93841561069857600094610b10575b5061014084015115610ad35760009360005b6040850180518051831015610ac7576104a58361ffff9261118f565b51511661ffff845116146104bc5750600101610489565b91929394955061ffff60206104d283855161118f565b5101511661ffff86511611610a83576104f460209161ffff875116935161118f565b51019061ffff8251160361ffff811161055c5761ffff16905260015b15610a3e57610100019283519460005b8551518110156105725761ffff85511690606061053d828a61118f565b510191825181810291818304149015171561055c576001925201610520565b634e487b7160e01b600052601160045260246000fd5b508591849160018060a01b03600054169260005b8551811015610783576105a261059c828861118f565b51611265565b600281101561076d576106a457600060206001600160a01b03816105c6858b61118f565b51015116606460606105d8868c61118f565b51015160405194859384926323b872dd60e01b84523360048501528c602485015260448401525af19081156106985760009161065c575b501561061f576001905b01610586565b60405162461bcd60e51b8152602060048201526015602482015274151bdad95b881d1c985b9cd9995c8819985a5b1959605a1b6044820152606490fd5b906020823d8211610690575b8161067560209383611071565b8101031261068d575061068790611182565b8861060f565b80fd5b3d9150610668565b6040513d6000823e3d90fd5b6106b161059c828861118f565b600281101561076d576001146106ca575b600190610619565b6001600160a01b0360206106de838961118f565b510151169060406106ef828961118f565b51015160606106fe838a61118f565b510151833b156100c35760c4600092836040519687948593637921219560e11b85523360048601528d60248601526044850152606484015260a060848401528160a48401525af19182156106985760019261075c575b5090506106c2565b600061076791611071565b88610754565b634e487b7160e01b600052602160045260246000fd5b50856000805b60408601805180518310156107f5576107a58361ffff9261118f565b51511661ffff855116146107bd575b50600101610789565b90915060206107d38361ffff875116935161118f565b51019061ffff8251160161ffff811161055c5761ffff169052600190816107b4565b8688868615610972575b506001546001600160a01b031690813b156100c35760405163852df5b360e01b81528351600190810b600483015260209094015190930b602484015282906060604483015280516001600160a01b0316606483015260208082015161ffff1660848401526040820151608060a4850152805160e4850181905261010485019392919091019060005b8181106109465750505060600151906063198382030160c48401526020808351928381520192019060005b8181106108f7575050509181600081819503925af18015610698576108e6575b60016000805160206112c183398151915255005b60006108f191611071565b806108d2565b9180945092909251805190600282101561076d5782606060809260209460019652858060a01b0385820151168584015260408101516040840152015160608201520194019101918593926108b2565b8251805161ffff9081168752602091820151168187015288965060409095019490920191600101610887565b91906040810191825151916001830180931161055c57610991836110b5565b9261099f6040519485611071565b8084526109ae601f19916110b5565b0160005b818110610a1957505060005b845180518210156109f357906109d68160019361118f565b516109e1828761118f565b526109ec818661118f565b50016109be565b5050929093610a119082515190610a0a828661118f565b528361118f565b5052826107ff565b602090604051610a2881611025565b60008152600083820152828288010152016109b2565b60405162461bcd60e51b815260206004820152601b60248201527f50726572657175697369746520756e6974206e6f7420666f756e6400000000006044820152606490fd5b606460405162461bcd60e51b815260206004820152602060248201527f4e6f7420656e6f75676820756e69747320746f207570677261646520776974686044820152fd5b50505090919293610510565b60405162461bcd60e51b8152602060048201526015602482015274155b9a5d0818d85b89dd081899481d1c985a5b9959605a1b6044820152606490fd5b9390933d8083833e610b228183611071565b810190602081830312610cdd578051906001600160401b038211610ce157019061016082820312610cdd576040519261016084018481106001600160401b03821117610cc957604052610b74836110a6565b845260208301516001600160401b038111610ca957830182601f82011215610ca957805190610ba2826110b5565b91610bb06040519384611071565b80835260208084019160051b83010191858311610cc557602001905b828210610cad575050506020850152610be7604084016110a6565b6040850152610bf8606084016110a6565b6060850152610c0960808401611174565b6080850152610c1a60a08401611174565b60a0850152610c2b60c084016110a6565b60c0850152610c3c60e084016110a6565b60e08501526101008301516001600160401b038111610ca95782610c619185016110cc565b610100850152610120830151906001600160401b03821161068d575091610c9061014092610c9c9483016110cc565b61012085015201611182565b6101408201529285610477565b5080fd5b60208091610cba846110a6565b815201910190610bcc565b8480fd5b634e487b7160e01b82526041600452602482fd5b8280fd5b8380fd5b60405162461bcd60e51b81526020600482015260126024820152712737ba103a3432903a34b6329037bbb732b960711b6044820152606490fd5b3d8083833e610d2e8183611071565b810190602081830312610cdd578051906001600160401b038211610ce157019160808383031261068d5760405192610d6584611056565b610d6e81611092565b8452610d7c602082016110a6565b602085015260408101516001600160401b038111610cdd57810183601f82011215610cdd578051610dac816110b5565b91610dba6040519384611071565b81835260208084019260061b82010190868211610e4f57602001915b818310610e105750505060408501526060810151916001600160401b03831161068d5750610e059291016110cc565b606082015284610425565b604083880312610e4f5760206040918251610e2a81611025565b610e33866110a6565b8152610e408387016110a6565b83820152815201920191610dd6565b8580fd5b60405162461bcd60e51b815260206004820152601f60248201527f5175616e74697479206d7573742062652067726561746572207468616e2030006044820152606490fd5b633ee5aeb560e01b60005260046000fd5b346100c35760003660031901126100c357610ec261122f565b6000805160206112a183398151915280546001600160a01b031981169091556000906001600160a01b03167f8be0079c531659141344cd1fd0a4f28419497f9722a3daafe3b4186f6b6457e08280a3005b346100c35760003660031901126100c3576001546040516001600160a01b039091168152602090f35b346100c35760203660031901126100c357610f5561100f565b610f5d61122f565b600080546001600160a01b0319166001600160a01b0392909216919091179055005b346100c35760003660031901126100c3576002546040516001600160a01b039091168152602090f35b346100c35760203660031901126100c357610fc161100f565b610fc961122f565b600180546001600160a01b0319166001600160a01b0392909216919091179055005b346100c35760003660031901126100c3576000546001600160a01b03168152602090f35b600435906001600160a01b03821682036100c357565b604081019081106001600160401b0382111761104057604052565b634e487b7160e01b600052604160045260246000fd5b608081019081106001600160401b0382111761104057604052565b90601f801991011681019081106001600160401b0382111761104057604052565b51906001600160a01b03821682036100c357565b519061ffff821682036100c357565b6001600160401b0381116110405760051b60200190565b81601f820112156100c3578051906110e3826110b5565b926110f16040519485611071565b82845260208085019360071b830101918183116100c357602001925b82841061111b575050505090565b6080848303126100c3576040519061113282611056565b84519060028210156100c3578260209260809452611151838801611092565b83820152604087015160408201526060870151606082015281520193019261110d565b519060ff821682036100c357565b519081151582036100c357565b80518210156111a35760209160051b010190565b634e487b7160e01b600052603260045260246000fd5b6001600160a01b03168015611219576000805160206112a183398151915280546001600160a01b0319811683179091556001600160a01b03167f8be0079c531659141344cd1fd0a4f28419497f9722a3daafe3b4186f6b6457e0600080a3565b631e4fbdf760e01b600052600060045260246000fd5b6000805160206112a1833981519152546001600160a01b0316330361125057565b63118cdaa760e01b6000523360045260246000fd5b51600281101561076d5790565b60ff6000805160206112e18339815191525460401c161561128f57565b631afcd79f60e31b60005260046000fdfe9016d09d72d40fdae2fd8ceac6b6234c7706214fd39c1cd1e609a0528c1993009b779b17422d0df92223018b32b4d1fa46e071723d6817e2486d003becc55f00f0c57e16840df040f15088dc2f81fe391c3923bec73e23a9662efc9c229c6a00a264697066735822122024133f19459f3646e9694c5cd4abe1fb4292e24436ec65369ccb480860d31c1864736f6c634300081c0033",
  "linkReferences": {},
  "deployedLinkReferences": {}
}