{
  "_format": "hh-sol-artifact-1",
  "contractName": "Battleground",
  "sourceName": "contracts/Battleground.sol",
  "abi": [
    {
      "inputs": [],
      "name": "InvalidInitialization",
      "type": "error"
    },
    {
      "inputs": [],
      "name": "NotInitializing",
      "type": "error"
    },
    {
      "inputs": [
        {
          "internalType": "address",
          "name": "owner",
          "type": "address"
        }
      ],
      "name": "OwnableInvalidOwner",
      "type": "error"
    },
    {
      "inputs": [
        {
          "internalType": "address",
          "name": "account",
          "type": "address"
        }
      ],
      "name": "OwnableUnauthorizedAccount",
      "type": "error"
    },
    {
      "anonymous": false,
      "inputs": [
        {
          "indexed": false,
          "internalType": "uint16",
          "name": "x",
          "type": "uint16"
        },
        {
          "indexed": false,
          "internalType": "uint16",
          "name": "y",
          "type": "uint16"
        },
        {
          "indexed": true,
          "internalType": "address",
          "name": "occupant",
          "type": "address"
        },
        {
          "indexed": false,
          "internalType": "uint16",
          "name": "buildingId",
          "type": "uint16"
        }
      ],
      "name": "BuildingPlaced",
      "type": "event"
    },
    {
      "anonymous": false,
      "inputs": [
        {
          "indexed": false,
          "internalType": "address",
          "name": "buildingsContract",
          "type": "address"
        }
      ],
      "name": "BuildingsContractSet",
      "type": "event"
    },
    {
      "anonymous": false,
      "inputs": [
        {
          "indexed": false,
          "internalType": "address",
          "name": "constructionContract",
          "type": "address"
        }
      ],
      "name": "ConstructionContractSet",
      "type": "event"
    },
    {
      "anonymous": false,
      "inputs": [
        {
          "indexed": false,
          "internalType": "uint64",
          "name": "version",
          "type": "uint64"
        }
      ],
      "name": "Initialized",
      "type": "event"
    },
    {
      "anonymous": false,
      "inputs": [
        {
          "indexed": true,
          "internalType": "address",
          "name": "previousOwner",
          "type": "address"
        },
        {
          "indexed": true,
          "internalType": "address",
          "name": "newOwner",
          "type": "address"
        }
      ],
      "name": "OwnershipTransferred",
      "type": "event"
    },
    {
      "inputs": [],
      "name": "buildingsContract",
      "outputs": [
        {
          "internalType": "contract IBuildings",
          "name": "",
          "type": "address"
        }
      ],
      "stateMutability": "view",
      "type": "function"
    },
    {
      "inputs": [],
      "name": "constructionContract",
      "outputs": [
        {
          "internalType": "address",
          "name": "",
          "type": "address"
        }
      ],
      "stateMutability": "view",
      "type": "function"
    },
    {
      "inputs": [
        {
          "internalType": "uint16",
          "name": "x",
          "type": "uint16"
        },
        {
          "internalType": "uint16",
          "name": "y",
          "type": "uint16"
        }
      ],
      "name": "getTile",
      "outputs": [
        {
          "components": [
            {
              "internalType": "address",
              "name": "occupant",
              "type": "address"
            },
            {
              "internalType": "uint16",
              "name": "buildingId",
              "type": "uint16"
            }
          ],
          "internalType": "struct Battleground.Tile",
          "name": "",
          "type": "tuple"
        }
      ],
      "stateMutability": "view",
      "type": "function"
    },
    {
      "inputs": [
        {
          "internalType": "uint16",
          "name": "startX",
          "type": "uint16"
        },
        {
          "internalType": "uint16",
          "name": "startY",
          "type": "uint16"
        },
        {
          "internalType": "uint16",
          "name": "endX",
          "type": "uint16"
        },
        {
          "internalType": "uint16",
          "name": "endY",
          "type": "uint16"
        }
      ],
      "name": "getTileArea",
      "outputs": [
        {
          "components": [
            {
              "internalType": "address",
              "name": "occupant",
              "type": "address"
            },
            {
              "internalType": "uint16",
              "name": "buildingId",
              "type": "uint16"
            }
          ],
          "internalType": "struct Battleground.Tile[][]",
          "name": "",
          "type": "tuple[][]"
        }
      ],
      "stateMutability": "view",
      "type": "function"
    },
    {
      "inputs": [
        {
          "internalType": "address",
          "name": "user",
          "type": "address"
        }
      ],
      "name": "hasHeadquarters",
      "outputs": [
        {
          "internalType": "bool",
          "name": "",
          "type": "bool"
        }
      ],
      "stateMutability": "view",
      "type": "function"
    },
    {
      "inputs": [],
      "name": "height",
      "outputs": [
        {
          "internalType": "uint16",
          "name": "",
          "type": "uint16"
        }
      ],
      "stateMutability": "view",
      "type": "function"
    },
    {
      "inputs": [
        {
          "internalType": "uint16",
          "name": "_width",
          "type": "uint16"
        },
        {
          "internalType": "uint16",
          "name": "_height",
          "type": "uint16"
        }
      ],
      "name": "initialize",
      "outputs": [],
      "stateMutability": "nonpayable",
      "type": "function"
    },
    {
      "inputs": [],
      "name": "owner",
      "outputs": [
        {
          "internalType": "address",
          "name": "",
          "type": "address"
        }
      ],
      "stateMutability": "view",
      "type": "function"
    },
    {
      "inputs": [
        {
          "internalType": "uint16",
          "name": "x",
          "type": "uint16"
        },
        {
          "internalType": "uint16",
          "name": "y",
          "type": "uint16"
        },
        {
          "internalType": "address",
          "name": "occupant",
          "type": "address"
        },
        {
          "internalType": "uint16",
          "name": "buildingId",
          "type": "uint16"
        }
      ],
      "name": "placeBuilding",
      "outputs": [],
      "stateMutability": "nonpayable",
      "type": "function"
    },
    {
      "inputs": [
        {
          "internalType": "uint16",
          "name": "x",
          "type": "uint16"
        },
        {
          "internalType": "uint16",
          "name": "y",
          "type": "uint16"
        }
      ],
      "name": "removeBuilding",
      "outputs": [],
      "stateMutability": "nonpayable",
      "type": "function"
    },
    {
      "inputs": [],
      "name": "renounceOwnership",
      "outputs": [],
      "stateMutability": "nonpayable",
      "type": "function"
    },
    {
      "inputs": [
        {
          "internalType": "address",
          "name": "_buildingsContract",
          "type": "address"
        }
      ],
      "name": "setBuildingsContract",
      "outputs": [],
      "stateMutability": "nonpayable",
      "type": "function"
    },
    {
      "inputs": [
        {
          "internalType": "address",
          "name": "_constructionContract",
          "type": "address"
        }
      ],
      "name": "setConstructionContract",
      "outputs": [],
      "stateMutability": "nonpayable",
      "type": "function"
    },
    {
      "inputs": [
        {
          "internalType": "uint16",
          "name": "",
          "type": "uint16"
        },
        {
          "internalType": "uint16",
          "name": "",
          "type": "uint16"
        }
      ],
      "name": "tiles",
      "outputs": [
        {
          "internalType": "address",
          "name": "occupant",
          "type": "address"
        },
        {
          "internalType": "uint16",
          "name": "buildingId",
          "type": "uint16"
        }
      ],
      "stateMutability": "view",
      "type": "function"
    },
    {
      "inputs": [
        {
          "internalType": "address",
          "name": "newOwner",
          "type": "address"
        }
      ],
      "name": "transferOwnership",
      "outputs": [],
      "stateMutability": "nonpayable",
      "type": "function"
    },
    {
      "inputs": [
        {
          "internalType": "address",
          "name": "",
          "type": "address"
        },
        {
          "internalType": "uint256",
          "name": "",
          "type": "uint256"
        }
      ],
      "name": "userHeadquarters",
      "outputs": [
        {
          "internalType": "uint16",
          "name": "x",
          "type": "uint16"
        },
        {
          "internalType": "uint16",
          "name": "y",
          "type": "uint16"
        }
      ],
      "stateMutability": "view",
      "type": "function"
    },
    {
      "inputs": [],
      "name": "width",
      "outputs": [
        {
          "internalType": "uint16",
          "name": "",
          "type": "uint16"
        }
      ],
      "stateMutability": "view",
      "type": "function"
    }
  ],
  "bytecode": "0x6080806040523460155761133a908161001b8239f35b600080fdfe608080604052600436101561001357600080fd5b60003560e01c9081630ef2674314610f2f5750806325181bd214610eb8578063271d34e014610c7d5780632dc936e214610c1c5780633c84b5d314610a8f5780636398072414610a2d578063715018a6146109c357806376fa283f1461099a57806377b9a7a71461092e57806377f19a8f146108c25780638345f312146104d65780638da5cb5b146104a05780639ededf771461047b578063a8b6837614610452578063c64bb4d814610146578063f2fde38b1461011b5763f7625ef0146100da57600080fd5b34610116576020366003190112610116576001600160a01b036100fb610f84565b16600052600360205260206040600020541515604051908152f35b600080fd5b3461011657602036600319011261011657610144610137610f84565b61013f611240565b6111ca565b005b346101165760403660031901126101165761015f610f51565b610167610f62565b906101a661ffff80806001549461018760018060a01b0387163314611048565b1694610199828660a01c1687106110ae565b169260b01c1682106110fa565b8160005260026020526040600020816000526020526101c8604060002061101f565b80516001600160a01b03161561040d57600054602082810151604051630a228fcb60e41b815261ffff909116600482015291829060249082906001600160a01b03165afa908115610401576000916103d2575b50610262575b60006000805160206112c5833981519152606085858185526002602052604085208186526020528460408120556040519182526020820152836040820152a2005b516001600160a01b03166000908152600360205260408120905b8154808210156103b5578461ffff6102948486610f9a565b505416148061039a575b6102ab575060010161027c565b9192916000198101908111610384576102c76102cf9185610f9a565b509184610f9a565b61031e5781810361034a575b5050815480156103345760001901926102f48484610f9a565b92909261031e576000946000805160206112c5833981519152948660609555555b92509250610221565b634e487b7160e01b600052600060045260246000fd5b634e487b7160e01b600052603160045260246000fd5b61ffff82818061037d9554161682198454161783555460101c1663ffff000082549160101b169063ffff00001916179055565b83806102db565b634e487b7160e01b600052601160045260246000fd5b508361ffff6103a98486610f9a565b505460101c161461029e565b50505060606000926000805160206112c583398151915292610315565b6103f4915060203d6020116103fa575b6103ec8183610fe4565b810190611146565b8461021b565b503d6103e2565b6040513d6000823e3d90fd5b60405162461bcd60e51b815260206004820152601860248201527f4e6f206275696c64696e67206f6e20746869732074696c6500000000000000006044820152606490fd5b34610116576000366003190112610116576000546040516001600160a01b039091168152602090f35b3461011657600036600319011261011657602061ffff60015460a01c16604051908152f35b34610116576000366003190112610116576000805160206112a5833981519152546040516001600160a01b039091168152602090f35b34610116576080366003190112610116576104ef610f51565b6104f7610f62565b906044359061ffff82169182810361011657610511610f73565b9261ffff83168181111590816108af575b501561086a5761ffff84169061ffff8616828111159081610857575b5015610812576001549061ffff8260a01c1611156107cd5760b01c61ffff1611156107885761058561057a8561057f61057a8661ffff9661115e565b611174565b9561115e565b1661058f8161119e565b61059c6040519182610fe4565b818152601f196105ab8361119e565b0160005b81811061077757505061ffff60009416915b61ffff851690808210156106c5576105d88461119e565b6105e56040519182610fe4565b848152601f196105f48661119e565b0160005b8181106106a057505061060b83856111b6565b5261061682846111b6565b5060005b61ffff81168581101561068e578161068660019261ffff61063c81968c611188565b16600052600260205260408c6106568d8360002092611188565b90876000921682526020522061067661066f898b6111b6565b519161101f565b61068083836111b6565b526111b6565b50011661061a565b50509461ffff915060010116936105c1565b6020906040516106af81610fc8565b60008152600083820152828286010152016105f8565b826040518091602082016020835281518091526040830190602060408260051b8601019301916000905b8282106106fe57505050500390f35b919390929450603f19868203018252845190602080835192838152019201906000905b8082106107415750505060208060019296019201920185949391926106ef565b909192602060408261076c600194885161ffff6020809260018060a01b038151168552015116910152565b019401920190610721565b8060606020809386010152016105af565b60405162461bcd60e51b815260206004820152601e60248201527f5920656e6420636f6f7264696e617465206f7574206f6620626f756e647300006044820152606490fd5b60405162461bcd60e51b815260206004820152601e60248201527f5820656e6420636f6f7264696e617465206f7574206f6620626f756e647300006044820152606490fd5b60405162461bcd60e51b815260206004820152601a60248201527f496e76616c6964205920737461727420636f6f7264696e6174650000000000006044820152606490fd5b905061ffff60015460b01c16118761053e565b60405162461bcd60e51b815260206004820152601a60248201527f496e76616c6964205820737461727420636f6f7264696e6174650000000000006044820152606490fd5b905061ffff60015460a01c161186610522565b34610116576020366003190112610116577f3eda8bb8d2e997700e220c062c04ff8e25da48db31c7ee1c2552c63668ae284d60206108fe610f84565b610906611240565b600080546001600160a01b0319166001600160a01b03929092169182179055604051908152a1005b34610116576020366003190112610116577f01a3c02569192838f69d01f75ce99f198722ba42c619599c574b1933d9f4ed51602061096a610f84565b610972611240565b600180546001600160a01b0319166001600160a01b03929092169182179055604051908152a1005b34610116576000366003190112610116576001546040516001600160a01b039091168152602090f35b34610116576000366003190112610116576109dc611240565b6000805160206112a583398151915280546001600160a01b031981169091556000906001600160a01b03167f8be0079c531659141344cd1fd0a4f28419497f9722a3daafe3b4186f6b6457e08280a3005b3461011657604036600319011261011657610a46610f84565b6001600160a01b031660009081526003602052604090208054602435919082101561011657604091610a7791610f9a565b505461ffff825191818116835260101c166020820152f35b3461011657604036600319011261011657610aa8610f51565b610ab0610f62565b906000805160206112e5833981519152549160ff8360401c16159267ffffffffffffffff811680159081610c14575b6001149081610c0a575b159081610c01575b50610bf05767ffffffffffffffff1981166001176000805160206112e58339815191525583610bc3575b50610b24611276565b610b2c611276565b610b35336111ca565b6001805463ffffffff60a01b191660a09390931b61ffff60a01b169290921760b09190911b61ffff60b01b16179055610b6a57005b68ff0000000000000000196000805160206112e583398151915254166000805160206112e5833981519152557fc7f505b2f371ae2175ee4913f4499e1f2633a7b5936321eed1cdaeb6115181d2602060405160018152a1005b68ffffffffffffffffff191668010000000000000001176000805160206112e58339815191525583610b1b565b63f92ee8a960e01b60005260046000fd5b90501585610af1565b303b159150610ae9565b859150610adf565b3461011657604036600319011261011657610c35610f51565b61ffff610c40610f62565b9116600052600260205261ffff604060002091166000526020526040806000205461ffff82519160018060a01b038116835260a01c166020820152f35b3461011657608036600319011261011657610c96610f51565b610c9e610f62565b6044356001600160a01b03811692919083900361011657610cbd610f73565b91610cdd61ffff80806001549461018760018060a01b0387163314611048565b60008281526002602090815260408083208484529091529020546001600160a01b0316610e7b57604051610d1081610fc8565b84815261ffff939093166020808501828152600085815260028352604080822086835284528082209751885493516001600160b01b03199094166001600160a01b039182161760a09490941b61ffff60a01b1693909317909755549551630a228fcb60e41b815260048101849052929583916024918391165afa90811561040157600091610e5c575b50610dc6575b906000805160206112c58339815191529260609260405192835260208301526040820152a2005b9083600052600360205260406000209260405192610de384610fc8565b8284526020840194818652805468010000000000000000811015610e4657610e1091600182018155610f9a565b95909561031e5793518554945163ffffffff1990951661ffff9091161760109490941b63ffff0000169390931790935590610d9f565b634e487b7160e01b600052604160045260246000fd5b610e75915060203d6020116103fa576103ec8183610fe4565b85610d99565b60405162461bcd60e51b8152602060048201526015602482015274151a5b1948185b1c9958591e481bd8d8dd5c1a5959605a1b6044820152606490fd5b3461011657604036600319011261011657610ed1610f51565b61ffff610edc610f62565b91610ee5611006565b5016600052600260205261ffff604060002091166000526020526040610f0d8160002061101f565b815181516001600160a01b0316815260209182015161ffff1691810191909152f35b346101165760003660031901126101165760209061ffff60015460b01c168152f35b6004359061ffff8216820361011657565b6024359061ffff8216820361011657565b6064359061ffff8216820361011657565b600435906001600160a01b038216820361011657565b8054821015610fb25760005260206000200190600090565b634e487b7160e01b600052603260045260246000fd5b6040810190811067ffffffffffffffff821117610e4657604052565b90601f8019910116810190811067ffffffffffffffff821117610e4657604052565b6040519061101382610fc8565b60006020838281520152565b9060405161102c81610fc8565b91546001600160a01b038116835260a01c61ffff166020830152565b1561104f57565b60405162461bcd60e51b815260206004820152603160248201527f4f6e6c7920636f6e737472756374696f6e20636f6e74726163742063616e206360448201527030b636103a3434b990333ab731ba34b7b760791b6064820152608490fd5b156110b557565b60405162461bcd60e51b815260206004820152601a60248201527f5820636f6f7264696e617465206f7574206f6620626f756e64730000000000006044820152606490fd5b1561110157565b60405162461bcd60e51b815260206004820152601a60248201527f5920636f6f7264696e617465206f7574206f6620626f756e64730000000000006044820152606490fd5b90816020910312610116575180151581036101165790565b9061ffff8091169116039061ffff821161038457565b61ffff60019116019061ffff821161038457565b9061ffff8091169116019061ffff821161038457565b67ffffffffffffffff8111610e465760051b60200190565b8051821015610fb25760209160051b010190565b6001600160a01b0316801561122a576000805160206112a583398151915280546001600160a01b0319811683179091556001600160a01b03167f8be0079c531659141344cd1fd0a4f28419497f9722a3daafe3b4186f6b6457e0600080a3565b631e4fbdf760e01b600052600060045260246000fd5b6000805160206112a5833981519152546001600160a01b0316330361126157565b63118cdaa760e01b6000523360045260246000fd5b60ff6000805160206112e58339815191525460401c161561129357565b631afcd79f60e31b60005260046000fdfe9016d09d72d40fdae2fd8ceac6b6234c7706214fd39c1cd1e609a0528c199300f726ff0ca6cf7dd1ff7fc82898695b17e76c02cbb345abd7b396658b9b142febf0c57e16840df040f15088dc2f81fe391c3923bec73e23a9662efc9c229c6a00a2646970667358221220f35a47438d04f95003b734ab4dcada01289e6b1e4b5dd77e3fcad19ae4d461f164736f6c634300081c0033",
  "linkReferences": {},
  "deployedLinkReferences": {}
}