{
  "_format": "hh-sol-artifact-1",
  "contractName": "BuildingManager",
  "sourceName": "contracts/data/BuildingManager.sol",
  "abi": [
    {
      "inputs": [],
      "name": "InvalidInitialization",
      "type": "error"
    },
    {
      "inputs": [],
      "name": "NotInitializing",
      "type": "error"
    },
    {
      "inputs": [
        {
          "internalType": "address",
          "name": "owner",
          "type": "address"
        }
      ],
      "name": "OwnableInvalidOwner",
      "type": "error"
    },
    {
      "inputs": [
        {
          "internalType": "address",
          "name": "account",
          "type": "address"
        }
      ],
      "name": "OwnableUnauthorizedAccount",
      "type": "error"
    },
    {
      "anonymous": false,
      "inputs": [
        {
          "indexed": false,
          "internalType": "uint64",
          "name": "version",
          "type": "uint64"
        }
      ],
      "name": "Initialized",
      "type": "event"
    },
    {
      "anonymous": false,
      "inputs": [
        {
          "indexed": true,
          "internalType": "address",
          "name": "previousOwner",
          "type": "address"
        },
        {
          "indexed": true,
          "internalType": "address",
          "name": "newOwner",
          "type": "address"
        }
      ],
      "name": "OwnershipTransferred",
      "type": "event"
    },
    {
      "inputs": [
        {
          "components": [
            {
              "internalType": "uint16",
              "name": "prerequisiteBuildingId",
              "type": "uint16"
            },
            {
              "internalType": "bool",
              "name": "isHeadquarters",
              "type": "bool"
            },
            {
              "internalType": "uint16",
              "name": "constructionRange",
              "type": "uint16"
            },
            {
              "internalType": "uint256",
              "name": "damageBoostPercentage",
              "type": "uint256"
            },
            {
              "components": [
                {
                  "internalType": "enum TokenAmountLib.TokenType",
                  "name": "tokenType",
                  "type": "uint8"
                },
                {
                  "internalType": "address",
                  "name": "tokenAddress",
                  "type": "address"
                },
                {
                  "internalType": "uint256",
                  "name": "tokenId",
                  "type": "uint256"
                },
                {
                  "internalType": "uint256",
                  "name": "amount",
                  "type": "uint256"
                }
              ],
              "internalType": "struct TokenAmountLib.TokenAmount[]",
              "name": "constructionCost",
              "type": "tuple[]"
            },
            {
              "internalType": "bool",
              "name": "canBeConstructed",
              "type": "bool"
            }
          ],
          "internalType": "struct IBuildingManager.Building",
          "name": "building",
          "type": "tuple"
        }
      ],
      "name": "addBuilding",
      "outputs": [],
      "stateMutability": "nonpayable",
      "type": "function"
    },
    {
      "inputs": [
        {
          "internalType": "uint16",
          "name": "",
          "type": "uint16"
        }
      ],
      "name": "buildings",
      "outputs": [
        {
          "internalType": "uint16",
          "name": "prerequisiteBuildingId",
          "type": "uint16"
        },
        {
          "internalType": "bool",
          "name": "isHeadquarters",
          "type": "bool"
        },
        {
          "internalType": "uint16",
          "name": "constructionRange",
          "type": "uint16"
        },
        {
          "internalType": "uint256",
          "name": "damageBoostPercentage",
          "type": "uint256"
        },
        {
          "internalType": "bool",
          "name": "canBeConstructed",
          "type": "bool"
        }
      ],
      "stateMutability": "view",
      "type": "function"
    },
    {
      "inputs": [
        {
          "internalType": "uint16",
          "name": "buildingId",
          "type": "uint16"
        }
      ],
      "name": "getBuilding",
      "outputs": [
        {
          "components": [
            {
              "internalType": "uint16",
              "name": "prerequisiteBuildingId",
              "type": "uint16"
            },
            {
              "internalType": "bool",
              "name": "isHeadquarters",
              "type": "bool"
            },
            {
              "internalType": "uint16",
              "name": "constructionRange",
              "type": "uint16"
            },
            {
              "internalType": "uint256",
              "name": "damageBoostPercentage",
              "type": "uint256"
            },
            {
              "components": [
                {
                  "internalType": "enum TokenAmountLib.TokenType",
                  "name": "tokenType",
                  "type": "uint8"
                },
                {
                  "internalType": "address",
                  "name": "tokenAddress",
                  "type": "address"
                },
                {
                  "internalType": "uint256",
                  "name": "tokenId",
                  "type": "uint256"
                },
                {
                  "internalType": "uint256",
                  "name": "amount",
                  "type": "uint256"
                }
              ],
              "internalType": "struct TokenAmountLib.TokenAmount[]",
              "name": "constructionCost",
              "type": "tuple[]"
            },
            {
              "internalType": "bool",
              "name": "canBeConstructed",
              "type": "bool"
            }
          ],
          "internalType": "struct IBuildingManager.Building",
          "name": "",
          "type": "tuple"
        }
      ],
      "stateMutability": "view",
      "type": "function"
    },
    {
      "inputs": [
        {
          "internalType": "uint16",
          "name": "buildingId",
          "type": "uint16"
        }
      ],
      "name": "getTotalBuildingConstructionCost",
      "outputs": [
        {
          "components": [
            {
              "internalType": "enum TokenAmountLib.TokenType",
              "name": "tokenType",
              "type": "uint8"
            },
            {
              "internalType": "address",
              "name": "tokenAddress",
              "type": "address"
            },
            {
              "internalType": "uint256",
              "name": "tokenId",
              "type": "uint256"
            },
            {
              "internalType": "uint256",
              "name": "amount",
              "type": "uint256"
            }
          ],
          "internalType": "struct TokenAmountLib.TokenAmount[]",
          "name": "",
          "type": "tuple[]"
        }
      ],
      "stateMutability": "view",
      "type": "function"
    },
    {
      "inputs": [],
      "name": "initialize",
      "outputs": [],
      "stateMutability": "nonpayable",
      "type": "function"
    },
    {
      "inputs": [],
      "name": "nextBuildingId",
      "outputs": [
        {
          "internalType": "uint16",
          "name": "",
          "type": "uint16"
        }
      ],
      "stateMutability": "view",
      "type": "function"
    },
    {
      "inputs": [],
      "name": "owner",
      "outputs": [
        {
          "internalType": "address",
          "name": "",
          "type": "address"
        }
      ],
      "stateMutability": "view",
      "type": "function"
    },
    {
      "inputs": [],
      "name": "renounceOwnership",
      "outputs": [],
      "stateMutability": "nonpayable",
      "type": "function"
    },
    {
      "inputs": [
        {
          "internalType": "uint16",
          "name": "buildingId",
          "type": "uint16"
        },
        {
          "internalType": "bool",
          "name": "canBeConstructed",
          "type": "bool"
        }
      ],
      "name": "setConstructability",
      "outputs": [],
      "stateMutability": "nonpayable",
      "type": "function"
    },
    {
      "inputs": [
        {
          "internalType": "address",
          "name": "newOwner",
          "type": "address"
        }
      ],
      "name": "transferOwnership",
      "outputs": [],
      "stateMutability": "nonpayable",
      "type": "function"
    }
  ],
  "bytecode": "0x60808060405234601557610f75908161001b8239f35b600080fdfe6080604052600436101561001257600080fd5b60003560e01c80631e5b8deb146100b757806328b7d276146100b2578063715018a6146100ad5780637eae5754146100a85780638129fc1c146100a35780638da5cb5b1461009e578063c5b5d79314610099578063e24d4a6b14610094578063e66779071461008f5763f2fde38b1461008a57600080fd5b61080a565b610729565b610678565b6105ee565b6105b8565b61044e565b61037b565b610280565b6101d3565b346101b85760203660031901126101b85760043567ffffffffffffffff81116101b8578060040160c060031983360301126101b8576100f4610c7e565b80356100ff816101bd565b6000549061ffff808316911610156101745761013b61016d9161013461012b6084610172970186610837565b9050151561086d565b61ffff1690565b610159610147826108da565b61ffff1661ffff196000541617600055565b61ffff166000526001602052604060002090565b610a20565b005b606460405162461bcd60e51b815260206004820152602060248201527f50726576696f7573206275696c64696e6720646f6573206e6f742065786973746044820152fd5b600080fd5b61ffff8116036101b857565b801515036101b857565b346101b85760403660031901126101b8576004356101f0816101bd565b6024356101fc816101c9565b610204610c7e565b61ffff806000541692169182101561023b5761017291600052600160205260036040600020019060ff801983541691151516179055565b60405162461bcd60e51b815260206004820152601760248201527f4275696c64696e6720646f6573206e6f742065786973740000000000000000006044820152606490fd5b346101b85760003660031901126101b857610299610c7e565b600080516020610f0083398151915280546001600160a01b031981169091556000906001600160a01b03167f8be0079c531659141344cd1fd0a4f28419497f9722a3daafe3b4186f6b6457e08280a3005b908151600281101561032557608092606091835260018060a01b03602082015116602084015260408101516040840152015160608201520190565b634e487b7160e01b600052602160045260246000fd5b602060408183019282815284518094520192019060005b81811061035f5750505090565b909192602061037160019286516102ea565b9401929101610352565b346101b85760203660031901126101b857600435610398816101bd565b61ffff6060915b16801561043c57600052600160205261ffff61043761042e6040600020936103c5610ad5565b946103f0858254818116895260ff8160101c16151560208a015260181c16604088019061ffff169052565b6001810154606087015261042761041e600361040e60028501610b53565b9360808a01948552015460ff1690565b151560a0880152565b5190610d58565b925161ffff1690565b61039f565b6040518061044a848261033b565b0390f35b346101b85760003660031901126101b857600080516020610f208339815191525467ffffffffffffffff61049260ff604084901c16159267ffffffffffffffff1690565b16801590816105b0575b60011490816105a6575b15908161059d575b5061058c57806104e7600167ffffffffffffffff19600080516020610f20833981519152541617600080516020610f2083398151915255565b610555575b6104f4610bdf565b6104fa57005b61052660ff60401b19600080516020610f208339815191525416600080516020610f2083398151915255565b604051600181527fc7f505b2f371ae2175ee4913f4499e1f2633a7b5936321eed1cdaeb6115181d290602090a1005b610587600160401b60ff60401b19600080516020610f20833981519152541617600080516020610f2083398151915255565b6104ec565b63f92ee8a960e01b60005260046000fd5b905015386104ae565b303b1591506104a6565b82915061049c565b346101b85760003660031901126101b857600080516020610f00833981519152546040516001600160a01b039091168152602090f35b346101b85760203660031901126101b85761ffff60043561060e816101bd565b1660005260016020526040600020805461044a60ff6003600185015494015416604051938361ffff869560181c169061ffff60ff8260101c16911686939095949160809361ffff918260a08801991687521515602087015216604085015260608401521515910152565b346101b85760003660031901126101b857602061ffff60005416604051908152f35b6020815260e081019161ffff815116602083015260208101511515604083015261ffff60408201511660608301526060810151608083015260808101519260c060a084015283518091526020610100840194019060005b81811061070d5750505060a00151151560c09091015290565b90565b909194602061071f60019288516102ea565b96019291016106f1565b346101b85760203660031901126101b85761ffff600435610749816101bd565b600060a0610755610ad5565b82815282602082015282604082015282606082015260606080820152015216600052600160205261044a60406000206107ed6107e46003610794610ad5565b936107c161ffff8254818116885260ff8160101c161515602089015260181c16604087019061ffff169052565b600181015460608601526107d760028201610b53565b6080860152015460ff1690565b151560a0830152565b6040519182918261069a565b6001600160a01b038116036101b857565b346101b85760203660031901126101b85761017260043561082a816107f9565b610832610c7e565b610c08565b903590601e19813603018212156101b8570180359067ffffffffffffffff82116101b857602001918160071b360383136101b857565b1561087457565b60405162461bcd60e51b815260206004820152602260248201527f436f6e737472756374696f6e20636f7374206d7573742062652070726f766964604482015261195960f21b6064820152608490fd5b634e487b7160e01b600052601160045260246000fd5b61ffff60019116019061ffff82116108ee57565b6108c4565b3561070a816101c9565b634e487b7160e01b600052604160045260246000fd5b90803560028110156101b85760029160609160ff80198654169116178455602081013561093f816107f9565b8454610100600160a81b03191660089190911b610100600160a81b0316178455604081013560018501550135910155565b90600160401b8311610a1b5781548383558084106109c8575b5061099a9091600052602060002090565b6000915b8383106109ab5750505050565b60036080826109bc60019486610913565b0192019201919061099e565b806003029060038204036108ee57836003026003810485036108ee5783600052602060002091820191015b818110610a005750610989565b806000600392556000600182015560006002820155016109f3565b6108fd565b6003610ac060a0610ad394610a4b8135610a39816101bd565b865461ffff191661ffff909116178655565b6020810135610a59816101c9565b62ff0000865491151560101b168062ff000019831617875564ffff0000006040840135610a85816101bd565b60181b169164ffffff000019161717855560608101356001860155610aba610ab06080830183610837565b9060028801610970565b016108f3565b91019060ff801983541691151516179055565b565b6040519060c0820182811067ffffffffffffffff821117610a1b57604052565b604051906080820182811067ffffffffffffffff821117610a1b57604052565b6040519190601f01601f1916820167ffffffffffffffff811183821017610a1b57604052565b67ffffffffffffffff8111610a1b5760051b60200190565b90815491610b68610b6384610b3b565b610b15565b92808452602084019160005260206000206000925b828410610b8a5750505050565b610b92610af5565b9082549060ff8216906002821015610325578360039360209360019652858060a01b039060081c168382015284860154604082015260028601546060820152815201920193019290610b7d565b610be7610ed1565b610bef610ed1565b610bf833610c08565b600161ffff196000541617600055565b6001600160a01b03168015610c6857600080516020610f0083398151915280546001600160a01b0319811683179091556001600160a01b03167f8be0079c531659141344cd1fd0a4f28419497f9722a3daafe3b4186f6b6457e0600080a3565b631e4fbdf760e01b600052600060045260246000fd5b600080516020610f00833981519152546001600160a01b03163303610c9f57565b63118cdaa760e01b6000523360045260246000fd5b919082018092116108ee57565b90610cce610b6383610b3b565b8281528092610cdf601f1991610b3b565b019060005b828110610cf057505050565b602090610cfb610af5565b60008152600083820152600060408201526000606082015282828501015201610ce4565b8051821015610d335760209160051b010190565b634e487b7160e01b600052603260045260246000fd5b60001981146108ee5760010190565b91610d6e610d698451845190610cb4565b610cc1565b600091825b8551841015610db057610da8600191610d8c8689610d1f565b51610d978287610d1f565b52610da28186610d1f565b50610d49565b930192610d73565b945092600092505b8051831015610eca57600093845b8351811015610ec057610ded6020610dde8387610d1f565b5101516001600160a01b031690565b610e0b610dff6020610dde8988610d1f565b6001600160a01b031690565b6001600160a01b039091161480610e9b575b610e2957600101610dc6565b909593919450610e566060610e4c81610e42868a610d1f565b5101519386610d1f565b5101918251610cb4565b905260015b15610e6c575b600101919392610db8565b91610e93600191610e7d8587610d1f565b51610e888286610d1f565b52610da28185610d1f565b929050610e61565b506040610ea88286610d1f565b5101516040610eb78786610d1f565b51015114610e1d565b5094929093610e5b565b5092835250565b60ff600080516020610f208339815191525460401c1615610eee57565b631afcd79f60e31b60005260046000fdfe9016d09d72d40fdae2fd8ceac6b6234c7706214fd39c1cd1e609a0528c199300f0c57e16840df040f15088dc2f81fe391c3923bec73e23a9662efc9c229c6a00a2646970667358221220e56fb9d02495bc38d9d45cf63e75d4a24ee06b69c937fa98fcfc9d3e2bbb061064736f6c634300081c0033",
  "linkReferences": {},
  "deployedLinkReferences": {}
}