{
  "_format": "hh-sol-artifact-1",
  "contractName": "UnitManager",
  "sourceName": "contracts/data/UnitManager.sol",
  "abi": [
    {
      "inputs": [],
      "name": "InvalidInitialization",
      "type": "error"
    },
    {
      "inputs": [],
      "name": "NotInitializing",
      "type": "error"
    },
    {
      "inputs": [
        {
          "internalType": "address",
          "name": "owner",
          "type": "address"
        }
      ],
      "name": "OwnableInvalidOwner",
      "type": "error"
    },
    {
      "inputs": [
        {
          "internalType": "address",
          "name": "account",
          "type": "address"
        }
      ],
      "name": "OwnableUnauthorizedAccount",
      "type": "error"
    },
    {
      "anonymous": false,
      "inputs": [
        {
          "indexed": false,
          "internalType": "uint64",
          "name": "version",
          "type": "uint64"
        }
      ],
      "name": "Initialized",
      "type": "event"
    },
    {
      "anonymous": false,
      "inputs": [
        {
          "indexed": true,
          "internalType": "address",
          "name": "previousOwner",
          "type": "address"
        },
        {
          "indexed": true,
          "internalType": "address",
          "name": "newOwner",
          "type": "address"
        }
      ],
      "name": "OwnershipTransferred",
      "type": "event"
    },
    {
      "inputs": [
        {
          "components": [
            {
              "internalType": "uint16",
              "name": "prerequisiteUnitId",
              "type": "uint16"
            },
            {
              "internalType": "uint16[]",
              "name": "trainingBuildingIds",
              "type": "uint16[]"
            },
            {
              "internalType": "uint16",
              "name": "healthPoints",
              "type": "uint16"
            },
            {
              "internalType": "uint16",
              "name": "attackDamage",
              "type": "uint16"
            },
            {
              "internalType": "uint8",
              "name": "attackRange",
              "type": "uint8"
            },
            {
              "internalType": "uint8",
              "name": "movementRange",
              "type": "uint8"
            },
            {
              "internalType": "uint16",
              "name": "damageBoostPercentage",
              "type": "uint16"
            },
            {
              "components": [
                {
                  "internalType": "enum TokenAmountLib.TokenType",
                  "name": "tokenType",
                  "type": "uint8"
                },
                {
                  "internalType": "address",
                  "name": "tokenAddress",
                  "type": "address"
                },
                {
                  "internalType": "uint256",
                  "name": "tokenId",
                  "type": "uint256"
                },
                {
                  "internalType": "uint256",
                  "name": "amount",
                  "type": "uint256"
                }
              ],
              "internalType": "struct TokenAmountLib.TokenAmount[]",
              "name": "trainingCost",
              "type": "tuple[]"
            },
            {
              "components": [
                {
                  "internalType": "enum TokenAmountLib.TokenType",
                  "name": "tokenType",
                  "type": "uint8"
                },
                {
                  "internalType": "address",
                  "name": "tokenAddress",
                  "type": "address"
                },
                {
                  "internalType": "uint256",
                  "name": "tokenId",
                  "type": "uint256"
                },
                {
                  "internalType": "uint256",
                  "name": "amount",
                  "type": "uint256"
                }
              ],
              "internalType": "struct TokenAmountLib.TokenAmount[]",
              "name": "rangedAttackCost",
              "type": "tuple[]"
            },
            {
              "internalType": "bool",
              "name": "canBeTrained",
              "type": "bool"
            }
          ],
          "internalType": "struct IUnitManager.Unit",
          "name": "unit",
          "type": "tuple"
        }
      ],
      "name": "addUnit",
      "outputs": [],
      "stateMutability": "nonpayable",
      "type": "function"
    },
    {
      "inputs": [
        {
          "internalType": "uint16",
          "name": "unitId",
          "type": "uint16"
        }
      ],
      "name": "getTotalUnitTrainingCost",
      "outputs": [
        {
          "components": [
            {
              "internalType": "enum TokenAmountLib.TokenType",
              "name": "tokenType",
              "type": "uint8"
            },
            {
              "internalType": "address",
              "name": "tokenAddress",
              "type": "address"
            },
            {
              "internalType": "uint256",
              "name": "tokenId",
              "type": "uint256"
            },
            {
              "internalType": "uint256",
              "name": "amount",
              "type": "uint256"
            }
          ],
          "internalType": "struct TokenAmountLib.TokenAmount[]",
          "name": "",
          "type": "tuple[]"
        }
      ],
      "stateMutability": "view",
      "type": "function"
    },
    {
      "inputs": [
        {
          "internalType": "uint16",
          "name": "unitId",
          "type": "uint16"
        }
      ],
      "name": "getUnit",
      "outputs": [
        {
          "components": [
            {
              "internalType": "uint16",
              "name": "prerequisiteUnitId",
              "type": "uint16"
            },
            {
              "internalType": "uint16[]",
              "name": "trainingBuildingIds",
              "type": "uint16[]"
            },
            {
              "internalType": "uint16",
              "name": "healthPoints",
              "type": "uint16"
            },
            {
              "internalType": "uint16",
              "name": "attackDamage",
              "type": "uint16"
            },
            {
              "internalType": "uint8",
              "name": "attackRange",
              "type": "uint8"
            },
            {
              "internalType": "uint8",
              "name": "movementRange",
              "type": "uint8"
            },
            {
              "internalType": "uint16",
              "name": "damageBoostPercentage",
              "type": "uint16"
            },
            {
              "components": [
                {
                  "internalType": "enum TokenAmountLib.TokenType",
                  "name": "tokenType",
                  "type": "uint8"
                },
                {
                  "internalType": "address",
                  "name": "tokenAddress",
                  "type": "address"
                },
                {
                  "internalType": "uint256",
                  "name": "tokenId",
                  "type": "uint256"
                },
                {
                  "internalType": "uint256",
                  "name": "amount",
                  "type": "uint256"
                }
              ],
              "internalType": "struct TokenAmountLib.TokenAmount[]",
              "name": "trainingCost",
              "type": "tuple[]"
            },
            {
              "components": [
                {
                  "internalType": "enum TokenAmountLib.TokenType",
                  "name": "tokenType",
                  "type": "uint8"
                },
                {
                  "internalType": "address",
                  "name": "tokenAddress",
                  "type": "address"
                },
                {
                  "internalType": "uint256",
                  "name": "tokenId",
                  "type": "uint256"
                },
                {
                  "internalType": "uint256",
                  "name": "amount",
                  "type": "uint256"
                }
              ],
              "internalType": "struct TokenAmountLib.TokenAmount[]",
              "name": "rangedAttackCost",
              "type": "tuple[]"
            },
            {
              "internalType": "bool",
              "name": "canBeTrained",
              "type": "bool"
            }
          ],
          "internalType": "struct IUnitManager.Unit",
          "name": "",
          "type": "tuple"
        }
      ],
      "stateMutability": "view",
      "type": "function"
    },
    {
      "inputs": [],
      "name": "initialize",
      "outputs": [],
      "stateMutability": "nonpayable",
      "type": "function"
    },
    {
      "inputs": [],
      "name": "nextUnitId",
      "outputs": [
        {
          "internalType": "uint16",
          "name": "",
          "type": "uint16"
        }
      ],
      "stateMutability": "view",
      "type": "function"
    },
    {
      "inputs": [],
      "name": "owner",
      "outputs": [
        {
          "internalType": "address",
          "name": "",
          "type": "address"
        }
      ],
      "stateMutability": "view",
      "type": "function"
    },
    {
      "inputs": [],
      "name": "renounceOwnership",
      "outputs": [],
      "stateMutability": "nonpayable",
      "type": "function"
    },
    {
      "inputs": [
        {
          "internalType": "uint16",
          "name": "unitId",
          "type": "uint16"
        },
        {
          "internalType": "bool",
          "name": "canBeTrained",
          "type": "bool"
        }
      ],
      "name": "setTrainability",
      "outputs": [],
      "stateMutability": "nonpayable",
      "type": "function"
    },
    {
      "inputs": [
        {
          "internalType": "address",
          "name": "newOwner",
          "type": "address"
        }
      ],
      "name": "transferOwnership",
      "outputs": [],
      "stateMutability": "nonpayable",
      "type": "function"
    },
    {
      "inputs": [
        {
          "internalType": "uint16",
          "name": "",
          "type": "uint16"
        }
      ],
      "name": "units",
      "outputs": [
        {
          "internalType": "uint16",
          "name": "prerequisiteUnitId",
          "type": "uint16"
        },
        {
          "internalType": "uint16",
          "name": "healthPoints",
          "type": "uint16"
        },
        {
          "internalType": "uint16",
          "name": "attackDamage",
          "type": "uint16"
        },
        {
          "internalType": "uint8",
          "name": "attackRange",
          "type": "uint8"
        },
        {
          "internalType": "uint8",
          "name": "movementRange",
          "type": "uint8"
        },
        {
          "internalType": "uint16",
          "name": "damageBoostPercentage",
          "type": "uint16"
        },
        {
          "internalType": "bool",
          "name": "canBeTrained",
          "type": "bool"
        }
      ],
      "stateMutability": "view",
      "type": "function"
    }
  ],
  "bytecode": "0x608080604052346015576117f8908161001b8239f35b600080fdfe6080604052600436101561001257600080fd5b60003560e01c80630ab251cf146100b7578063715018a6146100b25780637e3b128b146100ad5780638129fc1c146100a8578063813e4fe8146100a35780638da5cb5b1461009e578063940ea7e714610099578063bcb21a1114610094578063f2fde38b1461008f5763fe07e59d1461008a57600080fd5b610891565b610736565b610601565b61055c565b61051c565b61048b565b610321565b6102ff565b610295565b346101f35760203660031901126101f3576004356100d4816101f8565b61ffff6060915b1680156101e157600052600160205261ffff6101dc6101d3604060002093610101610d99565b94610119610111825461ffff1690565b61ffff168752565b61012560018201610a58565b602087015261018c610181600283015461014e6101438261ffff1690565b61ffff1660408b0152565b61ffff601082901c1660608a015260ff602082901c1660808a015260ff602882901c1660a08a01525b60301c61ffff1690565b61ffff1660c0880152565b6101cc6101c260056101a060038501610dc1565b9360e08a019485526101b460048201610dc1565b6101008b0152015460ff1690565b1515610120880152565b51906115a5565b925161ffff1690565b6100db565b604051806101ef8482610255565b0390f35b600080fd5b61ffff8116036101f357565b908151600281101561023f57608092606091835260018060a01b03602082015116602084015260408101516040840152015160608201520190565b634e487b7160e01b600052602160045260246000fd5b602060408183019282815284518094520192019060005b8181106102795750505090565b909192602061028b6001928651610204565b940192910161026c565b346101f35760003660031901126101f3576102ae61171e565b60008051602061178383398151915280546001600160a01b031981169091556000906001600160a01b03167f8be0079c531659141344cd1fd0a4f28419497f9722a3daafe3b4186f6b6457e08280a3005b346101f35760003660031901126101f357602061ffff60005416604051908152f35b346101f35760003660031901126101f3576000805160206117a38339815191525467ffffffffffffffff61036560ff604084901c16159267ffffffffffffffff1690565b1680159081610483575b6001149081610479575b159081610470575b5061045f57806103ba600167ffffffffffffffff196000805160206117a38339815191525416176000805160206117a383398151915255565b610428575b6103c7610e56565b6103cd57005b6103f960ff60401b196000805160206117a383398151915254166000805160206117a383398151915255565b604051600181527fc7f505b2f371ae2175ee4913f4499e1f2633a7b5936321eed1cdaeb6115181d290602090a1005b61045a600160401b60ff60401b196000805160206117a38339815191525416176000805160206117a383398151915255565b6103bf565b63f92ee8a960e01b60005260046000fd5b90501538610381565b303b159150610379565b82915061036f565b346101f35760203660031901126101f35761ffff6004356104ab816101f8565b1660009081526001602090815260409182902080546002820154600590920154845161ffff928316815282841681860152601084901c83169581019590955260ff9383901c84166060860152602883901c8416608086015260309290921c1660a084015216151560c082015260e090f35b346101f35760003660031901126101f357600080516020611783833981519152546040516001600160a01b039091168152602090f35b801515036101f357565b346101f35760403660031901126101f357600435610579816101f8565b60243561058581610552565b61058d61171e565b61ffff80600054169216918210156105c6576105c491600052600160205260056040600020019060ff801983541691151516179055565b005b60405162461bcd60e51b8152602060048201526013602482015272155b9a5d08191bd95cc81b9bdd08195e1a5cdd606a1b6044820152606490fd5b346101f35760203660031901126101f35760043567ffffffffffffffff81116101f3578060040161014060031983360301126101f35761063f61171e565b602482016106596106508284610e7f565b90501515610eb5565b60005b6106668284610e7f565b90508110156106a857806106a261069b61069461068f600195610689888a610e7f565b90610f26565b610f3b565b61ffff1690565b1515610f45565b0161065c565b6105c4836106de6106d560e4886106ce6106c761069460448401610f3b565b1515610f9d565b0183610ff5565b9050151561102b565b6107206106ee60005461ffff1690565b61070c6106fa8261108d565b61ffff1661ffff196000541617600055565b61ffff166000526001602052604060002090565b61132b565b6001600160a01b038116036101f357565b346101f35760203660031901126101f3576105c460043561075681610725565b61075e61171e565b611493565b906020808351928381520192019060005b8181106107815750505090565b825161ffff16845260209384019390920191600101610774565b906020808351928381520192019060005b8181106107b95750505090565b90919260206107cb6001928651610204565b94019291016107ac565b61088e90602081526107ee60208201845161ffff169052565b61014061012061088461086e6108136020880151856040880152610160870190610763565b604088015161ffff166060870152606088015161ffff166080870152608088015160ff1660a087015260a088015160ff1660c087015260c088015161ffff1660e087015260e0880151868203601f190161010088015261079b565b610100870151858203601f19018487015261079b565b9401511515910152565b90565b346101f35760203660031901126101f35761ffff6004356108b1816101f8565b60006101206040516108c2816109f8565b828152606060208201528260408201528260608201528260808201528260a08201528260c0820152606060e0820152606061010082015201521660005260016020526101ef60406000206109d66109cc600561091c610d99565b9361093461092c825461ffff1690565b61ffff168652565b61094060018201610a58565b60208601526109a1610996600283015461096961095e8261ffff1690565b61ffff1660408a0152565b61ffff601082901c16606089015260ff602082901c16608089015260ff602882901c1660a0890152610177565b61ffff1660c0870152565b6109ad60038201610dc1565b60e08601526109be60048201610dc1565b610100860152015460ff1690565b1515610120830152565b604051918291826107d5565b634e487b7160e01b600052604160045260246000fd5b610140810190811067ffffffffffffffff821117610a1557604052565b6109e2565b6080810190811067ffffffffffffffff821117610a1557604052565b90601f8019910116810190811067ffffffffffffffff821117610a1557604052565b60405181548082529092918390610a786020830191600052602060002090565b926000905b80600f830110610c9557610b13945491818110610c80575b818110610c67575b818110610c4f575b818110610c36575b818110610c1d575b818110610c04575b818110610beb575b818110610bd2575b818110610bb9575b818110610ba0575b818110610b87575b818110610b6e575b818110610b55575b818110610b3c575b818110610b23575b10610b15575b500383610a36565b565b60f01c815260200138610b0b565b60e083901c61ffff168452926001906020019301610b05565b60d083901c61ffff168452926001906020019301610afd565b60c083901c61ffff168452926001906020019301610af5565b60b083901c61ffff168452926001906020019301610aed565b60a083901c61ffff168452926001906020019301610ae5565b609083901c61ffff168452926001906020019301610add565b608083901c61ffff168452926001906020019301610ad5565b607083901c61ffff168452926001906020019301610acd565b606083901c61ffff168452926001906020019301610ac5565b605083901c61ffff168452926001906020019301610abd565b604083901c61ffff168452926001906020019301610ab5565b603083901c61ffff168452926001906020019301610aad565b602083811c61ffff1685529093600191019301610aa5565b601083901c61ffff168452926001906020019301610a9d565b61ffff83168452926001906020019301610a95565b916010919350610200600191610d8b8754610cb78361ffff831661ffff169052565b80861c61ffff166020840152602081901c61ffff166040840152603081901c61ffff166060840152604081901c61ffff166080840152605081901c61ffff1660a0840152606081901c61ffff1660c0840152607081901c61ffff1660e0840152608081901c61ffff16610100840152609081901c61ffff1661012084015260a081901c61ffff1661014084015260b081901c61ffff1661016084015260c081901c61ffff1661018084015260d081901c61ffff166101a084015260e081901c61ffff166101c084015260f01c6101e0830152565b019401920185929391610a7d565b60405190610b1361014083610a36565b67ffffffffffffffff8111610a155760051b60200190565b90815491610dce83610da9565b92610ddc6040519485610a36565b808452602084019160005260206000206000925b828410610dfd5750505050565b60405190610e0a82610a1a565b82549060ff821690600282101561023f578360039360209360019652858060a01b039060081c168382015284860154604082015260028601546060820152815201920193019290610df0565b610e5e611754565b610e66611754565b610e6f33611493565b600161ffff196000541617600055565b903590601e19813603018212156101f3570180359067ffffffffffffffff82116101f357602001918160051b360383136101f357565b15610ebc57565b60405162461bcd60e51b815260206004820152602660248201527f547261696e696e67206275696c64696e6720494473206d7573742062652070726044820152651bdd9a59195960d21b6064820152608490fd5b634e487b7160e01b600052603260045260246000fd5b9190811015610f365760051b0190565b610f10565b3561088e816101f8565b15610f4c57565b60405162461bcd60e51b815260206004820152602360248201527f547261696e696e67206275696c64696e6720494473206d7573742062652076616044820152621b1a5960ea1b6064820152608490fd5b15610fa457565b60405162461bcd60e51b8152602060048201526024808201527f4865616c746820706f696e7473206d75737420626520677265617465722074686044820152630616e20360e41b6064820152608490fd5b903590601e19813603018212156101f3570180359067ffffffffffffffff82116101f357602001918160071b360383136101f357565b1561103257565b60405162461bcd60e51b815260206004820152601e60248201527f547261696e696e6720636f7374206d7573742062652070726f766964656400006044820152606490fd5b634e487b7160e01b600052601160045260246000fd5b61ffff60019116019061ffff82116110a157565b611077565b600160401b8211610a15578054908281558183106110c357505050565b600052601e6020600020600f80850160041c8201930160041c019260011b1680611101575b505b8181106110f5575050565b600081556001016110ea565b6000198201908154906000199060200360031b1c169055386110e8565b919067ffffffffffffffff8211610a15576111499061113d83856110a6565b92600052602060002090565b8160041c9160005b8381106111be5750600f19811690038061116c575b50505050565b9260009360005b81811061118857505050015538808080611166565b90919460206111b460019261119c89610f3b565b9085851b61ffff809160031b9316831b921b19161790565b9601929101611173565b6000805b601081106111d7575083820155600101611151565b959060206112026001926111ea85610f3b565b908a851b61ffff809160031b9316831b921b19161790565b920196016111c2565b3560ff811681036101f35790565b90803560028110156101f35760029160609160ff80198654169116178455602081013561124581610725565b8454610100600160a81b03191660089190911b610100600160a81b0316178455604081013560018501550135910155565b90600160401b8311610a155781548383558084106112ce575b506112a09091600052602060002090565b6000915b8383106112b15750505050565b60036080826112c260019486611219565b019201920191906112a4565b806003029060038204036110a157836003026003810485036110a15783600052602060002091820191015b818110611306575061128f565b806000600392556000600182015560006002820155016112f9565b3561088e81610552565b6005611480610120610b139461135561134382610f3b565b865461ffff191661ffff909116178655565b61136f6113656020830183610e7f565b906001880161111e565b6114456002860161139761138560408501610f3b565b825461ffff191661ffff909116178255565b6113c06113a660608501610f3b565b825463ffff0000191660109190911b63ffff000016178255565b6113eb6113cf6080850161120b565b825464ff00000000191660209190911b64ff0000000016178255565b6114186113fa60a0850161120b565b825465ff0000000000191660289190911b65ff000000000016178255565b61142460c08401610f3b565b67ffff00000000000082549160301b169067ffff0000000000001916179055565b61145f61145560e0830183610ff5565b9060038801611276565b61147a611470610100830183610ff5565b9060048801611276565b01611321565b91019060ff801983541691151516179055565b6001600160a01b031680156114f35760008051602061178383398151915280546001600160a01b0319811683179091556001600160a01b03167f8be0079c531659141344cd1fd0a4f28419497f9722a3daafe3b4186f6b6457e0600080a3565b631e4fbdf760e01b600052600060045260246000fd5b919082018092116110a157565b9061152082610da9565b61152d6040519182610a36565b828152809261153e601f1991610da9565b019060005b82811061154f57505050565b60209060405161155e81610a1a565b60008152600083820152600060408201526000606082015282828501015201611543565b8051821015610f365760209160051b010190565b60001981146110a15760010190565b916115bb6115b68451845190611509565b611516565b600091825b85518410156115fd576115f56001916115d98689611582565b516115e48287611582565b526115ef8186611582565b50611596565b9301926115c0565b945092600092505b805183101561171757600093845b835181101561170d5761163a602061162b8387611582565b5101516001600160a01b031690565b61165861164c602061162b8988611582565b6001600160a01b031690565b6001600160a01b0390911614806116e8575b61167657600101611613565b9095939194506116a360606116998161168f868a611582565b5101519386611582565b5101918251611509565b905260015b156116b9575b600101919392611605565b916116e06001916116ca8587611582565b516116d58286611582565b526115ef8185611582565b9290506116ae565b5060406116f58286611582565b51015160406117048786611582565b5101511461166a565b50949290936116a8565b5092835250565b600080516020611783833981519152546001600160a01b0316330361173f57565b63118cdaa760e01b6000523360045260246000fd5b60ff6000805160206117a38339815191525460401c161561177157565b631afcd79f60e31b60005260046000fdfe9016d09d72d40fdae2fd8ceac6b6234c7706214fd39c1cd1e609a0528c199300f0c57e16840df040f15088dc2f81fe391c3923bec73e23a9662efc9c229c6a00a264697066735822122001e6f53502cd968fdba8498670cadc51316df660836e8335003f6599d658569864736f6c634300081c0033",
  "linkReferences": {},
  "deployedLinkReferences": {}
}