{
  "_format": "hh-sol-artifact-1",
  "contractName": "Construction",
  "sourceName": "contracts/commands/Construction.sol",
  "abi": [
    {
      "inputs": [],
      "name": "InvalidInitialization",
      "type": "error"
    },
    {
      "inputs": [],
      "name": "NotInitializing",
      "type": "error"
    },
    {
      "inputs": [
        {
          "internalType": "address",
          "name": "owner",
          "type": "address"
        }
      ],
      "name": "OwnableInvalidOwner",
      "type": "error"
    },
    {
      "inputs": [
        {
          "internalType": "address",
          "name": "account",
          "type": "address"
        }
      ],
      "name": "OwnableUnauthorizedAccount",
      "type": "error"
    },
    {
      "anonymous": false,
      "inputs": [
        {
          "indexed": false,
          "internalType": "uint64",
          "name": "version",
          "type": "uint64"
        }
      ],
      "name": "Initialized",
      "type": "event"
    },
    {
      "anonymous": false,
      "inputs": [
        {
          "indexed": true,
          "internalType": "address",
          "name": "previousOwner",
          "type": "address"
        },
        {
          "indexed": true,
          "internalType": "address",
          "name": "newOwner",
          "type": "address"
        }
      ],
      "name": "OwnershipTransferred",
      "type": "event"
    },
    {
      "inputs": [],
      "name": "battleground",
      "outputs": [
        {
          "internalType": "contract Battleground",
          "name": "",
          "type": "address"
        }
      ],
      "stateMutability": "view",
      "type": "function"
    },
    {
      "inputs": [],
      "name": "buildingsContract",
      "outputs": [
        {
          "internalType": "contract IBuildings",
          "name": "",
          "type": "address"
        }
      ],
      "stateMutability": "view",
      "type": "function"
    },
    {
      "inputs": [
        {
          "internalType": "int16",
          "name": "x",
          "type": "int16"
        },
        {
          "internalType": "int16",
          "name": "y",
          "type": "int16"
        },
        {
          "internalType": "uint16",
          "name": "buildingId",
          "type": "uint16"
        }
      ],
      "name": "constructBuilding",
      "outputs": [],
      "stateMutability": "nonpayable",
      "type": "function"
    },
    {
      "inputs": [],
      "name": "enemyBuildingSearchRange",
      "outputs": [
        {
          "internalType": "uint16",
          "name": "",
          "type": "uint16"
        }
      ],
      "stateMutability": "view",
      "type": "function"
    },
    {
      "inputs": [],
      "name": "headquartersSearchRange",
      "outputs": [
        {
          "internalType": "uint16",
          "name": "",
          "type": "uint16"
        }
      ],
      "stateMutability": "view",
      "type": "function"
    },
    {
      "inputs": [
        {
          "internalType": "address",
          "name": "_battleground",
          "type": "address"
        },
        {
          "internalType": "address",
          "name": "_buildingsContract",
          "type": "address"
        },
        {
          "internalType": "uint16",
          "name": "_hqSearchRange",
          "type": "uint16"
        },
        {
          "internalType": "uint16",
          "name": "_enemySearchRange",
          "type": "uint16"
        }
      ],
      "name": "initialize",
      "outputs": [],
      "stateMutability": "nonpayable",
      "type": "function"
    },
    {
      "inputs": [],
      "name": "owner",
      "outputs": [
        {
          "internalType": "address",
          "name": "",
          "type": "address"
        }
      ],
      "stateMutability": "view",
      "type": "function"
    },
    {
      "inputs": [],
      "name": "renounceOwnership",
      "outputs": [],
      "stateMutability": "nonpayable",
      "type": "function"
    },
    {
      "inputs": [
        {
          "internalType": "address",
          "name": "_battleground",
          "type": "address"
        }
      ],
      "name": "setBattleground",
      "outputs": [],
      "stateMutability": "nonpayable",
      "type": "function"
    },
    {
      "inputs": [
        {
          "internalType": "uint16",
          "name": "_hqSearchRange",
          "type": "uint16"
        },
        {
          "internalType": "uint16",
          "name": "_enemySearchRange",
          "type": "uint16"
        }
      ],
      "name": "setSearchRanges",
      "outputs": [],
      "stateMutability": "nonpayable",
      "type": "function"
    },
    {
      "inputs": [
        {
          "internalType": "address",
          "name": "newOwner",
          "type": "address"
        }
      ],
      "name": "transferOwnership",
      "outputs": [],
      "stateMutability": "nonpayable",
      "type": "function"
    },
    {
      "inputs": [
        {
          "internalType": "int16",
          "name": "x",
          "type": "int16"
        },
        {
          "internalType": "int16",
          "name": "y",
          "type": "int16"
        },
        {
          "internalType": "uint16",
          "name": "buildingId",
          "type": "uint16"
        }
      ],
      "name": "upgradeBuilding",
      "outputs": [],
      "stateMutability": "nonpayable",
      "type": "function"
    }
  ],
  "bytecode": "0x60808060405234601557611672908161001b8239f35b600080fdfe6080604052600436101561001257600080fd5b6000803560e01c80630dafc67c14610a9757806317ddc04e14610a725780633d05a869146106d95780634196e13d146103fc57806356ddea0a146103d5578063715018a61461036b5780638da5cb5b14610335578063a8b683761461030c578063b0569d81146102e7578063d5c20610146102a7578063df442678146100d05763f2fde38b146100a157600080fd5b346100cd5760203660031901126100cd576100ca6100bd610b39565b6100c5610c80565b610c0a565b80f35b80fd5b50346100cd5760803660031901126100cd576100ea610b39565b6024356001600160a01b038116908190036102a357610107610b03565b6064359161ffff8316830361029f5760008051602061161d833981519152549360ff8560401c16159467ffffffffffffffff811680159081610297575b600114908161028d575b159081610284575b506102755767ffffffffffffffff19811660011760008051602061161d8339815191525585610248575b506101896115ce565b6101916115ce565b61019a33610c0a565b60018060a01b03166bffffffffffffffffffffffff60a01b8654161785556001549261ffff60b01b9060b01b169267ffffffffffffffff60c01b16179061ffff60a01b9060a01b1617176001556101ee5780f35b68ff00000000000000001960008051602061161d833981519152541660008051602061161d833981519152557fc7f505b2f371ae2175ee4913f4499e1f2633a7b5936321eed1cdaeb6115181d2602060405160018152a180f35b68ffffffffffffffffff1916680100000000000000011760008051602061161d8339815191525538610180565b63f92ee8a960e01b8752600487fd5b90501538610156565b303b15915061014e565b879150610144565b8480fd5b8280fd5b50346100cd5760203660031901126100cd576102c1610b39565b6102c9610c80565b81546001600160a01b0319166001600160a01b039190911617815580f35b50346100cd57806003193601126100cd57602061ffff60015460b01c16604051908152f35b50346100cd57806003193601126100cd576001546040516001600160a01b039091168152602090f35b50346100cd57806003193601126100cd576000805160206115fd833981519152546040516001600160a01b039091168152602090f35b50346100cd57806003193601126100cd57610384610c80565b6000805160206115fd83398151915280546001600160a01b0319811690915581906001600160a01b03167f8be0079c531659141344cd1fd0a4f28419497f9722a3daafe3b4186f6b6457e08280a380f35b50346100cd57806003193601126100cd57546040516001600160a01b039091168152602090f35b50346100cd5760603660031901126100cd57610416610b19565b61041e610b29565b90610427610b03565b83546040805163dcc01f0f60e01b8152600185810b600483015286900b602482015292949291829060449082906001600160a01b03165afa9081156106ce57859161069f575b5080516001600160a01b031633036106655760018060a01b0360015416604051916305d6082b60e51b835261ffff8616806004850152602084602481865afa93841561065a578894610629575b5083610592575b5050501561054d5783926104d533826113a0565b83546001600160a01b0316803b1561029f5760405163123db68760e21b8152600194850b60048201529290930b602483015233604483015261ffff1660648201529082908290608490829084905af18015610542576105315750f35b8161053b91610b81565b6100cd5780f35b6040513d84823e3d90fd5b60405162461bcd60e51b815260206004820152601c60248201527f4275696c64696e672075706772616465206e6f7420616c6c6f776564000000006044820152606490fd5b602091929350602460405180958193633cab53b160e11b835260048301525afa91821561061e5786926105d6575b5061ffff602081920151169116143880806104c1565b9091506020813d602011610616575b816105f260209383610b81565b810103126106125761ffff60206106098293610ba3565b939250506105c0565b8580fd5b3d91506105e5565b6040513d88823e3d90fd5b61064c91945060203d602011610653575b6106448183610b81565b810190610bf2565b92386104ba565b503d61063a565b6040513d8a823e3d90fd5b60405162461bcd60e51b81526020600482015260126024820152712737ba103a3432903a34b6329037bbb732b960711b6044820152606490fd5b6106c1915060403d6040116106c7575b6106b98183610b81565b810190610bb2565b3861046d565b503d6106af565b6040513d87823e3d90fd5b50346100cd5760603660031901126100cd576106f3610b19565b6106fb610b29565b610703610b03565b83546040805163dcc01f0f60e01b8152600186810b600483015285900b60248201529293926001600160a01b03909216919081604481855afa90811561061e578691610a53575b50516001600160a01b0316610a16576001546040516305d6082b60e51b815261ffff85166004820181905290916001600160a01b031690602083602481855afa92831561065a5788936109f5575b5082610980575b50501561092d57602060249160405192838092630f7625ef60e41b82523360048301525afa9081156106ce57859161090e575b50156108b4576107e28184610fb5565b1561086f5783915b6107f433826113a0565b82546001600160a01b0316803b1561086b5760405163123db68760e21b8152600195860b60048201529290940b602483015233604483015261ffff1660648201529181908390608490829084905af1801561085e576108505780f35b61085991610b81565b388180f35b50604051903d90823e3d90fd5b8380fd5b60405162461bcd60e51b815260206004820152601b60248201527f4e6f20667269656e646c792048512077697468696e2072616e676500000000006044820152606490fd5b6108be8184610d26565b6108c95783916107ea565b60405162461bcd60e51b815260206004820152601860248201527f456e656d79206275696c64696e6720746f6f20636c6f736500000000000000006044820152606490fd5b610927915060203d602011610653576106448183610b81565b386107d2565b60405162461bcd60e51b815260206004820152602560248201527f496e76616c6964206275696c64696e67206f72206e6f7420636f6e73747275636044820152647469626c6560d81b6064820152608490fd5b6020919250602460405180948193633cab53b160e11b835260048301525afa801561061e5786906109ba575b61ffff91501615388061079f565b506020813d6020116109ed575b816109d460209383610b81565b81010312610612576109e861ffff91610ba3565b6109ac565b3d91506109c7565b610a0f91935060203d602011610653576106448183610b81565b9138610798565b60405162461bcd60e51b8152602060048201526015602482015274151a5b1948185b1c9958591e481bd8d8dd5c1a5959605a1b6044820152606490fd5b610a6c915060403d6040116106c7576106b98183610b81565b3861074a565b50346100cd57806003193601126100cd57602061ffff60015460a01c16604051908152f35b50346100cd5760403660031901126100cd5760043561ffff81168103610aff5760243561ffff811681036102a357610acd610c80565b6001805463ffffffff60a01b191660a09390931b61ffff60a01b169290921760b09190911b61ffff60b01b1617905580f35b5080fd5b6044359061ffff82168203610b1457565b600080fd5b600435908160010b8203610b1457565b602435908160010b8203610b1457565b600435906001600160a01b0382168203610b1457565b6040810190811067ffffffffffffffff821117610b6b57604052565b634e487b7160e01b600052604160045260246000fd5b90601f8019910116810190811067ffffffffffffffff821117610b6b57604052565b519061ffff82168203610b1457565b90816040910312610b145760405190610bca82610b4f565b80516001600160a01b0381168103610b14578252610bea90602001610ba3565b602082015290565b90816020910312610b1457518015158103610b145790565b6001600160a01b03168015610c6a576000805160206115fd83398151915280546001600160a01b0319811683179091556001600160a01b03167f8be0079c531659141344cd1fd0a4f28419497f9722a3daafe3b4186f6b6457e0600080a3565b631e4fbdf760e01b600052600060045260246000fd5b6000805160206115fd833981519152546001600160a01b03163303610ca157565b63118cdaa760e01b6000523360045260246000fd5b60010b617fff198114610cc95760000390565b634e487b7160e01b600052601160045260246000fd5b60010b617fff8114610cc95760010190565b9060010b9060010b0190617fff198212617fff831317610cc957565b90816020910312610b1457518060010b8103610b145790565b9061ffff60015460b01c1660010b90610d3e82610cb6565b6000546001600160a01b0316905b838160010b1315610d61575050505050600090565b610d6b8186610cf1565b6040516356f1716d60e11b8152602081600481875afa908115610ea757600091610f97575b508160010b9060010b8112908115610f46575b50610f3c57610db185610cb6565b858160010b1315610dcc575050610dc790610cdf565b610d4c565b610dd68186610cf1565b604051630a6c0d3d60e41b8152602081600481895afa908115610ea757600091610f1e575b508160010b9060010b8112908115610ebd575b50610eb3576040805163dcc01f0f60e01b8152600185810b60048301529290920b602483015281604481885afa908115610ea757600091610e89575b50516001600160a01b03168015159081610e7e575b50610e7257610e6d90610cdf565b610db1565b50505050505050600190565b905033141538610e5f565b610ea1915060403d81116106c7576106b98183610b81565b38610e4a565b6040513d6000823e3d90fd5b50610e6d90610cdf565b604051638ec8b2d760e01b81529091506020816004818a5afa908115610ea757600091610ef0575b5060010b1238610e0e565b610f11915060203d8111610f17575b610f098183610b81565b810190610d0d565b38610ee5565b503d610eff565b610f36915060203d8111610f1757610f098183610b81565b38610dfb565b50610dc790610cdf565b604051631cf89f7960e01b8152909150602081600481885afa908115610ea757600091610f79575b5060010b1238610da3565b610f91915060203d8111610f1757610f098183610b81565b38610f6e565b610faf915060203d8111610f1757610f098183610b81565b38610d90565b60015461ffff8160a01c1660010b610fcc81610cb6565b6000546001600160a01b0316915b8160010b9181831361136a57610ff08187610cf1565b926040516356f1716d60e11b8152602081600481895afa908115610ea75760009161134c575b508460010b9060010b81129081156112fb575b506112ec5795600061103a84610cb6565b9712965b8060010b8481136112d357611053828b610cf1565b90604051630a6c0d3d60e41b81526020816004818c5afa908115610ea7576000916112b5575b508260010b9060010b8112908115611264575b5061111c578915611259576110a085610cb6565b61ffff16905b6000131561124d5761ffff806110bb85610cb6565b81165b169116019061ffff8211610cc9576040805163dcc01f0f60e01b8152600189810b60048301529290920b6024830152816044818b5afa908115610ea75760009161122f575b5080516001600160a01b03163314806111cc575b61112c575b505061112790610cdf565b61103e565b602090810151604051637503e2f360e11b815261ffff909116600482015290816024816001600160a01b038d165afa908115610ea75760009161118e575b5061ffff8091169116111561118057388061111c565b505050505050505050600190565b906020823d82116111c4575b816111a760209383610b81565b810103126100cd575061ffff6111bd8192610ba3565b915061116a565b3d915061119a565b50602081810151604051630a228fcb60e41b815261ffff909116600482015290816024816001600160a01b038e165afa908115610ea757600091611211575b50611117565b611229915060203d8111610653576106448183610b81565b3861120b565b611247915060403d81116106c7576106b98183610b81565b38611103565b61ffff808481166110be565b8461ffff16906110a6565b604051638ec8b2d760e01b81529091506020816004818d5afa908115610ea757600091611297575b5060010b123861108c565b6112af915060203d8111610f1757610f098183610b81565b3861128c565b6112cd915060203d8111610f1757610f098183610b81565b38611079565b50509695506112e3919250610cdf565b90949394610fda565b506112e3919250959495610cdf565b604051631cf89f7960e01b81529091506020816004818a5afa908115610ea75760009161132e575b5060010b1238611029565b611346915060203d8111610f1757610f098183610b81565b38611323565b611364915060203d8111610f1757610f098183610b81565b38611016565b50505050505050600090565b805182101561138a5760209160051b010190565b634e487b7160e01b600052603260045260246000fd5b60015460405163083d527f60e01b815261ffff929092166004830152600090829060249082906001600160a01b03165afa908115610ea7576000916114e7575b5060005b81518110156114e2576001600160a01b036113ff8284611376565b51516000549116906020906001600160a01b03166064826114208688611376565b5101516040516323b872dd60e01b81526001600160a01b038916600482015260248101939093526044830152909283919082906000905af1908115610ea7576000916114c4575b5015611475576001016113e4565b60405162461bcd60e51b815260206004820152602160248201527f436f6e737472756374696f6e20636f7374207472616e73666572206661696c656044820152601960fa1b6064820152608490fd5b6114dc915060203d8111610653576106448183610b81565b38611467565b505050565b903d8082843e6114f78184610b81565b820191602081840312610aff5780519067ffffffffffffffff82116102a3570182601f82011215610aff5780519167ffffffffffffffff83116115ba576040519361154860208560051b0186610b81565b83855260208086019460061b840101928184116102a357602001935b838510611576575050505050386113e0565b6040858303126102a35760405161158c81610b4f565b85516001600160a01b038116810361029f579181604093602093528288015183820152815201940193611564565b634e487b7160e01b81526041600452602490fd5b60ff60008051602061161d8339815191525460401c16156115eb57565b631afcd79f60e31b60005260046000fdfe9016d09d72d40fdae2fd8ceac6b6234c7706214fd39c1cd1e609a0528c199300f0c57e16840df040f15088dc2f81fe391c3923bec73e23a9662efc9c229c6a00a26469706673582212201f1862a206e6a31542b72ffdf193854bedc1ebed01bcc80d20c9902dd507244a64736f6c634300081c0033",
  "linkReferences": {},
  "deployedLinkReferences": {}
}