{
  "_format": "hh-sol-artifact-1",
  "contractName": "Construct",
  "sourceName": "contracts/commands/Construct.sol",
  "abi": [
    {
      "inputs": [],
      "name": "InvalidInitialization",
      "type": "error"
    },
    {
      "inputs": [],
      "name": "NotInitializing",
      "type": "error"
    },
    {
      "inputs": [
        {
          "internalType": "address",
          "name": "owner",
          "type": "address"
        }
      ],
      "name": "OwnableInvalidOwner",
      "type": "error"
    },
    {
      "inputs": [
        {
          "internalType": "address",
          "name": "account",
          "type": "address"
        }
      ],
      "name": "OwnableUnauthorizedAccount",
      "type": "error"
    },
    {
      "inputs": [],
      "name": "ReentrancyGuardReentrantCall",
      "type": "error"
    },
    {
      "anonymous": false,
      "inputs": [
        {
          "indexed": false,
          "internalType": "uint64",
          "name": "version",
          "type": "uint64"
        }
      ],
      "name": "Initialized",
      "type": "event"
    },
    {
      "anonymous": false,
      "inputs": [
        {
          "indexed": true,
          "internalType": "address",
          "name": "previousOwner",
          "type": "address"
        },
        {
          "indexed": true,
          "internalType": "address",
          "name": "newOwner",
          "type": "address"
        }
      ],
      "name": "OwnershipTransferred",
      "type": "event"
    },
    {
      "inputs": [],
      "name": "battleground",
      "outputs": [
        {
          "internalType": "contract IBattleground",
          "name": "",
          "type": "address"
        }
      ],
      "stateMutability": "view",
      "type": "function"
    },
    {
      "inputs": [],
      "name": "buildingManager",
      "outputs": [
        {
          "internalType": "contract IBuildingManager",
          "name": "",
          "type": "address"
        }
      ],
      "stateMutability": "view",
      "type": "function"
    },
    {
      "inputs": [
        {
          "components": [
            {
              "internalType": "int16",
              "name": "x",
              "type": "int16"
            },
            {
              "internalType": "int16",
              "name": "y",
              "type": "int16"
            }
          ],
          "internalType": "struct IBattleground.Coordinates",
          "name": "coordinates",
          "type": "tuple"
        },
        {
          "internalType": "uint16",
          "name": "buildingId",
          "type": "uint16"
        }
      ],
      "name": "construct",
      "outputs": [],
      "stateMutability": "nonpayable",
      "type": "function"
    },
    {
      "inputs": [],
      "name": "enemyBuildingSearchRange",
      "outputs": [
        {
          "internalType": "uint16",
          "name": "",
          "type": "uint16"
        }
      ],
      "stateMutability": "view",
      "type": "function"
    },
    {
      "inputs": [],
      "name": "headquartersSearchRange",
      "outputs": [
        {
          "internalType": "uint16",
          "name": "",
          "type": "uint16"
        }
      ],
      "stateMutability": "view",
      "type": "function"
    },
    {
      "inputs": [
        {
          "internalType": "address",
          "name": "_battleground",
          "type": "address"
        },
        {
          "internalType": "address",
          "name": "_lootVault",
          "type": "address"
        },
        {
          "internalType": "address",
          "name": "_buildingManager",
          "type": "address"
        },
        {
          "internalType": "uint16",
          "name": "_headquartersSearchRange",
          "type": "uint16"
        },
        {
          "internalType": "uint16",
          "name": "_enemyBuildingSearchRange",
          "type": "uint16"
        }
      ],
      "name": "initialize",
      "outputs": [],
      "stateMutability": "nonpayable",
      "type": "function"
    },
    {
      "inputs": [],
      "name": "lootVault",
      "outputs": [
        {
          "internalType": "contract ILootVault",
          "name": "",
          "type": "address"
        }
      ],
      "stateMutability": "view",
      "type": "function"
    },
    {
      "inputs": [],
      "name": "owner",
      "outputs": [
        {
          "internalType": "address",
          "name": "",
          "type": "address"
        }
      ],
      "stateMutability": "view",
      "type": "function"
    },
    {
      "inputs": [],
      "name": "renounceOwnership",
      "outputs": [],
      "stateMutability": "nonpayable",
      "type": "function"
    },
    {
      "inputs": [
        {
          "internalType": "address",
          "name": "newOwner",
          "type": "address"
        }
      ],
      "name": "transferOwnership",
      "outputs": [],
      "stateMutability": "nonpayable",
      "type": "function"
    },
    {
      "inputs": [
        {
          "internalType": "address",
          "name": "_battleground",
          "type": "address"
        }
      ],
      "name": "updateBattleground",
      "outputs": [],
      "stateMutability": "nonpayable",
      "type": "function"
    },
    {
      "inputs": [
        {
          "internalType": "address",
          "name": "_buildingManager",
          "type": "address"
        }
      ],
      "name": "updateBuildingManager",
      "outputs": [],
      "stateMutability": "nonpayable",
      "type": "function"
    },
    {
      "inputs": [
        {
          "internalType": "uint16",
          "name": "_enemyBuildingSearchRange",
          "type": "uint16"
        }
      ],
      "name": "updateEnemyBuildingSearchRange",
      "outputs": [],
      "stateMutability": "nonpayable",
      "type": "function"
    },
    {
      "inputs": [
        {
          "internalType": "uint16",
          "name": "_headquartersSearchRange",
          "type": "uint16"
        }
      ],
      "name": "updateHeadquartersSearchRange",
      "outputs": [],
      "stateMutability": "nonpayable",
      "type": "function"
    },
    {
      "inputs": [
        {
          "internalType": "address",
          "name": "_lootVault",
          "type": "address"
        }
      ],
      "name": "updateLootVault",
      "outputs": [],
      "stateMutability": "nonpayable",
      "type": "function"
    }
  ],
  "bytecode": "0x60808060405234601557611771908161001b8239f35b600080fdfe6080604052600436101561001257600080fd5b60003560e01c806302f63fb414610c4c57806317ddc04e14610c2757806324a3e96414610bfe57806338afa82114610bbb578063412f108014610b7857806350ac8a3514610b3657806356ddea0a14610b0d5780635910346214610aca578063591a7cb81461040557806360e4c393146103dc578063715018a6146103725780638da5cb5b1461033c578063b0569d8114610317578063f2fde38b146102ec5763fd1bae58146100c157600080fd5b346102e75760a03660031901126102e7576100da610c9f565b6024356001600160a01b038116908190036102e7576044356001600160a01b038116908190036102e7576064359061ffff821682036102e7576084359261ffff841684036102e75760008051602061171c833981519152549460ff8660401c16159567ffffffffffffffff8116801590816102df575b60011490816102d5575b1590816102cc575b506102bb5767ffffffffffffffff19811660011760008051602061171c833981519152558661028e575b506101956116ad565b61019d6116ad565b6101a633610fe4565b6101ae6116ad565b6101b66116ad565b60016000805160206116fc8339815191525560018060a01b03166bffffffffffffffffffffffff60a01b60005416176000556bffffffffffffffffffffffff60a01b60015416176001556002549261ffff60b01b9060b01b169267ffffffffffffffff60c01b16179061ffff60a01b9060a01b16171760025561023557005b68ff00000000000000001960008051602061171c833981519152541660008051602061171c833981519152557fc7f505b2f371ae2175ee4913f4499e1f2633a7b5936321eed1cdaeb6115181d2602060405160018152a1005b68ffffffffffffffffff1916680100000000000000011760008051602061171c833981519152553861018c565b63f92ee8a960e01b60005260046000fd5b90501538610162565b303b15915061015a565b889150610150565b600080fd5b346102e75760203660031901126102e757610315610308610c9f565b61031061105a565b610fe4565b005b346102e75760003660031901126102e757602061ffff60025460b01c16604051908152f35b346102e75760003660031901126102e7576000805160206116dc833981519152546040516001600160a01b039091168152602090f35b346102e75760003660031901126102e75761038b61105a565b6000805160206116dc83398151915280546001600160a01b031981169091556000906001600160a01b03167f8be0079c531659141344cd1fd0a4f28419497f9722a3daafe3b4186f6b6457e08280a3005b346102e75760003660031901126102e7576002546040516001600160a01b039091168152602090f35b346102e7573660031901606081126102e7576040136102e75760405161042a81610cb5565b6004358060010b81036102e75781526024358060010b81036102e75760208201526044359061ffff82168092036102e75760026000805160206116fc8339815191525414610ab95760026000805160206116fc8339815191525560005460405163f13ca34360e01b81528251600190810b60048301526020840151900b6024820152906001600160a01b0316600082604481845afa91821561069757600092610a96575b5081516001600160a01b0316610a595760025460405163e667790760e01b8152600481018690529190600090839060249082906001600160a01b03165afa91821561069757600092610a34575b5060a0820151151580610a27575b156109d457602060249160405192838092630f7625ef60e41b82523360048301525afa9081156106975760009161099a575b50156109405761056a836111d1565b156108fb576080905b01519160018060a01b03600154169160005b8451811015610782576105a161059b82876113f7565b51611421565b600281101561076c576106a357600060206001600160a01b03816105c5858a6113f7565b51015116606460606105d7868b6113f7565b51015160405194859384926323b872dd60e01b84523360048501528b602485015260448401525af19081156106975760009161065b575b501561061e576001905b01610585565b60405162461bcd60e51b8152602060048201526015602482015274151bdad95b881d1c985b9cd9995c8819985a5b1959605a1b6044820152606490fd5b906020823d821161068f575b8161067460209383610d03565b8101031261068c575061068690610f22565b8761060e565b80fd5b3d9150610667565b6040513d6000823e3d90fd5b6106b061059b82876113f7565b600281101561076c576001146106c9575b600190610618565b6001600160a01b0360206106dd83886113f7565b510151169060406106ee82886113f7565b51015160606106fd83896113f7565b510151833b156102e75760c4600092836040519687948593637921219560e11b85523360048601528c60248601526044850152606484015260a060848401528160a48401525af19182156106975760019261075b575b5090506106c1565b600061076691610d03565b87610753565b634e487b7160e01b600052602160045260246000fd5b50338152602081018581526000546001600160a01b031691823b156102e75760405163852df5b360e01b81528451600190810b600483015260209095015190940b60248501528391906060604484015280516001600160a01b03166064840152905161ffff1660848301526040810151608060a4840152805160e48401819052610104840192916020019060005b8181106108cf5750505060600151906063198382030160c48401526020808351928381520192019060005b818110610880575050509181600081819503925af180156106975761086f575b60016000805160206116fc83398151915255005b600061087a91610d03565b8061085b565b9180945092909251805190600282101561076c5782606060809260209460019652858060a01b03858201511685840152604081015160408401520151606082015201940191019185939261083b565b8251805161ffff9081168752602091820151168187015288965060409095019490920191600101610810565b60405162461bcd60e51b815260206004820152601b60248201527f4e6f20667269656e646c792048512077697468696e2072616e676500000000006044820152606490fd5b610949836110b8565b61095557608090610573565b60405162461bcd60e51b815260206004820152601860248201527f456e656d79206275696c64696e6720746f6f20636c6f736500000000000000006044820152606490fd5b90506020813d6020116109cc575b816109b560209383610d03565b810103126102e7576109c690610f22565b8561055b565b3d91506109a8565b60405162461bcd60e51b815260206004820152602560248201527f496e76616c6964206275696c64696e67206f72206e6f7420636f6e73747275636044820152647469626c6560d81b6064820152608490fd5b5061ffff82511615610529565b610a529192503d806000833e610a4a8183610d03565b810190610f2f565b908561051b565b60405162461bcd60e51b8152602060048201526015602482015274151a5b1948185b1c9958591e481bd8d8dd5c1a5959605a1b6044820152606490fd5b610ab291923d8091833e610aaa8183610d03565b810190610e08565b90846104ce565b633ee5aeb560e01b60005260046000fd5b346102e75760203660031901126102e757610ae3610c9f565b610aeb61105a565b600280546001600160a01b0319166001600160a01b0392909216919091179055005b346102e75760003660031901126102e7576000546040516001600160a01b039091168152602090f35b346102e75760203660031901126102e757610b4f610c8e565b610b5761105a565b6002805461ffff60a01b191660a09290921b61ffff60a01b16919091179055005b346102e75760203660031901126102e757610b91610c9f565b610b9961105a565b600180546001600160a01b0319166001600160a01b0392909216919091179055005b346102e75760203660031901126102e757610bd4610c9f565b610bdc61105a565b600080546001600160a01b0319166001600160a01b0392909216919091179055005b346102e75760003660031901126102e7576001546040516001600160a01b039091168152602090f35b346102e75760003660031901126102e757602061ffff60025460a01c16604051908152f35b346102e75760203660031901126102e757610c65610c8e565b610c6d61105a565b6002805461ffff60b01b191660b09290921b61ffff60b01b16919091179055005b6004359061ffff821682036102e757565b600435906001600160a01b03821682036102e757565b6040810190811067ffffffffffffffff821117610cd157604052565b634e487b7160e01b600052604160045260246000fd5b6080810190811067ffffffffffffffff821117610cd157604052565b90601f8019910116810190811067ffffffffffffffff821117610cd157604052565b51906001600160a01b03821682036102e757565b519061ffff821682036102e757565b67ffffffffffffffff8111610cd15760051b60200190565b81601f820112156102e757805190610d7782610d48565b92610d856040519485610d03565b82845260208085019360071b830101918183116102e757602001925b828410610daf575050505090565b6080848303126102e75760405190610dc682610ce7565b84519060028210156102e7578260209260809452610de5838801610d25565b838201526040870151604082015260608701516060820152815201930192610da1565b6020818303126102e75780519067ffffffffffffffff82116102e757016080818303126102e75760405191610e3c83610ce7565b610e4582610d25565b8352610e5360208301610d39565b6020840152604082015167ffffffffffffffff81116102e757820181601f820112156102e7578051610e8481610d48565b91610e926040519384610d03565b81835260208084019260061b820101908482116102e757602001915b818310610ee3575050506040840152606082015167ffffffffffffffff81116102e757610edb9201610d60565b606082015290565b6040838603126102e75760206040918251610efd81610cb5565b610f0686610d39565b8152610f13838701610d39565b83820152815201920191610eae565b519081151582036102e757565b6020818303126102e75780519067ffffffffffffffff82116102e7570160c0818303126102e7576040519160c0830183811067ffffffffffffffff821117610cd157604052610f7d82610d39565b8352610f8b60208301610f22565b6020840152610f9c60408301610d39565b60408401526060820151606084015260808201519167ffffffffffffffff83116102e757610fd160a092610fdc948301610d60565b608085015201610f22565b60a082015290565b6001600160a01b03168015611044576000805160206116dc83398151915280546001600160a01b0319811683179091556001600160a01b03167f8be0079c531659141344cd1fd0a4f28419497f9722a3daafe3b4186f6b6457e0600080a3565b631e4fbdf760e01b600052600060045260246000fd5b6000805160206116dc833981519152546001600160a01b0316330361107b57565b63118cdaa760e01b6000523360045260246000fd5b60010b617fff81146110a25760010190565b634e487b7160e01b600052601160045260246000fd5b6110cc9061ffff60025460b01c169061148d565b90805160010b9060018060a01b0360005416915b835160010b918160010b9283136111c757602081015160010b5b602086015160010b8160010b9081136111b5576040519061111a82610cb5565b8582526020820190815260405163f13ca34360e01b81529151600190810b60048401529051900b6024820152600081604481895afa9081156106975760009161119c575b50516001600160a01b03168015159081611191575b506111865761118190611090565b6110fa565b505050505050600190565b905033141538611173565b6111af913d8091833e610aaa8183610d03565b3861115e565b505091506111c290611090565b6110e0565b5050505050600090565b600254906111e661ffff8360a01c168261148d565b8151600054919492936001600160a01b0393841693909260019290920b91165b855160010b948260010b9586136113eb57602081015160010b5b602088015160010b8160010b9081136113d7576040519061124082610cb5565b8882526020820190815260405163f13ca34360e01b81528251600190810b60048301528251900b602482015290600082604481895afa918215610697576000926113bc575b5061ffff602083015116916040519263e667790760e01b845260048401526000836024818d5afa928315610697576000936113a1575b50516001600160a01b031633149283611393575b836112f7575b5050506112ea576112e590611090565b611220565b5050505050505050600190565b61ffff92935061136783926040928b5160010b815160010b80821360001461138357505061132f908c5160010b905160010b90611456565b905b60208c0190815160010b91815160010b92838113600014611377575061136192505160010b905160010b90611456565b90611471565b93015116911611153880806112d5565b91505061136191611456565b61138d9250611456565b90611331565b6020830151151593506112cf565b6113b591933d8091833e610a4a8183610d03565b91386112bb565b6113d091923d8091833e610aaa8183610d03565b9038611285565b50509450906113e590611090565b90611206565b50505050505050600090565b805182101561140b5760209160051b010190565b634e487b7160e01b600052603260045260246000fd5b51600281101561076c5790565b60010b617fff1981146110a25760000390565b61ffff6000199116019061ffff82116110a257565b600191820b910b0390617fff198212617fff8313176110a257565b9060010b9060010b0190617fff198212617fff8313176110a257565b90916040519261149c84610cb5565b600084526000602085015283604051936114b585610cb5565b600080865260208087018290529054604051639ededf7760e01b815292879290916001600160a01b03169084600481845afa9384156106975760009461166e575b5092602060049460405195868092630ef2674360e01b82525afa9384156106975760009461162f575b50617fff9060011c1690617fff61ffff61154661154082861660010b61142e565b94611441565b1660010b9460011c16916115c661ffff61156d61156782871660010b61142e565b95611441565b1660010b9761158961ffff855160010b921660010b8092611456565b60010b8852602084016115b8826115a481845160010b611456565b9660208c019760010b88525160010b611471565b60010b87525160010b611471565b95602085019660010b8752805160010b9160010b809212611627575b5050805160010b9160010b80921261161f575b505081815160010b13611617575b505081815160010b13611614575050565b52565b523880611603565b5238806115f5565b5238806115e2565b9093506020813d602011611666575b8161164b60209383610d03565b810103126102e75761165f617fff91610d39565b939061151f565b3d915061163e565b93506020843d6020116116a5575b8161168960209383610d03565b810103126102e757602061169e600495610d39565b94506114f6565b3d915061167c565b60ff60008051602061171c8339815191525460401c16156116ca57565b631afcd79f60e31b60005260046000fdfe9016d09d72d40fdae2fd8ceac6b6234c7706214fd39c1cd1e609a0528c1993009b779b17422d0df92223018b32b4d1fa46e071723d6817e2486d003becc55f00f0c57e16840df040f15088dc2f81fe391c3923bec73e23a9662efc9c229c6a00a26469706673582212207b2b1b3113ff60fc27327683d464734cfffccc7254da76ec50b1373fa9c5825464736f6c634300081c0033",
  "linkReferences": {},
  "deployedLinkReferences": {}
}