{
  "_format": "hh-sol-artifact-1",
  "contractName": "Construction",
  "sourceName": "contracts/commands/Construction.sol",
  "abi": [
    {
      "inputs": [],
      "name": "InvalidInitialization",
      "type": "error"
    },
    {
      "inputs": [],
      "name": "NotInitializing",
      "type": "error"
    },
    {
      "inputs": [
        {
          "internalType": "address",
          "name": "owner",
          "type": "address"
        }
      ],
      "name": "OwnableInvalidOwner",
      "type": "error"
    },
    {
      "inputs": [
        {
          "internalType": "address",
          "name": "account",
          "type": "address"
        }
      ],
      "name": "OwnableUnauthorizedAccount",
      "type": "error"
    },
    {
      "anonymous": false,
      "inputs": [
        {
          "indexed": false,
          "internalType": "uint64",
          "name": "version",
          "type": "uint64"
        }
      ],
      "name": "Initialized",
      "type": "event"
    },
    {
      "anonymous": false,
      "inputs": [
        {
          "indexed": true,
          "internalType": "address",
          "name": "previousOwner",
          "type": "address"
        },
        {
          "indexed": true,
          "internalType": "address",
          "name": "newOwner",
          "type": "address"
        }
      ],
      "name": "OwnershipTransferred",
      "type": "event"
    },
    {
      "inputs": [],
      "name": "battleground",
      "outputs": [
        {
          "internalType": "contract Battleground",
          "name": "",
          "type": "address"
        }
      ],
      "stateMutability": "view",
      "type": "function"
    },
    {
      "inputs": [],
      "name": "buildingsContract",
      "outputs": [
        {
          "internalType": "contract IBuildings",
          "name": "",
          "type": "address"
        }
      ],
      "stateMutability": "view",
      "type": "function"
    },
    {
      "inputs": [
        {
          "internalType": "int16",
          "name": "x",
          "type": "int16"
        },
        {
          "internalType": "int16",
          "name": "y",
          "type": "int16"
        },
        {
          "internalType": "uint16",
          "name": "buildingId",
          "type": "uint16"
        }
      ],
      "name": "constructBuilding",
      "outputs": [],
      "stateMutability": "nonpayable",
      "type": "function"
    },
    {
      "inputs": [],
      "name": "enemyBuildingSearchRange",
      "outputs": [
        {
          "internalType": "uint16",
          "name": "",
          "type": "uint16"
        }
      ],
      "stateMutability": "view",
      "type": "function"
    },
    {
      "inputs": [],
      "name": "headquartersSearchRange",
      "outputs": [
        {
          "internalType": "uint16",
          "name": "",
          "type": "uint16"
        }
      ],
      "stateMutability": "view",
      "type": "function"
    },
    {
      "inputs": [
        {
          "internalType": "address",
          "name": "_battleground",
          "type": "address"
        },
        {
          "internalType": "address",
          "name": "_buildingsContract",
          "type": "address"
        },
        {
          "internalType": "uint16",
          "name": "_hqSearchRange",
          "type": "uint16"
        },
        {
          "internalType": "uint16",
          "name": "_enemySearchRange",
          "type": "uint16"
        }
      ],
      "name": "initialize",
      "outputs": [],
      "stateMutability": "nonpayable",
      "type": "function"
    },
    {
      "inputs": [],
      "name": "owner",
      "outputs": [
        {
          "internalType": "address",
          "name": "",
          "type": "address"
        }
      ],
      "stateMutability": "view",
      "type": "function"
    },
    {
      "inputs": [],
      "name": "renounceOwnership",
      "outputs": [],
      "stateMutability": "nonpayable",
      "type": "function"
    },
    {
      "inputs": [
        {
          "internalType": "uint16",
          "name": "_hqSearchRange",
          "type": "uint16"
        },
        {
          "internalType": "uint16",
          "name": "_enemySearchRange",
          "type": "uint16"
        }
      ],
      "name": "setSearchRanges",
      "outputs": [],
      "stateMutability": "nonpayable",
      "type": "function"
    },
    {
      "inputs": [
        {
          "internalType": "address",
          "name": "newOwner",
          "type": "address"
        }
      ],
      "name": "transferOwnership",
      "outputs": [],
      "stateMutability": "nonpayable",
      "type": "function"
    }
  ],
  "bytecode": "0x60808060405234601557611199908161001b8239f35b600080fdfe6080604052600436101561001257600080fd5b6000803560e01c80630dafc67c146107b457806317ddc04e1461078f5780633d05a869146103a657806356ddea0a1461037f578063715018a6146103155780638da5cb5b146102df578063a8b68376146102b6578063b0569d8114610291578063df442678146100ba5763f2fde38b1461008b57600080fd5b346100b75760203660031901126100b7576100b46100a7610832565b6100af610954565b6108de565b80f35b80fd5b50346100b75760803660031901126100b7576100d4610832565b6024356001600160a01b0381169081900361028d576100f161081c565b6064359161ffff8316830361028957600080516020611144833981519152549360ff8560401c16159467ffffffffffffffff811680159081610281575b6001149081610277575b15908161026e575b5061025f5767ffffffffffffffff1981166001176000805160206111448339815191525585610232575b506101736110f5565b61017b6110f5565b610184336108de565b60018060a01b03166bffffffffffffffffffffffff60a01b8654161785556001549261ffff60b01b9060b01b169267ffffffffffffffff60c01b16179061ffff60a01b9060a01b1617176001556101d85780f35b68ff0000000000000000196000805160206111448339815191525416600080516020611144833981519152557fc7f505b2f371ae2175ee4913f4499e1f2633a7b5936321eed1cdaeb6115181d2602060405160018152a180f35b68ffffffffffffffffff19166801000000000000000117600080516020611144833981519152553861016a565b63f92ee8a960e01b8752600487fd5b90501538610140565b303b159150610138565b87915061012e565b8480fd5b8280fd5b50346100b757806003193601126100b757602061ffff60015460b01c16604051908152f35b50346100b757806003193601126100b7576001546040516001600160a01b039091168152602090f35b50346100b757806003193601126100b757600080516020611124833981519152546040516001600160a01b039091168152602090f35b50346100b757806003193601126100b75761032e610954565b60008051602061112483398151915280546001600160a01b0319811690915581906001600160a01b03167f8be0079c531659141344cd1fd0a4f28419497f9722a3daafe3b4186f6b6457e08280a380f35b50346100b757806003193601126100b757546040516001600160a01b039091168152602090f35b50346100b75760603660031901126100b757600435908160010b80830361078b576024358060010b938482036105d6576103de61081c565b8454604051630f7625ef60e41b815233600482015291939190602090829060249082906001600160a01b03165afa90811561055e57869161076c575b50156107185761042991610d0e565b156106da5761ffff915b60015460405163083d527f60e01b81529390921660048401819052918490849060249082906001600160a01b03165afa9283156106cf5784936105da575b50835b8351811015610569576001600160a01b0361048f82866108b4565b515186549116906020906001600160a01b03166064826104af868a6108b4565b510151918960405195869485936323b872dd60e01b8552336004860152602485015260448401525af190811561055e578691610530575b50156104f457600101610474565b60405162461bcd60e51b815260206004820152601460248201527310dbdcdd081d1c985b9cd9995c8819985a5b195960621b6044820152606490fd5b610551915060203d8111610557575b610549818361087a565b81019061089c565b386104e6565b503d61053f565b6040513d88823e3d90fd5b848381848960018060a01b03835416803b156105d657839283608492604051978895869463123db68760e21b86526004860152602485015233604485015260648401525af180156105c9576105bb5780f35b6105c49161087a565b818180f35b50604051903d90823e3d90fd5b8380fd5b9092503d8085833e6105ec818361087a565b8101906020818303126102895780519067ffffffffffffffff82116106cb570181601f820112156102895780519067ffffffffffffffff82116106b7576040519261063d60208460051b018561087a565b82845260208085019360061b830101918183116106b357602001925b82841061066b57505050509138610471565b6040848303126106b35760405161068181610848565b84516001600160a01b03811681036106af579181604093602093528287015183820152815201930192610659565b8980fd5b8780fd5b634e487b7160e01b86526041600452602486fd5b8580fd5b6040513d86823e3d90fd5b60405162461bcd60e51b81526020600482015260166024820152754e6f206e65617262792068656164717561727465727360501b6044820152606490fd5b61072191610a49565b61072e5761ffff91610433565b60405162461bcd60e51b81526020600482015260166024820152754e656172627920656e656d79206275696c64696e677360501b6044820152606490fd5b610785915060203d60201161055757610549818361087a565b3861041a565b5080fd5b50346100b757806003193601126100b757602061ffff60015460a01c16604051908152f35b50346100b75760403660031901126100b75760043561ffff8116810361078b5760243561ffff8116810361028d576107ea610954565b6001805463ffffffff60a01b191660a09390931b61ffff60a01b169290921760b09190911b61ffff60b01b1617905580f35b6044359061ffff8216820361082d57565b600080fd5b600435906001600160a01b038216820361082d57565b6040810190811067ffffffffffffffff82111761086457604052565b634e487b7160e01b600052604160045260246000fd5b90601f8019910116810190811067ffffffffffffffff82111761086457604052565b9081602091031261082d5751801515810361082d5790565b80518210156108c85760209160051b010190565b634e487b7160e01b600052603260045260246000fd5b6001600160a01b0316801561093e5760008051602061112483398151915280546001600160a01b0319811683179091556001600160a01b03167f8be0079c531659141344cd1fd0a4f28419497f9722a3daafe3b4186f6b6457e0600080a3565b631e4fbdf760e01b600052600060045260246000fd5b600080516020611124833981519152546001600160a01b0316330361097557565b63118cdaa760e01b6000523360045260246000fd5b60010b617fff19811461099d5760000390565b634e487b7160e01b600052601160045260246000fd5b60010b617fff811461099d5760010190565b9060010b9060010b0190617fff198212617fff83131761099d57565b9081602091031261082d57518060010b810361082d5790565b519061ffff8216820361082d57565b9081604091031261082d5760405190610a2182610848565b80516001600160a01b038116810361082d578252610a41906020016109fa565b602082015290565b9061ffff60015460b01c1660010b90610a618261098a565b6000546001600160a01b0316905b838160010b1315610a84575050505050600090565b610a8e81866109c5565b8060010b60008112908115610cbc575b8115610c6b575b50610c6157610ab38561098a565b858160010b1315610ace575050610ac9906109b3565b610a6f565b610ad881866109c5565b8060010b60008112908115610c0f575b8115610bae575b50610ba4576040805163dcc01f0f60e01b8152600185810b60048301529290920b602483015281604481885afa908115610b9857600091610b6a575b50516001600160a01b03168015159081610b5f575b50610b5357610b4e906109b3565b610ab3565b50505050505050600190565b905033141538610b40565b610b8b915060403d8111610b91575b610b83818361087a565b810190610a09565b38610b2b565b503d610b79565b6040513d6000823e3d90fd5b50610b4e906109b3565b604051638ec8b2d760e01b81529091506020816004818a5afa908115610b9857600091610be1575b5060010b1238610aef565b610c02915060203d8111610c08575b610bfa818361087a565b8101906109e1565b38610bd6565b503d610bf0565b604051630a6c0d3d60e41b81529091506020816004818a5afa908115610b9857600091610c43575b5060010b811290610ae8565b610c5b915060203d8111610c0857610bfa818361087a565b38610c37565b50610ac9906109b3565b604051631cf89f7960e01b8152909150602081600481885afa908115610b9857600091610c9e575b5060010b1238610aa5565b610cb6915060203d8111610c0857610bfa818361087a565b38610c93565b6040516356f1716d60e11b8152909150602081600481885afa908115610b9857600091610cf0575b5060010b811290610a9e565b610d08915060203d8111610c0857610bfa818361087a565b38610ce4565b60015461ffff8160a01c1660010b610d258161098a565b6000546001600160a01b0316915b8160010b918183136110e957610d4981876109c5565b928360010b60008112908115611097575b8115611046575b5061103757956000610d728461098a565b9712965b8060010b84811361101e57610d8b828b6109c5565b908160010b60008112908115610fcc575b8115610f7b575b50610e33578915610f7057610db78561098a565b61ffff16905b60001315610f645761ffff80610dd28561098a565b81165b169116019061ffff821161099d576040805163dcc01f0f60e01b8152600189810b60048301529290920b6024830152816044818b5afa908115610b9857600091610f46575b5080516001600160a01b0316331480610ee3575b610e43575b5050610e3e906109b3565b610d76565b602090810151604051637503e2f360e11b815261ffff909116600482015290816024816001600160a01b038d165afa908115610b9857600091610ea5575b5061ffff80911691161115610e97573880610e33565b505050505050505050600190565b906020823d8211610edb575b81610ebe6020938361087a565b810103126100b7575061ffff610ed481926109fa565b9150610e81565b3d9150610eb1565b50602081810151604051630a228fcb60e41b815261ffff909116600482015290816024816001600160a01b038e165afa908115610b9857600091610f28575b50610e2e565b610f40915060203d811161055757610549818361087a565b38610f22565b610f5e915060403d8111610b9157610b83818361087a565b38610e1a565b61ffff80848116610dd5565b8461ffff1690610dbd565b604051638ec8b2d760e01b81529091506020816004818d5afa908115610b9857600091610fae575b5060010b1238610da3565b610fc6915060203d8111610c0857610bfa818361087a565b38610fa3565b604051630a6c0d3d60e41b81529091506020816004818d5afa908115610b9857600091611000575b5060010b811290610d9c565b611018915060203d8111610c0857610bfa818361087a565b38610ff4565b505096955061102e9192506109b3565b90949394610d33565b5061102e9192509594956109b3565b604051631cf89f7960e01b81529091506020816004818a5afa908115610b9857600091611079575b5060010b1238610d61565b611091915060203d8111610c0857610bfa818361087a565b3861106e565b6040516356f1716d60e11b81529091506020816004818a5afa908115610b98576000916110cb575b5060010b811290610d5a565b6110e3915060203d8111610c0857610bfa818361087a565b386110bf565b50505050505050600090565b60ff6000805160206111448339815191525460401c161561111257565b631afcd79f60e31b60005260046000fdfe9016d09d72d40fdae2fd8ceac6b6234c7706214fd39c1cd1e609a0528c199300f0c57e16840df040f15088dc2f81fe391c3923bec73e23a9662efc9c229c6a00a2646970667358221220ab22b22f9f6f6a014ebb24dc47ca2240ad02cd262f721476e4ce78ceddba5c2564736f6c634300081c0033",
  "linkReferences": {},
  "deployedLinkReferences": {}
}