{
  "_format": "hh-sol-artifact-1",
  "contractName": "Construct",
  "sourceName": "contracts/commands/Construct.sol",
  "abi": [
    {
      "inputs": [],
      "name": "InvalidInitialization",
      "type": "error"
    },
    {
      "inputs": [],
      "name": "NotInitializing",
      "type": "error"
    },
    {
      "inputs": [
        {
          "internalType": "address",
          "name": "owner",
          "type": "address"
        }
      ],
      "name": "OwnableInvalidOwner",
      "type": "error"
    },
    {
      "inputs": [
        {
          "internalType": "address",
          "name": "account",
          "type": "address"
        }
      ],
      "name": "OwnableUnauthorizedAccount",
      "type": "error"
    },
    {
      "inputs": [],
      "name": "ReentrancyGuardReentrantCall",
      "type": "error"
    },
    {
      "anonymous": false,
      "inputs": [
        {
          "indexed": false,
          "internalType": "uint64",
          "name": "version",
          "type": "uint64"
        }
      ],
      "name": "Initialized",
      "type": "event"
    },
    {
      "anonymous": false,
      "inputs": [
        {
          "indexed": true,
          "internalType": "address",
          "name": "previousOwner",
          "type": "address"
        },
        {
          "indexed": true,
          "internalType": "address",
          "name": "newOwner",
          "type": "address"
        }
      ],
      "name": "OwnershipTransferred",
      "type": "event"
    },
    {
      "inputs": [],
      "name": "battleground",
      "outputs": [
        {
          "internalType": "contract IBattleground",
          "name": "",
          "type": "address"
        }
      ],
      "stateMutability": "view",
      "type": "function"
    },
    {
      "inputs": [],
      "name": "buildingManager",
      "outputs": [
        {
          "internalType": "contract IBuildingManager",
          "name": "",
          "type": "address"
        }
      ],
      "stateMutability": "view",
      "type": "function"
    },
    {
      "inputs": [
        {
          "components": [
            {
              "internalType": "int16",
              "name": "x",
              "type": "int16"
            },
            {
              "internalType": "int16",
              "name": "y",
              "type": "int16"
            }
          ],
          "internalType": "struct IBattleground.Coordinates",
          "name": "coordinates",
          "type": "tuple"
        },
        {
          "internalType": "uint16",
          "name": "buildingId",
          "type": "uint16"
        }
      ],
      "name": "construct",
      "outputs": [],
      "stateMutability": "nonpayable",
      "type": "function"
    },
    {
      "inputs": [],
      "name": "enemyBuildingSearchRange",
      "outputs": [
        {
          "internalType": "uint16",
          "name": "",
          "type": "uint16"
        }
      ],
      "stateMutability": "view",
      "type": "function"
    },
    {
      "inputs": [],
      "name": "headquartersSearchRange",
      "outputs": [
        {
          "internalType": "uint16",
          "name": "",
          "type": "uint16"
        }
      ],
      "stateMutability": "view",
      "type": "function"
    },
    {
      "inputs": [
        {
          "internalType": "address",
          "name": "_lootVault",
          "type": "address"
        },
        {
          "internalType": "address",
          "name": "_buildingManager",
          "type": "address"
        },
        {
          "internalType": "address",
          "name": "_battleground",
          "type": "address"
        },
        {
          "internalType": "uint16",
          "name": "_headquartersSearchRange",
          "type": "uint16"
        },
        {
          "internalType": "uint16",
          "name": "_enemyBuildingSearchRange",
          "type": "uint16"
        }
      ],
      "name": "initialize",
      "outputs": [],
      "stateMutability": "nonpayable",
      "type": "function"
    },
    {
      "inputs": [],
      "name": "lootVault",
      "outputs": [
        {
          "internalType": "contract ILootVault",
          "name": "",
          "type": "address"
        }
      ],
      "stateMutability": "view",
      "type": "function"
    },
    {
      "inputs": [],
      "name": "owner",
      "outputs": [
        {
          "internalType": "address",
          "name": "",
          "type": "address"
        }
      ],
      "stateMutability": "view",
      "type": "function"
    },
    {
      "inputs": [],
      "name": "renounceOwnership",
      "outputs": [],
      "stateMutability": "nonpayable",
      "type": "function"
    },
    {
      "inputs": [
        {
          "internalType": "address",
          "name": "newOwner",
          "type": "address"
        }
      ],
      "name": "transferOwnership",
      "outputs": [],
      "stateMutability": "nonpayable",
      "type": "function"
    },
    {
      "inputs": [
        {
          "internalType": "address",
          "name": "_battleground",
          "type": "address"
        }
      ],
      "name": "updateBattleground",
      "outputs": [],
      "stateMutability": "nonpayable",
      "type": "function"
    },
    {
      "inputs": [
        {
          "internalType": "address",
          "name": "_buildingManager",
          "type": "address"
        }
      ],
      "name": "updateBuildingManager",
      "outputs": [],
      "stateMutability": "nonpayable",
      "type": "function"
    },
    {
      "inputs": [
        {
          "internalType": "uint16",
          "name": "_enemyBuildingSearchRange",
          "type": "uint16"
        }
      ],
      "name": "updateEnemyBuildingSearchRange",
      "outputs": [],
      "stateMutability": "nonpayable",
      "type": "function"
    },
    {
      "inputs": [
        {
          "internalType": "uint16",
          "name": "_headquartersSearchRange",
          "type": "uint16"
        }
      ],
      "name": "updateHeadquartersSearchRange",
      "outputs": [],
      "stateMutability": "nonpayable",
      "type": "function"
    },
    {
      "inputs": [
        {
          "internalType": "address",
          "name": "_lootVault",
          "type": "address"
        }
      ],
      "name": "updateLootVault",
      "outputs": [],
      "stateMutability": "nonpayable",
      "type": "function"
    }
  ],
  "bytecode": "0x60808060405234601557611783908161001b8239f35b600080fdfe6080604052600436101561001257600080fd5b60003560e01c806302f63fb414610c4a57806317ddc04e14610c2557806324a3e96414610bfc57806338afa82114610bb9578063412f108014610b7657806350ac8a3514610b3457806356ddea0a14610b0b5780635910346214610ac8578063591a7cb81461040557806360e4c393146103dc578063715018a6146103725780638da5cb5b1461033c578063b0569d8114610317578063f2fde38b146102ec5763fd1bae58146100c157600080fd5b346102e75760a03660031901126102e7576100da610c9d565b6024356001600160a01b038116908190036102e7576044356001600160a01b03811691908290036102e7576064359061ffff821682036102e75760843561ffff811681036102e75760008051602061172e833981519152549460ff8660401c16159567ffffffffffffffff8116801590816102df575b60011490816102d5575b1590816102cc575b506102bb5767ffffffffffffffff19811660011760008051602061172e833981519152558661028e575b506101956116bf565b61019d6116bf565b6101a633610ffa565b6101ae6116bf565b6101b66116bf565b600160008051602061170e8339815191525560018060a01b03166bffffffffffffffffffffffff60a01b6000541617600055600254936bffffffffffffffffffffffff60a01b600154161760015561ffff60b01b9060b01b169267ffffffffffffffff60c01b16179061ffff60a01b9060a01b16171760025561023557005b68ff00000000000000001960008051602061172e833981519152541660008051602061172e833981519152557fc7f505b2f371ae2175ee4913f4499e1f2633a7b5936321eed1cdaeb6115181d2602060405160018152a1005b68ffffffffffffffffff1916680100000000000000011760008051602061172e833981519152553861018c565b63f92ee8a960e01b60005260046000fd5b90501538610162565b303b15915061015a565b889150610150565b600080fd5b346102e75760203660031901126102e757610315610308610c9d565b610310611070565b610ffa565b005b346102e75760003660031901126102e757602061ffff60025460b01c16604051908152f35b346102e75760003660031901126102e7576000805160206116ee833981519152546040516001600160a01b039091168152602090f35b346102e75760003660031901126102e75761038b611070565b6000805160206116ee83398151915280546001600160a01b031981169091556000906001600160a01b03167f8be0079c531659141344cd1fd0a4f28419497f9722a3daafe3b4186f6b6457e08280a3005b346102e75760003660031901126102e7576002546040516001600160a01b039091168152602090f35b346102e7573660031901606081126102e7576040136102e75760405161042a81610cb3565b6004358060010b81036102e75781526024358060010b81036102e75760208201526044359061ffff82168092036102e757600260008051602061170e8339815191525414610ab757600260008051602061170e833981519152556001805460405163f13ca34360e01b81528351830b6004820152602084015190920b60248301526001600160a01b0316600082604481845afa91821561069557600092610a94575b5081516001600160a01b0316610a575760025460405163e667790760e01b8152600481018690529190600090839060249082906001600160a01b03165afa91821561069557600092610a32575b5060c0820151151580610a25575b156109d257602060249160405192838092630f7625ef60e41b82523360048301525afa90811561069557600091610998575b501561093e57610568836111e7565b156108f95760a0905b01519160018060a01b03600054169160005b84518110156107805761059f610599828761140c565b51611436565b600281101561076a576106a157600060206001600160a01b03816105c3858a61140c565b51015116606460606105d5868b61140c565b51015160405194859384926323b872dd60e01b84523360048501528b602485015260448401525af190811561069557600091610659575b501561061c576001905b01610583565b60405162461bcd60e51b8152602060048201526015602482015274151bdad95b881d1c985b9cd9995c8819985a5b1959605a1b6044820152606490fd5b906020823d821161068d575b8161067260209383610d01565b8101031261068a575061068490610f20565b8761060c565b80fd5b3d9150610665565b6040513d6000823e3d90fd5b6106ae610599828761140c565b600281101561076a576001146106c7575b600190610616565b6001600160a01b0360206106db838861140c565b510151169060406106ec828861140c565b51015160606106fb838961140c565b510151833b156102e75760c4600092836040519687948593637921219560e11b85523360048601528c60248601526044850152606484015260a060848401528160a48401525af191821561069557600192610759575b5090506106bf565b600061076491610d01565b87610751565b634e487b7160e01b600052602160045260246000fd5b50338152602081018581526001546001600160a01b031691823b156102e75760405163852df5b360e01b81528451600190810b600483015260209095015190940b60248501528391906060604484015280516001600160a01b03166064840152905161ffff1660848301526040810151608060a4840152805160e48401819052610104840192916020019060005b8181106108cd5750505060600151906063198382030160c48401526020808351928381520192019060005b81811061087e575050509181600081819503925af180156106955761086d575b600160008051602061170e83398151915255005b600061087891610d01565b80610859565b9180945092909251805190600282101561076a5782606060809260209460019652858060a01b038582015116858401526040810151604084015201516060820152019401910191859392610839565b8251805161ffff908116875260209182015116818701528896506040909501949092019160010161080e565b60405162461bcd60e51b815260206004820152601b60248201527f4e6f20667269656e646c792048512077697468696e2072616e676500000000006044820152606490fd5b610947836110ce565b6109535760a090610571565b60405162461bcd60e51b815260206004820152601860248201527f456e656d79206275696c64696e6720746f6f20636c6f736500000000000000006044820152606490fd5b90506020813d6020116109ca575b816109b360209383610d01565b810103126102e7576109c490610f20565b85610559565b3d91506109a6565b60405162461bcd60e51b815260206004820152602560248201527f496e76616c6964206275696c64696e67206f72206e6f7420636f6e73747275636044820152647469626c6560d81b6064820152608490fd5b5061ffff82511615610527565b610a509192503d806000833e610a488183610d01565b810190610f2d565b9085610519565b60405162461bcd60e51b8152602060048201526015602482015274151a5b1948185b1c9958591e481bd8d8dd5c1a5959605a1b6044820152606490fd5b610ab091923d8091833e610aa88183610d01565b810190610e06565b90846104cc565b633ee5aeb560e01b60005260046000fd5b346102e75760203660031901126102e757610ae1610c9d565b610ae9611070565b600280546001600160a01b0319166001600160a01b0392909216919091179055005b346102e75760003660031901126102e7576001546040516001600160a01b039091168152602090f35b346102e75760203660031901126102e757610b4d610c8c565b610b55611070565b6002805461ffff60a01b191660a09290921b61ffff60a01b16919091179055005b346102e75760203660031901126102e757610b8f610c9d565b610b97611070565b600080546001600160a01b0319166001600160a01b0392909216919091179055005b346102e75760203660031901126102e757610bd2610c9d565b610bda611070565b600180546001600160a01b0319166001600160a01b0392909216919091179055005b346102e75760003660031901126102e7576000546040516001600160a01b039091168152602090f35b346102e75760003660031901126102e757602061ffff60025460a01c16604051908152f35b346102e75760203660031901126102e757610c63610c8c565b610c6b611070565b6002805461ffff60b01b191660b09290921b61ffff60b01b16919091179055005b6004359061ffff821682036102e757565b600435906001600160a01b03821682036102e757565b6040810190811067ffffffffffffffff821117610ccf57604052565b634e487b7160e01b600052604160045260246000fd5b6080810190811067ffffffffffffffff821117610ccf57604052565b90601f8019910116810190811067ffffffffffffffff821117610ccf57604052565b51906001600160a01b03821682036102e757565b519061ffff821682036102e757565b67ffffffffffffffff8111610ccf5760051b60200190565b81601f820112156102e757805190610d7582610d46565b92610d836040519485610d01565b82845260208085019360071b830101918183116102e757602001925b828410610dad575050505090565b6080848303126102e75760405190610dc482610ce5565b84519060028210156102e7578260209260809452610de3838801610d23565b838201526040870151604082015260608701516060820152815201930192610d9f565b6020818303126102e75780519067ffffffffffffffff82116102e757016080818303126102e75760405191610e3a83610ce5565b610e4382610d23565b8352610e5160208301610d37565b6020840152604082015167ffffffffffffffff81116102e757820181601f820112156102e7578051610e8281610d46565b91610e906040519384610d01565b81835260208084019260061b820101908482116102e757602001915b818310610ee1575050506040840152606082015167ffffffffffffffff81116102e757610ed99201610d5e565b606082015290565b6040838603126102e75760206040918251610efb81610cb3565b610f0486610d37565b8152610f11838701610d37565b83820152815201920191610eac565b519081151582036102e757565b6020818303126102e75780519067ffffffffffffffff82116102e7570160e0818303126102e7576040519160e0830183811067ffffffffffffffff821117610ccf57604052610f7b82610d37565b8352610f8960208301610f20565b6020840152610f9a60408301610d37565b6040840152610fab60608301610d37565b6060840152610fbc60808301610d37565b608084015260a08201519167ffffffffffffffff83116102e757610fe760c092610ff2948301610d5e565b60a085015201610f20565b60c082015290565b6001600160a01b0316801561105a576000805160206116ee83398151915280546001600160a01b0319811683179091556001600160a01b03167f8be0079c531659141344cd1fd0a4f28419497f9722a3daafe3b4186f6b6457e0600080a3565b631e4fbdf760e01b600052600060045260246000fd5b6000805160206116ee833981519152546001600160a01b0316330361109157565b63118cdaa760e01b6000523360045260246000fd5b60010b617fff81146110b85760010190565b634e487b7160e01b600052601160045260246000fd5b6110e29061ffff60025460b01c16906114a2565b90805160010b9060018060a01b0360015416915b835160010b918160010b9283136111dd57602081015160010b5b602086015160010b8160010b9081136111cb576040519061113082610cb3565b8582526020820190815260405163f13ca34360e01b81529151600190810b60048401529051900b6024820152600081604481895afa908115610695576000916111b2575b50516001600160a01b031680151590816111a7575b5061119c57611197906110a6565b611110565b505050505050600190565b905033141538611189565b6111c5913d8091833e610aa88183610d01565b38611174565b505091506111d8906110a6565b6110f6565b5050505050600090565b600254906111fc61ffff8360a01c16826114a2565b815160018054929593946001600160a01b039485169490939290910b91165b855160010b948260010b95861361140057602081015160010b5b602088015160010b8160010b9081136113ec576040519061125582610cb3565b8882526020820190815260405163f13ca34360e01b81528251600190810b60048301528251900b602482015290600082604481895afa918215610695576000926113d1575b5061ffff602083015116916040519263e667790760e01b845260048401526000836024818d5afa928315610695576000936113b6575b50516001600160a01b0316331492836113a8575b8361130c575b5050506112ff576112fa906110a6565b611235565b5050505050505050600190565b61ffff92935061137c83926040928b5160010b815160010b808213600014611398575050611344908c5160010b905160010b9061146b565b905b60208c0190815160010b91815160010b9283811360001461138c575061137692505160010b905160010b9061146b565b90611486565b93015116911611153880806112ea565b9150506113769161146b565b6113a2925061146b565b90611346565b6020830151151593506112e4565b6113ca91933d8091833e610a488183610d01565b91386112d0565b6113e591923d8091833e610aa88183610d01565b903861129a565b50509450906113fa906110a6565b9061121b565b50505050505050600090565b80518210156114205760209160051b010190565b634e487b7160e01b600052603260045260246000fd5b51600281101561076a5790565b60010b617fff1981146110b85760000390565b61ffff6000199116019061ffff82116110b857565b600191820b910b0390617fff198212617fff8313176110b857565b9060010b9060010b0190617fff198212617fff8313176110b857565b9091604051926114b184610cb3565b600084526000602085015283604051936114ca85610cb3565b60008552600060208601528460018060a01b03600154169160405192639ededf7760e01b8452602084600481845afa93841561069557600094611680575b5092602060049460405195868092630ef2674360e01b82525afa93841561069557600094611641575b50617fff9060011c1690617fff61ffff61155861155282861660010b611443565b94611456565b1660010b9460011c16916115d861ffff61157f61157982871660010b611443565b95611456565b1660010b9761159b61ffff855160010b921660010b809261146b565b60010b8852602084016115ca826115b681845160010b61146b565b9660208c019760010b88525160010b611486565b60010b87525160010b611486565b95602085019660010b8752805160010b9160010b809212611639575b5050805160010b9160010b809212611631575b505081815160010b13611629575b505081815160010b13611626575050565b52565b523880611615565b523880611607565b5238806115f4565b9093506020813d602011611678575b8161165d60209383610d01565b810103126102e757611671617fff91610d37565b9390611531565b3d9150611650565b93506020843d6020116116b7575b8161169b60209383610d01565b810103126102e75760206116b0600495610d37565b9450611508565b3d915061168e565b60ff60008051602061172e8339815191525460401c16156116dc57565b631afcd79f60e31b60005260046000fdfe9016d09d72d40fdae2fd8ceac6b6234c7706214fd39c1cd1e609a0528c1993009b779b17422d0df92223018b32b4d1fa46e071723d6817e2486d003becc55f00f0c57e16840df040f15088dc2f81fe391c3923bec73e23a9662efc9c229c6a00a2646970667358221220f92a2a60f8790708c3f8bade26f2b1de2281ec5e2559eb60022e95c2a3568a6a64736f6c634300081c0033",
  "linkReferences": {},
  "deployedLinkReferences": {}
}