{
  "_format": "hh-sol-artifact-1",
  "contractName": "Construction",
  "sourceName": "contracts/commands/Construction.sol",
  "abi": [
    {
      "inputs": [],
      "name": "InvalidInitialization",
      "type": "error"
    },
    {
      "inputs": [],
      "name": "NotInitializing",
      "type": "error"
    },
    {
      "inputs": [
        {
          "internalType": "address",
          "name": "owner",
          "type": "address"
        }
      ],
      "name": "OwnableInvalidOwner",
      "type": "error"
    },
    {
      "inputs": [
        {
          "internalType": "address",
          "name": "account",
          "type": "address"
        }
      ],
      "name": "OwnableUnauthorizedAccount",
      "type": "error"
    },
    {
      "anonymous": false,
      "inputs": [
        {
          "indexed": false,
          "internalType": "uint64",
          "name": "version",
          "type": "uint64"
        }
      ],
      "name": "Initialized",
      "type": "event"
    },
    {
      "anonymous": false,
      "inputs": [
        {
          "indexed": true,
          "internalType": "address",
          "name": "previousOwner",
          "type": "address"
        },
        {
          "indexed": true,
          "internalType": "address",
          "name": "newOwner",
          "type": "address"
        }
      ],
      "name": "OwnershipTransferred",
      "type": "event"
    },
    {
      "inputs": [],
      "name": "battleground",
      "outputs": [
        {
          "internalType": "contract Battleground",
          "name": "",
          "type": "address"
        }
      ],
      "stateMutability": "view",
      "type": "function"
    },
    {
      "inputs": [],
      "name": "buildingsContract",
      "outputs": [
        {
          "internalType": "contract IBuildings",
          "name": "",
          "type": "address"
        }
      ],
      "stateMutability": "view",
      "type": "function"
    },
    {
      "inputs": [
        {
          "internalType": "int16",
          "name": "x",
          "type": "int16"
        },
        {
          "internalType": "int16",
          "name": "y",
          "type": "int16"
        },
        {
          "internalType": "uint16",
          "name": "buildingId",
          "type": "uint16"
        }
      ],
      "name": "constructBuilding",
      "outputs": [],
      "stateMutability": "nonpayable",
      "type": "function"
    },
    {
      "inputs": [],
      "name": "enemyBuildingSearchRange",
      "outputs": [
        {
          "internalType": "uint16",
          "name": "",
          "type": "uint16"
        }
      ],
      "stateMutability": "view",
      "type": "function"
    },
    {
      "inputs": [],
      "name": "headquartersSearchRange",
      "outputs": [
        {
          "internalType": "uint16",
          "name": "",
          "type": "uint16"
        }
      ],
      "stateMutability": "view",
      "type": "function"
    },
    {
      "inputs": [
        {
          "internalType": "address",
          "name": "_battleground",
          "type": "address"
        },
        {
          "internalType": "address",
          "name": "_buildingsContract",
          "type": "address"
        },
        {
          "internalType": "uint16",
          "name": "_hqSearchRange",
          "type": "uint16"
        },
        {
          "internalType": "uint16",
          "name": "_enemySearchRange",
          "type": "uint16"
        }
      ],
      "name": "initialize",
      "outputs": [],
      "stateMutability": "nonpayable",
      "type": "function"
    },
    {
      "inputs": [],
      "name": "owner",
      "outputs": [
        {
          "internalType": "address",
          "name": "",
          "type": "address"
        }
      ],
      "stateMutability": "view",
      "type": "function"
    },
    {
      "inputs": [],
      "name": "renounceOwnership",
      "outputs": [],
      "stateMutability": "nonpayable",
      "type": "function"
    },
    {
      "inputs": [
        {
          "internalType": "address",
          "name": "_battleground",
          "type": "address"
        }
      ],
      "name": "setBattleground",
      "outputs": [],
      "stateMutability": "nonpayable",
      "type": "function"
    },
    {
      "inputs": [
        {
          "internalType": "uint16",
          "name": "_hqSearchRange",
          "type": "uint16"
        },
        {
          "internalType": "uint16",
          "name": "_enemySearchRange",
          "type": "uint16"
        }
      ],
      "name": "setSearchRanges",
      "outputs": [],
      "stateMutability": "nonpayable",
      "type": "function"
    },
    {
      "inputs": [
        {
          "internalType": "address",
          "name": "newOwner",
          "type": "address"
        }
      ],
      "name": "transferOwnership",
      "outputs": [],
      "stateMutability": "nonpayable",
      "type": "function"
    },
    {
      "inputs": [
        {
          "internalType": "int16",
          "name": "x",
          "type": "int16"
        },
        {
          "internalType": "int16",
          "name": "y",
          "type": "int16"
        },
        {
          "internalType": "uint16",
          "name": "buildingId",
          "type": "uint16"
        }
      ],
      "name": "upgradeBuilding",
      "outputs": [],
      "stateMutability": "nonpayable",
      "type": "function"
    }
  ],
  "bytecode": "0x60808060405234601557611724908161001b8239f35b600080fdfe6080604052600436101561001257600080fd5b6000803560e01c80630dafc67c14610a8557806317ddc04e14610a605780633d05a869146106cd5780634196e13d146103fc57806356ddea0a146103d5578063715018a61461036b5780638da5cb5b14610335578063a8b683761461030c578063b0569d81146102e7578063d5c20610146102a7578063df442678146100d05763f2fde38b146100a157600080fd5b346100cd5760203660031901126100cd576100ca6100bd610b27565b6100c5610d5a565b610ce4565b80f35b80fd5b50346100cd5760803660031901126100cd576100ea610b27565b6024356001600160a01b038116908190036102a357610107610af1565b6064359161ffff8316830361029f576000805160206116cf833981519152549360ff8560401c16159467ffffffffffffffff811680159081610297575b600114908161028d575b159081610284575b506102755767ffffffffffffffff1981166001176000805160206116cf8339815191525585610248575b50610189611680565b610191611680565b61019a33610ce4565b60018060a01b03166bffffffffffffffffffffffff60a01b8654161785556001549261ffff60b01b9060b01b169267ffffffffffffffff60c01b16179061ffff60a01b9060a01b1617176001556101ee5780f35b68ff0000000000000000196000805160206116cf83398151915254166000805160206116cf833981519152557fc7f505b2f371ae2175ee4913f4499e1f2633a7b5936321eed1cdaeb6115181d2602060405160018152a180f35b68ffffffffffffffffff191668010000000000000001176000805160206116cf8339815191525538610180565b63f92ee8a960e01b8752600487fd5b90501538610156565b303b15915061014e565b879150610144565b8480fd5b8280fd5b50346100cd5760203660031901126100cd576102c1610b27565b6102c9610d5a565b81546001600160a01b0319166001600160a01b039190911617815580f35b50346100cd57806003193601126100cd57602061ffff60015460b01c16604051908152f35b50346100cd57806003193601126100cd576001546040516001600160a01b039091168152602090f35b50346100cd57806003193601126100cd576000805160206116af833981519152546040516001600160a01b039091168152602090f35b50346100cd57806003193601126100cd57610384610d5a565b6000805160206116af83398151915280546001600160a01b0319811690915581906001600160a01b03167f8be0079c531659141344cd1fd0a4f28419497f9722a3daafe3b4186f6b6457e08280a380f35b50346100cd57806003193601126100cd57546040516001600160a01b039091168152602090f35b50346100cd5760603660031901126100cd57610416610b07565b61041e610b17565b90610427610af1565b835460405163dcc01f0f60e01b8152600184810b600483015285900b6024820152919391908590829060449082906001600160a01b03165afa9081156106c25785916106a0575b5080516001600160a01b031633036106665760018060a01b0360015416604051916305d6082b60e51b835261ffff8616806004850152602084602481865afa93841561065b57889461062a575b5083610593575b5050501561054e5783926104d63382611472565b83546001600160a01b0316803b1561029f5760405163123db68760e21b8152600194850b60048201529290930b602483015233604483015261ffff1660648201529082908290608490829084905af18015610543576105325750f35b8161053c91610b6f565b6100cd5780f35b6040513d84823e3d90fd5b60405162461bcd60e51b815260206004820152601c60248201527f4275696c64696e672075706772616465206e6f7420616c6c6f776564000000006044820152606490fd5b602091929350602460405180958193633cab53b160e11b835260048301525afa91821561061f5786926105d7575b5061ffff602081920151169116143880806104c2565b9091506020813d602011610617575b816105f360209383610b6f565b810103126106135761ffff602061060a8293610b91565b939250506105c1565b8580fd5b3d91506105e6565b6040513d88823e3d90fd5b61064d91945060203d602011610654575b6106458183610b6f565b810190610ccc565b92386104bb565b503d61063b565b6040513d8a823e3d90fd5b60405162461bcd60e51b81526020600482015260126024820152712737ba103a3432903a34b6329037bbb732b960711b6044820152606490fd5b6106bc91503d8087833e6106b48183610b6f565b810190610bb8565b3861046e565b6040513d87823e3d90fd5b50346100cd5760603660031901126100cd576106e7610b07565b6106ef610b17565b6106f7610af1565b835460405163dcc01f0f60e01b8152600185810b600483015284900b60248201529192916001600160a01b03909116908581604481855afa90811561061f578691610a46575b50516001600160a01b0316610a09576001546040516305d6082b60e51b815261ffff85166004820181905290916001600160a01b031690602083602481855afa92831561065b5788936109e8575b5082610973575b50501561092057602060249160405192838092630f7625ef60e41b82523360048301525afa9081156106c2578591610901575b50156108a7576107d5818461108b565b156108625783915b6107e73382611472565b82546001600160a01b0316803b1561085e5760405163123db68760e21b8152600195860b60048201529290940b602483015233604483015261ffff1660648201529181908390608490829084905af18015610851576108435780f35b61084c91610b6f565b388180f35b50604051903d90823e3d90fd5b8380fd5b60405162461bcd60e51b815260206004820152601b60248201527f4e6f20667269656e646c792048512077697468696e2072616e676500000000006044820152606490fd5b6108b18184610e00565b6108bc5783916107dd565b60405162461bcd60e51b815260206004820152601860248201527f456e656d79206275696c64696e6720746f6f20636c6f736500000000000000006044820152606490fd5b61091a915060203d602011610654576106458183610b6f565b386107c5565b60405162461bcd60e51b815260206004820152602560248201527f496e76616c6964206275696c64696e67206f72206e6f7420636f6e73747275636044820152647469626c6560d81b6064820152608490fd5b6020919250602460405180948193633cab53b160e11b835260048301525afa801561061f5786906109ad575b61ffff915016153880610792565b506020813d6020116109e0575b816109c760209383610b6f565b81010312610613576109db61ffff91610b91565b61099f565b3d91506109ba565b610a0291935060203d602011610654576106458183610b6f565b913861078b565b60405162461bcd60e51b8152602060048201526015602482015274151a5b1948185b1c9958591e481bd8d8dd5c1a5959605a1b6044820152606490fd5b610a5a91503d8088833e6106b48183610b6f565b3861073d565b50346100cd57806003193601126100cd57602061ffff60015460a01c16604051908152f35b50346100cd5760403660031901126100cd5760043561ffff81168103610aed5760243561ffff811681036102a357610abb610d5a565b6001805463ffffffff60a01b191660a09390931b61ffff60a01b169290921760b09190911b61ffff60b01b1617905580f35b5080fd5b6044359061ffff82168203610b0257565b600080fd5b600435908160010b8203610b0257565b602435908160010b8203610b0257565b600435906001600160a01b0382168203610b0257565b6040810190811067ffffffffffffffff821117610b5957604052565b634e487b7160e01b600052604160045260246000fd5b90601f8019910116810190811067ffffffffffffffff821117610b5957604052565b519061ffff82168203610b0257565b67ffffffffffffffff8111610b595760051b60200190565b602081830312610b025780519067ffffffffffffffff8211610b02570190606082820312610b0257604051916060830183811067ffffffffffffffff821117610b595760405280516001600160a01b0381168103610b02578352610c1e60208201610b91565b602084015260408101519067ffffffffffffffff8211610b02570181601f82011215610b0257805190610c5082610ba0565b92610c5e6040519485610b6f565b82845260208085019360061b83010191818311610b0257602001925b828410610c8d5750505050604082015290565b604084830312610b025760206040918251610ca781610b3d565b610cb087610b91565b8152610cbd838801610b91565b83820152815201930192610c7a565b90816020910312610b0257518015158103610b025790565b6001600160a01b03168015610d44576000805160206116af83398151915280546001600160a01b0319811683179091556001600160a01b03167f8be0079c531659141344cd1fd0a4f28419497f9722a3daafe3b4186f6b6457e0600080a3565b631e4fbdf760e01b600052600060045260246000fd5b6000805160206116af833981519152546001600160a01b03163303610d7b57565b63118cdaa760e01b6000523360045260246000fd5b60010b617fff198114610da35760000390565b634e487b7160e01b600052601160045260246000fd5b60010b617fff8114610da35760010190565b9060010b9060010b0190617fff198212617fff831317610da357565b90816020910312610b0257518060010b8103610b025790565b9061ffff60015460b01c1660010b90610e1882610d90565b6000546001600160a01b0316905b838160010b1315610e3b575050505050600090565b610e458186610dcb565b6040516356f1716d60e11b8152602081600481875afa908115610f7d5760009161106d575b508160010b9060010b811290811561101c575b5061101257610e8b85610d90565b858160010b1315610ea6575050610ea190610db9565b610e26565b610eb08186610dcb565b604051630a6c0d3d60e41b8152602081600481895afa908115610f7d57600091610ff4575b508160010b9060010b8112908115610f93575b50610f895760405163dcc01f0f60e01b8152600184810b60048301529190910b6024820152600081604481885afa908115610f7d57600091610f64575b50516001600160a01b03168015159081610f59575b50610f4d57610f4890610db9565b610e8b565b50505050505050600190565b905033141538610f3a565b610f77913d8091833e6106b48183610b6f565b38610f25565b6040513d6000823e3d90fd5b50610f4890610db9565b604051638ec8b2d760e01b81529091506020816004818a5afa908115610f7d57600091610fc6575b5060010b1238610ee8565b610fe7915060203d8111610fed575b610fdf8183610b6f565b810190610de7565b38610fbb565b503d610fd5565b61100c915060203d8111610fed57610fdf8183610b6f565b38610ed5565b50610ea190610db9565b604051631cf89f7960e01b8152909150602081600481885afa908115610f7d5760009161104f575b5060010b1238610e7d565b611067915060203d8111610fed57610fdf8183610b6f565b38611044565b611085915060203d8111610fed57610fdf8183610b6f565b38610e6a565b60015461ffff8160a01c1660010b6110a281610d90565b6000546001600160a01b0316915b8160010b9181831361143c576110c68187610dcb565b926040516356f1716d60e11b8152602081600481895afa908115610f7d5760009161141e575b508460010b9060010b81129081156113cd575b506113be5795600061111084610d90565b9712965b8060010b8481136113a557611129828b610dcb565b90604051630a6c0d3d60e41b81526020816004818c5afa908115610f7d57600091611387575b508260010b9060010b8112908115611336575b506111f357891561132b5761117685610d90565b61ffff16905b6000131561131f5761ffff8061119185610d90565b81165b169116019061ffff8211610da35760405163dcc01f0f60e01b8152600188810b60048301529190910b60248201526000816044818b5afa908115610f7d57600091611306575b5080516001600160a01b03163314806112a3575b611203575b50506111fe90610db9565b611114565b602090810151604051637503e2f360e11b815261ffff909116600482015290816024816001600160a01b038d165afa908115610f7d57600091611265575b5061ffff809116911611156112575738806111f3565b505050505050505050600190565b906020823d821161129b575b8161127e60209383610b6f565b810103126100cd575061ffff6112948192610b91565b9150611241565b3d9150611271565b50602081810151604051630a228fcb60e41b815261ffff909116600482015290816024816001600160a01b038e165afa908115610f7d576000916112e8575b506111ee565b611300915060203d8111610654576106458183610b6f565b386112e2565b611319913d8091833e6106b48183610b6f565b386111da565b61ffff80848116611194565b8461ffff169061117c565b604051638ec8b2d760e01b81529091506020816004818d5afa908115610f7d57600091611369575b5060010b1238611162565b611381915060203d8111610fed57610fdf8183610b6f565b3861135e565b61139f915060203d8111610fed57610fdf8183610b6f565b3861114f565b50509695506113b5919250610db9565b909493946110b0565b506113b5919250959495610db9565b604051631cf89f7960e01b81529091506020816004818a5afa908115610f7d57600091611400575b5060010b12386110ff565b611418915060203d8111610fed57610fdf8183610b6f565b386113f5565b611436915060203d8111610fed57610fdf8183610b6f565b386110ec565b50505050505050600090565b805182101561145c5760209160051b010190565b634e487b7160e01b600052603260045260246000fd5b60015460405163083d527f60e01b815261ffff929092166004830152600090829060249082906001600160a01b03165afa908115610f7d576000916115b9575b5060005b81518110156115b4576001600160a01b036114d18284611448565b51516000549116906020906001600160a01b03166064826114f28688611448565b5101516040516323b872dd60e01b81526001600160a01b038916600482015260248101939093526044830152909283919082906000905af1908115610f7d57600091611596575b5015611547576001016114b6565b60405162461bcd60e51b815260206004820152602160248201527f436f6e737472756374696f6e20636f7374207472616e73666572206661696c656044820152601960fa1b6064820152608490fd5b6115ae915060203d8111610654576106458183610b6f565b38611539565b505050565b903d8082843e6115c98184610b6f565b820191602081840312610aed5780519067ffffffffffffffff82116102a3570182601f82011215610aed5780519161160083610ba0565b9361160e6040519586610b6f565b83855260208086019460061b840101928184116102a357602001935b83851061163c575050505050386114b2565b6040858303126102a35760405161165281610b3d565b85516001600160a01b038116810361029f57918160409360209352828801518382015281520194019361162a565b60ff6000805160206116cf8339815191525460401c161561169d57565b631afcd79f60e31b60005260046000fdfe9016d09d72d40fdae2fd8ceac6b6234c7706214fd39c1cd1e609a0528c199300f0c57e16840df040f15088dc2f81fe391c3923bec73e23a9662efc9c229c6a00a26469706673582212205d6e1b36b39d750775a370599e7e4cb6d87a46a8017bac274cc0a516c9f4e04f64736f6c634300081c0033",
  "linkReferences": {},
  "deployedLinkReferences": {}
}