{
  "_format": "hh-sol-artifact-1",
  "contractName": "Move",
  "sourceName": "contracts/commands/Move.sol",
  "abi": [
    {
      "inputs": [],
      "name": "InvalidInitialization",
      "type": "error"
    },
    {
      "inputs": [],
      "name": "NotInitializing",
      "type": "error"
    },
    {
      "inputs": [
        {
          "internalType": "address",
          "name": "owner",
          "type": "address"
        }
      ],
      "name": "OwnableInvalidOwner",
      "type": "error"
    },
    {
      "inputs": [
        {
          "internalType": "address",
          "name": "account",
          "type": "address"
        }
      ],
      "name": "OwnableUnauthorizedAccount",
      "type": "error"
    },
    {
      "anonymous": false,
      "inputs": [
        {
          "indexed": false,
          "internalType": "uint64",
          "name": "version",
          "type": "uint64"
        }
      ],
      "name": "Initialized",
      "type": "event"
    },
    {
      "anonymous": false,
      "inputs": [
        {
          "indexed": true,
          "internalType": "address",
          "name": "previousOwner",
          "type": "address"
        },
        {
          "indexed": true,
          "internalType": "address",
          "name": "newOwner",
          "type": "address"
        }
      ],
      "name": "OwnershipTransferred",
      "type": "event"
    },
    {
      "inputs": [],
      "name": "battleground",
      "outputs": [
        {
          "internalType": "contract IBattleground",
          "name": "",
          "type": "address"
        }
      ],
      "stateMutability": "view",
      "type": "function"
    },
    {
      "inputs": [
        {
          "internalType": "address",
          "name": "_lootVault",
          "type": "address"
        },
        {
          "internalType": "address",
          "name": "_unitManager",
          "type": "address"
        },
        {
          "internalType": "address",
          "name": "_battleground",
          "type": "address"
        }
      ],
      "name": "initialize",
      "outputs": [],
      "stateMutability": "nonpayable",
      "type": "function"
    },
    {
      "inputs": [],
      "name": "lootVault",
      "outputs": [
        {
          "internalType": "contract ILootVault",
          "name": "",
          "type": "address"
        }
      ],
      "stateMutability": "view",
      "type": "function"
    },
    {
      "inputs": [
        {
          "components": [
            {
              "internalType": "int16",
              "name": "x",
              "type": "int16"
            },
            {
              "internalType": "int16",
              "name": "y",
              "type": "int16"
            }
          ],
          "internalType": "struct IBattleground.Coordinates",
          "name": "from",
          "type": "tuple"
        },
        {
          "components": [
            {
              "internalType": "int16",
              "name": "x",
              "type": "int16"
            },
            {
              "internalType": "int16",
              "name": "y",
              "type": "int16"
            }
          ],
          "internalType": "struct IBattleground.Coordinates",
          "name": "to",
          "type": "tuple"
        },
        {
          "components": [
            {
              "internalType": "uint16",
              "name": "unitId",
              "type": "uint16"
            },
            {
              "internalType": "uint16",
              "name": "quantity",
              "type": "uint16"
            }
          ],
          "internalType": "struct UnitQuantityLib.UnitQuantity[]",
          "name": "units",
          "type": "tuple[]"
        }
      ],
      "name": "move",
      "outputs": [],
      "stateMutability": "nonpayable",
      "type": "function"
    },
    {
      "inputs": [],
      "name": "owner",
      "outputs": [
        {
          "internalType": "address",
          "name": "",
          "type": "address"
        }
      ],
      "stateMutability": "view",
      "type": "function"
    },
    {
      "inputs": [],
      "name": "renounceOwnership",
      "outputs": [],
      "stateMutability": "nonpayable",
      "type": "function"
    },
    {
      "inputs": [
        {
          "internalType": "address",
          "name": "newOwner",
          "type": "address"
        }
      ],
      "name": "transferOwnership",
      "outputs": [],
      "stateMutability": "nonpayable",
      "type": "function"
    },
    {
      "inputs": [],
      "name": "unitManager",
      "outputs": [
        {
          "internalType": "contract IUnitManager",
          "name": "",
          "type": "address"
        }
      ],
      "stateMutability": "view",
      "type": "function"
    },
    {
      "inputs": [
        {
          "internalType": "address",
          "name": "_battleground",
          "type": "address"
        }
      ],
      "name": "updateBattleground",
      "outputs": [],
      "stateMutability": "nonpayable",
      "type": "function"
    },
    {
      "inputs": [
        {
          "internalType": "address",
          "name": "_lootVault",
          "type": "address"
        }
      ],
      "name": "updateLootVault",
      "outputs": [],
      "stateMutability": "nonpayable",
      "type": "function"
    },
    {
      "inputs": [
        {
          "internalType": "address",
          "name": "_unitManager",
          "type": "address"
        }
      ],
      "name": "updateUnitManager",
      "outputs": [],
      "stateMutability": "nonpayable",
      "type": "function"
    }
  ],
  "bytecode": "0x6080806040523460155761186b908161001b8239f35b600080fdfe6080604052600436101561001257600080fd5b60003560e01c806324a3e964146100c7578063389fa642146100c257806338afa821146100bd5780633dd9e09f146100b8578063412f1080146100b357806356ddea0a146100ae578063715018a6146100a9578063808167f0146100a45780638da5cb5b1461009f578063c0c53b8b1461009a5763f2fde38b1461009557600080fd5b610662565b6104d0565b61049a565b610453565b6103e9565b6103c0565b610379565b610350565b610309565b610226565b6100dc565b60009103126100d757565b600080fd5b346100d75760003660031901126100d7576000546040516001600160a01b039091168152602090f35b634e487b7160e01b600052604160045260246000fd5b604081019081106001600160401b0382111761013657604052565b610105565b608081019081106001600160401b0382111761013657604052565b90601f801991011681019081106001600160401b0382111761013657604052565b6040519061018761016083610156565b565b60409060031901126100d757604051906101a28261011b565b816004358060010b81036100d7578152602435908160010b82036100d75760200152565b60409060431901126100d757604051906101df8261011b565b816044358060010b81036100d7578152606435908160010b82036100d75760200152565b6001600160401b0381116101365760051b60200190565b61ffff8116036100d757565b346100d75760a03660031901126100d75761024036610189565b610249366101c6565b608435906001600160401b0382116100d757366023830112156100d75781600401359261027584610203565b926102836040519485610156565b8484526024602085019560061b820101903682116100d757602401945b8186106102b55750506102b39350610dfb565b005b6040863603126100d757602060409182516102cf8161011b565b88356102da8161021a565b8152828901356102e98161021a565b838201528152019501946102a0565b6001600160a01b038116036100d757565b346100d75760203660031901126100d757600435610326816102f8565b61032e611791565b600180546001600160a01b0319166001600160a01b0392909216919091179055005b346100d75760003660031901126100d7576002546040516001600160a01b039091168152602090f35b346100d75760203660031901126100d757600435610396816102f8565b61039e611791565b600080546001600160a01b0319166001600160a01b0392909216919091179055005b346100d75760003660031901126100d7576001546040516001600160a01b039091168152602090f35b346100d75760003660031901126100d757610402611791565b6000805160206117f683398151915280546001600160a01b031981169091556000906001600160a01b03167f8be0079c531659141344cd1fd0a4f28419497f9722a3daafe3b4186f6b6457e08280a3005b346100d75760203660031901126100d757600435610470816102f8565b610478611791565b600280546001600160a01b0319166001600160a01b0392909216919091179055005b346100d75760003660031901126100d7576000805160206117f6833981519152546040516001600160a01b039091168152602090f35b346100d75760603660031901126100d7576004356104ed816102f8565b602435906104fa826102f8565b604435610506816102f8565b60008051602061181683398151915254926001600160401b0361053860ff604087901c1615956001600160401b031690565b168015908161065a575b6001149081610650575b159081610647575b5061063657610599928461059060016001600160401b031960008051602061181683398151915254161760008051602061181683398151915255565b6105fa57611241565b61059f57005b6105cb60ff60401b19600080516020611816833981519152541660008051602061181683398151915255565b604051600181527fc7f505b2f371ae2175ee4913f4499e1f2633a7b5936321eed1cdaeb6115181d290602090a1005b6106316801000000000000000060ff60401b1960008051602061181683398151915254161760008051602061181683398151915255565b611241565b63f92ee8a960e01b60005260046000fd5b90501538610554565b303b15915061054c565b859150610542565b346100d75760203660031901126100d7576102b3600435610682816102f8565b61068a611791565b61129a565b1561069657565b60405162461bcd60e51b815260206004820152601060248201526f4e6f20756e69747320746f206d6f766560801b6044820152606490fd5b51906101878261021a565b81601f820112156100d7578051906106f082610203565b926106fe6040519485610156565b82845260208085019360071b830101918183116100d757602001925b828410610728575050505090565b6080848303126100d7576040519061073f8261013b565b84519060028210156100d757826020926080945282870151610760816102f8565b83820152604087015160408201526060870151606082015281520193019261071a565b6020818303126100d7578051906001600160401b0382116100d757016080818303126100d757604051916107b68361013b565b81516107c1816102f8565b835260208201516107d18161021a565b602084015260408201516001600160401b0381116100d757820181601f820112156100d757805161080181610203565b9161080f6040519384610156565b81835260208084019260061b820101908482116100d757602001915b81831061085f57505050604084015260608201516001600160401b0381116100d75761085792016106d9565b606082015290565b6040838603126100d757602060409182516108798161011b565b85516108848161021a565b8152828601516108938161021a565b8382015281520192019161082b565b61018790929192604081019360208091805160010b8452015160010b910152565b6040513d6000823e3d90fd5b156108d657565b60405162461bcd60e51b815260206004820152602b60248201527f596f7520646f206e6f74206f776e207468652074696c6520796f75206172652060448201526a6d6f76696e672066726f6d60a81b6064820152608490fd5b1561093657565b60405162461bcd60e51b815260206004820152602360248201527f596f752063616e6e6f74206d6f766520746f20616e206f636375706965642074604482015262696c6560e81b6064820152608490fd5b805182101561099b5760209160051b010190565b634e487b7160e01b600052603260045260246000fd5b156109b857565b60405162461bcd60e51b815260206004820152601860248201527f4e6f7420656e6f75676820756e69747320746f206d6f766500000000000000006044820152606490fd5b15610a0457565b60405162461bcd60e51b815260206004820152601d60248201527f556e6974206e6f7420666f756e6420696e20736f757263652074696c650000006044820152606490fd5b9080601f830112156100d7578151610a6081610203565b92610a6e6040519485610156565b81845260208085019260051b8201019283116100d757602001905b828210610a965750505090565b602080918351610aa58161021a565b815201910190610a89565b519060ff821682036100d757565b519081151582036100d757565b6020818303126100d7578051906001600160401b0382116100d75701610160818303126100d757610afa610177565b91610b04826106ce565b835260208201516001600160401b0381116100d75781610b25918401610a49565b6020840152610b36604083016106ce565b6040840152610b47606083016106ce565b6060840152610b5860808301610ab0565b6080840152610b6960a08301610ab0565b60a0840152610b7a60c083016106ce565b60c0840152610b8b60e083016106ce565b60e08401526101008201516001600160401b0381116100d75781610bb09184016106d9565b610100840152610120820151916001600160401b0383116100d757610bdd61014092610be99483016106d9565b61012085015201610abe565b61014082015290565b15610bf957565b60405162461bcd60e51b815260206004820152601960248201527f556e69742063616e6e6f74206d6f7665207468617420666172000000000000006044820152606490fd5b90602080835192838152019201906000905b808210610c5d5750505090565b909192835160008151906002821015610ca9575082606060209360809360019652858060a01b038582015116858401526040810151604084015201516060820152019401920190610c50565b634e487b7160e01b81526021600452602490fd5b9081610cdb9194939460208091805160010b8452015160010b910152565b6060604082015260e081019060018060a01b03845116606082015261ffff6020850151166080820152604084015191608060a083015282518091526020610100830193019060005b818110610d4b575050506060610d48939401519060c0605f1982850301910152610c3e565b90565b8251805161ffff9081168752602091820151168187015260409095019490920191600101610d23565b6001600160a01b039091168152604060208201819052610d4892910190610c3e565b60405190610da5602083610156565b6000825281601f19610db76000610203565b019060005b828110610dc857505050565b602090604051610dd78161013b565b60008152600083820152600060408201526000606082015282828501015201610dbc565b90610e088351151561068f565b600154610e25906001600160a01b03165b6001600160a01b031690565b926040519463f13ca34360e01b865260008680610e4587600483016108a2565b0381885afa95861561104457600096611226575b508551610e79906001600160a01b03166001600160a01b031633146108cf565b60405163f13ca34360e01b815260008180610e9787600483016108a2565b0381895afa90811561104457600091611205575b508051610ed1906001600160a01b031680159081156111f2575b5096919594929661092f565b610edb8285611362565b9360009661ffff610ef6610e1960025460018060a01b031690565b9616965b855189101561105d57600094855b60408c01805180518310156110495761ffff610f4a610f438f610f3490610f3d8f9689610f3491610987565b515161ffff1690565b95610987565b61ffff1690565b911614610f5a5750600101610f08565b610fdf939694975061ffff610f99610f4360208f96999f610f8990610f938f97610f89610fa29a869251610987565b51015161ffff1690565b96610987565b911610156109b1565b610fac60016109fd565b6000610fbb610f34838a610987565b60405163fe07e59d60e01b815261ffff909116600482015292839081906024820190565b03818b5afa80156110445761101061100a60a061101893600196600091611023575b50015160ff1690565b60ff1690565b8a1115610bf2565b019791939092610efa565b61103e913d8091833e6110368183610156565b810190610acb565b38611001565b6108c3565b5050509298610fac610fdf929593966109fd565b97509791939450919450604081016110768582516114f2565b80915261ffff61108b602084015161ffff1690565b161590816111e8575b506111df575b823b156100d7576110c5926000928360405180968195829463852df5b360e01b845260048401610cbd565b03925af18015611044576111ca575b506110e46040840191825161167a565b90526000546110fb906001600160a01b0316610e19565b6060830190815190803b156100d75760405163450f339560e11b8152916000918391829084908290611131903360048401610d74565b03925af18015611044576111b5575b50611149610d96565b9052338252600154611163906001600160a01b0316610e19565b91823b156100d75761118f926000928360405180968195829463852df5b360e01b845260048401610cbd565b03925af18015611044576111a05750565b806111af600061018793610156565b806100cc565b806111af60006111c493610156565b38611140565b806111af60006111d993610156565b386110d4565b6000815261109a565b9050511538611094565b3391506001600160a01b03161438610ec5565b611220913d8091833e6112188183610156565b810190610783565b38610eab565b61123a91963d8091833e6112188183610156565b9438610e59565b6112496117c7565b6112516117c7565b61125a3361129a565b600080546001600160a01b03199081166001600160a01b039384161790915560028054821693831693909317909255600180549092169216919091179055565b6001600160a01b031680156112fa576000805160206117f683398151915280546001600160a01b0319811683179091556001600160a01b03167f8be0079c531659141344cd1fd0a4f28419497f9722a3daafe3b4186f6b6457e0600080a3565b631e4fbdf760e01b600052600060045260246000fd5b634e487b7160e01b600052601160045260246000fd5b600191820b910b0390617fff198212617fff83131761134157565b611310565b9060010b9060010b0190617fff198212617fff83131761134157565b610f4390610d4892815160010b61137a825160010b90565b6113848160010b90565b8260010b1360001461141157505060206113ae6113a2845160010b90565b835160010b5b90611326565b925b019060206113bf835160010b90565b9101906113cd825160010b90565b6113d78160010b90565b8260010b136000146114045750506113a86113f66113fe935160010b90565b915160010b90565b90611346565b9091506113fe9250611326565b60209161141d91611326565b926113b0565b1561142a57565b60405162461bcd60e51b815260206004820152601c60248201527f4e6f7420656e6f75676820756e69747320746f207375627472616374000000006044820152606490fd5b9061ffff8091169116039061ffff821161134157565b60001981146113415760010190565b9061149e82610203565b6114ab6040519182610156565b82815280926114bc601f1991610203565b019060005b8281106114cd57505050565b6020906040516114dc8161011b565b60008152600083820152828285010152016114c1565b91600080915b84518310156115e45760005b84518110156115dd57848661151c610f348783610987565b61ffff61152f610f43610f348787610987565b911614611540575050600101611504565b610f898361157861157e9461ffff61156f610f436020610f896115a99b8f9d9f83610f89610f9392829e610987565b91161015611423565b88610987565b6115a1602061158d858a610987565b51019161159c835161ffff1690565b61146f565b61ffff169052565b6115bb610f436020610f898489610987565b6115c9575b600101916114f8565b906115d5600191611485565b9190506115c0565b50916115a9565b92506115f09150611494565b6000805b84518110156116515761160f610f436020610f898489610987565b61161c575b6001016115f4565b9061164960019161162d8488610987565b516116388287610987565b526116438186610987565b50611485565b919050611614565b50509150565b9190820180921161134157565b9061ffff8091169116019061ffff821161134157565b9161169061168b8451845190611657565b611494565b600091825b85518410156116b6576116ae60019161162d8689610987565b930192611695565b925093506000915b835183101561178957600093845b835181101561177f576116e2610f348286610987565b61ffff6116f5610f43610f348987610987565b911614611704576001016116cc565b8195506115a1602061172a61172382610f898a61173e989b999b610987565b9387610987565b510191611739835161ffff1690565b611664565b60015b15611750575b600101916116be565b916117776001916117618587610987565b5161176c8286610987565b526116438185610987565b929050611747565b5093929092611741565b815292915050565b6000805160206117f6833981519152546001600160a01b031633036117b257565b63118cdaa760e01b6000523360045260246000fd5b60ff6000805160206118168339815191525460401c16156117e457565b631afcd79f60e31b60005260046000fdfe9016d09d72d40fdae2fd8ceac6b6234c7706214fd39c1cd1e609a0528c199300f0c57e16840df040f15088dc2f81fe391c3923bec73e23a9662efc9c229c6a00a26469706673582212209e912834d0a784d464496c173b9c8d7cc36bb10672abde32d5df53213e3334ac64736f6c634300081c0033",
  "linkReferences": {},
  "deployedLinkReferences": {}
}