{
  "_format": "hh-sol-artifact-1",
  "contractName": "Move",
  "sourceName": "contracts/commands/Move.sol",
  "abi": [
    {
      "inputs": [],
      "name": "InvalidInitialization",
      "type": "error"
    },
    {
      "inputs": [],
      "name": "NotInitializing",
      "type": "error"
    },
    {
      "inputs": [
        {
          "internalType": "address",
          "name": "owner",
          "type": "address"
        }
      ],
      "name": "OwnableInvalidOwner",
      "type": "error"
    },
    {
      "inputs": [
        {
          "internalType": "address",
          "name": "account",
          "type": "address"
        }
      ],
      "name": "OwnableUnauthorizedAccount",
      "type": "error"
    },
    {
      "anonymous": false,
      "inputs": [
        {
          "indexed": false,
          "internalType": "uint64",
          "name": "version",
          "type": "uint64"
        }
      ],
      "name": "Initialized",
      "type": "event"
    },
    {
      "anonymous": false,
      "inputs": [
        {
          "indexed": true,
          "internalType": "address",
          "name": "previousOwner",
          "type": "address"
        },
        {
          "indexed": true,
          "internalType": "address",
          "name": "newOwner",
          "type": "address"
        }
      ],
      "name": "OwnershipTransferred",
      "type": "event"
    },
    {
      "inputs": [],
      "name": "battleground",
      "outputs": [
        {
          "internalType": "contract IBattleground",
          "name": "",
          "type": "address"
        }
      ],
      "stateMutability": "view",
      "type": "function"
    },
    {
      "inputs": [
        {
          "internalType": "address",
          "name": "_lootVault",
          "type": "address"
        },
        {
          "internalType": "address",
          "name": "_unitManager",
          "type": "address"
        },
        {
          "internalType": "address",
          "name": "_battleground",
          "type": "address"
        }
      ],
      "name": "initialize",
      "outputs": [],
      "stateMutability": "nonpayable",
      "type": "function"
    },
    {
      "inputs": [],
      "name": "lootVault",
      "outputs": [
        {
          "internalType": "contract ILootVault",
          "name": "",
          "type": "address"
        }
      ],
      "stateMutability": "view",
      "type": "function"
    },
    {
      "inputs": [
        {
          "components": [
            {
              "internalType": "int16",
              "name": "x",
              "type": "int16"
            },
            {
              "internalType": "int16",
              "name": "y",
              "type": "int16"
            }
          ],
          "internalType": "struct IBattleground.Coordinates",
          "name": "from",
          "type": "tuple"
        },
        {
          "components": [
            {
              "internalType": "int16",
              "name": "x",
              "type": "int16"
            },
            {
              "internalType": "int16",
              "name": "y",
              "type": "int16"
            }
          ],
          "internalType": "struct IBattleground.Coordinates",
          "name": "to",
          "type": "tuple"
        },
        {
          "components": [
            {
              "internalType": "uint16",
              "name": "unitId",
              "type": "uint16"
            },
            {
              "internalType": "uint16",
              "name": "quantity",
              "type": "uint16"
            }
          ],
          "internalType": "struct UnitQuantityLib.UnitQuantity[]",
          "name": "units",
          "type": "tuple[]"
        }
      ],
      "name": "move",
      "outputs": [],
      "stateMutability": "nonpayable",
      "type": "function"
    },
    {
      "inputs": [],
      "name": "owner",
      "outputs": [
        {
          "internalType": "address",
          "name": "",
          "type": "address"
        }
      ],
      "stateMutability": "view",
      "type": "function"
    },
    {
      "inputs": [],
      "name": "renounceOwnership",
      "outputs": [],
      "stateMutability": "nonpayable",
      "type": "function"
    },
    {
      "inputs": [
        {
          "internalType": "address",
          "name": "newOwner",
          "type": "address"
        }
      ],
      "name": "transferOwnership",
      "outputs": [],
      "stateMutability": "nonpayable",
      "type": "function"
    },
    {
      "inputs": [],
      "name": "unitManager",
      "outputs": [
        {
          "internalType": "contract IUnitManager",
          "name": "",
          "type": "address"
        }
      ],
      "stateMutability": "view",
      "type": "function"
    },
    {
      "inputs": [
        {
          "internalType": "address",
          "name": "_battleground",
          "type": "address"
        }
      ],
      "name": "updateBattleground",
      "outputs": [],
      "stateMutability": "nonpayable",
      "type": "function"
    },
    {
      "inputs": [
        {
          "internalType": "address",
          "name": "_lootVault",
          "type": "address"
        }
      ],
      "name": "updateLootVault",
      "outputs": [],
      "stateMutability": "nonpayable",
      "type": "function"
    },
    {
      "inputs": [
        {
          "internalType": "address",
          "name": "_unitManager",
          "type": "address"
        }
      ],
      "name": "updateUnitManager",
      "outputs": [],
      "stateMutability": "nonpayable",
      "type": "function"
    }
  ],
  "bytecode": "0x6080806040523460155761173b908161001b8239f35b600080fdfe6080604052600436101561001257600080fd5b60003560e01c806324a3e964146100c7578063389fa642146100c257806338afa821146100bd5780633dd9e09f146100b8578063412f1080146100b357806356ddea0a146100ae578063715018a6146100a9578063808167f0146100a45780638da5cb5b1461009f578063c0c53b8b1461009a5763f2fde38b1461009557600080fd5b610662565b6104d0565b61049a565b610453565b6103e9565b6103c0565b610379565b610350565b610309565b610226565b6100dc565b60009103126100d757565b600080fd5b346100d75760003660031901126100d7576000546040516001600160a01b039091168152602090f35b634e487b7160e01b600052604160045260246000fd5b604081019081106001600160401b0382111761013657604052565b610105565b608081019081106001600160401b0382111761013657604052565b90601f801991011681019081106001600160401b0382111761013657604052565b6040519061018761014083610156565b565b60409060031901126100d757604051906101a28261011b565b816004358060010b81036100d7578152602435908160010b82036100d75760200152565b60409060431901126100d757604051906101df8261011b565b816044358060010b81036100d7578152606435908160010b82036100d75760200152565b6001600160401b0381116101365760051b60200190565b61ffff8116036100d757565b346100d75760a03660031901126100d75761024036610189565b610249366101c6565b608435906001600160401b0382116100d757366023830112156100d75781600401359261027584610203565b926102836040519485610156565b8484526024602085019560061b820101903682116100d757602401945b8186106102b55750506102b3935061068f565b005b6040863603126100d757602060409182516102cf8161011b565b88356102da8161021a565b8152828901356102e98161021a565b838201528152019501946102a0565b6001600160a01b038116036100d757565b346100d75760203660031901126100d757600435610326816102f8565b61032e6111e0565b600180546001600160a01b0319166001600160a01b0392909216919091179055005b346100d75760003660031901126100d7576002546040516001600160a01b039091168152602090f35b346100d75760203660031901126100d757600435610396816102f8565b61039e6111e0565b600080546001600160a01b0319166001600160a01b0392909216919091179055005b346100d75760003660031901126100d7576001546040516001600160a01b039091168152602090f35b346100d75760003660031901126100d7576104026111e0565b6000805160206116c683398151915280546001600160a01b031981169091556000906001600160a01b03167f8be0079c531659141344cd1fd0a4f28419497f9722a3daafe3b4186f6b6457e08280a3005b346100d75760203660031901126100d757600435610470816102f8565b6104786111e0565b600280546001600160a01b0319166001600160a01b0392909216919091179055005b346100d75760003660031901126100d7576000805160206116c6833981519152546040516001600160a01b039091168152602090f35b346100d75760603660031901126100d7576004356104ed816102f8565b602435906104fa826102f8565b604435610506816102f8565b6000805160206116e683398151915254926001600160401b0361053860ff604087901c1615956001600160401b031690565b168015908161065a575b6001149081610650575b159081610647575b5061063657610599928461059060016001600160401b03196000805160206116e68339815191525416176000805160206116e683398151915255565b6105fa57611111565b61059f57005b6105cb60ff60401b196000805160206116e683398151915254166000805160206116e683398151915255565b604051600181527fc7f505b2f371ae2175ee4913f4499e1f2633a7b5936321eed1cdaeb6115181d290602090a1005b6106316801000000000000000060ff60401b196000805160206116e68339815191525416176000805160206116e683398151915255565b611111565b63f92ee8a960e01b60005260046000fd5b90501538610554565b303b15915061054c565b859150610542565b346100d75760203660031901126100d7576102b3600435610682816102f8565b61068a6111e0565b61116a565b906106986111e0565b6106a483511515610a3f565b6001546106c1906001600160a01b03165b6001600160a01b031690565b926040519463f13ca34360e01b8652600086806106e18760048301610c52565b0381885afa9586156108e057600096610a24575b508551610715906001600160a01b03166001600160a01b03163314610c7f565b60405163f13ca34360e01b8152600081806107338760048301610c52565b0381895afa9081156108e057600091610a03575b50805161076d906001600160a01b031680159081156109f0575b50969195949296610cdf565b6107778285611268565b9360009661ffff6107926106b560025460018060a01b031690565b9616965b85518910156108f957600094855b60408c01805180518310156108e55761ffff6107e66107df8f6107d0906107d98f96896107d091610d37565b515161ffff1690565b95610d37565b61ffff1690565b9116146107f657506001016107a4565b61087b939694975061ffff6108356107df60208f96999f6108259061082f8f9761082561083e9a869251610d37565b51015161ffff1690565b96610d37565b91161015610d61565b6108486001610dad565b60006108576107d0838a610d37565b60405163fe07e59d60e01b815261ffff909116600482015292839081906024820190565b03818b5afa80156108e0576108ac6108a660a06108b4936001966000916108bf575b50015160ff1690565b60ff1690565b8a1115610f8f565b019791939092610796565b6108da913d8091833e6108d28183610156565b810190610e7b565b3861089d565b610c73565b505050929861084861087b92959396610dad565b97509791939450919450604081016109128582516113f8565b80915251156109e7575b823b156100d757610947926000928360405180968195829463852df5b360e01b84526004840161105a565b03925af180156108e0576109d2575b5061096660408401918251611580565b9052338252600154610980906001600160a01b03166106b5565b91823b156100d7576109ac926000928360405180968195829463852df5b360e01b84526004840161105a565b03925af180156108e0576109bd5750565b806109cc600061018793610156565b806100cc565b806109cc60006109e193610156565b38610956565b6000815261091c565b3391506001600160a01b03161438610761565b610a1e913d8091833e610a168183610156565b810190610b33565b38610747565b610a3891963d8091833e610a168183610156565b94386106f5565b15610a4657565b60405162461bcd60e51b815260206004820152601060248201526f4e6f20756e69747320746f206d6f766560801b6044820152606490fd5b51906101878261021a565b81601f820112156100d757805190610aa082610203565b92610aae6040519485610156565b82845260208085019360071b830101918183116100d757602001925b828410610ad8575050505090565b6080848303126100d75760405190610aef8261013b565b84519060028210156100d757826020926080945282870151610b10816102f8565b838201526040870151604082015260608701516060820152815201930192610aca565b6020818303126100d7578051906001600160401b0382116100d757016080818303126100d75760405191610b668361013b565b8151610b71816102f8565b83526020820151610b818161021a565b602084015260408201516001600160401b0381116100d757820181601f820112156100d7578051610bb181610203565b91610bbf6040519384610156565b81835260208084019260061b820101908482116100d757602001915b818310610c0f57505050604084015260608201516001600160401b0381116100d757610c079201610a89565b606082015290565b6040838603126100d75760206040918251610c298161011b565b8551610c348161021a565b815282860151610c438161021a565b83820152815201920191610bdb565b61018790929192604081019360208091805160010b8452015160010b910152565b6040513d6000823e3d90fd5b15610c8657565b60405162461bcd60e51b815260206004820152602b60248201527f596f7520646f206e6f74206f776e207468652074696c6520796f75206172652060448201526a6d6f76696e672066726f6d60a81b6064820152608490fd5b15610ce657565b60405162461bcd60e51b815260206004820152602360248201527f596f752063616e6e6f74206d6f766520746f20616e206f636375706965642074604482015262696c6560e81b6064820152608490fd5b8051821015610d4b5760209160051b010190565b634e487b7160e01b600052603260045260246000fd5b15610d6857565b60405162461bcd60e51b815260206004820152601860248201527f4e6f7420656e6f75676820756e69747320746f206d6f766500000000000000006044820152606490fd5b15610db457565b60405162461bcd60e51b815260206004820152601d60248201527f556e6974206e6f7420666f756e6420696e20736f757263652074696c650000006044820152606490fd5b9080601f830112156100d7578151610e1081610203565b92610e1e6040519485610156565b81845260208085019260051b8201019283116100d757602001905b828210610e465750505090565b602080918351610e558161021a565b815201910190610e39565b519060ff821682036100d757565b519081151582036100d757565b6020818303126100d7578051906001600160401b0382116100d75701610140818303126100d757610eaa610177565b91610eb482610a7e565b835260208201516001600160401b0381116100d75781610ed5918401610df9565b6020840152610ee660408301610a7e565b6040840152610ef760608301610a7e565b6060840152610f0860808301610e60565b6080840152610f1960a08301610e60565b60a0840152610f2a60c08301610a7e565b60c084015260e08201516001600160401b0381116100d75781610f4e918401610a89565b60e0840152610100820151916001600160401b0383116100d757610f7a61012092610f86948301610a89565b61010085015201610e6e565b61012082015290565b15610f9657565b60405162461bcd60e51b815260206004820152601960248201527f556e69742063616e6e6f74206d6f7665207468617420666172000000000000006044820152606490fd5b906020808351928381520192019060005b818110610ff95750505090565b909192835180519060028210156110445782606060809260209460019652858060a01b0385820151168584015260408101516040840152015160608201520194019101919091610fec565b634e487b7160e01b600052602160045260246000fd5b90816110789194939460208091805160010b8452015160010b910152565b6060604082015260e081019060018060a01b03845116606082015261ffff6020850151166080820152604084015191608060a083015282518091526020610100830193019060005b8181106110e85750505060606110e5939401519060c0605f1982850301910152610fdb565b90565b8251805161ffff90811687526020918201511681870152604090950194909201916001016110c0565b611119611697565b611121611697565b61112a3361116a565b600080546001600160a01b03199081166001600160a01b039384161790915560028054821693831693909317909255600180549092169216919091179055565b6001600160a01b031680156111ca576000805160206116c683398151915280546001600160a01b0319811683179091556001600160a01b03167f8be0079c531659141344cd1fd0a4f28419497f9722a3daafe3b4186f6b6457e0600080a3565b631e4fbdf760e01b600052600060045260246000fd5b6000805160206116c6833981519152546001600160a01b0316330361120157565b63118cdaa760e01b6000523360045260246000fd5b634e487b7160e01b600052601160045260246000fd5b600191820b910b0390617fff198212617fff83131761124757565b611216565b9060010b9060010b0190617fff198212617fff83131761124757565b6107df906110e592815160010b611280825160010b90565b61128a8160010b90565b8260010b1360001461131757505060206112b46112a8845160010b90565b835160010b5b9061122c565b925b019060206112c5835160010b90565b9101906112d3825160010b90565b6112dd8160010b90565b8260010b1360001461130a5750506112ae6112fc611304935160010b90565b915160010b90565b9061124c565b909150611304925061122c565b6020916113239161122c565b926112b6565b1561133057565b60405162461bcd60e51b815260206004820152601c60248201527f4e6f7420656e6f75676820756e69747320746f207375627472616374000000006044820152606490fd5b9061ffff8091169116039061ffff821161124757565b60001981146112475760010190565b906113a482610203565b6113b16040519182610156565b82815280926113c2601f1991610203565b019060005b8281106113d357505050565b6020906040516113e28161011b565b60008152600083820152828285010152016113c7565b91600080915b84518310156114ea5760005b84518110156114e35784866114226107d08783610d37565b61ffff6114356107df6107d08787610d37565b91161461144657505060010161140a565b6108258361147e6114849461ffff6114756107df60206108256114af9b8f9d9f8361082561082f92829e610d37565b91161015611329565b88610d37565b6114a76020611493858a610d37565b5101916114a2835161ffff1690565b611375565b61ffff169052565b6114c16107df60206108258489610d37565b6114cf575b600101916113fe565b906114db60019161138b565b9190506114c6565b50916114af565b92506114f6915061139a565b6000805b8451811015611557576115156107df60206108258489610d37565b611522575b6001016114fa565b9061154f6001916115338488610d37565b5161153e8287610d37565b526115498186610d37565b5061138b565b91905061151a565b50509150565b9190820180921161124757565b9061ffff8091169116019061ffff821161124757565b91611596611591845184519061155d565b61139a565b600091825b85518410156115bc576115b46001916115338689610d37565b93019261159b565b925093506000915b835183101561168f57600093845b8351811015611685576115e86107d08286610d37565b61ffff6115fb6107df6107d08987610d37565b91161461160a576001016115d2565b8195506114a76020611630611629826108258a611644989b999b610d37565b9387610d37565b51019161163f835161ffff1690565b61156a565b60015b15611656575b600101916115c4565b9161167d6001916116678587610d37565b516116728286610d37565b526115498185610d37565b92905061164d565b5093929092611647565b815292915050565b60ff6000805160206116e68339815191525460401c16156116b457565b631afcd79f60e31b60005260046000fdfe9016d09d72d40fdae2fd8ceac6b6234c7706214fd39c1cd1e609a0528c199300f0c57e16840df040f15088dc2f81fe391c3923bec73e23a9662efc9c229c6a00a26469706673582212204a0cf90faaffb031b5b25900183fd0bf9543f87df97532ee52f42aec665c3c1e64736f6c634300081c0033",
  "linkReferences": {},
  "deployedLinkReferences": {}
}