{
  "_format": "hh-sol-artifact-1",
  "contractName": "RangedAttack",
  "sourceName": "contracts/commands/RangedAttack.sol",
  "abi": [
    {
      "inputs": [],
      "name": "InvalidInitialization",
      "type": "error"
    },
    {
      "inputs": [],
      "name": "NotInitializing",
      "type": "error"
    },
    {
      "inputs": [
        {
          "internalType": "address",
          "name": "owner",
          "type": "address"
        }
      ],
      "name": "OwnableInvalidOwner",
      "type": "error"
    },
    {
      "inputs": [
        {
          "internalType": "address",
          "name": "account",
          "type": "address"
        }
      ],
      "name": "OwnableUnauthorizedAccount",
      "type": "error"
    },
    {
      "inputs": [],
      "name": "ReentrancyGuardReentrantCall",
      "type": "error"
    },
    {
      "anonymous": false,
      "inputs": [
        {
          "indexed": false,
          "internalType": "uint64",
          "name": "version",
          "type": "uint64"
        }
      ],
      "name": "Initialized",
      "type": "event"
    },
    {
      "anonymous": false,
      "inputs": [
        {
          "indexed": true,
          "internalType": "address",
          "name": "previousOwner",
          "type": "address"
        },
        {
          "indexed": true,
          "internalType": "address",
          "name": "newOwner",
          "type": "address"
        }
      ],
      "name": "OwnershipTransferred",
      "type": "event"
    },
    {
      "inputs": [],
      "name": "battleground",
      "outputs": [
        {
          "internalType": "contract IBattleground",
          "name": "",
          "type": "address"
        }
      ],
      "stateMutability": "view",
      "type": "function"
    },
    {
      "inputs": [],
      "name": "buildingManager",
      "outputs": [
        {
          "internalType": "contract IBuildingManager",
          "name": "",
          "type": "address"
        }
      ],
      "stateMutability": "view",
      "type": "function"
    },
    {
      "inputs": [
        {
          "internalType": "address",
          "name": "_battleground",
          "type": "address"
        },
        {
          "internalType": "address",
          "name": "_lootVault",
          "type": "address"
        },
        {
          "internalType": "address",
          "name": "_unitManager",
          "type": "address"
        },
        {
          "internalType": "address",
          "name": "_buildingManager",
          "type": "address"
        }
      ],
      "name": "initialize",
      "outputs": [],
      "stateMutability": "nonpayable",
      "type": "function"
    },
    {
      "inputs": [],
      "name": "lootVault",
      "outputs": [
        {
          "internalType": "contract ILootVault",
          "name": "",
          "type": "address"
        }
      ],
      "stateMutability": "view",
      "type": "function"
    },
    {
      "inputs": [],
      "name": "owner",
      "outputs": [
        {
          "internalType": "address",
          "name": "",
          "type": "address"
        }
      ],
      "stateMutability": "view",
      "type": "function"
    },
    {
      "inputs": [
        {
          "components": [
            {
              "internalType": "int16",
              "name": "x",
              "type": "int16"
            },
            {
              "internalType": "int16",
              "name": "y",
              "type": "int16"
            }
          ],
          "internalType": "struct IBattleground.Coordinates",
          "name": "from",
          "type": "tuple"
        },
        {
          "components": [
            {
              "internalType": "int16",
              "name": "x",
              "type": "int16"
            },
            {
              "internalType": "int16",
              "name": "y",
              "type": "int16"
            }
          ],
          "internalType": "struct IBattleground.Coordinates",
          "name": "to",
          "type": "tuple"
        },
        {
          "components": [
            {
              "internalType": "uint16",
              "name": "unitId",
              "type": "uint16"
            },
            {
              "internalType": "uint16",
              "name": "quantity",
              "type": "uint16"
            }
          ],
          "internalType": "struct UnitQuantityLib.UnitQuantity[]",
          "name": "attackerUnits",
          "type": "tuple[]"
        }
      ],
      "name": "rangedAttack",
      "outputs": [],
      "stateMutability": "nonpayable",
      "type": "function"
    },
    {
      "inputs": [],
      "name": "renounceOwnership",
      "outputs": [],
      "stateMutability": "nonpayable",
      "type": "function"
    },
    {
      "inputs": [
        {
          "internalType": "address",
          "name": "newOwner",
          "type": "address"
        }
      ],
      "name": "transferOwnership",
      "outputs": [],
      "stateMutability": "nonpayable",
      "type": "function"
    },
    {
      "inputs": [],
      "name": "unitManager",
      "outputs": [
        {
          "internalType": "contract IUnitManager",
          "name": "",
          "type": "address"
        }
      ],
      "stateMutability": "view",
      "type": "function"
    },
    {
      "inputs": [
        {
          "internalType": "address",
          "name": "_battleground",
          "type": "address"
        }
      ],
      "name": "updateBattleground",
      "outputs": [],
      "stateMutability": "nonpayable",
      "type": "function"
    },
    {
      "inputs": [
        {
          "internalType": "address",
          "name": "_buildingManager",
          "type": "address"
        }
      ],
      "name": "updateBuildingManager",
      "outputs": [],
      "stateMutability": "nonpayable",
      "type": "function"
    },
    {
      "inputs": [
        {
          "internalType": "address",
          "name": "_lootVault",
          "type": "address"
        }
      ],
      "name": "updateLootVault",
      "outputs": [],
      "stateMutability": "nonpayable",
      "type": "function"
    },
    {
      "inputs": [
        {
          "internalType": "address",
          "name": "_unitManager",
          "type": "address"
        }
      ],
      "name": "updateUnitManager",
      "outputs": [],
      "stateMutability": "nonpayable",
      "type": "function"
    }
  ],
  "bytecode": "0x60808060405234601557612121908161001b8239f35b600080fdfe6080604052600436101561001257600080fd5b60003560e01c806324a3e964146100e757806338afa821146100e25780633dd9e09f146100dd578063412f1080146100d857806356ddea0a146100d357806359103462146100ce57806360e4c393146100c9578063715018a6146100c4578063808167f0146100bf5780638da5cb5b146100ba578063ccb32af6146100b5578063f2fde38b146100b05763f8c8765e146100ab57600080fd5b6105a8565b61057b565b6104a9565b610337565b6102f0565b610286565b61025d565b610216565b6101ed565b6101a6565b61017d565b610136565b6100fc565b60009103126100f757565b600080fd5b346100f75760003660031901126100f7576001546040516001600160a01b039091168152602090f35b6001600160a01b038116036100f757565b346100f75760203660031901126100f75760043561015381610125565b61015b611642565b600080546001600160a01b0319166001600160a01b0392909216919091179055005b346100f75760003660031901126100f7576002546040516001600160a01b039091168152602090f35b346100f75760203660031901126100f7576004356101c381610125565b6101cb611642565b600180546001600160a01b0319166001600160a01b0392909216919091179055005b346100f75760003660031901126100f7576000546040516001600160a01b039091168152602090f35b346100f75760203660031901126100f75760043561023381610125565b61023b611642565b600380546001600160a01b0319166001600160a01b0392909216919091179055005b346100f75760003660031901126100f7576003546040516001600160a01b039091168152602090f35b346100f75760003660031901126100f75761029f611642565b60008051602061208c83398151915280546001600160a01b031981169091556000906001600160a01b03167f8be0079c531659141344cd1fd0a4f28419497f9722a3daafe3b4186f6b6457e08280a3005b346100f75760203660031901126100f75760043561030d81610125565b610315611642565b600280546001600160a01b0319166001600160a01b0392909216919091179055005b346100f75760003660031901126100f75760008051602061208c833981519152546040516001600160a01b039091168152602090f35b634e487b7160e01b600052604160045260246000fd5b604081019081106001600160401b0382111761039e57604052565b61036d565b608081019081106001600160401b0382111761039e57604052565b60c081019081106001600160401b0382111761039e57604052565b90601f801991011681019081106001600160401b0382111761039e57604052565b6040519061040a610140836103d9565b565b60409060031901126100f7576040519061042582610383565b816004358060010b81036100f7578152602435908160010b82036100f75760200152565b60409060431901126100f7576040519061046282610383565b816044358060010b81036100f7578152606435908160010b82036100f75760200152565b6001600160401b03811161039e5760051b60200190565b61ffff8116036100f757565b346100f75760a03660031901126100f7576104c33661040c565b6104cc36610449565b608435906001600160401b0382116100f757366023830112156100f7578160040135926104f884610486565b9261050660405194856103d9565b8484526024602085019560061b820101903682116100f757602401945b8186106105385750506105369350610747565b005b6040863603126100f7576020604091825161055281610383565b883561055d8161049d565b81528289013561056c8161049d565b83820152815201950194610523565b346100f75760203660031901126100f75761053660043561059b81610125565b6105a3611642565b611540565b346100f75760803660031901126100f7576004356105c581610125565b602435906105d282610125565b6044356105de81610125565b606435906105eb82610125565b6000805160206120cc83398151915254936001600160401b0361061d60ff604088901c1615966001600160401b031690565b168015908161073f575b6001149081610735575b15908161072c575b5061071b5761067e938561067560016001600160401b03196000805160206120cc8339815191525416176000805160206120cc83398151915255565b6106df576115b6565b61068457005b6106b060ff60401b196000805160206120cc83398151915254166000805160206120cc83398151915255565b604051600181527fc7f505b2f371ae2175ee4913f4499e1f2633a7b5936321eed1cdaeb6115181d290602090a1005b6107166801000000000000000060ff60401b196000805160206120cc8339815191525416176000805160206120cc83398151915255565b6115b6565b63f92ee8a960e01b60005260046000fd5b90501538610639565b303b159150610631565b869150610627565b91929092610753611642565b60026000805160206120ac8339815191525414610ccf5760026000805160206120ac8339815191525561078881511515610ce0565b6000546107a5906001600160a01b03165b6001600160a01b031690565b60405163f13ca34360e01b81529390600085806107c58560048301610f00565b0381845afa948515610a6a57600095610cb2575b5084516107f9906001600160a01b03166001600160a01b03163314610f2d565b6000604051809263f13ca34360e01b825281806108198b60048301610f00565b03915afa908115610a6a578690600092610c8d575b508151919261085c92610857906001600160a01b03168015159081610c79575b50989498610f90565b6116af565b9460009560609460009361ffff61087d61079960025460018060a01b031690565b9316935b8651861015610a8857600092835b60408b0180518051831015610a6f5761ffff6108d06108c96108ba8d8f956108ba896108c392610ff5565b515161ffff1690565b95610ff5565b61ffff1690565b9116146108e0575060010161088f565b61096a979495509861ffff6109246108c9959e949c9d989560206109148d9e9d61091e879f61091461092d9a869251610ff5565b51015161ffff1690565b96610ff5565b9116101561101f565b610937600161106b565b60006109466108ba8a8a610ff5565b60405163fe07e59d60e01b815261ffff909116600482015296879081906024820190565b0381855afa958615610a6a57888891600098610a40575b50916109d76108c96109dd936109d16020610914610100986109cb8f806109c28f6109bb6109b56080606096015160ff1690565b60ff1690565b101561124d565b015161ffff1690565b94610ff5565b906112af565b906112dd565b9501519760005b8951811015610a2057808a610a186060610a0e6001956109cb8f8f6109146108c992602092610ff5565b5101918251611302565b9052016109e4565b5092959697610a3790600192959a9b93969b6117eb565b97019490610881565b8598939192933d8091833e610a5581836103d9565b8101610a6091611139565b9792919092610981565b610f21565b505050979893909961093761096a96939498979861106b565b6001549299909891979550610af694509250610af091610abb90610ab4906001600160a01b0316610799565b33876119bd565b610aea610ae560408a0197610ae06020610ad68b51986112ea565b95015161ffff1690565b611c2c565b6112cd565b90611315565b90611dad565b93918091505115600014610c64575060008552610b11611335565b905260208401805161ffff1680610bc2575050610b3c90610b37606086019384516117eb565b6117eb565b90525b600054610b54906001600160a01b0316610799565b91823b156100f757610b80926000928360405180968195829463852df5b360e01b84526004840161148c565b03925af18015610a6a57610ba7575b5061040a60016000805160206120ac83398151915255565b80610bb66000610bbc936103d9565b806100ec565b38610b8f565b600354610c059391600091610bdf906001600160a01b0316610799565b6040518080978194631fab95d560e21b83526004830191909161ffff6020820193169052565b03915afa908115610a6a57610c3493600092610c3b575b506000610b37929352610b37606088019586516117eb565b9052610b3f565b610b379250610c5d6000913d8084833e610c5581836103d9565b8101906113db565b9250610c1c565b610c34929152610b37606086019384516117eb565b3391506001600160a01b031614153861084e565b610cac9061085c933d8091833e610ca481836103d9565b810190610de1565b9161082e565b610cc89195503d806000833e610ca481836103d9565b93386107d9565b633ee5aeb560e01b60005260046000fd5b15610ce757565b60405162461bcd60e51b815260206004820152601760248201527f4e6f20756e69747320746f2061747461636b20776974680000000000000000006044820152606490fd5b519061040a8261049d565b81601f820112156100f757805190610d4e82610486565b92610d5c60405194856103d9565b82845260208085019360071b830101918183116100f757602001925b828410610d86575050505090565b6080848303126100f75760405190610d9d826103a3565b84519060028210156100f757826020926080945282870151610dbe81610125565b838201526040870151604082015260608701516060820152815201930192610d78565b6020818303126100f7578051906001600160401b0382116100f757016080818303126100f75760405191610e14836103a3565b8151610e1f81610125565b83526020820151610e2f8161049d565b602084015260408201516001600160401b0381116100f757820181601f820112156100f7578051610e5f81610486565b91610e6d60405193846103d9565b81835260208084019260061b820101908482116100f757602001915b818310610ebd57505050604084015260608201516001600160401b0381116100f757610eb59201610d37565b606082015290565b6040838603126100f75760206040918251610ed781610383565b8551610ee28161049d565b815282860151610ef18161049d565b83820152815201920191610e89565b61040a90929192604081019360208091805160010b8452015160010b910152565b6040513d6000823e3d90fd5b15610f3457565b60405162461bcd60e51b815260206004820152602e60248201527f596f7520646f206e6f74206f776e207468652074696c6520796f75206172652060448201526d61747461636b696e672066726f6d60901b6064820152608490fd5b15610f9757565b60405162461bcd60e51b815260206004820152603060248201527f596f752063616e6e6f742061747461636b20616e20656d7074792074696c652060448201526f6f7220796f7572206f776e2074696c6560801b6064820152608490fd5b80518210156110095760209160051b010190565b634e487b7160e01b600052603260045260246000fd5b1561102657565b60405162461bcd60e51b815260206004820152601f60248201527f4e6f7420656e6f75676820756e69747320746f2061747461636b2077697468006044820152606490fd5b1561107257565b60405162461bcd60e51b815260206004820152601d60248201527f556e6974206e6f7420666f756e6420696e20736f757263652074696c650000006044820152606490fd5b9080601f830112156100f75781516110ce81610486565b926110dc60405194856103d9565b81845260208085019260051b8201019283116100f757602001905b8282106111045750505090565b6020809183516111138161049d565b8152019101906110f7565b519060ff821682036100f757565b519081151582036100f757565b6020818303126100f7578051906001600160401b0382116100f75701610140818303126100f7576111686103fa565b9161117282610d2c565b835260208201516001600160401b0381116100f757816111939184016110b7565b60208401526111a460408301610d2c565b60408401526111b560608301610d2c565b60608401526111c66080830161111e565b60808401526111d760a0830161111e565b60a08401526111e860c08301610d2c565b60c084015260e08201516001600160401b0381116100f7578161120c918401610d37565b60e0840152610100820151916001600160401b0383116100f75761123861012092611244948301610d37565b6101008501520161112c565b61012082015290565b1561125457565b60405162461bcd60e51b815260206004820152601b60248201527f556e69742063616e6e6f742061747461636b20746861742066617200000000006044820152606490fd5b634e487b7160e01b600052601160045260246000fd5b9061ffff8091169116029061ffff82169182036112c857565b611299565b612710019081612710116112c857565b919082018092116112c857565b9061271082029180830461271014901517156112c857565b818102929181159184041417156112c857565b811561131f570490565b634e487b7160e01b600052601260045260246000fd5b604051906113446020836103d9565b600080835282815b82811061135857505050565b60209060405161136781610383565b600081526000838201528282850101520161134c565b9061138782610486565b61139460405191826103d9565b82815280926113a5601f1991610486565b019060005b8281106113b657505050565b6020906040516113c581610383565b60008152600083820152828285010152016113aa565b906020828203126100f75781516001600160401b0381116100f7576114009201610d37565b90565b6002111561140d57565b634e487b7160e01b600052602160045260246000fd5b906020808351928381520192019060005b8181106114415750505090565b9091928351805190600282101561140d5782606060809260209460019652858060a01b0385820151168584015260408101516040840152015160608201520194019101919091611434565b90816114aa9194939460208091805160010b8452015160010b910152565b6060604082015260e081019060018060a01b03845116606082015261ffff6020850151166080820152604084015191608060a083015282518091526020610100830193019060005b818110611517575050506060611400939401519060c0605f1982850301910152611423565b8251805161ffff90811687526020918201511681870152604090950194909201916001016114f2565b6001600160a01b031680156115a05760008051602061208c83398151915280546001600160a01b0319811683179091556001600160a01b03167f8be0079c531659141344cd1fd0a4f28419497f9722a3daafe3b4186f6b6457e0600080a3565b631e4fbdf760e01b600052600060045260246000fd5b6115be61205d565b6115c661205d565b6115cf33611540565b6115d761205d565b6115df61205d565b60016000805160206120ac833981519152819055600080546001600160a01b03199081166001600160a01b039485161790915581548116938316939093179055600280548316938216939093179092556003805490911692909116919091179055565b60008051602061208c833981519152546001600160a01b0316330361166357565b63118cdaa760e01b6000523360045260246000fd5b600191820b910b0390617fff198212617fff8313176112c857565b9060010b9060010b0190617fff198212617fff8313176112c857565b6108c99061140092815160010b6116c7825160010b90565b6116d18160010b90565b8260010b1360001461175e57505060206116fb6116ef845160010b90565b835160010b5b90611678565b925b0190602061170c835160010b90565b91019061171a825160010b90565b6117248160010b90565b8260010b136000146117515750506116f561174361174b935160010b90565b915160010b90565b90611693565b90915061174b9250611678565b60209161176a91611678565b926116fd565b9061177a82610486565b61178760405191826103d9565b8281528092611798601f1991610486565b019060005b8281106117a957505050565b6020906040516117b8816103a3565b6000815260008382015260006040820152600060608201528282850101520161179d565b60001981146112c85760010190565b916118016117fc84518451906112dd565b611770565b600091825b85518410156118435761183b60019161181f8689610ff5565b5161182a8287610ff5565b526118358186610ff5565b506117dc565b930192611806565b945092600092505b805183101561195157600093845b83518110156119475761188060206118718387610ff5565b5101516001600160a01b031690565b61189261079960206118718988610ff5565b6001600160a01b039091161480611922575b6118b057600101611859565b9095939194506118dd60606118d3816118c9868a610ff5565b5101519386610ff5565b51019182516112dd565b905260015b156118f3575b60010191939261184b565b9161191a6001916119048587610ff5565b5161190f8286610ff5565b526118358185610ff5565b9290506118e8565b50604061192f8286610ff5565b510151604061193e8786610ff5565b510151146118a4565b50949290936118e2565b5092835250565b51600281101561140d5790565b908160209103126100f7576114009061112c565b1561198057565b60405162461bcd60e51b8152602060048201526015602482015274151bdad95b881d1c985b9cd9995c8819985a5b1959605a1b6044820152606490fd5b92919260005b8151811015611b81576119df6119d98284610ff5565b51611958565b6119e881611403565b611aa657806020611a52611a08610799610799846118716000988a610ff5565b6060611a148588610ff5565b5101516040516323b872dd60e01b81526001600160a01b03808a1660048301528b166024820152604481019190915294859283919082906064820190565b03925af1918215610a6a57600192611a7291600091611a78575b50611979565b016119c3565b611a99915060203d8111611a9f575b611a9181836103d9565b810190611965565b38611a6c565b503d611a87565b6001611ab56119d98385610ff5565b611abe81611403565b14611acc575b600190611a72565b611ae161079961079960206118718587610ff5565b906040611aee8285610ff5565b5101516060611afd8386610ff5565b510151833b156100f757604051637921219560e11b81526001600160a01b038781166004830152891660248201526044810192909252606482015260a06084820152600060a482018190529092839060c490829084905af1918215610a6a57600192611b6c575b509050611ac4565b80610bb66000611b7b936103d9565b38611b64565b5050509050565b6020818303126100f7578051906001600160401b0382116100f7570160c0818303126100f75760405191611bbb836103be565b8151611bc68161049d565b8352611bd46020830161112c565b6020840152611be560408301610d2c565b6040840152606082015160608401526080820151916001600160401b0383116100f757611c1960a092611c24948301610d37565b60808501520161112c565b60a082015290565b600354919291611c7191600091611c4b906001600160a01b0316610799565b604051808095819463e667790760e01b83526004830191909161ffff6020820193169052565b03915afa8015610a6a57606091600091611d67575b500151600254909290600090611ca4906001600160a01b0316610799565b905b8251811015611d6257611ce56000611cc16108ba8487610ff5565b60405163fe07e59d60e01b815261ffff909116600482015291829081906024820190565b0381865afa908115610a6a57611d0a9160c091600091611d41575b50015161ffff1690565b61ffff8116611d1d575b50600101611ca6565b81956109d76108c9611d3a936109d160206109146001988b610ff5565b9490611d14565b611d5c913d8091833e611d5481836103d9565b810190611139565b38611d00565b505050565b611d8491503d806000833e611d7c81836103d9565b810190611b88565b38611c86565b9061ffff8091169116039061ffff82116112c857565b919082039182116112c857565b9060609092600080611dc961079960025460018060a01b031690565b905b8551831015611fe557611de66000611cc16108ba868a610ff5565b0381865afa8015610a6a57604091600091611fcc575b500193611e1a6108c9611e146108c9885161ffff1690565b8a611315565b9761ffff8916988915611fbb578589809b611e436108c96020610914611ee89d9e9f8790610ff5565b10611f93575b60206109148383611e8384611e64611e88986108c998610ff5565b5101611e7b89611e76835161ffff1690565b611d8a565b61ffff169052565b610ff5565b611f6c575b90611eae611ea86108c961ffff611eb495169a5161ffff1690565b89611302565b90611da0565b976000611ec46108ba8784610ff5565b604051630ab251cf60e01b815261ffff909116600482015296879081906024820190565b0381875afa958615610a6a57600096611f51575b5060005b8651811015611f2d57806060611f186001938a610ff5565b5101611f258a8251611302565b905201611f00565b509396600192965094611f4391959893986117eb565b955b01919493959095611dcb565b611f6591963d8091833e610c5581836103d9565b9438611efc565b9290611eae611ea86108c961ffff611f86611eb4966117dc565b9794955050505050611e8d565b91506108c9602061091483611faf83610914611e889789610ff5565b95935093505050611e49565b509297509350939491600190611f45565b611fdf913d8091833e611d5481836103d9565b38611dfc565b9050611ff69150949291939461137d565b9160009160005b8651811015612054576120186108c96020610914848b610ff5565b612025575b600101611ffd565b9261204c600191612036868a610ff5565b516120418289610ff5565b526118358188610ff5565b93905061201d565b50929450929050565b60ff6000805160206120cc8339815191525460401c161561207a57565b631afcd79f60e31b60005260046000fdfe9016d09d72d40fdae2fd8ceac6b6234c7706214fd39c1cd1e609a0528c1993009b779b17422d0df92223018b32b4d1fa46e071723d6817e2486d003becc55f00f0c57e16840df040f15088dc2f81fe391c3923bec73e23a9662efc9c229c6a00a2646970667358221220e289717b19cbab31b783218c1feda6f85447f43d881ce94e15a2dac661a5614864736f6c634300081c0033",
  "linkReferences": {},
  "deployedLinkReferences": {}
}