{
  "_format": "hh-sol-artifact-1",
  "contractName": "Train",
  "sourceName": "contracts/commands/Train.sol",
  "abi": [
    {
      "inputs": [],
      "name": "InvalidInitialization",
      "type": "error"
    },
    {
      "inputs": [],
      "name": "NotInitializing",
      "type": "error"
    },
    {
      "inputs": [
        {
          "internalType": "address",
          "name": "owner",
          "type": "address"
        }
      ],
      "name": "OwnableInvalidOwner",
      "type": "error"
    },
    {
      "inputs": [
        {
          "internalType": "address",
          "name": "account",
          "type": "address"
        }
      ],
      "name": "OwnableUnauthorizedAccount",
      "type": "error"
    },
    {
      "inputs": [],
      "name": "ReentrancyGuardReentrantCall",
      "type": "error"
    },
    {
      "anonymous": false,
      "inputs": [
        {
          "indexed": false,
          "internalType": "uint64",
          "name": "version",
          "type": "uint64"
        }
      ],
      "name": "Initialized",
      "type": "event"
    },
    {
      "anonymous": false,
      "inputs": [
        {
          "indexed": true,
          "internalType": "address",
          "name": "previousOwner",
          "type": "address"
        },
        {
          "indexed": true,
          "internalType": "address",
          "name": "newOwner",
          "type": "address"
        }
      ],
      "name": "OwnershipTransferred",
      "type": "event"
    },
    {
      "inputs": [],
      "name": "battleground",
      "outputs": [
        {
          "internalType": "contract IBattleground",
          "name": "",
          "type": "address"
        }
      ],
      "stateMutability": "view",
      "type": "function"
    },
    {
      "inputs": [
        {
          "internalType": "address",
          "name": "_lootVault",
          "type": "address"
        },
        {
          "internalType": "address",
          "name": "_unitManager",
          "type": "address"
        },
        {
          "internalType": "address",
          "name": "_battleground",
          "type": "address"
        }
      ],
      "name": "initialize",
      "outputs": [],
      "stateMutability": "nonpayable",
      "type": "function"
    },
    {
      "inputs": [],
      "name": "lootVault",
      "outputs": [
        {
          "internalType": "contract ILootVault",
          "name": "",
          "type": "address"
        }
      ],
      "stateMutability": "view",
      "type": "function"
    },
    {
      "inputs": [],
      "name": "owner",
      "outputs": [
        {
          "internalType": "address",
          "name": "",
          "type": "address"
        }
      ],
      "stateMutability": "view",
      "type": "function"
    },
    {
      "inputs": [],
      "name": "renounceOwnership",
      "outputs": [],
      "stateMutability": "nonpayable",
      "type": "function"
    },
    {
      "inputs": [
        {
          "components": [
            {
              "internalType": "int16",
              "name": "x",
              "type": "int16"
            },
            {
              "internalType": "int16",
              "name": "y",
              "type": "int16"
            }
          ],
          "internalType": "struct IBattleground.Coordinates",
          "name": "coordinates",
          "type": "tuple"
        },
        {
          "components": [
            {
              "internalType": "uint16",
              "name": "unitId",
              "type": "uint16"
            },
            {
              "internalType": "uint16",
              "name": "quantity",
              "type": "uint16"
            }
          ],
          "internalType": "struct UnitQuantityLib.UnitQuantity",
          "name": "unitQuantity",
          "type": "tuple"
        }
      ],
      "name": "train",
      "outputs": [],
      "stateMutability": "nonpayable",
      "type": "function"
    },
    {
      "inputs": [
        {
          "internalType": "address",
          "name": "newOwner",
          "type": "address"
        }
      ],
      "name": "transferOwnership",
      "outputs": [],
      "stateMutability": "nonpayable",
      "type": "function"
    },
    {
      "inputs": [],
      "name": "unitManager",
      "outputs": [
        {
          "internalType": "contract IUnitManager",
          "name": "",
          "type": "address"
        }
      ],
      "stateMutability": "view",
      "type": "function"
    },
    {
      "inputs": [
        {
          "internalType": "address",
          "name": "_battleground",
          "type": "address"
        }
      ],
      "name": "updateBattleground",
      "outputs": [],
      "stateMutability": "nonpayable",
      "type": "function"
    },
    {
      "inputs": [
        {
          "internalType": "address",
          "name": "_lootVault",
          "type": "address"
        }
      ],
      "name": "updateLootVault",
      "outputs": [],
      "stateMutability": "nonpayable",
      "type": "function"
    },
    {
      "inputs": [
        {
          "internalType": "address",
          "name": "_unitManager",
          "type": "address"
        }
      ],
      "name": "updateUnitManager",
      "outputs": [],
      "stateMutability": "nonpayable",
      "type": "function"
    }
  ],
  "bytecode": "0x60808060405234601557611272908161001b8239f35b600080fdfe608080604052600436101561001357600080fd5b60003560e01c90816324a3e96414610ee35750806338afa82114610ea05780633dd9e09f14610e77578063412f108014610e3457806356ddea0a14610e0b578063715018a614610da1578063808167f014610d5e5780638da5cb5b14610d28578063c0c53b8b14610b46578063e20b29db146100c85763f2fde38b1461009857600080fd5b346100c35760203660031901126100c3576100c16100b4610f07565b6100bc61116b565b6110f5565b005b600080fd5b346100c3573660031901608081126100c3576040136100c3576040516100ed81610f1d565b6004358060010b81036100c35781526024358060010b81036100c357602082015260403660431901126100c35760405161012681610f1d565b60443561ffff811681036100c357815260643561ffff811681036100c3576020820190815260026000805160206111fd8339815191525414610b355760026000805160206111fd8339815191525561ffff81511615610af0576001805460405163f13ca34360e01b81528551830b6004820152602086015190920b6024830152600090829060449082906001600160a01b03165afa9081156103fd576000916109bc575b5080519091906001600160a01b031633036109825760018060a01b036002541692600061ffff82511660246040518097819363fe07e59d60e01b835260048301525afa9384156103fd576000946107c0575b506101208401511515806107b3575b61023490611087565b60009360005b602082015180518210156107a35761ffff61025c838260208a015116936110cb565b51161461026b5760010161023a565b5060e0919293945061027d6001611087565b019283519460005b8551518110156102d75761ffff8551169060606102a2828a6110cb565b51019182518181029181830414901517156102c1576001925201610285565b634e487b7160e01b600052601160045260246000fd5b508591849160018060a01b03600054169260005b85518110156104e85761030761030182886110cb565b516111a1565b60028110156104d25761040957600060206001600160a01b038161032b858b6110cb565b510151166064606061033d868c6110cb565b51015160405194859384926323b872dd60e01b84523360048501528c602485015260448401525af19081156103fd576000916103c1575b5015610384576001905b016102eb565b60405162461bcd60e51b8152602060048201526015602482015274151bdad95b881d1c985b9cd9995c8819985a5b1959605a1b6044820152606490fd5b906020823d82116103f5575b816103da60209383610f69565b810103126103f257506103ec9061107a565b88610374565b80fd5b3d91506103cd565b6040513d6000823e3d90fd5b61041661030182886110cb565b60028110156104d25760011461042f575b60019061037e565b6001600160a01b03602061044383896110cb565b5101511690604061045482896110cb565b5101516060610463838a6110cb565b510151833b156100c35760c4600092836040519687948593637921219560e11b85523360048601528d60248601526044850152606484015260a060848401528160a48401525af19182156103fd576001926104c1575b509050610427565b60006104cc91610f69565b886104b9565b634e487b7160e01b600052602160045260246000fd5b50856000805b604086018051805183101561055a5761050a8361ffff926110cb565b51511661ffff85511614610522575b506001016104ee565b90915060206105388361ffff87511693516110cb565b51019061ffff8251160161ffff81116102c15761ffff16905260019081610519565b86888686156106d7575b506001546001600160a01b031690813b156100c35760405163852df5b360e01b81528351600190810b600483015260209094015190930b602484015282906060604483015280516001600160a01b0316606483015260208082015161ffff1660848401526040820151608060a4850152805160e4850181905261010485019392919091019060005b8181106106ab5750505060600151906063198382030160c48401526020808351928381520192019060005b81811061065c575050509181600081819503925af180156103fd5761064b575b60016000805160206111fd83398151915255005b600061065691610f69565b80610637565b918094509290925180519060028210156104d25782606060809260209460019652858060a01b038582015116858401526040810151604084015201516060820152019401910191859392610617565b8251805161ffff90811687526020918201511681870152889650604090950194909201916001016105ec565b9190604081019182515191600183018093116102c1576106f683610fad565b926107046040519485610f69565b808452610713601f1991610fad565b0160005b81811061077e57505060005b84518051821015610758579061073b816001936110cb565b5161074682876110cb565b5261075181866110cb565b5001610723565b5050929093610776908251519061076f82866110cb565b52836110cb565b505282610564565b60209060405161078d81610f1d565b6000815260008382015282828801015201610717565b505061027d60e092939495611087565b50835161ffff161561022b565b9390933d8083833e6107d28183610f69565b81019060208183031261097a578051906001600160401b03821161097e5701906101408282031261097a576040519261014084018481106001600160401b038211176109665760405261082483610f9e565b845260208301516001600160401b03811161094657830182601f820112156109465780519061085282610fad565b916108606040519384610f69565b80835260208084019160051b8301019185831161096257602001905b82821061094a57505050602085015261089760408401610f9e565b60408501526108a860608401610f9e565b60608501526108b96080840161106c565b60808501526108ca60a0840161106c565b60a08501526108db60c08401610f9e565b60c085015260e08301516001600160401b03811161094657826108ff918501610fc4565b60e0850152610100830151906001600160401b0382116103f257509161092d61012092610939948301610fc4565b6101008501520161107a565b610120820152928561021c565b5080fd5b6020809161095784610f9e565b81520191019061087c565b8480fd5b634e487b7160e01b82526041600452602482fd5b8280fd5b8380fd5b60405162461bcd60e51b81526020600482015260126024820152712737ba103a3432903a34b6329037bbb732b960711b6044820152606490fd5b3d8083833e6109cb8183610f69565b81019060208183031261097a578051906001600160401b03821161097e5701916080838303126103f25760405192610a0284610f4e565b610a0b81610f8a565b8452610a1960208201610f9e565b602085015260408101516001600160401b03811161097a57810183601f8201121561097a578051610a4981610fad565b91610a576040519384610f69565b81835260208084019260061b82010190868211610aec57602001915b818310610aad5750505060408501526060810151916001600160401b0383116103f25750610aa2929101610fc4565b6060820152846101ca565b604083880312610aec5760206040918251610ac781610f1d565b610ad086610f9e565b8152610add838701610f9e565b83820152815201920191610a73565b8580fd5b60405162461bcd60e51b815260206004820152601f60248201527f5175616e74697479206d7573742062652067726561746572207468616e2030006044820152606490fd5b633ee5aeb560e01b60005260046000fd5b346100c35760603660031901126100c357610b5f610f07565b6024356001600160a01b038116908190036100c3576044356001600160a01b03811691908290036100c35760008051602061121d833981519152549260ff8460401c1615936001600160401b03811680159081610d20575b6001149081610d16575b159081610d0d575b50610cfc5767ffffffffffffffff19811660011760008051602061121d8339815191525584610ccf575b50610bfc6111ae565b610c046111ae565b610c0d336110f5565b610c156111ae565b610c1d6111ae565b60016000805160206111fd8339815191525560018060a01b03166001600160601b0360a01b60005416176000556001600160601b0360a01b60025416176002556001600160601b0360a01b6001541617600155610c7657005b68ff00000000000000001960008051602061121d833981519152541660008051602061121d833981519152557fc7f505b2f371ae2175ee4913f4499e1f2633a7b5936321eed1cdaeb6115181d2602060405160018152a1005b68ffffffffffffffffff1916680100000000000000011760008051602061121d8339815191525584610bf3565b63f92ee8a960e01b60005260046000fd5b90501586610bc9565b303b159150610bc1565b869150610bb7565b346100c35760003660031901126100c3576000805160206111dd833981519152546040516001600160a01b039091168152602090f35b346100c35760203660031901126100c357610d77610f07565b610d7f61116b565b600280546001600160a01b0319166001600160a01b0392909216919091179055005b346100c35760003660031901126100c357610dba61116b565b6000805160206111dd83398151915280546001600160a01b031981169091556000906001600160a01b03167f8be0079c531659141344cd1fd0a4f28419497f9722a3daafe3b4186f6b6457e08280a3005b346100c35760003660031901126100c3576001546040516001600160a01b039091168152602090f35b346100c35760203660031901126100c357610e4d610f07565b610e5561116b565b600080546001600160a01b0319166001600160a01b0392909216919091179055005b346100c35760003660031901126100c3576002546040516001600160a01b039091168152602090f35b346100c35760203660031901126100c357610eb9610f07565b610ec161116b565b600180546001600160a01b0319166001600160a01b0392909216919091179055005b346100c35760003660031901126100c3576000546001600160a01b03168152602090f35b600435906001600160a01b03821682036100c357565b604081019081106001600160401b03821117610f3857604052565b634e487b7160e01b600052604160045260246000fd5b608081019081106001600160401b03821117610f3857604052565b90601f801991011681019081106001600160401b03821117610f3857604052565b51906001600160a01b03821682036100c357565b519061ffff821682036100c357565b6001600160401b038111610f385760051b60200190565b81601f820112156100c357805190610fdb82610fad565b92610fe96040519485610f69565b82845260208085019360071b830101918183116100c357602001925b828410611013575050505090565b6080848303126100c3576040519061102a82610f4e565b84519060028210156100c3578260209260809452611049838801610f8a565b838201526040870151604082015260608701516060820152815201930192611005565b519060ff821682036100c357565b519081151582036100c357565b1561108e57565b60405162461bcd60e51b8152602060048201526015602482015274155b9a5d0818d85b89dd081899481d1c985a5b9959605a1b6044820152606490fd5b80518210156110df5760209160051b010190565b634e487b7160e01b600052603260045260246000fd5b6001600160a01b03168015611155576000805160206111dd83398151915280546001600160a01b0319811683179091556001600160a01b03167f8be0079c531659141344cd1fd0a4f28419497f9722a3daafe3b4186f6b6457e0600080a3565b631e4fbdf760e01b600052600060045260246000fd5b6000805160206111dd833981519152546001600160a01b0316330361118c57565b63118cdaa760e01b6000523360045260246000fd5b5160028110156104d25790565b60ff60008051602061121d8339815191525460401c16156111cb57565b631afcd79f60e31b60005260046000fdfe9016d09d72d40fdae2fd8ceac6b6234c7706214fd39c1cd1e609a0528c1993009b779b17422d0df92223018b32b4d1fa46e071723d6817e2486d003becc55f00f0c57e16840df040f15088dc2f81fe391c3923bec73e23a9662efc9c229c6a00a2646970667358221220ad127c26c6cb4edb67253f1e1ecb7bd3d2c22aeb095f26734e39f94611d3d49d64736f6c634300081c0033",
  "linkReferences": {},
  "deployedLinkReferences": {}
}