{
  "_format": "hh-sol-artifact-1",
  "contractName": "Training",
  "sourceName": "contracts/commands/Training.sol",
  "abi": [
    {
      "inputs": [],
      "name": "InvalidInitialization",
      "type": "error"
    },
    {
      "inputs": [],
      "name": "NotInitializing",
      "type": "error"
    },
    {
      "inputs": [
        {
          "internalType": "address",
          "name": "owner",
          "type": "address"
        }
      ],
      "name": "OwnableInvalidOwner",
      "type": "error"
    },
    {
      "inputs": [
        {
          "internalType": "address",
          "name": "account",
          "type": "address"
        }
      ],
      "name": "OwnableUnauthorizedAccount",
      "type": "error"
    },
    {
      "anonymous": false,
      "inputs": [
        {
          "indexed": false,
          "internalType": "uint64",
          "name": "version",
          "type": "uint64"
        }
      ],
      "name": "Initialized",
      "type": "event"
    },
    {
      "anonymous": false,
      "inputs": [
        {
          "indexed": true,
          "internalType": "address",
          "name": "previousOwner",
          "type": "address"
        },
        {
          "indexed": true,
          "internalType": "address",
          "name": "newOwner",
          "type": "address"
        }
      ],
      "name": "OwnershipTransferred",
      "type": "event"
    },
    {
      "inputs": [],
      "name": "battleground",
      "outputs": [
        {
          "internalType": "contract Battleground",
          "name": "",
          "type": "address"
        }
      ],
      "stateMutability": "view",
      "type": "function"
    },
    {
      "inputs": [
        {
          "internalType": "address",
          "name": "_battleground",
          "type": "address"
        },
        {
          "internalType": "address",
          "name": "_unitsContract",
          "type": "address"
        }
      ],
      "name": "initialize",
      "outputs": [],
      "stateMutability": "nonpayable",
      "type": "function"
    },
    {
      "inputs": [],
      "name": "owner",
      "outputs": [
        {
          "internalType": "address",
          "name": "",
          "type": "address"
        }
      ],
      "stateMutability": "view",
      "type": "function"
    },
    {
      "inputs": [],
      "name": "renounceOwnership",
      "outputs": [],
      "stateMutability": "nonpayable",
      "type": "function"
    },
    {
      "inputs": [
        {
          "internalType": "address",
          "name": "_battleground",
          "type": "address"
        }
      ],
      "name": "setBattleground",
      "outputs": [],
      "stateMutability": "nonpayable",
      "type": "function"
    },
    {
      "inputs": [
        {
          "internalType": "int16",
          "name": "x",
          "type": "int16"
        },
        {
          "internalType": "int16",
          "name": "y",
          "type": "int16"
        },
        {
          "internalType": "uint16",
          "name": "unitId",
          "type": "uint16"
        },
        {
          "internalType": "uint16",
          "name": "quantity",
          "type": "uint16"
        }
      ],
      "name": "trainUnits",
      "outputs": [],
      "stateMutability": "nonpayable",
      "type": "function"
    },
    {
      "inputs": [
        {
          "internalType": "address",
          "name": "newOwner",
          "type": "address"
        }
      ],
      "name": "transferOwnership",
      "outputs": [],
      "stateMutability": "nonpayable",
      "type": "function"
    },
    {
      "inputs": [],
      "name": "unitsContract",
      "outputs": [
        {
          "internalType": "contract IUnits",
          "name": "",
          "type": "address"
        }
      ],
      "stateMutability": "view",
      "type": "function"
    }
  ],
  "bytecode": "0x60808060405234601557610c7b908161001b8239f35b600080fdfe6080604052600436101561001257600080fd5b6000803560e01c8063485cc955146108b257806354b339961461088957806356ddea0a14610862578063715018a6146107f85780638da5cb5b146107c2578063d587d13e146100e4578063d5c20610146100a45763f2fde38b1461007557600080fd5b346100a15760203660031901126100a15761009e610091610a53565b610099610ba1565b610b2b565b80f35b80fd5b50346100a15760203660031901126100a1576100be610a53565b6100c6610ba1565b81546001600160a01b0319166001600160a01b039190911617815580f35b50346100a15760803660031901126100a157600435908160010b8092036100a157602435908160010b8092036100a1576044359161ffff83168093036107be576064359261ffff84168094036107ba57831561077557825460405163dcc01f0f60e01b8152600481018790526024810184905294908490869060449082906001600160a01b03165afa94851561076a578495610629575b5084516001600160a01b031633036105ef57600154604051636b35092d60e01b8152600481018490526001600160a01b0390911693908581602481885afa9081156105e4578691610547575b508596865b825181101561053a5761ffff60208301511661ffff6101eb8386610ae9565b5116146101fa576001016101cc565b50505090919293945060015b604051630209ec5160e61b81526004810185905290602082602481895afa91821561036a578792610519575b5081610511575b50156104cc5784602494604051958680926337d798fb60e01b82528760048301525afa9384156104c15785946103e8575b50845b8451811015610375576001600160a01b036102888287610ae9565b515187549116906020906001600160a01b03166064826102a8868b610ae9565b510151918a60405195869485936323b872dd60e01b8552336004860152602485015260448401525af190811561036a57879161033c575b50156102ed5760010161026d565b60405162461bcd60e51b815260206004820152602160248201527f436f6e737472756374696f6e20636f7374207472616e73666572206661696c656044820152601960fa1b6064820152608490fd5b61035d915060203d8111610363575b6103558183610aa0565b810190610b13565b386102df565b503d61034b565b6040513d89823e3d90fd5b50845492935084926001600160a01b031686813b156103e4578460849281956040519889968795633ae948d160e01b875260048701526024860152604485015260648401525af180156103d7576103c95780f35b6103d291610aa0565b818180f35b50604051903d90823e3d90fd5b8480fd5b9093503d8086833e6103fa8183610aa0565b8101906020818303126104b95780519067ffffffffffffffff82116104bd570181601f820112156104b95780519061043182610ad1565b9261043f6040519485610aa0565b82845260208085019360061b830101918183116104b557602001925b82841061046d5750505050923861026a565b6040848303126104b55760405161048381610a6e565b84516001600160a01b03811681036104b157918160409360209352828701518382015281520193019261045b565b8a80fd5b8880fd5b8580fd5b8680fd5b6040513d87823e3d90fd5b60405162461bcd60e51b815260206004820152601c60248201527f4275696c64696e672075706772616465206e6f7420616c6c6f776564000000006044820152606490fd5b905038610239565b61053391925060203d602011610363576103558183610aa0565b9038610232565b5050509091929394610206565b90503d8087833e6105588183610aa0565b8101906020818303126104bd5780519067ffffffffffffffff82116105e057019080601f830112156104bd57815161058f81610ad1565b9261059d6040519485610aa0565b81845260208085019260051b8201019283116104b557602001905b8282106105c857505050386101c7565b602080916105d584610ac2565b8152019101906105b8565b8780fd5b6040513d88823e3d90fd5b60405162461bcd60e51b81526020600482015260126024820152712737ba103a3432903a34b6329037bbb732b960711b6044820152606490fd5b9094503d8085833e61063b8183610aa0565b8101906020818303126103e45780519067ffffffffffffffff82116104b95701906060828203126103e457604051916060830183811067ffffffffffffffff8211176107565760405280516001600160a01b03811681036104bd5783526106a460208201610ac2565b602084015260408101519067ffffffffffffffff82116104bd570181601f820112156104b9578051906106d682610ad1565b926106e46040519485610aa0565b82845260208085019360061b830101918183116104b557602001925b82841061071757505050506040820152933861017b565b6040848303126104b5576020604091825161073181610a6e565b61073a87610ac2565b8152610747838801610ac2565b83820152815201930192610700565b634e487b7160e01b87526041600452602487fd5b6040513d86823e3d90fd5b60405162461bcd60e51b815260206004820152601f60248201527f5175616e74697479206d7573742062652067726561746572207468616e2030006044820152606490fd5b8280fd5b5080fd5b50346100a157806003193601126100a157600080516020610c06833981519152546040516001600160a01b039091168152602090f35b50346100a157806003193601126100a157610811610ba1565b600080516020610c0683398151915280546001600160a01b0319811690915581906001600160a01b03167f8be0079c531659141344cd1fd0a4f28419497f9722a3daafe3b4186f6b6457e08280a380f35b50346100a157806003193601126100a157546040516001600160a01b039091168152602090f35b50346100a157806003193601126100a1576001546040516001600160a01b039091168152602090f35b50346100a15760403660031901126100a1576108cc610a53565b6024356001600160a01b038116908190036107ba57600080516020610c26833981519152549160ff8360401c16159267ffffffffffffffff811680159081610a4b575b6001149081610a41575b159081610a38575b50610a295767ffffffffffffffff198116600117600080516020610c2683398151915255836109fc575b50610954610bd7565b61095c610bd7565b61096533610b2b565b60018060a01b03166bffffffffffffffffffffffff60a01b8454161783556bffffffffffffffffffffffff60a01b60015416176001556109a25780f35b68ff000000000000000019600080516020610c268339815191525416600080516020610c26833981519152557fc7f505b2f371ae2175ee4913f4499e1f2633a7b5936321eed1cdaeb6115181d2602060405160018152a180f35b68ffffffffffffffffff19166801000000000000000117600080516020610c26833981519152553861094b565b63f92ee8a960e01b8552600485fd5b90501538610921565b303b159150610919565b85915061090f565b600435906001600160a01b0382168203610a6957565b600080fd5b6040810190811067ffffffffffffffff821117610a8a57604052565b634e487b7160e01b600052604160045260246000fd5b90601f8019910116810190811067ffffffffffffffff821117610a8a57604052565b519061ffff82168203610a6957565b67ffffffffffffffff8111610a8a5760051b60200190565b8051821015610afd5760209160051b010190565b634e487b7160e01b600052603260045260246000fd5b90816020910312610a6957518015158103610a695790565b6001600160a01b03168015610b8b57600080516020610c0683398151915280546001600160a01b0319811683179091556001600160a01b03167f8be0079c531659141344cd1fd0a4f28419497f9722a3daafe3b4186f6b6457e0600080a3565b631e4fbdf760e01b600052600060045260246000fd5b600080516020610c06833981519152546001600160a01b03163303610bc257565b63118cdaa760e01b6000523360045260246000fd5b60ff600080516020610c268339815191525460401c1615610bf457565b631afcd79f60e31b60005260046000fdfe9016d09d72d40fdae2fd8ceac6b6234c7706214fd39c1cd1e609a0528c199300f0c57e16840df040f15088dc2f81fe391c3923bec73e23a9662efc9c229c6a00a264697066735822122086a6ffd01128f393c24f6b66a30792b34799fb58b287885ccd16e9b8f92b89ba64736f6c634300081c0033",
  "linkReferences": {},
  "deployedLinkReferences": {}
}