{
  "_format": "hh-sol-artifact-1",
  "contractName": "Train",
  "sourceName": "contracts/commands/Train.sol",
  "abi": [
    {
      "inputs": [],
      "name": "InvalidInitialization",
      "type": "error"
    },
    {
      "inputs": [],
      "name": "NotInitializing",
      "type": "error"
    },
    {
      "inputs": [
        {
          "internalType": "address",
          "name": "owner",
          "type": "address"
        }
      ],
      "name": "OwnableInvalidOwner",
      "type": "error"
    },
    {
      "inputs": [
        {
          "internalType": "address",
          "name": "account",
          "type": "address"
        }
      ],
      "name": "OwnableUnauthorizedAccount",
      "type": "error"
    },
    {
      "inputs": [],
      "name": "ReentrancyGuardReentrantCall",
      "type": "error"
    },
    {
      "anonymous": false,
      "inputs": [
        {
          "indexed": false,
          "internalType": "uint64",
          "name": "version",
          "type": "uint64"
        }
      ],
      "name": "Initialized",
      "type": "event"
    },
    {
      "anonymous": false,
      "inputs": [
        {
          "indexed": true,
          "internalType": "address",
          "name": "previousOwner",
          "type": "address"
        },
        {
          "indexed": true,
          "internalType": "address",
          "name": "newOwner",
          "type": "address"
        }
      ],
      "name": "OwnershipTransferred",
      "type": "event"
    },
    {
      "inputs": [],
      "name": "battleground",
      "outputs": [
        {
          "internalType": "contract IBattleground",
          "name": "",
          "type": "address"
        }
      ],
      "stateMutability": "view",
      "type": "function"
    },
    {
      "inputs": [
        {
          "internalType": "address",
          "name": "_battleground",
          "type": "address"
        },
        {
          "internalType": "address",
          "name": "_lootVault",
          "type": "address"
        },
        {
          "internalType": "address",
          "name": "_unitManager",
          "type": "address"
        }
      ],
      "name": "initialize",
      "outputs": [],
      "stateMutability": "nonpayable",
      "type": "function"
    },
    {
      "inputs": [],
      "name": "lootVault",
      "outputs": [
        {
          "internalType": "contract ILootVault",
          "name": "",
          "type": "address"
        }
      ],
      "stateMutability": "view",
      "type": "function"
    },
    {
      "inputs": [],
      "name": "owner",
      "outputs": [
        {
          "internalType": "address",
          "name": "",
          "type": "address"
        }
      ],
      "stateMutability": "view",
      "type": "function"
    },
    {
      "inputs": [],
      "name": "renounceOwnership",
      "outputs": [],
      "stateMutability": "nonpayable",
      "type": "function"
    },
    {
      "inputs": [
        {
          "components": [
            {
              "internalType": "int16",
              "name": "x",
              "type": "int16"
            },
            {
              "internalType": "int16",
              "name": "y",
              "type": "int16"
            }
          ],
          "internalType": "struct IBattleground.Coordinates",
          "name": "coordinates",
          "type": "tuple"
        },
        {
          "components": [
            {
              "internalType": "uint16",
              "name": "unitId",
              "type": "uint16"
            },
            {
              "internalType": "uint16",
              "name": "quantity",
              "type": "uint16"
            }
          ],
          "internalType": "struct UnitQuantityLib.UnitQuantity",
          "name": "unitQuantity",
          "type": "tuple"
        }
      ],
      "name": "train",
      "outputs": [],
      "stateMutability": "nonpayable",
      "type": "function"
    },
    {
      "inputs": [
        {
          "internalType": "address",
          "name": "newOwner",
          "type": "address"
        }
      ],
      "name": "transferOwnership",
      "outputs": [],
      "stateMutability": "nonpayable",
      "type": "function"
    },
    {
      "inputs": [],
      "name": "unitManager",
      "outputs": [
        {
          "internalType": "contract IUnitManager",
          "name": "",
          "type": "address"
        }
      ],
      "stateMutability": "view",
      "type": "function"
    },
    {
      "inputs": [
        {
          "internalType": "address",
          "name": "_battleground",
          "type": "address"
        }
      ],
      "name": "updateBattleground",
      "outputs": [],
      "stateMutability": "nonpayable",
      "type": "function"
    },
    {
      "inputs": [
        {
          "internalType": "address",
          "name": "_lootVault",
          "type": "address"
        }
      ],
      "name": "updateLootVault",
      "outputs": [],
      "stateMutability": "nonpayable",
      "type": "function"
    },
    {
      "inputs": [
        {
          "internalType": "address",
          "name": "_unitManager",
          "type": "address"
        }
      ],
      "name": "updateUnitManager",
      "outputs": [],
      "stateMutability": "nonpayable",
      "type": "function"
    }
  ],
  "bytecode": "0x60808060405234601557611275908161001b8239f35b600080fdfe608080604052600436101561001357600080fd5b60003560e01c90816324a3e96414610ee65750806338afa82114610ea35780633dd9e09f14610e7a578063412f108014610e3757806356ddea0a14610e0e578063715018a614610da4578063808167f014610d615780638da5cb5b14610d2b578063c0c53b8b14610b49578063e20b29db146100c85763f2fde38b1461009857600080fd5b346100c35760203660031901126100c3576100c16100b4610f0a565b6100bc61116e565b6110f8565b005b600080fd5b346100c3573660031901608081126100c3576040136100c3576040516100ed81610f20565b6004358060010b81036100c35781526024358060010b81036100c357602082015260403660431901126100c35760405161012681610f20565b60443561ffff811681036100c357815260643561ffff811681036100c3576020820190815260026000805160206112008339815191525414610b385760026000805160206112008339815191525561ffff81511615610af3576000805460405163f13ca34360e01b81528551600190810b60048301526020870151900b60248201529190829060449082906001600160a01b03165afa908115610400576000916109bf575b5080519091906001600160a01b031633036109855760018060a01b036002541692600061ffff82511660246040518097819363fe07e59d60e01b835260048301525afa938415610400576000946107c3575b506101208401511515806107b6575b6102359061108a565b60009360005b602082015180518210156107a65761ffff61025d838260208a015116936110ce565b51161461026c5760010161023b565b5060e0919293945061027e600161108a565b019283519460005b8551518110156102d85761ffff8551169060606102a3828a6110ce565b51019182518181029181830414901517156102c2576001925201610286565b634e487b7160e01b600052601160045260246000fd5b5060015486926001600160a01b03909116918560005b85518110156104eb5761030a61030482886110ce565b516111a4565b60028110156104d55761040c57600060206001600160a01b038161032e858b6110ce565b5101511660646060610340868c6110ce565b51015160405194859384926323b872dd60e01b84523360048501528c602485015260448401525af1908115610400576000916103c4575b5015610387576001905b016102ee565b60405162461bcd60e51b8152602060048201526015602482015274151bdad95b881d1c985b9cd9995c8819985a5b1959605a1b6044820152606490fd5b906020823d82116103f8575b816103dd60209383610f6c565b810103126103f557506103ef9061107d565b88610377565b80fd5b3d91506103d0565b6040513d6000823e3d90fd5b61041961030482886110ce565b60028110156104d557600114610432575b600190610381565b6001600160a01b03602061044683896110ce565b5101511690604061045782896110ce565b5101516060610466838a6110ce565b510151833b156100c35760c4600092836040519687948593637921219560e11b85523360048601528d60248601526044850152606484015260a060848401528160a48401525af1918215610400576001926104c4575b50905061042a565b60006104cf91610f6c565b886104bc565b634e487b7160e01b600052602160045260246000fd5b50856000805b604086018051805183101561055d5761050d8361ffff926110ce565b51511661ffff85511614610525575b506001016104f1565b909150602061053b8361ffff87511693516110ce565b51019061ffff8251160161ffff81116102c25761ffff1690526001908161051c565b86888686156106da575b506000546001600160a01b031690813b156100c35760405163852df5b360e01b81528351600190810b600483015260209094015190930b602484015282906060604483015280516001600160a01b0316606483015260208082015161ffff1660848401526040820151608060a4850152805160e4850181905261010485019392919091019060005b8181106106ae5750505060600151906063198382030160c48401526020808351928381520192019060005b81811061065f575050509181600081819503925af180156104005761064e575b600160008051602061120083398151915255005b600061065991610f6c565b8061063a565b918094509290925180519060028210156104d55782606060809260209460019652858060a01b03858201511685840152604081015160408401520151606082015201940191019185939261061a565b8251805161ffff90811687526020918201511681870152889650604090950194909201916001016105ef565b9190604081019182515191600183018093116102c2576106f983610fb0565b926107076040519485610f6c565b808452610716601f1991610fb0565b0160005b81811061078157505060005b8451805182101561075b579061073e816001936110ce565b5161074982876110ce565b5261075481866110ce565b5001610726565b5050929093610779908251519061077282866110ce565b52836110ce565b505282610567565b60209060405161079081610f20565b600081526000838201528282880101520161071a565b505061027e60e09293949561108a565b50835161ffff161561022c565b9390933d8083833e6107d58183610f6c565b81019060208183031261097d578051906001600160401b0382116109815701906101408282031261097d576040519261014084018481106001600160401b038211176109695760405261082783610fa1565b845260208301516001600160401b03811161094957830182601f820112156109495780519061085582610fb0565b916108636040519384610f6c565b80835260208084019160051b8301019185831161096557602001905b82821061094d57505050602085015261089a60408401610fa1565b60408501526108ab60608401610fa1565b60608501526108bc6080840161106f565b60808501526108cd60a0840161106f565b60a08501526108de60c08401610fa1565b60c085015260e08301516001600160401b0381116109495782610902918501610fc7565b60e0850152610100830151906001600160401b0382116103f55750916109306101209261093c948301610fc7565b6101008501520161107d565b610120820152928561021d565b5080fd5b6020809161095a84610fa1565b81520191019061087f565b8480fd5b634e487b7160e01b82526041600452602482fd5b8280fd5b8380fd5b60405162461bcd60e51b81526020600482015260126024820152712737ba103a3432903a34b6329037bbb732b960711b6044820152606490fd5b3d8083833e6109ce8183610f6c565b81019060208183031261097d578051906001600160401b0382116109815701916080838303126103f55760405192610a0584610f51565b610a0e81610f8d565b8452610a1c60208201610fa1565b602085015260408101516001600160401b03811161097d57810183601f8201121561097d578051610a4c81610fb0565b91610a5a6040519384610f6c565b81835260208084019260061b82010190868211610aef57602001915b818310610ab05750505060408501526060810151916001600160401b0383116103f55750610aa5929101610fc7565b6060820152846101cb565b604083880312610aef5760206040918251610aca81610f20565b610ad386610fa1565b8152610ae0838701610fa1565b83820152815201920191610a76565b8580fd5b60405162461bcd60e51b815260206004820152601f60248201527f5175616e74697479206d7573742062652067726561746572207468616e2030006044820152606490fd5b633ee5aeb560e01b60005260046000fd5b346100c35760603660031901126100c357610b62610f0a565b6024356001600160a01b038116908190036100c3576044356001600160a01b03811691908290036100c357600080516020611220833981519152549260ff8460401c1615936001600160401b03811680159081610d23575b6001149081610d19575b159081610d10575b50610cff5767ffffffffffffffff1981166001176000805160206112208339815191525584610cd2575b50610bff6111b1565b610c076111b1565b610c10336110f8565b610c186111b1565b610c206111b1565b60016000805160206112008339815191525560018060a01b03166001600160601b0360a01b60005416176000556001600160601b0360a01b60015416176001556001600160601b0360a01b6002541617600255610c7957005b68ff0000000000000000196000805160206112208339815191525416600080516020611220833981519152557fc7f505b2f371ae2175ee4913f4499e1f2633a7b5936321eed1cdaeb6115181d2602060405160018152a1005b68ffffffffffffffffff191668010000000000000001176000805160206112208339815191525584610bf6565b63f92ee8a960e01b60005260046000fd5b90501586610bcc565b303b159150610bc4565b869150610bba565b346100c35760003660031901126100c3576000805160206111e0833981519152546040516001600160a01b039091168152602090f35b346100c35760203660031901126100c357610d7a610f0a565b610d8261116e565b600280546001600160a01b0319166001600160a01b0392909216919091179055005b346100c35760003660031901126100c357610dbd61116e565b6000805160206111e083398151915280546001600160a01b031981169091556000906001600160a01b03167f8be0079c531659141344cd1fd0a4f28419497f9722a3daafe3b4186f6b6457e08280a3005b346100c35760003660031901126100c3576000546040516001600160a01b039091168152602090f35b346100c35760203660031901126100c357610e50610f0a565b610e5861116e565b600180546001600160a01b0319166001600160a01b0392909216919091179055005b346100c35760003660031901126100c3576002546040516001600160a01b039091168152602090f35b346100c35760203660031901126100c357610ebc610f0a565b610ec461116e565b600080546001600160a01b0319166001600160a01b0392909216919091179055005b346100c35760003660031901126100c3576001546001600160a01b03168152602090f35b600435906001600160a01b03821682036100c357565b604081019081106001600160401b03821117610f3b57604052565b634e487b7160e01b600052604160045260246000fd5b608081019081106001600160401b03821117610f3b57604052565b90601f801991011681019081106001600160401b03821117610f3b57604052565b51906001600160a01b03821682036100c357565b519061ffff821682036100c357565b6001600160401b038111610f3b5760051b60200190565b81601f820112156100c357805190610fde82610fb0565b92610fec6040519485610f6c565b82845260208085019360071b830101918183116100c357602001925b828410611016575050505090565b6080848303126100c3576040519061102d82610f51565b84519060028210156100c357826020926080945261104c838801610f8d565b838201526040870151604082015260608701516060820152815201930192611008565b519060ff821682036100c357565b519081151582036100c357565b1561109157565b60405162461bcd60e51b8152602060048201526015602482015274155b9a5d0818d85b89dd081899481d1c985a5b9959605a1b6044820152606490fd5b80518210156110e25760209160051b010190565b634e487b7160e01b600052603260045260246000fd5b6001600160a01b03168015611158576000805160206111e083398151915280546001600160a01b0319811683179091556001600160a01b03167f8be0079c531659141344cd1fd0a4f28419497f9722a3daafe3b4186f6b6457e0600080a3565b631e4fbdf760e01b600052600060045260246000fd5b6000805160206111e0833981519152546001600160a01b0316330361118f57565b63118cdaa760e01b6000523360045260246000fd5b5160028110156104d55790565b60ff6000805160206112208339815191525460401c16156111ce57565b631afcd79f60e31b60005260046000fdfe9016d09d72d40fdae2fd8ceac6b6234c7706214fd39c1cd1e609a0528c1993009b779b17422d0df92223018b32b4d1fa46e071723d6817e2486d003becc55f00f0c57e16840df040f15088dc2f81fe391c3923bec73e23a9662efc9c229c6a00a264697066735822122088730ea139cff0eeaeaf40ff9c053c271dd80d3692b634609fd9f2e1569e8c5e64736f6c634300081c0033",
  "linkReferences": {},
  "deployedLinkReferences": {}
}