{
  "_format": "hh-sol-artifact-1",
  "contractName": "UpgradeBuilding",
  "sourceName": "contracts/commands/UpgradeBuilding.sol",
  "abi": [
    {
      "inputs": [],
      "name": "InvalidInitialization",
      "type": "error"
    },
    {
      "inputs": [],
      "name": "NotInitializing",
      "type": "error"
    },
    {
      "inputs": [
        {
          "internalType": "address",
          "name": "owner",
          "type": "address"
        }
      ],
      "name": "OwnableInvalidOwner",
      "type": "error"
    },
    {
      "inputs": [
        {
          "internalType": "address",
          "name": "account",
          "type": "address"
        }
      ],
      "name": "OwnableUnauthorizedAccount",
      "type": "error"
    },
    {
      "inputs": [],
      "name": "ReentrancyGuardReentrantCall",
      "type": "error"
    },
    {
      "anonymous": false,
      "inputs": [
        {
          "indexed": false,
          "internalType": "uint64",
          "name": "version",
          "type": "uint64"
        }
      ],
      "name": "Initialized",
      "type": "event"
    },
    {
      "anonymous": false,
      "inputs": [
        {
          "indexed": true,
          "internalType": "address",
          "name": "previousOwner",
          "type": "address"
        },
        {
          "indexed": true,
          "internalType": "address",
          "name": "newOwner",
          "type": "address"
        }
      ],
      "name": "OwnershipTransferred",
      "type": "event"
    },
    {
      "inputs": [],
      "name": "battleground",
      "outputs": [
        {
          "internalType": "contract IBattleground",
          "name": "",
          "type": "address"
        }
      ],
      "stateMutability": "view",
      "type": "function"
    },
    {
      "inputs": [],
      "name": "buildingManager",
      "outputs": [
        {
          "internalType": "contract IBuildingManager",
          "name": "",
          "type": "address"
        }
      ],
      "stateMutability": "view",
      "type": "function"
    },
    {
      "inputs": [
        {
          "internalType": "address",
          "name": "_lootVault",
          "type": "address"
        },
        {
          "internalType": "address",
          "name": "_buildingManager",
          "type": "address"
        },
        {
          "internalType": "address",
          "name": "_battleground",
          "type": "address"
        }
      ],
      "name": "initialize",
      "outputs": [],
      "stateMutability": "nonpayable",
      "type": "function"
    },
    {
      "inputs": [],
      "name": "lootVault",
      "outputs": [
        {
          "internalType": "contract ILootVault",
          "name": "",
          "type": "address"
        }
      ],
      "stateMutability": "view",
      "type": "function"
    },
    {
      "inputs": [],
      "name": "owner",
      "outputs": [
        {
          "internalType": "address",
          "name": "",
          "type": "address"
        }
      ],
      "stateMutability": "view",
      "type": "function"
    },
    {
      "inputs": [],
      "name": "renounceOwnership",
      "outputs": [],
      "stateMutability": "nonpayable",
      "type": "function"
    },
    {
      "inputs": [
        {
          "internalType": "address",
          "name": "newOwner",
          "type": "address"
        }
      ],
      "name": "transferOwnership",
      "outputs": [],
      "stateMutability": "nonpayable",
      "type": "function"
    },
    {
      "inputs": [
        {
          "internalType": "address",
          "name": "_battleground",
          "type": "address"
        }
      ],
      "name": "updateBattleground",
      "outputs": [],
      "stateMutability": "nonpayable",
      "type": "function"
    },
    {
      "inputs": [
        {
          "internalType": "address",
          "name": "_buildingManager",
          "type": "address"
        }
      ],
      "name": "updateBuildingManager",
      "outputs": [],
      "stateMutability": "nonpayable",
      "type": "function"
    },
    {
      "inputs": [
        {
          "internalType": "address",
          "name": "_lootVault",
          "type": "address"
        }
      ],
      "name": "updateLootVault",
      "outputs": [],
      "stateMutability": "nonpayable",
      "type": "function"
    },
    {
      "inputs": [
        {
          "components": [
            {
              "internalType": "int16",
              "name": "x",
              "type": "int16"
            },
            {
              "internalType": "int16",
              "name": "y",
              "type": "int16"
            }
          ],
          "internalType": "struct IBattleground.Coordinates",
          "name": "coordinates",
          "type": "tuple"
        },
        {
          "internalType": "uint16",
          "name": "buildingId",
          "type": "uint16"
        }
      ],
      "name": "upgradeBuilding",
      "outputs": [],
      "stateMutability": "nonpayable",
      "type": "function"
    }
  ],
  "bytecode": "0x60808060405234601557610f52908161001b8239f35b600080fdfe608080604052600436101561001357600080fd5b60003560e01c90816324a3e96414610c11575080632c5e839c1461046657806338afa82114610423578063412f1080146103e057806356ddea0a146103b7578063591034621461037457806360e4c3931461034b578063715018a6146102e15780638da5cb5b146102ab578063c0c53b8b146100c85763f2fde38b1461009857600080fd5b346100c35760203660031901126100c3576100c16100b4610ca5565b6100bc610e58565b610dab565b005b600080fd5b346100c35760603660031901126100c3576100e1610ca5565b6024356001600160a01b038116908190036100c3576044356001600160a01b03811691908290036100c357600080516020610efd833981519152549260ff8460401c16159367ffffffffffffffff8116801590816102a3575b6001149081610299575b159081610290575b5061027f5767ffffffffffffffff198116600117600080516020610efd8339815191525584610252575b5061017f610e8e565b610187610e8e565b61019033610dab565b610198610e8e565b6101a0610e8e565b6001600080516020610edd8339815191525560018060a01b03166001600160601b0360a01b60005416176000556001600160601b0360a01b60025416176002556001600160601b0360a01b60015416176001556101f957005b68ff000000000000000019600080516020610efd8339815191525416600080516020610efd833981519152557fc7f505b2f371ae2175ee4913f4499e1f2633a7b5936321eed1cdaeb6115181d2602060405160018152a1005b68ffffffffffffffffff19166801000000000000000117600080516020610efd8339815191525584610176565b63f92ee8a960e01b60005260046000fd5b9050158661014c565b303b159150610144565b86915061013a565b346100c35760003660031901126100c357600080516020610ebd833981519152546040516001600160a01b039091168152602090f35b346100c35760003660031901126100c3576102fa610e58565b600080516020610ebd83398151915280546001600160a01b031981169091556000906001600160a01b03167f8be0079c531659141344cd1fd0a4f28419497f9722a3daafe3b4186f6b6457e08280a3005b346100c35760003660031901126100c3576002546040516001600160a01b039091168152602090f35b346100c35760203660031901126100c35761038d610ca5565b610395610e58565b600280546001600160a01b0319166001600160a01b0392909216919091179055005b346100c35760003660031901126100c3576001546040516001600160a01b039091168152602090f35b346100c35760203660031901126100c3576103f9610ca5565b610401610e58565b600080546001600160a01b0319166001600160a01b0392909216919091179055005b346100c35760203660031901126100c35761043c610ca5565b610444610e58565b600180546001600160a01b0319166001600160a01b0392909216919091179055005b346100c3573660031901606081126100c3576040136100c35760405161048b81610c35565b6004358060010b81036100c35781526024358060010b81036100c35760208201526044359061ffff82168092036100c3576002600080516020610edd8339815191525414610c00576002600080516020610edd833981519152556001805460405163f13ca34360e01b81528351830b6004820152602084015190920b6024830152600090829060449082906001600160a01b03165afa9081156106b757600091610ac9575b5080516001600160a01b03163303610a745760025460405163e667790760e01b81526004810185905290600090829060249082906001600160a01b03165afa9081156106b757600091610973575b5060c081015115158061095d575b156109185760a001519160018060a01b03600054169160005b84518110156107a2576105c16105bb8287610e21565b51610e4b565b600281101561078c576106c357600060206001600160a01b03816105e5858a610e21565b51015116606460606105f7868b610e21565b51015160405194859384926323b872dd60e01b84523360048501528b602485015260448401525af19081156106b75760009161067b575b501561063e576001905b016105a5565b60405162461bcd60e51b8152602060048201526015602482015274151bdad95b881d1c985b9cd9995c8819985a5b1959605a1b6044820152606490fd5b906020823d82116106af575b8161069460209383610c83565b810103126106ac57506106a690610d9e565b8761062e565b80fd5b3d9150610687565b6040513d6000823e3d90fd5b6106d06105bb8287610e21565b600281101561078c576001146106e9575b600190610638565b6001600160a01b0360206106fd8388610e21565b5101511690604061070e8288610e21565b510151606061071d8389610e21565b510151833b156100c35760c4600092836040519687948593637921219560e11b85523360048601528c60248601526044850152606484015260a060848401528160a48401525af19182156106b75760019261077b575b5090506106e1565b600061078691610c83565b87610773565b634e487b7160e01b600052602160045260246000fd5b50602081018581526001546001600160a01b031691823b156100c35760405163852df5b360e01b81528451600190810b600483015260209095015190940b60248501528391906060604484015280516001600160a01b03166064840152905161ffff1660848301526040810151608060a4840152805160e48401819052610104840192916020019060005b8181106108ec5750505060600151906063198382030160c48401526020808351928381520192019060005b81811061089d575050509181600081819503925af180156106b75761088c575b6001600080516020610edd83398151915255005b600061089791610c83565b80610878565b9180945092909251805190600282101561078c5782606060809260209460019652858060a01b038582015116858401526040810151604084015201516060820152019401910191859392610858565b8251805161ffff908116875260209182015116818701528896506040909501949092019160010161082d565b60405162461bcd60e51b815260206004820152601c60248201527f4275696c64696e672075706772616465206e6f7420616c6c6f776564000000006044820152606490fd5b5061ffff81511661ffff6020840151161461058c565b3d8083833e6109828183610c83565b810190602081830312610a6c5780519067ffffffffffffffff8211610a7057019060e082820312610a6c576040519260e0840184811067ffffffffffffffff821117610a58576040526109d483610ccf565b84526109e260208401610d9e565b60208501526109f360408401610ccf565b6040850152610a0460608401610ccf565b6060850152610a1560808401610ccf565b608085015260a08301519067ffffffffffffffff82116106ac575091610a4260c092610a4d948301610cf6565b60a085015201610d9e565b60c08201528461057e565b634e487b7160e01b82526041600452602482fd5b8280fd5b8380fd5b60405162461bcd60e51b815260206004820152602760248201527f4f6e6c792074696c65206f63637570616e742063616e2075706772616465206260448201526675696c64696e6760c81b6064820152608490fd5b3d8083833e610ad88183610c83565b810190602081830312610a6c5780519067ffffffffffffffff8211610a705701916080838303126106ac5760405192610b1084610c67565b610b1981610cbb565b8452610b2760208201610ccf565b6020850152604081015167ffffffffffffffff8111610a6c57810183601f82011215610a6c578051610b5881610cde565b91610b666040519384610c83565b81835260208084019260061b82010190868211610bfc57602001915b818310610bbd57505050604085015260608101519167ffffffffffffffff83116106ac5750610bb2929101610cf6565b606082015283610530565b604083880312610bfc5760206040918251610bd781610c35565b610be086610ccf565b8152610bed838701610ccf565b83820152815201920191610b82565b8580fd5b633ee5aeb560e01b60005260046000fd5b346100c35760003660031901126100c3576000546001600160a01b03168152602090f35b6040810190811067ffffffffffffffff821117610c5157604052565b634e487b7160e01b600052604160045260246000fd5b6080810190811067ffffffffffffffff821117610c5157604052565b90601f8019910116810190811067ffffffffffffffff821117610c5157604052565b600435906001600160a01b03821682036100c357565b51906001600160a01b03821682036100c357565b519061ffff821682036100c357565b67ffffffffffffffff8111610c515760051b60200190565b81601f820112156100c357805190610d0d82610cde565b92610d1b6040519485610c83565b82845260208085019360071b830101918183116100c357602001925b828410610d45575050505090565b6080848303126100c35760405190610d5c82610c67565b84519060028210156100c3578260209260809452610d7b838801610cbb565b838201526040870151604082015260608701516060820152815201930192610d37565b519081151582036100c357565b6001600160a01b03168015610e0b57600080516020610ebd83398151915280546001600160a01b0319811683179091556001600160a01b03167f8be0079c531659141344cd1fd0a4f28419497f9722a3daafe3b4186f6b6457e0600080a3565b631e4fbdf760e01b600052600060045260246000fd5b8051821015610e355760209160051b010190565b634e487b7160e01b600052603260045260246000fd5b51600281101561078c5790565b600080516020610ebd833981519152546001600160a01b03163303610e7957565b63118cdaa760e01b6000523360045260246000fd5b60ff600080516020610efd8339815191525460401c1615610eab57565b631afcd79f60e31b60005260046000fdfe9016d09d72d40fdae2fd8ceac6b6234c7706214fd39c1cd1e609a0528c1993009b779b17422d0df92223018b32b4d1fa46e071723d6817e2486d003becc55f00f0c57e16840df040f15088dc2f81fe391c3923bec73e23a9662efc9c229c6a00a2646970667358221220c1d6885a96da4f370013eba3b423741f475c0c08c90f3fc3a9a00268f74661cb64736f6c634300081c0033",
  "linkReferences": {},
  "deployedLinkReferences": {}
}