{
  "_format": "hh-sol-artifact-1",
  "contractName": "UpgradeUnit",
  "sourceName": "contracts/commands/UpgradeUnit.sol",
  "abi": [
    {
      "inputs": [],
      "name": "InvalidInitialization",
      "type": "error"
    },
    {
      "inputs": [],
      "name": "NotInitializing",
      "type": "error"
    },
    {
      "inputs": [
        {
          "internalType": "address",
          "name": "owner",
          "type": "address"
        }
      ],
      "name": "OwnableInvalidOwner",
      "type": "error"
    },
    {
      "inputs": [
        {
          "internalType": "address",
          "name": "account",
          "type": "address"
        }
      ],
      "name": "OwnableUnauthorizedAccount",
      "type": "error"
    },
    {
      "inputs": [],
      "name": "ReentrancyGuardReentrantCall",
      "type": "error"
    },
    {
      "anonymous": false,
      "inputs": [
        {
          "indexed": false,
          "internalType": "uint64",
          "name": "version",
          "type": "uint64"
        }
      ],
      "name": "Initialized",
      "type": "event"
    },
    {
      "anonymous": false,
      "inputs": [
        {
          "indexed": true,
          "internalType": "address",
          "name": "previousOwner",
          "type": "address"
        },
        {
          "indexed": true,
          "internalType": "address",
          "name": "newOwner",
          "type": "address"
        }
      ],
      "name": "OwnershipTransferred",
      "type": "event"
    },
    {
      "inputs": [],
      "name": "battleground",
      "outputs": [
        {
          "internalType": "contract IBattleground",
          "name": "",
          "type": "address"
        }
      ],
      "stateMutability": "view",
      "type": "function"
    },
    {
      "inputs": [
        {
          "internalType": "address",
          "name": "_lootVault",
          "type": "address"
        },
        {
          "internalType": "address",
          "name": "_unitManager",
          "type": "address"
        },
        {
          "internalType": "address",
          "name": "_battleground",
          "type": "address"
        }
      ],
      "name": "initialize",
      "outputs": [],
      "stateMutability": "nonpayable",
      "type": "function"
    },
    {
      "inputs": [],
      "name": "lootVault",
      "outputs": [
        {
          "internalType": "contract ILootVault",
          "name": "",
          "type": "address"
        }
      ],
      "stateMutability": "view",
      "type": "function"
    },
    {
      "inputs": [],
      "name": "owner",
      "outputs": [
        {
          "internalType": "address",
          "name": "",
          "type": "address"
        }
      ],
      "stateMutability": "view",
      "type": "function"
    },
    {
      "inputs": [],
      "name": "renounceOwnership",
      "outputs": [],
      "stateMutability": "nonpayable",
      "type": "function"
    },
    {
      "inputs": [
        {
          "internalType": "address",
          "name": "newOwner",
          "type": "address"
        }
      ],
      "name": "transferOwnership",
      "outputs": [],
      "stateMutability": "nonpayable",
      "type": "function"
    },
    {
      "inputs": [],
      "name": "unitManager",
      "outputs": [
        {
          "internalType": "contract IUnitManager",
          "name": "",
          "type": "address"
        }
      ],
      "stateMutability": "view",
      "type": "function"
    },
    {
      "inputs": [
        {
          "internalType": "address",
          "name": "_battleground",
          "type": "address"
        }
      ],
      "name": "updateBattleground",
      "outputs": [],
      "stateMutability": "nonpayable",
      "type": "function"
    },
    {
      "inputs": [
        {
          "internalType": "address",
          "name": "_lootVault",
          "type": "address"
        }
      ],
      "name": "updateLootVault",
      "outputs": [],
      "stateMutability": "nonpayable",
      "type": "function"
    },
    {
      "inputs": [
        {
          "internalType": "address",
          "name": "_unitManager",
          "type": "address"
        }
      ],
      "name": "updateUnitManager",
      "outputs": [],
      "stateMutability": "nonpayable",
      "type": "function"
    },
    {
      "inputs": [
        {
          "components": [
            {
              "internalType": "int16",
              "name": "x",
              "type": "int16"
            },
            {
              "internalType": "int16",
              "name": "y",
              "type": "int16"
            }
          ],
          "internalType": "struct IBattleground.Coordinates",
          "name": "coordinates",
          "type": "tuple"
        },
        {
          "components": [
            {
              "internalType": "uint16",
              "name": "unitId",
              "type": "uint16"
            },
            {
              "internalType": "uint16",
              "name": "quantity",
              "type": "uint16"
            }
          ],
          "internalType": "struct UnitQuantityLib.UnitQuantity",
          "name": "unitQuantity",
          "type": "tuple"
        }
      ],
      "name": "upgradeUnit",
      "outputs": [],
      "stateMutability": "nonpayable",
      "type": "function"
    }
  ],
  "bytecode": "0x60808060405234601557611322908161001b8239f35b600080fdfe608080604052600436101561001357600080fd5b60003560e01c90816324a3e96414610fd75750806338afa82114610f945780633dd9e09f14610f6b578063412f108014610f2857806356ddea0a14610eff578063715018a614610e9557806374e0835514610323578063808167f0146102e05780638da5cb5b146102aa578063c0c53b8b146100c85763f2fde38b1461009857600080fd5b346100c35760203660031901126100c3576100c16100b4610ffb565b6100bc61121b565b6111a5565b005b600080fd5b346100c35760603660031901126100c3576100e1610ffb565b6024356001600160a01b038116908190036100c3576044356001600160a01b03811691908290036100c3576000805160206112cd833981519152549260ff8460401c1615936001600160401b038116801590816102a2575b6001149081610298575b15908161028f575b5061027e5767ffffffffffffffff1981166001176000805160206112cd8339815191525584610251575b5061017e61125e565b61018661125e565b61018f336111a5565b61019761125e565b61019f61125e565b60016000805160206112ad8339815191525560018060a01b03166001600160601b0360a01b60005416176000556001600160601b0360a01b60025416176002556001600160601b0360a01b60015416176001556101f857005b68ff0000000000000000196000805160206112cd83398151915254166000805160206112cd833981519152557fc7f505b2f371ae2175ee4913f4499e1f2633a7b5936321eed1cdaeb6115181d2602060405160018152a1005b68ffffffffffffffffff191668010000000000000001176000805160206112cd8339815191525584610175565b63f92ee8a960e01b60005260046000fd5b9050158661014b565b303b159150610143565b869150610139565b346100c35760003660031901126100c35760008051602061128d833981519152546040516001600160a01b039091168152602090f35b346100c35760203660031901126100c3576102f9610ffb565b61030161121b565b600280546001600160a01b0319166001600160a01b0392909216919091179055005b346100c3573660031901608081126100c3576040136100c35760405161034881611011565b6004358060010b81036100c35781526024358060010b81036100c357602082015260403660431901126100c35760405161038181611011565b60443561ffff811681036100c357815260643561ffff811681036100c3576020820190815260026000805160206112ad8339815191525414610e845760026000805160206112ad8339815191525561ffff81511615610e3f576001805460405163f13ca34360e01b81528551830b6004820152602086015190920b6024830152600090829060449082906001600160a01b03165afa90811561069757600091610d0b575b5080519091906001600160a01b03163303610cd15760018060a01b036002541692600061ffff82511660246040518097819363fe07e59d60e01b835260048301525afa93841561069757600094610b0f575b5061012084015115610ad25760009360005b6040850180518051831015610ac6576104a58361ffff9261117b565b51511661ffff845116146104bc5750600101610489565b91929394955061ffff60206104d283855161117b565b5101511661ffff86511611610a82576104f460209161ffff875116935161117b565b51019061ffff8251160361ffff811161055b5761ffff16905260015b15610a3d5760e0019283519460005b8551518110156105715761ffff85511690606061053c828a61117b565b510191825181810291818304149015171561055b57600192520161051f565b634e487b7160e01b600052601160045260246000fd5b508591849160018060a01b03600054169260005b8551811015610782576105a161059b828861117b565b51611251565b600281101561076c576106a357600060206001600160a01b03816105c5858b61117b565b51015116606460606105d7868c61117b565b51015160405194859384926323b872dd60e01b84523360048501528c602485015260448401525af19081156106975760009161065b575b501561061e576001905b01610585565b60405162461bcd60e51b8152602060048201526015602482015274151bdad95b881d1c985b9cd9995c8819985a5b1959605a1b6044820152606490fd5b906020823d821161068f575b816106746020938361105d565b8101031261068c57506106869061116e565b8861060e565b80fd5b3d9150610667565b6040513d6000823e3d90fd5b6106b061059b828861117b565b600281101561076c576001146106c9575b600190610618565b6001600160a01b0360206106dd838961117b565b510151169060406106ee828961117b565b51015160606106fd838a61117b565b510151833b156100c35760c4600092836040519687948593637921219560e11b85523360048601528d60248601526044850152606484015260a060848401528160a48401525af19182156106975760019261075b575b5090506106c1565b60006107669161105d565b88610753565b634e487b7160e01b600052602160045260246000fd5b50856000805b60408601805180518310156107f4576107a48361ffff9261117b565b51511661ffff855116146107bc575b50600101610788565b90915060206107d28361ffff875116935161117b565b51019061ffff8251160161ffff811161055b5761ffff169052600190816107b3565b8688868615610971575b506001546001600160a01b031690813b156100c35760405163852df5b360e01b81528351600190810b600483015260209094015190930b602484015282906060604483015280516001600160a01b0316606483015260208082015161ffff1660848401526040820151608060a4850152805160e4850181905261010485019392919091019060005b8181106109455750505060600151906063198382030160c48401526020808351928381520192019060005b8181106108f6575050509181600081819503925af18015610697576108e5575b60016000805160206112ad83398151915255005b60006108f09161105d565b806108d1565b9180945092909251805190600282101561076c5782606060809260209460019652858060a01b0385820151168584015260408101516040840152015160608201520194019101918593926108b1565b8251805161ffff9081168752602091820151168187015288965060409095019490920191600101610886565b91906040810191825151916001830180931161055b57610990836110a1565b9261099e604051948561105d565b8084526109ad601f19916110a1565b0160005b818110610a1857505060005b845180518210156109f257906109d58160019361117b565b516109e0828761117b565b526109eb818661117b565b50016109bd565b5050929093610a109082515190610a09828661117b565b528361117b565b5052826107fe565b602090604051610a2781611011565b60008152600083820152828288010152016109b1565b60405162461bcd60e51b815260206004820152601b60248201527f50726572657175697369746520756e6974206e6f7420666f756e6400000000006044820152606490fd5b606460405162461bcd60e51b815260206004820152602060248201527f4e6f7420656e6f75676820756e69747320746f207570677261646520776974686044820152fd5b50505090919293610510565b60405162461bcd60e51b8152602060048201526015602482015274155b9a5d0818d85b89dd081899481d1c985a5b9959605a1b6044820152606490fd5b9390933d8083833e610b21818361105d565b810190602081830312610cc9578051906001600160401b038211610ccd57019061014082820312610cc9576040519261014084018481106001600160401b03821117610cb557604052610b7383611092565b845260208301516001600160401b038111610c9557830182601f82011215610c9557805190610ba1826110a1565b91610baf604051938461105d565b80835260208084019160051b83010191858311610cb157602001905b828210610c99575050506020850152610be660408401611092565b6040850152610bf760608401611092565b6060850152610c0860808401611160565b6080850152610c1960a08401611160565b60a0850152610c2a60c08401611092565b60c085015260e08301516001600160401b038111610c955782610c4e9185016110b8565b60e0850152610100830151906001600160401b03821161068c575091610c7c61012092610c889483016110b8565b6101008501520161116e565b6101208201529285610477565b5080fd5b60208091610ca684611092565b815201910190610bcb565b8480fd5b634e487b7160e01b82526041600452602482fd5b8280fd5b8380fd5b60405162461bcd60e51b81526020600482015260126024820152712737ba103a3432903a34b6329037bbb732b960711b6044820152606490fd5b3d8083833e610d1a818361105d565b810190602081830312610cc9578051906001600160401b038211610ccd57019160808383031261068c5760405192610d5184611042565b610d5a8161107e565b8452610d6860208201611092565b602085015260408101516001600160401b038111610cc957810183601f82011215610cc9578051610d98816110a1565b91610da6604051938461105d565b81835260208084019260061b82010190868211610e3b57602001915b818310610dfc5750505060408501526060810151916001600160401b03831161068c5750610df19291016110b8565b606082015284610425565b604083880312610e3b5760206040918251610e1681611011565b610e1f86611092565b8152610e2c838701611092565b83820152815201920191610dc2565b8580fd5b60405162461bcd60e51b815260206004820152601f60248201527f5175616e74697479206d7573742062652067726561746572207468616e2030006044820152606490fd5b633ee5aeb560e01b60005260046000fd5b346100c35760003660031901126100c357610eae61121b565b60008051602061128d83398151915280546001600160a01b031981169091556000906001600160a01b03167f8be0079c531659141344cd1fd0a4f28419497f9722a3daafe3b4186f6b6457e08280a3005b346100c35760003660031901126100c3576001546040516001600160a01b039091168152602090f35b346100c35760203660031901126100c357610f41610ffb565b610f4961121b565b600080546001600160a01b0319166001600160a01b0392909216919091179055005b346100c35760003660031901126100c3576002546040516001600160a01b039091168152602090f35b346100c35760203660031901126100c357610fad610ffb565b610fb561121b565b600180546001600160a01b0319166001600160a01b0392909216919091179055005b346100c35760003660031901126100c3576000546001600160a01b03168152602090f35b600435906001600160a01b03821682036100c357565b604081019081106001600160401b0382111761102c57604052565b634e487b7160e01b600052604160045260246000fd5b608081019081106001600160401b0382111761102c57604052565b90601f801991011681019081106001600160401b0382111761102c57604052565b51906001600160a01b03821682036100c357565b519061ffff821682036100c357565b6001600160401b03811161102c5760051b60200190565b81601f820112156100c3578051906110cf826110a1565b926110dd604051948561105d565b82845260208085019360071b830101918183116100c357602001925b828410611107575050505090565b6080848303126100c3576040519061111e82611042565b84519060028210156100c357826020926080945261113d83880161107e565b8382015260408701516040820152606087015160608201528152019301926110f9565b519060ff821682036100c357565b519081151582036100c357565b805182101561118f5760209160051b010190565b634e487b7160e01b600052603260045260246000fd5b6001600160a01b031680156112055760008051602061128d83398151915280546001600160a01b0319811683179091556001600160a01b03167f8be0079c531659141344cd1fd0a4f28419497f9722a3daafe3b4186f6b6457e0600080a3565b631e4fbdf760e01b600052600060045260246000fd5b60008051602061128d833981519152546001600160a01b0316330361123c57565b63118cdaa760e01b6000523360045260246000fd5b51600281101561076c5790565b60ff6000805160206112cd8339815191525460401c161561127b57565b631afcd79f60e31b60005260046000fdfe9016d09d72d40fdae2fd8ceac6b6234c7706214fd39c1cd1e609a0528c1993009b779b17422d0df92223018b32b4d1fa46e071723d6817e2486d003becc55f00f0c57e16840df040f15088dc2f81fe391c3923bec73e23a9662efc9c229c6a00a2646970667358221220afe0894b20a0480ee743d8568fa2a6e96b4ea4ff2879a74513a69d2ae5ce3de664736f6c634300081c0033",
  "linkReferences": {},
  "deployedLinkReferences": {}
}