{
  "_format": "hh-sol-artifact-1",
  "contractName": "Battleground",
  "sourceName": "contracts/core/Battleground.sol",
  "abi": [
    {
      "inputs": [],
      "name": "InvalidInitialization",
      "type": "error"
    },
    {
      "inputs": [],
      "name": "NotInitializing",
      "type": "error"
    },
    {
      "inputs": [
        {
          "internalType": "address",
          "name": "owner",
          "type": "address"
        }
      ],
      "name": "OwnableInvalidOwner",
      "type": "error"
    },
    {
      "inputs": [
        {
          "internalType": "address",
          "name": "account",
          "type": "address"
        }
      ],
      "name": "OwnableUnauthorizedAccount",
      "type": "error"
    },
    {
      "anonymous": false,
      "inputs": [
        {
          "indexed": false,
          "internalType": "uint64",
          "name": "version",
          "type": "uint64"
        }
      ],
      "name": "Initialized",
      "type": "event"
    },
    {
      "anonymous": false,
      "inputs": [
        {
          "indexed": true,
          "internalType": "address",
          "name": "operator",
          "type": "address"
        }
      ],
      "name": "OperatorAdded",
      "type": "event"
    },
    {
      "anonymous": false,
      "inputs": [
        {
          "indexed": true,
          "internalType": "address",
          "name": "operator",
          "type": "address"
        }
      ],
      "name": "OperatorRemoved",
      "type": "event"
    },
    {
      "anonymous": false,
      "inputs": [
        {
          "indexed": true,
          "internalType": "address",
          "name": "previousOwner",
          "type": "address"
        },
        {
          "indexed": true,
          "internalType": "address",
          "name": "newOwner",
          "type": "address"
        }
      ],
      "name": "OwnershipTransferred",
      "type": "event"
    },
    {
      "anonymous": false,
      "inputs": [
        {
          "components": [
            {
              "internalType": "int16",
              "name": "x",
              "type": "int16"
            },
            {
              "internalType": "int16",
              "name": "y",
              "type": "int16"
            }
          ],
          "indexed": false,
          "internalType": "struct IBattleground.Coordinates",
          "name": "coordinates",
          "type": "tuple"
        },
        {
          "components": [
            {
              "internalType": "address",
              "name": "occupant",
              "type": "address"
            },
            {
              "internalType": "uint16",
              "name": "buildingId",
              "type": "uint16"
            },
            {
              "components": [
                {
                  "internalType": "uint16",
                  "name": "unitId",
                  "type": "uint16"
                },
                {
                  "internalType": "uint16",
                  "name": "quantity",
                  "type": "uint16"
                }
              ],
              "internalType": "struct UnitQuantityLib.UnitQuantity[]",
              "name": "units",
              "type": "tuple[]"
            },
            {
              "components": [
                {
                  "internalType": "enum TokenAmountLib.TokenType",
                  "name": "tokenType",
                  "type": "uint8"
                },
                {
                  "internalType": "address",
                  "name": "tokenAddress",
                  "type": "address"
                },
                {
                  "internalType": "uint256",
                  "name": "tokenId",
                  "type": "uint256"
                },
                {
                  "internalType": "uint256",
                  "name": "amount",
                  "type": "uint256"
                }
              ],
              "internalType": "struct TokenAmountLib.TokenAmount[]",
              "name": "loot",
              "type": "tuple[]"
            }
          ],
          "indexed": false,
          "internalType": "struct IBattleground.Tile",
          "name": "tile",
          "type": "tuple"
        }
      ],
      "name": "TileUpdated",
      "type": "event"
    },
    {
      "inputs": [
        {
          "internalType": "address[]",
          "name": "_operators",
          "type": "address[]"
        }
      ],
      "name": "addOperators",
      "outputs": [],
      "stateMutability": "nonpayable",
      "type": "function"
    },
    {
      "inputs": [],
      "name": "buildingManager",
      "outputs": [
        {
          "internalType": "contract IBuildingManager",
          "name": "",
          "type": "address"
        }
      ],
      "stateMutability": "view",
      "type": "function"
    },
    {
      "inputs": [
        {
          "components": [
            {
              "internalType": "int16",
              "name": "x",
              "type": "int16"
            },
            {
              "internalType": "int16",
              "name": "y",
              "type": "int16"
            }
          ],
          "internalType": "struct IBattleground.Coordinates",
          "name": "coordinates",
          "type": "tuple"
        }
      ],
      "name": "collectLoot",
      "outputs": [],
      "stateMutability": "nonpayable",
      "type": "function"
    },
    {
      "inputs": [
        {
          "components": [
            {
              "internalType": "int16",
              "name": "x",
              "type": "int16"
            },
            {
              "internalType": "int16",
              "name": "y",
              "type": "int16"
            }
          ],
          "internalType": "struct IBattleground.Coordinates",
          "name": "coordinates",
          "type": "tuple"
        }
      ],
      "name": "getTile",
      "outputs": [
        {
          "components": [
            {
              "internalType": "address",
              "name": "occupant",
              "type": "address"
            },
            {
              "internalType": "uint16",
              "name": "buildingId",
              "type": "uint16"
            },
            {
              "components": [
                {
                  "internalType": "uint16",
                  "name": "unitId",
                  "type": "uint16"
                },
                {
                  "internalType": "uint16",
                  "name": "quantity",
                  "type": "uint16"
                }
              ],
              "internalType": "struct UnitQuantityLib.UnitQuantity[]",
              "name": "units",
              "type": "tuple[]"
            },
            {
              "components": [
                {
                  "internalType": "enum TokenAmountLib.TokenType",
                  "name": "tokenType",
                  "type": "uint8"
                },
                {
                  "internalType": "address",
                  "name": "tokenAddress",
                  "type": "address"
                },
                {
                  "internalType": "uint256",
                  "name": "tokenId",
                  "type": "uint256"
                },
                {
                  "internalType": "uint256",
                  "name": "amount",
                  "type": "uint256"
                }
              ],
              "internalType": "struct TokenAmountLib.TokenAmount[]",
              "name": "loot",
              "type": "tuple[]"
            }
          ],
          "internalType": "struct IBattleground.Tile",
          "name": "",
          "type": "tuple"
        }
      ],
      "stateMutability": "view",
      "type": "function"
    },
    {
      "inputs": [
        {
          "components": [
            {
              "internalType": "int16",
              "name": "x",
              "type": "int16"
            },
            {
              "internalType": "int16",
              "name": "y",
              "type": "int16"
            }
          ],
          "internalType": "struct IBattleground.Coordinates",
          "name": "from",
          "type": "tuple"
        },
        {
          "components": [
            {
              "internalType": "int16",
              "name": "x",
              "type": "int16"
            },
            {
              "internalType": "int16",
              "name": "y",
              "type": "int16"
            }
          ],
          "internalType": "struct IBattleground.Coordinates",
          "name": "to",
          "type": "tuple"
        }
      ],
      "name": "getTiles",
      "outputs": [
        {
          "components": [
            {
              "internalType": "address",
              "name": "occupant",
              "type": "address"
            },
            {
              "internalType": "uint16",
              "name": "buildingId",
              "type": "uint16"
            },
            {
              "components": [
                {
                  "internalType": "uint16",
                  "name": "unitId",
                  "type": "uint16"
                },
                {
                  "internalType": "uint16",
                  "name": "quantity",
                  "type": "uint16"
                }
              ],
              "internalType": "struct UnitQuantityLib.UnitQuantity[]",
              "name": "units",
              "type": "tuple[]"
            },
            {
              "components": [
                {
                  "internalType": "enum TokenAmountLib.TokenType",
                  "name": "tokenType",
                  "type": "uint8"
                },
                {
                  "internalType": "address",
                  "name": "tokenAddress",
                  "type": "address"
                },
                {
                  "internalType": "uint256",
                  "name": "tokenId",
                  "type": "uint256"
                },
                {
                  "internalType": "uint256",
                  "name": "amount",
                  "type": "uint256"
                }
              ],
              "internalType": "struct TokenAmountLib.TokenAmount[]",
              "name": "loot",
              "type": "tuple[]"
            }
          ],
          "internalType": "struct IBattleground.Tile[]",
          "name": "",
          "type": "tuple[]"
        }
      ],
      "stateMutability": "view",
      "type": "function"
    },
    {
      "inputs": [
        {
          "internalType": "address",
          "name": "player",
          "type": "address"
        }
      ],
      "name": "hasHeadquarters",
      "outputs": [
        {
          "internalType": "bool",
          "name": "",
          "type": "bool"
        }
      ],
      "stateMutability": "view",
      "type": "function"
    },
    {
      "inputs": [],
      "name": "height",
      "outputs": [
        {
          "internalType": "uint16",
          "name": "",
          "type": "uint16"
        }
      ],
      "stateMutability": "view",
      "type": "function"
    },
    {
      "inputs": [
        {
          "internalType": "uint16",
          "name": "_width",
          "type": "uint16"
        },
        {
          "internalType": "uint16",
          "name": "_height",
          "type": "uint16"
        },
        {
          "internalType": "uint16",
          "name": "_maxUnitsPerTile",
          "type": "uint16"
        },
        {
          "internalType": "address",
          "name": "_lootVault",
          "type": "address"
        },
        {
          "internalType": "address",
          "name": "_buildingManager",
          "type": "address"
        }
      ],
      "name": "initialize",
      "outputs": [],
      "stateMutability": "nonpayable",
      "type": "function"
    },
    {
      "inputs": [],
      "name": "lootVault",
      "outputs": [
        {
          "internalType": "contract ILootVault",
          "name": "",
          "type": "address"
        }
      ],
      "stateMutability": "view",
      "type": "function"
    },
    {
      "inputs": [],
      "name": "maxUnitsPerTile",
      "outputs": [
        {
          "internalType": "uint16",
          "name": "",
          "type": "uint16"
        }
      ],
      "stateMutability": "view",
      "type": "function"
    },
    {
      "inputs": [
        {
          "internalType": "address",
          "name": "",
          "type": "address"
        }
      ],
      "name": "operators",
      "outputs": [
        {
          "internalType": "bool",
          "name": "",
          "type": "bool"
        }
      ],
      "stateMutability": "view",
      "type": "function"
    },
    {
      "inputs": [],
      "name": "owner",
      "outputs": [
        {
          "internalType": "address",
          "name": "",
          "type": "address"
        }
      ],
      "stateMutability": "view",
      "type": "function"
    },
    {
      "inputs": [
        {
          "internalType": "address",
          "name": "",
          "type": "address"
        },
        {
          "internalType": "uint256",
          "name": "",
          "type": "uint256"
        }
      ],
      "name": "playerHeadquarters",
      "outputs": [
        {
          "internalType": "int16",
          "name": "x",
          "type": "int16"
        },
        {
          "internalType": "int16",
          "name": "y",
          "type": "int16"
        }
      ],
      "stateMutability": "view",
      "type": "function"
    },
    {
      "inputs": [
        {
          "internalType": "address[]",
          "name": "_operators",
          "type": "address[]"
        }
      ],
      "name": "removeOperators",
      "outputs": [],
      "stateMutability": "nonpayable",
      "type": "function"
    },
    {
      "inputs": [],
      "name": "renounceOwnership",
      "outputs": [],
      "stateMutability": "nonpayable",
      "type": "function"
    },
    {
      "inputs": [
        {
          "internalType": "int16",
          "name": "",
          "type": "int16"
        },
        {
          "internalType": "int16",
          "name": "",
          "type": "int16"
        }
      ],
      "name": "tiles",
      "outputs": [
        {
          "internalType": "address",
          "name": "occupant",
          "type": "address"
        },
        {
          "internalType": "uint16",
          "name": "buildingId",
          "type": "uint16"
        }
      ],
      "stateMutability": "view",
      "type": "function"
    },
    {
      "inputs": [
        {
          "internalType": "address",
          "name": "newOwner",
          "type": "address"
        }
      ],
      "name": "transferOwnership",
      "outputs": [],
      "stateMutability": "nonpayable",
      "type": "function"
    },
    {
      "inputs": [
        {
          "internalType": "address",
          "name": "_buildingManager",
          "type": "address"
        }
      ],
      "name": "updateBuildingManager",
      "outputs": [],
      "stateMutability": "nonpayable",
      "type": "function"
    },
    {
      "inputs": [
        {
          "internalType": "uint16",
          "name": "_width",
          "type": "uint16"
        },
        {
          "internalType": "uint16",
          "name": "_height",
          "type": "uint16"
        }
      ],
      "name": "updateDimensions",
      "outputs": [],
      "stateMutability": "nonpayable",
      "type": "function"
    },
    {
      "inputs": [
        {
          "internalType": "address",
          "name": "_lootVault",
          "type": "address"
        }
      ],
      "name": "updateLootVault",
      "outputs": [],
      "stateMutability": "nonpayable",
      "type": "function"
    },
    {
      "inputs": [
        {
          "internalType": "uint16",
          "name": "_maxUnitsPerTile",
          "type": "uint16"
        }
      ],
      "name": "updateMaxUnitsPerTile",
      "outputs": [],
      "stateMutability": "nonpayable",
      "type": "function"
    },
    {
      "inputs": [
        {
          "components": [
            {
              "internalType": "int16",
              "name": "x",
              "type": "int16"
            },
            {
              "internalType": "int16",
              "name": "y",
              "type": "int16"
            }
          ],
          "internalType": "struct IBattleground.Coordinates",
          "name": "coordinates",
          "type": "tuple"
        },
        {
          "components": [
            {
              "internalType": "address",
              "name": "occupant",
              "type": "address"
            },
            {
              "internalType": "uint16",
              "name": "buildingId",
              "type": "uint16"
            },
            {
              "components": [
                {
                  "internalType": "uint16",
                  "name": "unitId",
                  "type": "uint16"
                },
                {
                  "internalType": "uint16",
                  "name": "quantity",
                  "type": "uint16"
                }
              ],
              "internalType": "struct UnitQuantityLib.UnitQuantity[]",
              "name": "units",
              "type": "tuple[]"
            },
            {
              "components": [
                {
                  "internalType": "enum TokenAmountLib.TokenType",
                  "name": "tokenType",
                  "type": "uint8"
                },
                {
                  "internalType": "address",
                  "name": "tokenAddress",
                  "type": "address"
                },
                {
                  "internalType": "uint256",
                  "name": "tokenId",
                  "type": "uint256"
                },
                {
                  "internalType": "uint256",
                  "name": "amount",
                  "type": "uint256"
                }
              ],
              "internalType": "struct TokenAmountLib.TokenAmount[]",
              "name": "loot",
              "type": "tuple[]"
            }
          ],
          "internalType": "struct IBattleground.Tile",
          "name": "tile",
          "type": "tuple"
        }
      ],
      "name": "updateTile",
      "outputs": [],
      "stateMutability": "nonpayable",
      "type": "function"
    },
    {
      "inputs": [],
      "name": "width",
      "outputs": [
        {
          "internalType": "uint16",
          "name": "",
          "type": "uint16"
        }
      ],
      "stateMutability": "view",
      "type": "function"
    }
  ],
  "bytecode": "0x6080806040523460155761236c908161001b8239f35b600080fdfe6080604052600436101561001257600080fd5b6000803560e01c8063036f48c1146119735780630ef267431461194e57806313e7c9d81461191057806324a3e964146118e3578063412f10801461188f578063591034621461184a57806360e4c39314611821578063715018a6146117b75780637b4f29e0146117935780637c11a637146116ad578063852df5b314610c145780638ccba74a14610a045780638da5cb5b146109ce578063918579711461092b5780639ededf7714610909578063a07aea1c146107e6578063a9271dc814610498578063d365a377146103f5578063d408354414610389578063db2869bb14610329578063f13ca34314610184578063f2fde38b146101575763f7625ef01461011a57600080fd5b34610154576020366003190112610154576020906040906001600160a01b03610141611cca565b1681526004835220541515604051908152f35b80fd5b503461015457602036600319011261015457610181610174611cca565b61017c61220a565b612194565b80f35b50346101545760403660031901126101545760406101a136611c88565b6101a961215c565b50805160010b83526003602052602082842091015160010b9060009160010b825260205220604051906101db82611c1b565b80546001600160a01b038116835260a01c61ffff16602083015260018101805461020481611d25565b916102126040519384611c67565b81835285526020808620869184015b8383106102f75787876002888860408401520191825461024081611d25565b9161024e6040519384611c67565b81835260208301948152602081209080955b8387106102895761028586866060820152604051918291602083526020830190611db1565b0390f35b60405161029581611c1b565b835460ff811660028110156102e357825260081c6001600160a01b03166020808301919091526001858101546040840152600286015460608401529183529701966003939093019201610260565b634e487b7160e01b85526021600452602485fd5b60016020819260405161030981611c4c565b61ffff8654818116835260101c1683820152815201920192019190610221565b503461015457604036600319011261015457610343611cca565b6001600160a01b03168152600460205260408120805460243592908310156101545760406103718484611e90565b50548151908060010b825260101c60010b6020820152f35b503461015457604036600319011261015457600435908160010b80920361015457602435918260010b83036103f1579060409181526003602052209060010b6000526020526040806000205461ffff82519160018060a01b038116835260a01c166020820152f35b5080fd5b50346101545761040436611d3c565b9061040d61220a565b6104188215156120d9565b825b828110610425578380f35b6001906001600160a01b0361044361043e83878761211d565b61212d565b168086528560205261045b60ff604088205416611ebe565b808652856020526040862060ff1981541690557f80c0b871b97b595b16a7741c1b06fed0c6f6f558639f18ccbce50724325dc40d8680a20161041a565b5034610154576080366003190112610154576104b336611c88565b90604036604319011261015457604051906104cd82611c4c565b6044358060010b81036103f1578252606435918260010b83036103f1576020810192835261ffff610507825160010b865160010b90612141565b1690835160010b9061ffff6105256020880193845160010b90612141565b16928381029381850414901517156107d2579461054183611d25565b9261054f6040519485611c67565b80845261055e601f1991611d25565b01845b8181106107b55750505160010b835b865160010b928260010b93841361074e57805160010b915b875160010b8360010b1361073857848752600360205260408088206000908560010b825260205220604051906105bd82611c1b565b80546001600160a01b038116835260a01c61ffff1660208301526001810180546105e681611d25565b916105f46040519384611c67565b8183528b526020808c208c9184015b8383106107065750505050604083015260020180549061062282611d25565b916106306040519384611c67565b80835260208301918b5260208b208b925b8284106106975750505050606082015261065b8288611f3a565b526106668187611f3a565b50600019811461068357600161067d910192612182565b91610588565b634e487b7160e01b87526011600452602487fd5b6040516106a381611c1b565b825460ff811660028110156106f157825260081c6001600160a01b03166020808301919091526001848101546040840152600285015460608401529183529401936003929092019101610641565b50634e487b7160e01b8f52602160045260248ffd5b60016020819260405161071881611c4c565b61ffff8654818116835260101c1683820152815201920192019190610603565b97929093506107479150612182565b9095610570565b84866040519182916020830160208452825180915260408401602060408360051b870101940192905b82821061078657505050500390f35b919360019193955060206107a58192603f198a82030186528851611db1565b9601920192018594939192610777565b6020906107c398939861215c565b82828801015201969196610561565b634e487b7160e01b84526011600452602484fd5b5034610154576107f536611d3c565b906107fe61220a565b6108098215156120d9565b825b828110610816578380f35b6001600160a01b0361082c61043e83868661211d565b169081156108c4578185528460205260ff6040862054166108895781600192865285602052604086208360ff198254161790557fac6fa858e9350a46cec16539926e0fde25b7629f84b5a72bffaae4df888ae86d8680a20161080b565b60405162461bcd60e51b815260206004820152601360248201527220b63932b0b23c9030b71037b832b930ba37b960691b6044820152606490fd5b60405162461bcd60e51b815260206004820152601860248201527f496e76616c6964206f70657261746f72206164647265737300000000000000006044820152606490fd5b5034610154578060031936011261015457602061ffff60015416604051908152f35b503461015457602036600319011261015457610945611cf4565b61094d61220a565b61ffff8116156109775765ffff000000006001549160201b169065ffff0000000019161760015580f35b60405162461bcd60e51b815260206004820152602960248201527f4d617820756e697473207065722074696c65206d75737420626520677265617460448201526806572207468616e20360bc1b6064820152608490fd5b50346101545780600319360112610154576000805160206122f7833981519152546040516001600160a01b039091168152602090f35b50346101545760a036600319011261015457610a1e611cf4565b610a26611d05565b60443561ffff81168103610c1057606435906001600160a01b0382168203610c0c576084356001600160a01b0381169390849003610c0857600080516020612317833981519152549460ff8660401c1615956001600160401b03811680159081610c00575b6001149081610bf6575b159081610bed575b50610bde5767ffffffffffffffff1981166001176000805160206123178339815191525565ffff00000000929163ffff00009188610bb1575b50610adf6122c8565b610ae76122c8565b610af033612194565b600154956601000000000000600160d01b039060301b169561ffff6601000000000000600160d01b031992169065ffffffffffff191617169160101b16179160201b1617176001556bffffffffffffffffffffffff60a01b6002541617600255610b575780f35b68ff0000000000000000196000805160206123178339815191525416600080516020612317833981519152557fc7f505b2f371ae2175ee4913f4499e1f2633a7b5936321eed1cdaeb6115181d2602060405160018152a180f35b68ffffffffffffffffff191668010000000000000001176000805160206123178339815191525538610ad6565b63f92ee8a960e01b8852600488fd5b90501538610a9d565b303b159150610a95565b889150610a8b565b8580fd5b8480fd5b8380fd5b503461015457606036600319011261015457610c2f36611c88565b6044356001600160401b0381116116a957608060031982360301126116a95760405191610c5b83611c1b565b610c6782600401611ce0565b8352610c7560248301611d16565b926020810193845260448301356001600160401b038111610c085783019236602385011215610c08576004840135610cac81611d25565b94610cba6040519687611c67565b818652602060048188019360061b830101019036821161166257602401915b81831061166a57505050604082019384526064810135906001600160401b03821161166657019336602386011215610c08576004850135610d1981611d25565b95610d276040519788611c67565b818752602060048189019360071b830101019036821161166257602401915b818310611605575050506060820194855233865285602052610d6e60ff604088205416611ebe565b60015492617fff61ffff851660011c169161ffff610d99610d9382861660010b611efc565b94611f25565b1660010b92617fff61ffff8760101c1660011c169061ffff610dc8610dc282851660010b611efc565b93611f25565b1660010b94845160010b9160010b82121591826115fa575b5050156115be576020830193845160010b9160010b82121591826115b3575b505015611577578795865b81518051891015610e545761ffff6020610e258b8394611f3a565b5101511691160161ffff8111610e4057600190970196610e0a565b634e487b7160e01b8a52601160045260248afd5b50889061ffff808c989960201c1691161161153957835160010b865260036020526040808720865160010b9060009160010b8252602052209060405192610e9a84611c1b565b82546001600160a01b038116855260a01c61ffff1660208501908152600184018054919491610ec881611d25565b91610ed66040519384611c67565b8183528b526020808c208c9184015b83831061150757505050506040860152600201805490610f0482611d25565b91610f126040519384611c67565b80835260208301918b5260208b208b925b8284106114ad575050505060608501528761ffff60018060a01b036002541694511660246040518096819363e667790760e01b835260048301525afa9283156114a2578893611486575b508551600190810b8952600360209081526040808b208a51840b6000908152925290208a518154885161ffff60a01b60a09190911b166001600160a01b039092166001600160b01b0319909116171781559151805191830190600160401b831161147257815483835580841061144c575b50602001908a5260208a208a915b83831061140c5750505050600201905190815191600160401b83116113f8578154838355808410611396575b506020019088526020882088915b83831061132357505050508561ffff60018060a01b036002541694511660246040518096819363e667790760e01b835260048301525afa9283156113185786936112f4575b5081516001600160a01b0316151590816112e6575b501561129a57805186516001600160a01b039182169116811480159061128e575b611142575b5051855194957f7f7c50e66616a5842d6b99587c789864578bc8cc2c3b24d078476016d7b184b29561111e9391926001600160a01b039182169286929091168314159081611134575b50611124575b50505b6040519384935160010b84525160010b6020840152606060408401526060830190611db1565b0390a180f35b61112d91612240565b86836110f5565b6020915001511515896110ef565b8552600460205260408520805490865b828110611161575b50506110a6565b61116b8183611e90565b505460010b865160010b1480611270575b61118857600101611152565b9091600019810190811161125c576111a36111ab9184611e90565b509183611e90565b61120057818103611228575b5050805480156112145760001901906111d08282611e90565b611200578790555581837f7f7c50e66616a5842d6b99587c789864578bc8cc2c3b24d078476016d7b184b261115a565b634e487b7160e01b88526004889052602488fd5b634e487b7160e01b87526031600452602487fd5b8154815461ffff19811661ffff9092169182178355925463ffff00001663ffffffff199093161791909117905587806111b7565b634e487b7160e01b88526011600452602488fd5b5061127b8183611e90565b505460101c60010b875160010b1461117c565b506020830151156110a1565b507f7f7c50e66616a5842d6b99587c789864578bc8cc2c3b24d078476016d7b184b29394602061111e920151156110f85780516112e19084906001600160a01b0316612240565b6110f8565b602091500151151587611080565b6113119193503d8088833e6113098183611c67565b810190611f6a565b918761106b565b6040513d88823e3d90fd5b805180516002811015611382576001926060600393602093875460ff6101008960a81b038785015160081b169216906affffffffffffffffffffff60a81b16171787556040810151868801550151600286015501920192019190611026565b634e487b7160e01b8c52602160045260248cfd5b80600302906003820403610e4057836003026003810485036113e457838b5260208b2091820191015b8181106113cc5750611018565b808b600392558b60018201558b6002820155016113bf565b634e487b7160e01b8b52601160045260248bfd5b634e487b7160e01b89526041600452602489fd5b60016020828183945161ffff81511661ffff19885416178755015163ffff00008087549260101b16169063ffff0000191617855501920192019190610fec565b828c528360208d2091820191015b8181106114675750610fde565b8c815560010161145a565b634e487b7160e01b8b52604160045260248bfd5b61149b9193503d808a833e6113098183611c67565b9189610f6d565b6040513d8a823e3d90fd5b6040516114b981611c1b565b825460ff811660028110156106f157825260081c6001600160a01b03166020808301919091526001848101546040840152600285015460608401529183529401936003929092019101610f23565b60016020819260405161151981611c4c565b61ffff8654818116835260101c1683820152815201920192019190610ee5565b60405162461bcd60e51b8152602060048201526016602482015275546f6f206d616e7920756e697473206f6e2074696c6560501b6044820152606490fd5b60405162461bcd60e51b8152602060048201526014602482015273496e76616c6964207920636f6f7264696e61746560601b6044820152606490fd5b131590503880610dff565b60405162461bcd60e51b8152602060048201526014602482015273496e76616c6964207820636f6f7264696e61746560601b6044820152606490fd5b131590503880610de0565b608083360312611662576040519061161c82611c1b565b833590600282101561165e57826020926080945261163b838701611ce0565b838201526040860135604082015260608601356060820152815201920191610d46565b8a80fd5b8880fd5b8680fd5b604083360312611662576020604091825161168481611c4c565b61168d86611d16565b815261169a838701611d16565b83820152815201920191610cd9565b8280fd5b5034610154576040366003190112610154576116c7611cf4565b61ffff6116d2611d05565b916116db61220a565b16801561174e5761ffff8216156117095763ffff00006001549260101b169163ffffffff1916171760015580f35b60405162461bcd60e51b815260206004820152601d60248201527f486569676874206d7573742062652067726561746572207468616e20300000006044820152606490fd5b60405162461bcd60e51b815260206004820152601c60248201527f5769647468206d7573742062652067726561746572207468616e2030000000006044820152606490fd5b5034610154578060031936011261015457602061ffff600154821c16604051908152f35b50346101545780600319360112610154576117d061220a565b6000805160206122f783398151915280546001600160a01b0319811690915581906001600160a01b03167f8be0079c531659141344cd1fd0a4f28419497f9722a3daafe3b4186f6b6457e08280a380f35b50346101545780600319360112610154576002546040516001600160a01b039091168152602090f35b503461015457602036600319011261015457611864611cca565b61186c61220a565b60018060a01b03166bffffffffffffffffffffffff60a01b600254161760025580f35b5034610154576020366003190112610154576118a9611cca565b6118b161220a565b600180546601000000000000600160d01b03191660309290921b6601000000000000600160d01b031691909117905580f35b503461015457806003193601126101545760015460405160309190911c6001600160a01b03168152602090f35b50346101545760203660031901126101545760209060ff906040906001600160a01b0361193b611cca565b1681528084522054166040519015158152f35b5034610154578060031936011261015457602061ffff60015460101c16604051908152f35b50346101545760403660031901126101545761198e36611c88565b805160010b8252600360205260206040832091015160010b60010b8252602052604081209060018060a01b038254163303611bd6576001546002929092019160301c6001600160a01b0316803b156103f15781604051809263450f339560e11b82526044820133600484015260406024840152865480915260648301908785526020852090855b818110611b84575050508383809203925af18015611b7957611b69575b5060405190916020611a448184611c67565b8383528392600160401b8411611b555781908354858555808610611aeb575b500191845280842084925b848410611a79578580f35b805180516002811015611ad75760019260606003938793875460ff6101008960a81b038785015160081b169216906affffffffffffffffffffff60a81b16171787556040810151868801550151600286015501920193019290611a6e565b634e487b7160e01b88526021600452602488fd5b80919250600302906003820403611b41578460030260038104860361068357848752838720849392810191015b818110611b255750611a63565b8781556001810188905560028101889055849350600301611b18565b634e487b7160e01b86526011600452602486fd5b634e487b7160e01b85526041600452602485fd5b81611b7391611c67565b38611a32565b6040513d84823e3d90fd5b9260039194965082955060809060019354611ba28260ff8316611d8e565b848060a01b039060081c16602082015283870154604082015260028701546060820152019401910190869492869492611a15565b60405162461bcd60e51b815260206004820152601860248201527f596f7520646f206e6f74206f776e20746869732074696c6500000000000000006044820152606490fd5b608081019081106001600160401b03821117611c3657604052565b634e487b7160e01b600052604160045260246000fd5b604081019081106001600160401b03821117611c3657604052565b90601f801991011681019081106001600160401b03821117611c3657604052565b6040906003190112611cc55760405190611ca182611c4c565b816004358060010b8103611cc5578152602435908160010b8203611cc55760200152565b600080fd5b600435906001600160a01b0382168203611cc557565b35906001600160a01b0382168203611cc557565b6004359061ffff82168203611cc557565b6024359061ffff82168203611cc557565b359061ffff82168203611cc557565b6001600160401b038111611c365760051b60200190565b906020600319830112611cc5576004356001600160401b038111611cc55782602382011215611cc5578060040135926001600160401b038411611cc55760248460051b83010111611cc5576024019190565b906002821015611d9b5752565b634e487b7160e01b600052602160045260246000fd5b80516001600160a01b0316825260208082015161ffff16818401526040808301516080918501829052805191850182905260a085019392019060005b818110611e6757505050606001519160608183039101526020808351928381520192019060005b818110611e215750505090565b9091926020608060019260608751611e3a838251611d8e565b858060a01b0385820151168584015260408101516040840152015160608201520194019101919091611e14565b8251805161ffff9081168752602091820151168187015260409095019490920191600101611ded565b8054821015611ea85760005260206000200190600090565b634e487b7160e01b600052603260045260246000fd5b15611ec557565b60405162461bcd60e51b815260206004820152600f60248201526e2737ba1030b71037b832b930ba37b960891b6044820152606490fd5b60010b617fff198114611f0f5760000390565b634e487b7160e01b600052601160045260246000fd5b61ffff6000199116019061ffff8211611f0f57565b8051821015611ea85760209160051b010190565b519061ffff82168203611cc557565b51908115158203611cc557565b602081830312611cc5578051906001600160401b038211611cc5570160e081830312611cc5576040519160e083018381106001600160401b03821117611c3657604052611fb682611f4e565b8352611fc460208301611f5d565b6020840152611fd560408301611f4e565b6040840152611fe660608301611f4e565b6060840152611ff760808301611f4e565b608084015260a08201516001600160401b038111611cc557820181601f82011215611cc55780519061202882611d25565b926120366040519485611c67565b82845260208085019360071b83010191818311611cc557602001925b828410612076575050505060a083015261206e9060c001611f5d565b60c082015290565b608084830312611cc5576040519061208d82611c1b565b84516002811015611cc55782526020850151906001600160a01b0382168203611cc557826020928360809501526040870151604082015260608701516060820152815201930192612052565b156120e057565b60405162461bcd60e51b8152602060048201526015602482015274139bc81bdc195c985d1bdc9cc81c1c9bdd9a591959605a1b6044820152606490fd5b9190811015611ea85760051b0190565b356001600160a01b0381168103611cc55790565b600191820b910b0390617fff198212617fff831317611f0f57565b6040519061216982611c1b565b6060808360008152600060208201528160408201520152565b60010b617fff8114611f0f5760010190565b6001600160a01b031680156121f4576000805160206122f783398151915280546001600160a01b0319811683179091556001600160a01b03167f8be0079c531659141344cd1fd0a4f28419497f9722a3daafe3b4186f6b6457e0600080a3565b631e4fbdf760e01b600052600060045260246000fd5b6000805160206122f7833981519152546001600160a01b0316330361222b57565b63118cdaa760e01b6000523360045260246000fd5b6001600160a01b031660009081526004602052604090208054600160401b811015611c365761227491600182018155611e90565b6122b2576020826122b0935160010b61ffff198454169061ffff16178355015160010b81549060101b63ffff0000169063ffff00001916179055565b565b634e487b7160e01b600052600060045260246000fd5b60ff6000805160206123178339815191525460401c16156122e557565b631afcd79f60e31b60005260046000fdfe9016d09d72d40fdae2fd8ceac6b6234c7706214fd39c1cd1e609a0528c199300f0c57e16840df040f15088dc2f81fe391c3923bec73e23a9662efc9c229c6a00a26469706673582212206816e069c0330389d3584dc053904614af16dee247db5245d8c2e3da8289489164736f6c634300081c0033",
  "linkReferences": {},
  "deployedLinkReferences": {}
}