{
  "_format": "hh-sol-artifact-1",
  "contractName": "Battleground",
  "sourceName": "contracts/core/Battleground.sol",
  "abi": [
    {
      "inputs": [],
      "name": "InvalidInitialization",
      "type": "error"
    },
    {
      "inputs": [],
      "name": "NotInitializing",
      "type": "error"
    },
    {
      "inputs": [
        {
          "internalType": "address",
          "name": "owner",
          "type": "address"
        }
      ],
      "name": "OwnableInvalidOwner",
      "type": "error"
    },
    {
      "inputs": [
        {
          "internalType": "address",
          "name": "account",
          "type": "address"
        }
      ],
      "name": "OwnableUnauthorizedAccount",
      "type": "error"
    },
    {
      "anonymous": false,
      "inputs": [
        {
          "indexed": false,
          "internalType": "uint64",
          "name": "version",
          "type": "uint64"
        }
      ],
      "name": "Initialized",
      "type": "event"
    },
    {
      "anonymous": false,
      "inputs": [
        {
          "indexed": true,
          "internalType": "address",
          "name": "operator",
          "type": "address"
        }
      ],
      "name": "OperatorAdded",
      "type": "event"
    },
    {
      "anonymous": false,
      "inputs": [
        {
          "indexed": true,
          "internalType": "address",
          "name": "operator",
          "type": "address"
        }
      ],
      "name": "OperatorRemoved",
      "type": "event"
    },
    {
      "anonymous": false,
      "inputs": [
        {
          "indexed": true,
          "internalType": "address",
          "name": "previousOwner",
          "type": "address"
        },
        {
          "indexed": true,
          "internalType": "address",
          "name": "newOwner",
          "type": "address"
        }
      ],
      "name": "OwnershipTransferred",
      "type": "event"
    },
    {
      "anonymous": false,
      "inputs": [
        {
          "components": [
            {
              "internalType": "int16",
              "name": "x",
              "type": "int16"
            },
            {
              "internalType": "int16",
              "name": "y",
              "type": "int16"
            }
          ],
          "indexed": false,
          "internalType": "struct IBattleground.Coordinates",
          "name": "coordinates",
          "type": "tuple"
        },
        {
          "components": [
            {
              "internalType": "address",
              "name": "occupant",
              "type": "address"
            },
            {
              "internalType": "uint16",
              "name": "buildingId",
              "type": "uint16"
            },
            {
              "components": [
                {
                  "internalType": "uint16",
                  "name": "unitId",
                  "type": "uint16"
                },
                {
                  "internalType": "uint16",
                  "name": "quantity",
                  "type": "uint16"
                }
              ],
              "internalType": "struct UnitQuantityLib.UnitQuantity[]",
              "name": "units",
              "type": "tuple[]"
            },
            {
              "components": [
                {
                  "internalType": "enum TokenAmountLib.TokenType",
                  "name": "tokenType",
                  "type": "uint8"
                },
                {
                  "internalType": "address",
                  "name": "tokenAddress",
                  "type": "address"
                },
                {
                  "internalType": "uint256",
                  "name": "tokenId",
                  "type": "uint256"
                },
                {
                  "internalType": "uint256",
                  "name": "amount",
                  "type": "uint256"
                }
              ],
              "internalType": "struct TokenAmountLib.TokenAmount[]",
              "name": "loot",
              "type": "tuple[]"
            }
          ],
          "indexed": false,
          "internalType": "struct IBattleground.Tile",
          "name": "tile",
          "type": "tuple"
        }
      ],
      "name": "TileUpdated",
      "type": "event"
    },
    {
      "inputs": [
        {
          "internalType": "address",
          "name": "operator",
          "type": "address"
        }
      ],
      "name": "addOperator",
      "outputs": [],
      "stateMutability": "nonpayable",
      "type": "function"
    },
    {
      "inputs": [],
      "name": "buildingManager",
      "outputs": [
        {
          "internalType": "contract IBuildingManager",
          "name": "",
          "type": "address"
        }
      ],
      "stateMutability": "view",
      "type": "function"
    },
    {
      "inputs": [
        {
          "components": [
            {
              "internalType": "int16",
              "name": "x",
              "type": "int16"
            },
            {
              "internalType": "int16",
              "name": "y",
              "type": "int16"
            }
          ],
          "internalType": "struct IBattleground.Coordinates",
          "name": "coordinates",
          "type": "tuple"
        }
      ],
      "name": "collectLoot",
      "outputs": [],
      "stateMutability": "nonpayable",
      "type": "function"
    },
    {
      "inputs": [
        {
          "components": [
            {
              "internalType": "int16",
              "name": "x",
              "type": "int16"
            },
            {
              "internalType": "int16",
              "name": "y",
              "type": "int16"
            }
          ],
          "internalType": "struct IBattleground.Coordinates",
          "name": "coordinates",
          "type": "tuple"
        }
      ],
      "name": "getTile",
      "outputs": [
        {
          "components": [
            {
              "internalType": "address",
              "name": "occupant",
              "type": "address"
            },
            {
              "internalType": "uint16",
              "name": "buildingId",
              "type": "uint16"
            },
            {
              "components": [
                {
                  "internalType": "uint16",
                  "name": "unitId",
                  "type": "uint16"
                },
                {
                  "internalType": "uint16",
                  "name": "quantity",
                  "type": "uint16"
                }
              ],
              "internalType": "struct UnitQuantityLib.UnitQuantity[]",
              "name": "units",
              "type": "tuple[]"
            },
            {
              "components": [
                {
                  "internalType": "enum TokenAmountLib.TokenType",
                  "name": "tokenType",
                  "type": "uint8"
                },
                {
                  "internalType": "address",
                  "name": "tokenAddress",
                  "type": "address"
                },
                {
                  "internalType": "uint256",
                  "name": "tokenId",
                  "type": "uint256"
                },
                {
                  "internalType": "uint256",
                  "name": "amount",
                  "type": "uint256"
                }
              ],
              "internalType": "struct TokenAmountLib.TokenAmount[]",
              "name": "loot",
              "type": "tuple[]"
            }
          ],
          "internalType": "struct IBattleground.Tile",
          "name": "",
          "type": "tuple"
        }
      ],
      "stateMutability": "view",
      "type": "function"
    },
    {
      "inputs": [
        {
          "internalType": "address",
          "name": "player",
          "type": "address"
        }
      ],
      "name": "hasHeadquarters",
      "outputs": [
        {
          "internalType": "bool",
          "name": "",
          "type": "bool"
        }
      ],
      "stateMutability": "view",
      "type": "function"
    },
    {
      "inputs": [],
      "name": "height",
      "outputs": [
        {
          "internalType": "uint16",
          "name": "",
          "type": "uint16"
        }
      ],
      "stateMutability": "view",
      "type": "function"
    },
    {
      "inputs": [
        {
          "internalType": "uint16",
          "name": "_width",
          "type": "uint16"
        },
        {
          "internalType": "uint16",
          "name": "_height",
          "type": "uint16"
        },
        {
          "internalType": "uint16",
          "name": "_maxUnitsPerTile",
          "type": "uint16"
        },
        {
          "internalType": "address",
          "name": "_lootVault",
          "type": "address"
        },
        {
          "internalType": "address",
          "name": "_buildingManager",
          "type": "address"
        }
      ],
      "name": "initialize",
      "outputs": [],
      "stateMutability": "nonpayable",
      "type": "function"
    },
    {
      "inputs": [],
      "name": "lootVault",
      "outputs": [
        {
          "internalType": "contract ILootVault",
          "name": "",
          "type": "address"
        }
      ],
      "stateMutability": "view",
      "type": "function"
    },
    {
      "inputs": [],
      "name": "maxUnitsPerTile",
      "outputs": [
        {
          "internalType": "uint16",
          "name": "",
          "type": "uint16"
        }
      ],
      "stateMutability": "view",
      "type": "function"
    },
    {
      "inputs": [
        {
          "internalType": "address",
          "name": "",
          "type": "address"
        }
      ],
      "name": "operators",
      "outputs": [
        {
          "internalType": "bool",
          "name": "",
          "type": "bool"
        }
      ],
      "stateMutability": "view",
      "type": "function"
    },
    {
      "inputs": [],
      "name": "owner",
      "outputs": [
        {
          "internalType": "address",
          "name": "",
          "type": "address"
        }
      ],
      "stateMutability": "view",
      "type": "function"
    },
    {
      "inputs": [
        {
          "internalType": "address",
          "name": "",
          "type": "address"
        },
        {
          "internalType": "uint256",
          "name": "",
          "type": "uint256"
        }
      ],
      "name": "playerHeadquarters",
      "outputs": [
        {
          "internalType": "int16",
          "name": "x",
          "type": "int16"
        },
        {
          "internalType": "int16",
          "name": "y",
          "type": "int16"
        }
      ],
      "stateMutability": "view",
      "type": "function"
    },
    {
      "inputs": [
        {
          "internalType": "address",
          "name": "operator",
          "type": "address"
        }
      ],
      "name": "removeOperator",
      "outputs": [],
      "stateMutability": "nonpayable",
      "type": "function"
    },
    {
      "inputs": [],
      "name": "renounceOwnership",
      "outputs": [],
      "stateMutability": "nonpayable",
      "type": "function"
    },
    {
      "inputs": [
        {
          "internalType": "int16",
          "name": "",
          "type": "int16"
        },
        {
          "internalType": "int16",
          "name": "",
          "type": "int16"
        }
      ],
      "name": "tiles",
      "outputs": [
        {
          "internalType": "address",
          "name": "occupant",
          "type": "address"
        },
        {
          "internalType": "uint16",
          "name": "buildingId",
          "type": "uint16"
        }
      ],
      "stateMutability": "view",
      "type": "function"
    },
    {
      "inputs": [
        {
          "internalType": "address",
          "name": "newOwner",
          "type": "address"
        }
      ],
      "name": "transferOwnership",
      "outputs": [],
      "stateMutability": "nonpayable",
      "type": "function"
    },
    {
      "inputs": [
        {
          "internalType": "address",
          "name": "_buildingManager",
          "type": "address"
        }
      ],
      "name": "updateBuildingManager",
      "outputs": [],
      "stateMutability": "nonpayable",
      "type": "function"
    },
    {
      "inputs": [
        {
          "internalType": "uint16",
          "name": "_width",
          "type": "uint16"
        },
        {
          "internalType": "uint16",
          "name": "_height",
          "type": "uint16"
        }
      ],
      "name": "updateDimensions",
      "outputs": [],
      "stateMutability": "nonpayable",
      "type": "function"
    },
    {
      "inputs": [
        {
          "internalType": "address",
          "name": "_lootVault",
          "type": "address"
        }
      ],
      "name": "updateLootVault",
      "outputs": [],
      "stateMutability": "nonpayable",
      "type": "function"
    },
    {
      "inputs": [
        {
          "internalType": "uint16",
          "name": "_maxUnitsPerTile",
          "type": "uint16"
        }
      ],
      "name": "updateMaxUnitsPerTile",
      "outputs": [],
      "stateMutability": "nonpayable",
      "type": "function"
    },
    {
      "inputs": [
        {
          "components": [
            {
              "internalType": "int16",
              "name": "x",
              "type": "int16"
            },
            {
              "internalType": "int16",
              "name": "y",
              "type": "int16"
            }
          ],
          "internalType": "struct IBattleground.Coordinates",
          "name": "coordinates",
          "type": "tuple"
        },
        {
          "components": [
            {
              "internalType": "address",
              "name": "occupant",
              "type": "address"
            },
            {
              "internalType": "uint16",
              "name": "buildingId",
              "type": "uint16"
            },
            {
              "components": [
                {
                  "internalType": "uint16",
                  "name": "unitId",
                  "type": "uint16"
                },
                {
                  "internalType": "uint16",
                  "name": "quantity",
                  "type": "uint16"
                }
              ],
              "internalType": "struct UnitQuantityLib.UnitQuantity[]",
              "name": "units",
              "type": "tuple[]"
            },
            {
              "components": [
                {
                  "internalType": "enum TokenAmountLib.TokenType",
                  "name": "tokenType",
                  "type": "uint8"
                },
                {
                  "internalType": "address",
                  "name": "tokenAddress",
                  "type": "address"
                },
                {
                  "internalType": "uint256",
                  "name": "tokenId",
                  "type": "uint256"
                },
                {
                  "internalType": "uint256",
                  "name": "amount",
                  "type": "uint256"
                }
              ],
              "internalType": "struct TokenAmountLib.TokenAmount[]",
              "name": "loot",
              "type": "tuple[]"
            }
          ],
          "internalType": "struct IBattleground.Tile",
          "name": "tile",
          "type": "tuple"
        }
      ],
      "name": "updateTile",
      "outputs": [],
      "stateMutability": "nonpayable",
      "type": "function"
    },
    {
      "inputs": [],
      "name": "width",
      "outputs": [
        {
          "internalType": "uint16",
          "name": "",
          "type": "uint16"
        }
      ],
      "stateMutability": "view",
      "type": "function"
    }
  ],
  "bytecode": "0x60808060405234601557611eda908161001b8239f35b600080fdfe6080604052600436101561001257600080fd5b6000803560e01c8063036f48c1146115ff5780630ef26743146115da57806313e7c9d81461159c57806324a3e9641461156f578063412f10801461151b57806359103462146114d657806360e4c393146114ad578063715018a6146114435780637b4f29e01461141f5780637c11a63714611339578063852df5b31461088a5780638ccba74a146106795780638da5cb5b1461064357806391857971146105a05780639870d7fe1461049f5780639ededf771461047d578063ac8a584a146103ff578063d408354414610393578063db2869bb14610333578063f13ca34314610179578063f2fde38b1461014c5763f7625ef01461010f57600080fd5b34610149576020366003190112610149576020906040906001600160a01b0361013661196d565b1681526004835220541515604051908152f35b80fd5b50346101495760203660031901126101495761017661016961196d565b610171611d78565b611d02565b80f35b50346101495760403660031901126101495760406101963661192b565b60608083516101a4816118bb565b85815285602082015281858201520152805160010b83526003602052602082842091015160010b9060009160010b825260205220604051906101e5826118bb565b80546001600160a01b038116835260a01c61ffff16602083015260018101805461020e816119c8565b9161021c6040519384611909565b81835285526020808620869184015b8383106103015787876002888860408401520191825461024a816119c8565b916102586040519384611909565b81835260208301948152602081209080955b8387106102935761028f86866060820152604051918291602083526020830190611a31565b0390f35b60405161029f816118bb565b835460ff811660028110156102ed57825260081c6001600160a01b0316602080830191909152600185810154604084015260028601546060840152918352970196600393909301920161026a565b634e487b7160e01b85526021600452602485fd5b600160208192604051610313816118ed565b61ffff8654818116835260101c168382015281520192019201919061022b565b50346101495760403660031901126101495761034d61196d565b6001600160a01b031681526004602052604081208054602435929083101561014957604061037b84846119e0565b50548151908060010b825260101c60010b6020820152f35b503461014957604036600319011261014957600435908160010b80920361014957602435918260010b83036103fb579060409181526003602052209060010b6000526020526040806000205461ffff82519160018060a01b038116835260a01c166020820152f35b5080fd5b50346101495760203660031901126101495761041961196d565b610421611d78565b6001600160a01b0316808252602082905260408220546104439060ff16611b10565b808252816020526040822060ff1981541690557f80c0b871b97b595b16a7741c1b06fed0c6f6f558639f18ccbce50724325dc40d8280a280f35b5034610149578060031936011261014957602061ffff60015416604051908152f35b5034610149576020366003190112610149576104b961196d565b6104c1611d78565b6001600160a01b0316801561055b578082528160205260ff604083205416610520578082528160205260408220600160ff198254161790557fac6fa858e9350a46cec16539926e0fde25b7629f84b5a72bffaae4df888ae86d8280a280f35b60405162461bcd60e51b815260206004820152601360248201527220b63932b0b23c9030b71037b832b930ba37b960691b6044820152606490fd5b60405162461bcd60e51b815260206004820152601860248201527f496e76616c6964206f70657261746f72206164647265737300000000000000006044820152606490fd5b5034610149576020366003190112610149576105ba611997565b6105c2611d78565b61ffff8116156105ec5765ffff000000006001549160201b169065ffff0000000019161760015580f35b60405162461bcd60e51b815260206004820152602960248201527f4d617820756e697473207065722074696c65206d75737420626520677265617460448201526806572207468616e20360bc1b6064820152608490fd5b5034610149578060031936011261014957600080516020611e65833981519152546040516001600160a01b039091168152602090f35b50346101495760a036600319011261014957610693611997565b61069b6119a8565b60443561ffff8116810361088657606435906001600160a01b0382168203610882576084356001600160a01b038116939084900361087e57600080516020611e85833981519152549460ff8660401c16159567ffffffffffffffff811680159081610876575b600114908161086c575b159081610863575b506108545767ffffffffffffffff198116600117600080516020611e858339815191525565ffff00000000929163ffff00009188610827575b50610755611e36565b61075d611e36565b61076633611d02565b600154956601000000000000600160d01b039060301b169561ffff6601000000000000600160d01b031992169065ffffffffffff191617169160101b16179160201b1617176001556bffffffffffffffffffffffff60a01b60025416176002556107cd5780f35b68ff000000000000000019600080516020611e858339815191525416600080516020611e85833981519152557fc7f505b2f371ae2175ee4913f4499e1f2633a7b5936321eed1cdaeb6115181d2602060405160018152a180f35b68ffffffffffffffffff19166801000000000000000117600080516020611e85833981519152553861074c565b63f92ee8a960e01b8852600488fd5b90501538610713565b303b15915061070b565b889150610701565b8580fd5b8480fd5b8380fd5b5034610149576060366003190112610149576108a53661192b565b60443567ffffffffffffffff8111611335576080600319823603011261133557604051916108d2836118bb565b6108de82600401611983565b83526108ec602483016119b9565b9260208101938452604483013567ffffffffffffffff811161087e578301923660238501121561087e576004840135610924816119c8565b946109326040519687611909565b818652602060048188019360061b83010101903682116112ee57602401915b8183106112f6575050506040820193845260648101359067ffffffffffffffff82116112f25701933660238601121561087e576004850135610992816119c8565b956109a06040519788611909565b818752602060048189019360071b83010101903682116112ee57602401915b8183106112915750505060608201948552338652856020526109e760ff604088205416611b10565b60015492617fff61ffff851660011c169161ffff610a12610a0c82861660010b611b4e565b94611b77565b1660010b92617fff61ffff8760101c1660011c169061ffff610a41610a3b82851660010b611b4e565b93611b77565b1660010b94845160010b9160010b8212159182611286575b50501561124a576020830193845160010b9160010b821215918261123f575b505015611203578795865b81518051891015610acb5761ffff60208082938c60051b01015101511691160161ffff8111610ab757600190970196610a83565b634e487b7160e01b8a52601160045260248afd5b50889061ffff808c989960201c169116116111c557835160010b865260036020526040808720865160010b9060009160010b8252602052209060405192610b11846118bb565b82546001600160a01b038116855260a01c61ffff1660208501908152600184018054919491610b3f816119c8565b91610b4d6040519384611909565b8183528b526020808c208c9184015b83831061119357505050506040860152600201805490610b7b826119c8565b91610b896040519384611909565b80835260208301918b5260208b208b925b828410611124575050505060608501528761ffff60018060a01b036002541694511660246040518096819363e667790760e01b835260048301525afa9283156111195788936110fd575b508551600190810b8952600360209081526040808b208a51840b6000908152925290208a518154885161ffff60a01b60a09190911b166001600160a01b039092166001600160b01b0319909116171781559151805191830190600160401b83116110e95781548383558084106110c3575b50602001908a5260208a208a915b8383106110835750505050600201905190815191600160401b831161106f57815483835580841061100d575b506020019088526020882088915b838310610f9a57505050508561ffff60018060a01b036002541694511660246040518096819363e667790760e01b835260048301525afa928315610f8f578693610f6b575b5081516001600160a01b031615159081610f5d575b5015610f1157805186516001600160a01b0391821691168114801590610f05575b610db9575b5051855194957f7f7c50e66616a5842d6b99587c789864578bc8cc2c3b24d078476016d7b184b295610d959391926001600160a01b039182169286929091168314159081610dab575b50610d9b575b50505b6040519384935160010b84525160010b6020840152606060408401526060830190611a31565b0390a180f35b610da491611dae565b8683610d6c565b602091500151151589610d66565b8552600460205260408520805490865b828110610dd8575b5050610d1d565b610de281836119e0565b505460010b865160010b1480610ee7575b610dff57600101610dc9565b90916000198101908111610ed357610e1a610e2291846119e0565b5091836119e0565b610e7757818103610e9f575b505080548015610e8b576000190190610e4782826119e0565b610e77578790555581837f7f7c50e66616a5842d6b99587c789864578bc8cc2c3b24d078476016d7b184b2610dd1565b634e487b7160e01b88526004889052602488fd5b634e487b7160e01b87526031600452602487fd5b8154815461ffff19811661ffff9092169182178355925463ffff00001663ffffffff19909316179190911790558780610e2e565b634e487b7160e01b88526011600452602488fd5b50610ef281836119e0565b505460101c60010b875160010b14610df3565b50602083015115610d18565b507f7f7c50e66616a5842d6b99587c789864578bc8cc2c3b24d078476016d7b184b293946020610d9592015115610d6f578051610f589084906001600160a01b0316611dae565b610d6f565b602091500151151587610cf7565b610f889193503d8088833e610f808183611909565b810190611ba8565b9187610ce2565b6040513d88823e3d90fd5b805180516002811015610ff9576001926060600393602093875460ff6101008960a81b038785015160081b169216906affffffffffffffffffffff60a81b16171787556040810151868801550151600286015501920192019190610c9d565b634e487b7160e01b8c52602160045260248cfd5b80600302906003820403610ab7578360030260038104850361105b57838b5260208b2091820191015b8181106110435750610c8f565b808b600392558b60018201558b600282015501611036565b634e487b7160e01b8b52601160045260248bfd5b634e487b7160e01b89526041600452602489fd5b60016020828183945161ffff81511661ffff19885416178755015163ffff00008087549260101b16169063ffff0000191617855501920192019190610c63565b828c528360208d2091820191015b8181106110de5750610c55565b8c81556001016110d1565b634e487b7160e01b8b52604160045260248bfd5b6111129193503d808a833e610f808183611909565b9189610be4565b6040513d8a823e3d90fd5b604051611130816118bb565b825460ff8116600281101561117e57825260081c6001600160a01b03166020808301919091526001848101546040840152600285015460608401529183529401936003929092019101610b9a565b50634e487b7160e01b8f52602160045260248ffd5b6001602081926040516111a5816118ed565b61ffff8654818116835260101c1683820152815201920192019190610b5c565b60405162461bcd60e51b8152602060048201526016602482015275546f6f206d616e7920756e697473206f6e2074696c6560501b6044820152606490fd5b60405162461bcd60e51b8152602060048201526014602482015273496e76616c6964207920636f6f7264696e61746560601b6044820152606490fd5b131590503880610a78565b60405162461bcd60e51b8152602060048201526014602482015273496e76616c6964207820636f6f7264696e61746560601b6044820152606490fd5b131590503880610a59565b6080833603126112ee57604051906112a8826118bb565b83359060028210156112ea5782602092608094526112c7838701611983565b8382015260408601356040820152606086013560608201528152019201916109bf565b8a80fd5b8880fd5b8680fd5b6040833603126112ee5760206040918251611310816118ed565b611319866119b9565b81526113268387016119b9565b83820152815201920191610951565b8280fd5b503461014957604036600319011261014957611353611997565b61ffff61135e6119a8565b91611367611d78565b1680156113da5761ffff8216156113955763ffff00006001549260101b169163ffffffff1916171760015580f35b60405162461bcd60e51b815260206004820152601d60248201527f486569676874206d7573742062652067726561746572207468616e20300000006044820152606490fd5b60405162461bcd60e51b815260206004820152601c60248201527f5769647468206d7573742062652067726561746572207468616e2030000000006044820152606490fd5b5034610149578060031936011261014957602061ffff600154821c16604051908152f35b503461014957806003193601126101495761145c611d78565b600080516020611e6583398151915280546001600160a01b0319811690915581906001600160a01b03167f8be0079c531659141344cd1fd0a4f28419497f9722a3daafe3b4186f6b6457e08280a380f35b50346101495780600319360112610149576002546040516001600160a01b039091168152602090f35b5034610149576020366003190112610149576114f061196d565b6114f8611d78565b60018060a01b03166bffffffffffffffffffffffff60a01b600254161760025580f35b50346101495760203660031901126101495761153561196d565b61153d611d78565b600180546601000000000000600160d01b03191660309290921b6601000000000000600160d01b031691909117905580f35b503461014957806003193601126101495760015460405160309190911c6001600160a01b03168152602090f35b50346101495760203660031901126101495760209060ff906040906001600160a01b036115c761196d565b1681528084522054166040519015158152f35b5034610149578060031936011261014957602061ffff60015460101c16604051908152f35b50346101495760403660031901126101495761161a3661192b565b805160010b8252600360205260206040832091015160010b60010b8252602052604081209060018060a01b038254163303611876576001546002929092019160301c6001600160a01b0316803b156103fb5781604051809263450f339560e11b82526044820133600484015260406024840152865480915260648301908785526020852090855b818110611824575050508383809203925af1801561181957611809575b50604051909160206116d08184611909565b8383528392600160401b84116117f55781908354858555808610611777575b500191845280842084925b848410611705578580f35b8051805160028110156117635760019260606003938793875460ff6101008960a81b038785015160081b169216906affffffffffffffffffffff60a81b161717875560408101518688015501516002860155019201930192906116fa565b634e487b7160e01b88526021600452602488fd5b809192506003029060038204036117e157846003026003810486036117cd57848752838720849392810191015b8181106117b157506116ef565b87815560018101889055600281018890558493506003016117a4565b634e487b7160e01b87526011600452602487fd5b634e487b7160e01b86526011600452602486fd5b634e487b7160e01b85526041600452602485fd5b8161181391611909565b386116be565b6040513d84823e3d90fd5b92600391949650829550608090600193546118428260ff8316611a0e565b848060a01b039060081c166020820152838701546040820152600287015460608201520194019101908694928694926116a1565b60405162461bcd60e51b815260206004820152601860248201527f596f7520646f206e6f74206f776e20746869732074696c6500000000000000006044820152606490fd5b6080810190811067ffffffffffffffff8211176118d757604052565b634e487b7160e01b600052604160045260246000fd5b6040810190811067ffffffffffffffff8211176118d757604052565b90601f8019910116810190811067ffffffffffffffff8211176118d757604052565b60409060031901126119685760405190611944826118ed565b816004358060010b8103611968578152602435908160010b82036119685760200152565b600080fd5b600435906001600160a01b038216820361196857565b35906001600160a01b038216820361196857565b6004359061ffff8216820361196857565b6024359061ffff8216820361196857565b359061ffff8216820361196857565b67ffffffffffffffff81116118d75760051b60200190565b80548210156119f85760005260206000200190600090565b634e487b7160e01b600052603260045260246000fd5b906002821015611a1b5752565b634e487b7160e01b600052602160045260246000fd5b80516001600160a01b0316825260208082015161ffff16818401526040808301516080918501829052805191850182905260a085019392019060005b818110611ae757505050606001519160608183039101526020808351928381520192019060005b818110611aa15750505090565b9091926020608060019260608751611aba838251611a0e565b858060a01b0385820151168584015260408101516040840152015160608201520194019101919091611a94565b8251805161ffff9081168752602091820151168187015260409095019490920191600101611a6d565b15611b1757565b60405162461bcd60e51b815260206004820152600f60248201526e2737ba1030b71037b832b930ba37b960891b6044820152606490fd5b60010b617fff198114611b615760000390565b634e487b7160e01b600052601160045260246000fd5b61ffff6000199116019061ffff8211611b6157565b519061ffff8216820361196857565b5190811515820361196857565b6020818303126119685780519067ffffffffffffffff8211611968570160c081830312611968576040519160c0830183811067ffffffffffffffff8211176118d757604052611bf682611b8c565b8352611c0460208301611b9b565b6020840152611c1560408301611b8c565b604084015260608201516060840152608082015167ffffffffffffffff811161196857820181601f8201121561196857805190611c51826119c8565b92611c5f6040519485611909565b82845260208085019360071b8301019181831161196857602001925b828410611c9f57505050506080830152611c979060a001611b9b565b60a082015290565b6080848303126119685760405190611cb6826118bb565b845160028110156119685782526020850151906001600160a01b038216820361196857826020928360809501526040870151604082015260608701516060820152815201930192611c7b565b6001600160a01b03168015611d6257600080516020611e6583398151915280546001600160a01b0319811683179091556001600160a01b03167f8be0079c531659141344cd1fd0a4f28419497f9722a3daafe3b4186f6b6457e0600080a3565b631e4fbdf760e01b600052600060045260246000fd5b600080516020611e65833981519152546001600160a01b03163303611d9957565b63118cdaa760e01b6000523360045260246000fd5b6001600160a01b031660009081526004602052604090208054600160401b8110156118d757611de2916001820181556119e0565b611e2057602082611e1e935160010b61ffff198454169061ffff16178355015160010b81549060101b63ffff0000169063ffff00001916179055565b565b634e487b7160e01b600052600060045260246000fd5b60ff600080516020611e858339815191525460401c1615611e5357565b631afcd79f60e31b60005260046000fdfe9016d09d72d40fdae2fd8ceac6b6234c7706214fd39c1cd1e609a0528c199300f0c57e16840df040f15088dc2f81fe391c3923bec73e23a9662efc9c229c6a00a2646970667358221220672ce4035d40b0ccbe8b8b33c2cf8a7f3a608c13968bba0da6bd0c8b7966c26964736f6c634300081c0033",
  "linkReferences": {},
  "deployedLinkReferences": {}
}