{
  "_format": "hh-sol-artifact-1",
  "contractName": "Battleground",
  "sourceName": "contracts/core/Battleground.sol",
  "abi": [
    {
      "inputs": [],
      "name": "InvalidInitialization",
      "type": "error"
    },
    {
      "inputs": [],
      "name": "NotInitializing",
      "type": "error"
    },
    {
      "inputs": [
        {
          "internalType": "address",
          "name": "owner",
          "type": "address"
        }
      ],
      "name": "OwnableInvalidOwner",
      "type": "error"
    },
    {
      "inputs": [
        {
          "internalType": "address",
          "name": "account",
          "type": "address"
        }
      ],
      "name": "OwnableUnauthorizedAccount",
      "type": "error"
    },
    {
      "anonymous": false,
      "inputs": [
        {
          "indexed": false,
          "internalType": "uint64",
          "name": "version",
          "type": "uint64"
        }
      ],
      "name": "Initialized",
      "type": "event"
    },
    {
      "anonymous": false,
      "inputs": [
        {
          "indexed": true,
          "internalType": "address",
          "name": "operator",
          "type": "address"
        }
      ],
      "name": "OperatorAdded",
      "type": "event"
    },
    {
      "anonymous": false,
      "inputs": [
        {
          "indexed": true,
          "internalType": "address",
          "name": "operator",
          "type": "address"
        }
      ],
      "name": "OperatorRemoved",
      "type": "event"
    },
    {
      "anonymous": false,
      "inputs": [
        {
          "indexed": true,
          "internalType": "address",
          "name": "previousOwner",
          "type": "address"
        },
        {
          "indexed": true,
          "internalType": "address",
          "name": "newOwner",
          "type": "address"
        }
      ],
      "name": "OwnershipTransferred",
      "type": "event"
    },
    {
      "anonymous": false,
      "inputs": [
        {
          "components": [
            {
              "internalType": "int16",
              "name": "x",
              "type": "int16"
            },
            {
              "internalType": "int16",
              "name": "y",
              "type": "int16"
            }
          ],
          "indexed": false,
          "internalType": "struct IBattleground.Coordinates",
          "name": "coordinates",
          "type": "tuple"
        },
        {
          "components": [
            {
              "internalType": "address",
              "name": "occupant",
              "type": "address"
            },
            {
              "internalType": "uint16",
              "name": "buildingId",
              "type": "uint16"
            },
            {
              "components": [
                {
                  "internalType": "uint16",
                  "name": "unitId",
                  "type": "uint16"
                },
                {
                  "internalType": "uint16",
                  "name": "quantity",
                  "type": "uint16"
                }
              ],
              "internalType": "struct UnitQuantityLib.UnitQuantity[]",
              "name": "units",
              "type": "tuple[]"
            },
            {
              "components": [
                {
                  "internalType": "enum TokenAmountLib.TokenType",
                  "name": "tokenType",
                  "type": "uint8"
                },
                {
                  "internalType": "address",
                  "name": "tokenAddress",
                  "type": "address"
                },
                {
                  "internalType": "uint256",
                  "name": "tokenId",
                  "type": "uint256"
                },
                {
                  "internalType": "uint256",
                  "name": "amount",
                  "type": "uint256"
                }
              ],
              "internalType": "struct TokenAmountLib.TokenAmount[]",
              "name": "loot",
              "type": "tuple[]"
            }
          ],
          "indexed": false,
          "internalType": "struct IBattleground.Tile",
          "name": "tile",
          "type": "tuple"
        }
      ],
      "name": "TileUpdated",
      "type": "event"
    },
    {
      "inputs": [
        {
          "internalType": "address",
          "name": "operator",
          "type": "address"
        }
      ],
      "name": "addOperator",
      "outputs": [],
      "stateMutability": "nonpayable",
      "type": "function"
    },
    {
      "inputs": [],
      "name": "buildingManager",
      "outputs": [
        {
          "internalType": "contract IBuildingManager",
          "name": "",
          "type": "address"
        }
      ],
      "stateMutability": "view",
      "type": "function"
    },
    {
      "inputs": [
        {
          "components": [
            {
              "internalType": "int16",
              "name": "x",
              "type": "int16"
            },
            {
              "internalType": "int16",
              "name": "y",
              "type": "int16"
            }
          ],
          "internalType": "struct IBattleground.Coordinates",
          "name": "coordinates",
          "type": "tuple"
        }
      ],
      "name": "collectLoot",
      "outputs": [],
      "stateMutability": "nonpayable",
      "type": "function"
    },
    {
      "inputs": [
        {
          "components": [
            {
              "internalType": "int16",
              "name": "x",
              "type": "int16"
            },
            {
              "internalType": "int16",
              "name": "y",
              "type": "int16"
            }
          ],
          "internalType": "struct IBattleground.Coordinates",
          "name": "coordinates",
          "type": "tuple"
        }
      ],
      "name": "getTile",
      "outputs": [
        {
          "components": [
            {
              "internalType": "address",
              "name": "occupant",
              "type": "address"
            },
            {
              "internalType": "uint16",
              "name": "buildingId",
              "type": "uint16"
            },
            {
              "components": [
                {
                  "internalType": "uint16",
                  "name": "unitId",
                  "type": "uint16"
                },
                {
                  "internalType": "uint16",
                  "name": "quantity",
                  "type": "uint16"
                }
              ],
              "internalType": "struct UnitQuantityLib.UnitQuantity[]",
              "name": "units",
              "type": "tuple[]"
            },
            {
              "components": [
                {
                  "internalType": "enum TokenAmountLib.TokenType",
                  "name": "tokenType",
                  "type": "uint8"
                },
                {
                  "internalType": "address",
                  "name": "tokenAddress",
                  "type": "address"
                },
                {
                  "internalType": "uint256",
                  "name": "tokenId",
                  "type": "uint256"
                },
                {
                  "internalType": "uint256",
                  "name": "amount",
                  "type": "uint256"
                }
              ],
              "internalType": "struct TokenAmountLib.TokenAmount[]",
              "name": "loot",
              "type": "tuple[]"
            }
          ],
          "internalType": "struct IBattleground.Tile",
          "name": "",
          "type": "tuple"
        }
      ],
      "stateMutability": "view",
      "type": "function"
    },
    {
      "inputs": [
        {
          "components": [
            {
              "internalType": "int16",
              "name": "x",
              "type": "int16"
            },
            {
              "internalType": "int16",
              "name": "y",
              "type": "int16"
            }
          ],
          "internalType": "struct IBattleground.Coordinates[]",
          "name": "coordinates",
          "type": "tuple[]"
        }
      ],
      "name": "getTiles",
      "outputs": [
        {
          "components": [
            {
              "internalType": "address",
              "name": "occupant",
              "type": "address"
            },
            {
              "internalType": "uint16",
              "name": "buildingId",
              "type": "uint16"
            },
            {
              "components": [
                {
                  "internalType": "uint16",
                  "name": "unitId",
                  "type": "uint16"
                },
                {
                  "internalType": "uint16",
                  "name": "quantity",
                  "type": "uint16"
                }
              ],
              "internalType": "struct UnitQuantityLib.UnitQuantity[]",
              "name": "units",
              "type": "tuple[]"
            },
            {
              "components": [
                {
                  "internalType": "enum TokenAmountLib.TokenType",
                  "name": "tokenType",
                  "type": "uint8"
                },
                {
                  "internalType": "address",
                  "name": "tokenAddress",
                  "type": "address"
                },
                {
                  "internalType": "uint256",
                  "name": "tokenId",
                  "type": "uint256"
                },
                {
                  "internalType": "uint256",
                  "name": "amount",
                  "type": "uint256"
                }
              ],
              "internalType": "struct TokenAmountLib.TokenAmount[]",
              "name": "loot",
              "type": "tuple[]"
            }
          ],
          "internalType": "struct IBattleground.Tile[]",
          "name": "",
          "type": "tuple[]"
        }
      ],
      "stateMutability": "view",
      "type": "function"
    },
    {
      "inputs": [
        {
          "internalType": "address",
          "name": "player",
          "type": "address"
        }
      ],
      "name": "hasHeadquarters",
      "outputs": [
        {
          "internalType": "bool",
          "name": "",
          "type": "bool"
        }
      ],
      "stateMutability": "view",
      "type": "function"
    },
    {
      "inputs": [],
      "name": "height",
      "outputs": [
        {
          "internalType": "uint16",
          "name": "",
          "type": "uint16"
        }
      ],
      "stateMutability": "view",
      "type": "function"
    },
    {
      "inputs": [
        {
          "internalType": "uint16",
          "name": "_width",
          "type": "uint16"
        },
        {
          "internalType": "uint16",
          "name": "_height",
          "type": "uint16"
        },
        {
          "internalType": "uint16",
          "name": "_maxUnitsPerTile",
          "type": "uint16"
        },
        {
          "internalType": "address",
          "name": "_lootVault",
          "type": "address"
        },
        {
          "internalType": "address",
          "name": "_buildingManager",
          "type": "address"
        }
      ],
      "name": "initialize",
      "outputs": [],
      "stateMutability": "nonpayable",
      "type": "function"
    },
    {
      "inputs": [],
      "name": "lootVault",
      "outputs": [
        {
          "internalType": "contract ILootVault",
          "name": "",
          "type": "address"
        }
      ],
      "stateMutability": "view",
      "type": "function"
    },
    {
      "inputs": [],
      "name": "maxUnitsPerTile",
      "outputs": [
        {
          "internalType": "uint16",
          "name": "",
          "type": "uint16"
        }
      ],
      "stateMutability": "view",
      "type": "function"
    },
    {
      "inputs": [
        {
          "internalType": "address",
          "name": "",
          "type": "address"
        }
      ],
      "name": "operators",
      "outputs": [
        {
          "internalType": "bool",
          "name": "",
          "type": "bool"
        }
      ],
      "stateMutability": "view",
      "type": "function"
    },
    {
      "inputs": [],
      "name": "owner",
      "outputs": [
        {
          "internalType": "address",
          "name": "",
          "type": "address"
        }
      ],
      "stateMutability": "view",
      "type": "function"
    },
    {
      "inputs": [
        {
          "internalType": "address",
          "name": "",
          "type": "address"
        },
        {
          "internalType": "uint256",
          "name": "",
          "type": "uint256"
        }
      ],
      "name": "playerHeadquarters",
      "outputs": [
        {
          "internalType": "int16",
          "name": "x",
          "type": "int16"
        },
        {
          "internalType": "int16",
          "name": "y",
          "type": "int16"
        }
      ],
      "stateMutability": "view",
      "type": "function"
    },
    {
      "inputs": [
        {
          "internalType": "address",
          "name": "operator",
          "type": "address"
        }
      ],
      "name": "removeOperator",
      "outputs": [],
      "stateMutability": "nonpayable",
      "type": "function"
    },
    {
      "inputs": [],
      "name": "renounceOwnership",
      "outputs": [],
      "stateMutability": "nonpayable",
      "type": "function"
    },
    {
      "inputs": [
        {
          "internalType": "int16",
          "name": "",
          "type": "int16"
        },
        {
          "internalType": "int16",
          "name": "",
          "type": "int16"
        }
      ],
      "name": "tiles",
      "outputs": [
        {
          "internalType": "address",
          "name": "occupant",
          "type": "address"
        },
        {
          "internalType": "uint16",
          "name": "buildingId",
          "type": "uint16"
        }
      ],
      "stateMutability": "view",
      "type": "function"
    },
    {
      "inputs": [
        {
          "internalType": "address",
          "name": "newOwner",
          "type": "address"
        }
      ],
      "name": "transferOwnership",
      "outputs": [],
      "stateMutability": "nonpayable",
      "type": "function"
    },
    {
      "inputs": [
        {
          "internalType": "address",
          "name": "_buildingManager",
          "type": "address"
        }
      ],
      "name": "updateBuildingManager",
      "outputs": [],
      "stateMutability": "nonpayable",
      "type": "function"
    },
    {
      "inputs": [
        {
          "internalType": "uint16",
          "name": "_width",
          "type": "uint16"
        },
        {
          "internalType": "uint16",
          "name": "_height",
          "type": "uint16"
        }
      ],
      "name": "updateDimensions",
      "outputs": [],
      "stateMutability": "nonpayable",
      "type": "function"
    },
    {
      "inputs": [
        {
          "internalType": "address",
          "name": "_lootVault",
          "type": "address"
        }
      ],
      "name": "updateLootVault",
      "outputs": [],
      "stateMutability": "nonpayable",
      "type": "function"
    },
    {
      "inputs": [
        {
          "internalType": "uint16",
          "name": "_maxUnitsPerTile",
          "type": "uint16"
        }
      ],
      "name": "updateMaxUnitsPerTile",
      "outputs": [],
      "stateMutability": "nonpayable",
      "type": "function"
    },
    {
      "inputs": [
        {
          "components": [
            {
              "internalType": "int16",
              "name": "x",
              "type": "int16"
            },
            {
              "internalType": "int16",
              "name": "y",
              "type": "int16"
            }
          ],
          "internalType": "struct IBattleground.Coordinates",
          "name": "coordinates",
          "type": "tuple"
        },
        {
          "components": [
            {
              "internalType": "address",
              "name": "occupant",
              "type": "address"
            },
            {
              "internalType": "uint16",
              "name": "buildingId",
              "type": "uint16"
            },
            {
              "components": [
                {
                  "internalType": "uint16",
                  "name": "unitId",
                  "type": "uint16"
                },
                {
                  "internalType": "uint16",
                  "name": "quantity",
                  "type": "uint16"
                }
              ],
              "internalType": "struct UnitQuantityLib.UnitQuantity[]",
              "name": "units",
              "type": "tuple[]"
            },
            {
              "components": [
                {
                  "internalType": "enum TokenAmountLib.TokenType",
                  "name": "tokenType",
                  "type": "uint8"
                },
                {
                  "internalType": "address",
                  "name": "tokenAddress",
                  "type": "address"
                },
                {
                  "internalType": "uint256",
                  "name": "tokenId",
                  "type": "uint256"
                },
                {
                  "internalType": "uint256",
                  "name": "amount",
                  "type": "uint256"
                }
              ],
              "internalType": "struct TokenAmountLib.TokenAmount[]",
              "name": "loot",
              "type": "tuple[]"
            }
          ],
          "internalType": "struct IBattleground.Tile",
          "name": "tile",
          "type": "tuple"
        }
      ],
      "name": "updateTile",
      "outputs": [],
      "stateMutability": "nonpayable",
      "type": "function"
    },
    {
      "inputs": [],
      "name": "width",
      "outputs": [
        {
          "internalType": "uint16",
          "name": "",
          "type": "uint16"
        }
      ],
      "stateMutability": "view",
      "type": "function"
    }
  ],
  "bytecode": "0x60808060405234601557612232908161001b8239f35b600080fdfe6080604052600436101561001257600080fd5b6000803560e01c8063036f48c1146118f75780630ef26743146118d257806313e7c9d81461189457806324a3e96414611867578063412f10801461181357806359103462146117ce57806360e4c393146117a5578063715018a61461173b5780637b4f29e0146117175780637c11a63714611631578063852df5b314610b805780638ccba74a146109735780638da5cb5b1461093d578063918579711461089a5780639870d7fe146107995780639ededf7714610777578063ac8a584a146106f9578063bf6f5b4e146103f5578063d408354414610389578063db2869bb14610329578063f13ca34314610184578063f2fde38b146101575763f7625ef01461011a57600080fd5b34610154576020366003190112610154576020906040906001600160a01b03610141611c73565b1681526004835220541515604051908152f35b80fd5b503461015457602036600319011261015457610181610174611c73565b61017c6120d0565b61205a565b80f35b50346101545760403660031901126101545760406101a136611c36565b6101a9612034565b50805160010b83526003602052602082842091015160010b9060009160010b825260205220604051906101db82611bb3565b80546001600160a01b038116835260a01c61ffff16602083015260018101805461020481611cce565b916102126040519384611c01565b81835285526020808620869184015b8383106102f75787876002888860408401520191825461024081611cce565b9161024e6040519384611c01565b81835260208301948152602081209080955b8387106102895761028586866060820152604051918291602083526020830190611d09565b0390f35b60405161029581611bb3565b835460ff811660028110156102e357825260081c6001600160a01b03166020808301919091526001858101546040840152600286015460608401529183529701966003939093019201610260565b634e487b7160e01b85526021600452602485fd5b60016020819260405161030981611be5565b61ffff8654818116835260101c1683820152815201920192019190610221565b503461015457604036600319011261015457610343611c73565b6001600160a01b03168152600460205260408120805460243592908310156101545760406103718484611de8565b50548151908060010b825260101c60010b6020820152f35b503461015457604036600319011261015457600435908160010b80920361015457602435918260010b83036103f1579060409181526003602052209060010b6000526020526040806000205461ffff82519160018060a01b038116835260a01c166020820152f35b5080fd5b50346101545760203660031901126101545760043567ffffffffffffffff81116103f157366023820112156103f157806004013561043281611cce565b916104406040519384611c01565b8183526024602084019260061b820101903682116106f557602401915b8183106106b657505050805161047281611cce565b916104806040519384611c01565b818352601f1961048f83611cce565b01845b81811061069f575050835b82811061050b5783856040519182916020830160208452825180915260408401602060408360051b870101940192905b8282106104dc57505050500390f35b919360019193955060206104fb8192603f198a82030186528851611d09565b96019201920185949391926104cd565b60406105178284611e92565b51805160010b87526003602052602082882091015160010b9060009160010b8252602052206040519061054982611bb3565b80546001600160a01b038116835260a01c61ffff16602083015260018101805461057281611cce565b916105806040519384611c01565b81835289526020808a20908a9084015b83821061066d575050505060408301526002018054906105af82611cce565b916105bd6040519384611c01565b80835260208301918952602089209189905b8282106105ff57505050506060820152600191906105ed8287611e92565b526105f88186611e92565b500161049d565b60405161060b81611bb3565b845460ff8116600281101561065957825260081c6001600160a01b031660208083019190915260018681015460408401526002870154606084015291835260039590950194920191016105cf565b634e487b7160e01b8e52602160045260248efd5b60016020819260405161067f81611be5565b61ffff8754818116835260101c1683820152815201930191019091610590565b6020906106aa612034565b82828801015201610492565b6040833603126106f557602060409182516106d081611be5565b6106d986611c23565b81526106e6838701611c23565b8382015281520192019161045d565b8480fd5b503461015457602036600319011261015457610713611c73565b61071b6120d0565b6001600160a01b03168082526020829052604082205461073d9060ff16611e16565b808252816020526040822060ff1981541690557f80c0b871b97b595b16a7741c1b06fed0c6f6f558639f18ccbce50724325dc40d8280a280f35b5034610154578060031936011261015457602061ffff60015416604051908152f35b5034610154576020366003190112610154576107b3611c73565b6107bb6120d0565b6001600160a01b03168015610855578082528160205260ff60408320541661081a578082528160205260408220600160ff198254161790557fac6fa858e9350a46cec16539926e0fde25b7629f84b5a72bffaae4df888ae86d8280a280f35b60405162461bcd60e51b815260206004820152601360248201527220b63932b0b23c9030b71037b832b930ba37b960691b6044820152606490fd5b60405162461bcd60e51b815260206004820152601860248201527f496e76616c6964206f70657261746f72206164647265737300000000000000006044820152606490fd5b5034610154576020366003190112610154576108b4611c9d565b6108bc6120d0565b61ffff8116156108e65765ffff000000006001549160201b169065ffff0000000019161760015580f35b60405162461bcd60e51b815260206004820152602960248201527f4d617820756e697473207065722074696c65206d75737420626520677265617460448201526806572207468616e20360bc1b6064820152608490fd5b50346101545780600319360112610154576000805160206121bd833981519152546040516001600160a01b039091168152602090f35b50346101545760a03660031901126101545761098d611c9d565b610995611cae565b60443561ffff81168103610b7c57606435906001600160a01b03821682036106f5576084356001600160a01b0381169390849003610b78576000805160206121dd833981519152549460ff8660401c16159567ffffffffffffffff811680159081610b70575b6001149081610b66575b159081610b5d575b50610b4e5767ffffffffffffffff1981166001176000805160206121dd8339815191525565ffff00000000929163ffff00009188610b21575b50610a4f61218e565b610a5761218e565b610a603361205a565b600154956601000000000000600160d01b039060301b169561ffff6601000000000000600160d01b031992169065ffffffffffff191617169160101b16179160201b1617176001556bffffffffffffffffffffffff60a01b6002541617600255610ac75780f35b68ff0000000000000000196000805160206121dd83398151915254166000805160206121dd833981519152557fc7f505b2f371ae2175ee4913f4499e1f2633a7b5936321eed1cdaeb6115181d2602060405160018152a180f35b68ffffffffffffffffff191668010000000000000001176000805160206121dd8339815191525538610a46565b63f92ee8a960e01b8852600488fd5b90501538610a0d565b303b159150610a05565b8891506109fb565b8580fd5b8380fd5b503461015457606036600319011261015457610b9b36611c36565b60443567ffffffffffffffff811161162d576080600319823603011261162d5760405191610bc883611bb3565b610bd482600401611c89565b8352610be260248301611cbf565b9260208101938452604483013567ffffffffffffffff8111610b785783019236602385011215610b78576004840135610c1a81611cce565b94610c286040519687611c01565b818652602060048188019360061b83010101903682116115e657602401915b8183106115ee575050506040820193845260648101359067ffffffffffffffff82116115ea57019336602386011215610b78576004850135610c8881611cce565b95610c966040519788611c01565b818752602060048189019360071b83010101903682116115e657602401915b818310611589575050506060820194855233865285602052610cdd60ff604088205416611e16565b60015492617fff61ffff851660011c169161ffff610d08610d0282861660010b611e54565b94611e7d565b1660010b92617fff61ffff8760101c1660011c169061ffff610d37610d3182851660010b611e54565b93611e7d565b1660010b94845160010b9160010b821215918261157e575b505015611542576020830193845160010b9160010b8212159182611537575b5050156114fb578795865b81518051891015610dc35761ffff6020610d948b8394611e92565b5101511691160161ffff8111610daf57600190970196610d79565b634e487b7160e01b8a52601160045260248afd5b50889061ffff808c989960201c169116116114bd57835160010b865260036020526040808720865160010b9060009160010b8252602052209060405192610e0984611bb3565b82546001600160a01b038116855260a01c61ffff1660208501908152600184018054919491610e3781611cce565b91610e456040519384611c01565b8183528b526020808c208c9184015b83831061148b57505050506040860152600201805490610e7382611cce565b91610e816040519384611c01565b80835260208301918b5260208b208b925b82841061141c575050505060608501528761ffff60018060a01b036002541694511660246040518096819363e667790760e01b835260048301525afa9283156114115788936113f5575b508551600190810b8952600360209081526040808b208a51840b6000908152925290208a518154885161ffff60a01b60a09190911b166001600160a01b039092166001600160b01b0319909116171781559151805191830190600160401b83116113e15781548383558084106113bb575b50602001908a5260208a208a915b83831061137b5750505050600201905190815191600160401b8311611367578154838355808410611305575b506020019088526020882088915b83831061129257505050508561ffff60018060a01b036002541694511660246040518096819363e667790760e01b835260048301525afa928315611287578693611263575b5081516001600160a01b031615159081611255575b501561120957805186516001600160a01b03918216911681148015906111fd575b6110b1575b5051855194957f7f7c50e66616a5842d6b99587c789864578bc8cc2c3b24d078476016d7b184b29561108d9391926001600160a01b0391821692869290911683141590816110a3575b50611093575b50505b6040519384935160010b84525160010b6020840152606060408401526060830190611d09565b0390a180f35b61109c91612106565b8683611064565b60209150015115158961105e565b8552600460205260408520805490865b8281106110d0575b5050611015565b6110da8183611de8565b505460010b865160010b14806111df575b6110f7576001016110c1565b909160001981019081116111cb5761111261111a9184611de8565b509183611de8565b61116f57818103611197575b50508054801561118357600019019061113f8282611de8565b61116f578790555581837f7f7c50e66616a5842d6b99587c789864578bc8cc2c3b24d078476016d7b184b26110c9565b634e487b7160e01b88526004889052602488fd5b634e487b7160e01b87526031600452602487fd5b8154815461ffff19811661ffff9092169182178355925463ffff00001663ffffffff19909316179190911790558780611126565b634e487b7160e01b88526011600452602488fd5b506111ea8183611de8565b505460101c60010b875160010b146110eb565b50602083015115611010565b507f7f7c50e66616a5842d6b99587c789864578bc8cc2c3b24d078476016d7b184b29394602061108d920151156110675780516112509084906001600160a01b0316612106565b611067565b602091500151151587610fef565b6112809193503d8088833e6112788183611c01565b810190611ec2565b9187610fda565b6040513d88823e3d90fd5b8051805160028110156112f1576001926060600393602093875460ff6101008960a81b038785015160081b169216906affffffffffffffffffffff60a81b16171787556040810151868801550151600286015501920192019190610f95565b634e487b7160e01b8c52602160045260248cfd5b80600302906003820403610daf578360030260038104850361135357838b5260208b2091820191015b81811061133b5750610f87565b808b600392558b60018201558b60028201550161132e565b634e487b7160e01b8b52601160045260248bfd5b634e487b7160e01b89526041600452602489fd5b60016020828183945161ffff81511661ffff19885416178755015163ffff00008087549260101b16169063ffff0000191617855501920192019190610f5b565b828c528360208d2091820191015b8181106113d65750610f4d565b8c81556001016113c9565b634e487b7160e01b8b52604160045260248bfd5b61140a9193503d808a833e6112788183611c01565b9189610edc565b6040513d8a823e3d90fd5b60405161142881611bb3565b825460ff8116600281101561147657825260081c6001600160a01b03166020808301919091526001848101546040840152600285015460608401529183529401936003929092019101610e92565b50634e487b7160e01b8f52602160045260248ffd5b60016020819260405161149d81611be5565b61ffff8654818116835260101c1683820152815201920192019190610e54565b60405162461bcd60e51b8152602060048201526016602482015275546f6f206d616e7920756e697473206f6e2074696c6560501b6044820152606490fd5b60405162461bcd60e51b8152602060048201526014602482015273496e76616c6964207920636f6f7264696e61746560601b6044820152606490fd5b131590503880610d6e565b60405162461bcd60e51b8152602060048201526014602482015273496e76616c6964207820636f6f7264696e61746560601b6044820152606490fd5b131590503880610d4f565b6080833603126115e657604051906115a082611bb3565b83359060028210156115e25782602092608094526115bf838701611c89565b838201526040860135604082015260608601356060820152815201920191610cb5565b8a80fd5b8880fd5b8680fd5b6040833603126115e6576020604091825161160881611be5565b61161186611cbf565b815261161e838701611cbf565b83820152815201920191610c47565b8280fd5b50346101545760403660031901126101545761164b611c9d565b61ffff611656611cae565b9161165f6120d0565b1680156116d25761ffff82161561168d5763ffff00006001549260101b169163ffffffff1916171760015580f35b60405162461bcd60e51b815260206004820152601d60248201527f486569676874206d7573742062652067726561746572207468616e20300000006044820152606490fd5b60405162461bcd60e51b815260206004820152601c60248201527f5769647468206d7573742062652067726561746572207468616e2030000000006044820152606490fd5b5034610154578060031936011261015457602061ffff600154821c16604051908152f35b50346101545780600319360112610154576117546120d0565b6000805160206121bd83398151915280546001600160a01b0319811690915581906001600160a01b03167f8be0079c531659141344cd1fd0a4f28419497f9722a3daafe3b4186f6b6457e08280a380f35b50346101545780600319360112610154576002546040516001600160a01b039091168152602090f35b5034610154576020366003190112610154576117e8611c73565b6117f06120d0565b60018060a01b03166bffffffffffffffffffffffff60a01b600254161760025580f35b50346101545760203660031901126101545761182d611c73565b6118356120d0565b600180546601000000000000600160d01b03191660309290921b6601000000000000600160d01b031691909117905580f35b503461015457806003193601126101545760015460405160309190911c6001600160a01b03168152602090f35b50346101545760203660031901126101545760209060ff906040906001600160a01b036118bf611c73565b1681528084522054166040519015158152f35b5034610154578060031936011261015457602061ffff60015460101c16604051908152f35b50346101545760403660031901126101545761191236611c36565b805160010b8252600360205260206040832091015160010b60010b8252602052604081209060018060a01b038254163303611b6e576001546002929092019160301c6001600160a01b0316803b156103f15781604051809263450f339560e11b82526044820133600484015260406024840152865480915260648301908785526020852090855b818110611b1c575050508383809203925af18015611b1157611b01575b50604051909160206119c88184611c01565b8383528392600160401b8411611aed5781908354858555808610611a6f575b500191845280842084925b8484106119fd578580f35b805180516002811015611a5b5760019260606003938793875460ff6101008960a81b038785015160081b169216906affffffffffffffffffffff60a81b161717875560408101518688015501516002860155019201930192906119f2565b634e487b7160e01b88526021600452602488fd5b80919250600302906003820403611ad95784600302600381048603611ac557848752838720849392810191015b818110611aa957506119e7565b8781556001810188905560028101889055849350600301611a9c565b634e487b7160e01b87526011600452602487fd5b634e487b7160e01b86526011600452602486fd5b634e487b7160e01b85526041600452602485fd5b81611b0b91611c01565b386119b6565b6040513d84823e3d90fd5b9260039194965082955060809060019354611b3a8260ff8316611ce6565b848060a01b039060081c16602082015283870154604082015260028701546060820152019401910190869492869492611999565b60405162461bcd60e51b815260206004820152601860248201527f596f7520646f206e6f74206f776e20746869732074696c6500000000000000006044820152606490fd5b6080810190811067ffffffffffffffff821117611bcf57604052565b634e487b7160e01b600052604160045260246000fd5b6040810190811067ffffffffffffffff821117611bcf57604052565b90601f8019910116810190811067ffffffffffffffff821117611bcf57604052565b35908160010b8203611c3157565b600080fd5b6040906003190112611c315760405190611c4f82611be5565b816004358060010b8103611c31578152602435908160010b8203611c315760200152565b600435906001600160a01b0382168203611c3157565b35906001600160a01b0382168203611c3157565b6004359061ffff82168203611c3157565b6024359061ffff82168203611c3157565b359061ffff82168203611c3157565b67ffffffffffffffff8111611bcf5760051b60200190565b906002821015611cf35752565b634e487b7160e01b600052602160045260246000fd5b80516001600160a01b0316825260208082015161ffff16818401526040808301516080918501829052805191850182905260a085019392019060005b818110611dbf57505050606001519160608183039101526020808351928381520192019060005b818110611d795750505090565b9091926020608060019260608751611d92838251611ce6565b858060a01b0385820151168584015260408101516040840152015160608201520194019101919091611d6c565b8251805161ffff9081168752602091820151168187015260409095019490920191600101611d45565b8054821015611e005760005260206000200190600090565b634e487b7160e01b600052603260045260246000fd5b15611e1d57565b60405162461bcd60e51b815260206004820152600f60248201526e2737ba1030b71037b832b930ba37b960891b6044820152606490fd5b60010b617fff198114611e675760000390565b634e487b7160e01b600052601160045260246000fd5b61ffff6000199116019061ffff8211611e6757565b8051821015611e005760209160051b010190565b519061ffff82168203611c3157565b51908115158203611c3157565b602081830312611c315780519067ffffffffffffffff8211611c31570160e081830312611c31576040519160e0830183811067ffffffffffffffff821117611bcf57604052611f1082611ea6565b8352611f1e60208301611eb5565b6020840152611f2f60408301611ea6565b6040840152611f4060608301611ea6565b6060840152611f5160808301611ea6565b608084015260a082015167ffffffffffffffff8111611c3157820181601f82011215611c3157805190611f8382611cce565b92611f916040519485611c01565b82845260208085019360071b83010191818311611c3157602001925b828410611fd1575050505060a0830152611fc99060c001611eb5565b60c082015290565b608084830312611c315760405190611fe882611bb3565b84516002811015611c315782526020850151906001600160a01b0382168203611c3157826020928360809501526040870151604082015260608701516060820152815201930192611fad565b6040519061204182611bb3565b6060808360008152600060208201528160408201520152565b6001600160a01b031680156120ba576000805160206121bd83398151915280546001600160a01b0319811683179091556001600160a01b03167f8be0079c531659141344cd1fd0a4f28419497f9722a3daafe3b4186f6b6457e0600080a3565b631e4fbdf760e01b600052600060045260246000fd5b6000805160206121bd833981519152546001600160a01b031633036120f157565b63118cdaa760e01b6000523360045260246000fd5b6001600160a01b031660009081526004602052604090208054600160401b811015611bcf5761213a91600182018155611de8565b61217857602082612176935160010b61ffff198454169061ffff16178355015160010b81549060101b63ffff0000169063ffff00001916179055565b565b634e487b7160e01b600052600060045260246000fd5b60ff6000805160206121dd8339815191525460401c16156121ab57565b631afcd79f60e31b60005260046000fdfe9016d09d72d40fdae2fd8ceac6b6234c7706214fd39c1cd1e609a0528c199300f0c57e16840df040f15088dc2f81fe391c3923bec73e23a9662efc9c229c6a00a2646970667358221220ab4956f955569a0c57b8ae7d3d7661974acb0f29f164be9634044d89ae5070ba64736f6c634300081c0033",
  "linkReferences": {},
  "deployedLinkReferences": {}
}