{
  "_format": "hh-sol-artifact-1",
  "contractName": "Battleground",
  "sourceName": "contracts/core/Battleground.sol",
  "abi": [
    {
      "inputs": [],
      "name": "InvalidInitialization",
      "type": "error"
    },
    {
      "inputs": [],
      "name": "NotInitializing",
      "type": "error"
    },
    {
      "inputs": [
        {
          "internalType": "address",
          "name": "owner",
          "type": "address"
        }
      ],
      "name": "OwnableInvalidOwner",
      "type": "error"
    },
    {
      "inputs": [
        {
          "internalType": "address",
          "name": "account",
          "type": "address"
        }
      ],
      "name": "OwnableUnauthorizedAccount",
      "type": "error"
    },
    {
      "anonymous": false,
      "inputs": [
        {
          "indexed": false,
          "internalType": "uint64",
          "name": "version",
          "type": "uint64"
        }
      ],
      "name": "Initialized",
      "type": "event"
    },
    {
      "anonymous": false,
      "inputs": [
        {
          "indexed": true,
          "internalType": "address",
          "name": "operator",
          "type": "address"
        }
      ],
      "name": "OperatorAdded",
      "type": "event"
    },
    {
      "anonymous": false,
      "inputs": [
        {
          "indexed": true,
          "internalType": "address",
          "name": "operator",
          "type": "address"
        }
      ],
      "name": "OperatorRemoved",
      "type": "event"
    },
    {
      "anonymous": false,
      "inputs": [
        {
          "indexed": true,
          "internalType": "address",
          "name": "previousOwner",
          "type": "address"
        },
        {
          "indexed": true,
          "internalType": "address",
          "name": "newOwner",
          "type": "address"
        }
      ],
      "name": "OwnershipTransferred",
      "type": "event"
    },
    {
      "anonymous": false,
      "inputs": [
        {
          "components": [
            {
              "internalType": "int16",
              "name": "x",
              "type": "int16"
            },
            {
              "internalType": "int16",
              "name": "y",
              "type": "int16"
            }
          ],
          "indexed": false,
          "internalType": "struct IBattleground.Coordinates",
          "name": "coordinates",
          "type": "tuple"
        },
        {
          "components": [
            {
              "internalType": "address",
              "name": "occupant",
              "type": "address"
            },
            {
              "internalType": "uint16",
              "name": "buildingId",
              "type": "uint16"
            },
            {
              "components": [
                {
                  "internalType": "uint16",
                  "name": "unitId",
                  "type": "uint16"
                },
                {
                  "internalType": "uint16",
                  "name": "quantity",
                  "type": "uint16"
                }
              ],
              "internalType": "struct UnitQuantityLib.UnitQuantity[]",
              "name": "units",
              "type": "tuple[]"
            },
            {
              "components": [
                {
                  "internalType": "enum TokenAmountLib.TokenType",
                  "name": "tokenType",
                  "type": "uint8"
                },
                {
                  "internalType": "address",
                  "name": "tokenAddress",
                  "type": "address"
                },
                {
                  "internalType": "uint256",
                  "name": "tokenId",
                  "type": "uint256"
                },
                {
                  "internalType": "uint256",
                  "name": "amount",
                  "type": "uint256"
                }
              ],
              "internalType": "struct TokenAmountLib.TokenAmount[]",
              "name": "loot",
              "type": "tuple[]"
            }
          ],
          "indexed": false,
          "internalType": "struct IBattleground.Tile",
          "name": "tile",
          "type": "tuple"
        }
      ],
      "name": "TileUpdated",
      "type": "event"
    },
    {
      "inputs": [
        {
          "internalType": "address",
          "name": "operator",
          "type": "address"
        }
      ],
      "name": "addOperator",
      "outputs": [],
      "stateMutability": "nonpayable",
      "type": "function"
    },
    {
      "inputs": [],
      "name": "buildingManager",
      "outputs": [
        {
          "internalType": "contract IBuildingManager",
          "name": "",
          "type": "address"
        }
      ],
      "stateMutability": "view",
      "type": "function"
    },
    {
      "inputs": [
        {
          "components": [
            {
              "internalType": "int16",
              "name": "x",
              "type": "int16"
            },
            {
              "internalType": "int16",
              "name": "y",
              "type": "int16"
            }
          ],
          "internalType": "struct IBattleground.Coordinates",
          "name": "coordinates",
          "type": "tuple"
        }
      ],
      "name": "collectLoot",
      "outputs": [],
      "stateMutability": "nonpayable",
      "type": "function"
    },
    {
      "inputs": [
        {
          "components": [
            {
              "internalType": "int16",
              "name": "x",
              "type": "int16"
            },
            {
              "internalType": "int16",
              "name": "y",
              "type": "int16"
            }
          ],
          "internalType": "struct IBattleground.Coordinates",
          "name": "coordinates",
          "type": "tuple"
        }
      ],
      "name": "getTile",
      "outputs": [
        {
          "components": [
            {
              "internalType": "address",
              "name": "occupant",
              "type": "address"
            },
            {
              "internalType": "uint16",
              "name": "buildingId",
              "type": "uint16"
            },
            {
              "components": [
                {
                  "internalType": "uint16",
                  "name": "unitId",
                  "type": "uint16"
                },
                {
                  "internalType": "uint16",
                  "name": "quantity",
                  "type": "uint16"
                }
              ],
              "internalType": "struct UnitQuantityLib.UnitQuantity[]",
              "name": "units",
              "type": "tuple[]"
            },
            {
              "components": [
                {
                  "internalType": "enum TokenAmountLib.TokenType",
                  "name": "tokenType",
                  "type": "uint8"
                },
                {
                  "internalType": "address",
                  "name": "tokenAddress",
                  "type": "address"
                },
                {
                  "internalType": "uint256",
                  "name": "tokenId",
                  "type": "uint256"
                },
                {
                  "internalType": "uint256",
                  "name": "amount",
                  "type": "uint256"
                }
              ],
              "internalType": "struct TokenAmountLib.TokenAmount[]",
              "name": "loot",
              "type": "tuple[]"
            }
          ],
          "internalType": "struct IBattleground.Tile",
          "name": "",
          "type": "tuple"
        }
      ],
      "stateMutability": "view",
      "type": "function"
    },
    {
      "inputs": [
        {
          "internalType": "address",
          "name": "player",
          "type": "address"
        }
      ],
      "name": "hasHeadquarters",
      "outputs": [
        {
          "internalType": "bool",
          "name": "",
          "type": "bool"
        }
      ],
      "stateMutability": "view",
      "type": "function"
    },
    {
      "inputs": [],
      "name": "height",
      "outputs": [
        {
          "internalType": "uint16",
          "name": "",
          "type": "uint16"
        }
      ],
      "stateMutability": "view",
      "type": "function"
    },
    {
      "inputs": [
        {
          "internalType": "uint16",
          "name": "_width",
          "type": "uint16"
        },
        {
          "internalType": "uint16",
          "name": "_height",
          "type": "uint16"
        }
      ],
      "name": "initialize",
      "outputs": [],
      "stateMutability": "nonpayable",
      "type": "function"
    },
    {
      "inputs": [],
      "name": "lootVault",
      "outputs": [
        {
          "internalType": "contract ILootVault",
          "name": "",
          "type": "address"
        }
      ],
      "stateMutability": "view",
      "type": "function"
    },
    {
      "inputs": [],
      "name": "maxUnitsPerTile",
      "outputs": [
        {
          "internalType": "uint16",
          "name": "",
          "type": "uint16"
        }
      ],
      "stateMutability": "view",
      "type": "function"
    },
    {
      "inputs": [
        {
          "internalType": "address",
          "name": "",
          "type": "address"
        }
      ],
      "name": "operators",
      "outputs": [
        {
          "internalType": "bool",
          "name": "",
          "type": "bool"
        }
      ],
      "stateMutability": "view",
      "type": "function"
    },
    {
      "inputs": [],
      "name": "owner",
      "outputs": [
        {
          "internalType": "address",
          "name": "",
          "type": "address"
        }
      ],
      "stateMutability": "view",
      "type": "function"
    },
    {
      "inputs": [
        {
          "internalType": "address",
          "name": "",
          "type": "address"
        },
        {
          "internalType": "uint256",
          "name": "",
          "type": "uint256"
        }
      ],
      "name": "playerHeadquarters",
      "outputs": [
        {
          "internalType": "int16",
          "name": "x",
          "type": "int16"
        },
        {
          "internalType": "int16",
          "name": "y",
          "type": "int16"
        }
      ],
      "stateMutability": "view",
      "type": "function"
    },
    {
      "inputs": [
        {
          "internalType": "address",
          "name": "operator",
          "type": "address"
        }
      ],
      "name": "removeOperator",
      "outputs": [],
      "stateMutability": "nonpayable",
      "type": "function"
    },
    {
      "inputs": [],
      "name": "renounceOwnership",
      "outputs": [],
      "stateMutability": "nonpayable",
      "type": "function"
    },
    {
      "inputs": [
        {
          "internalType": "int16",
          "name": "",
          "type": "int16"
        },
        {
          "internalType": "int16",
          "name": "",
          "type": "int16"
        }
      ],
      "name": "tiles",
      "outputs": [
        {
          "internalType": "address",
          "name": "occupant",
          "type": "address"
        },
        {
          "internalType": "uint16",
          "name": "buildingId",
          "type": "uint16"
        }
      ],
      "stateMutability": "view",
      "type": "function"
    },
    {
      "inputs": [
        {
          "internalType": "address",
          "name": "newOwner",
          "type": "address"
        }
      ],
      "name": "transferOwnership",
      "outputs": [],
      "stateMutability": "nonpayable",
      "type": "function"
    },
    {
      "inputs": [
        {
          "internalType": "address",
          "name": "_buildingManager",
          "type": "address"
        }
      ],
      "name": "updateBuildingManager",
      "outputs": [],
      "stateMutability": "nonpayable",
      "type": "function"
    },
    {
      "inputs": [
        {
          "internalType": "uint16",
          "name": "_width",
          "type": "uint16"
        },
        {
          "internalType": "uint16",
          "name": "_height",
          "type": "uint16"
        }
      ],
      "name": "updateDimensions",
      "outputs": [],
      "stateMutability": "nonpayable",
      "type": "function"
    },
    {
      "inputs": [
        {
          "internalType": "address",
          "name": "_lootVault",
          "type": "address"
        }
      ],
      "name": "updateLootVault",
      "outputs": [],
      "stateMutability": "nonpayable",
      "type": "function"
    },
    {
      "inputs": [
        {
          "internalType": "uint16",
          "name": "_maxUnitsPerTile",
          "type": "uint16"
        }
      ],
      "name": "updateMaxUnitsPerTile",
      "outputs": [],
      "stateMutability": "nonpayable",
      "type": "function"
    },
    {
      "inputs": [
        {
          "components": [
            {
              "internalType": "int16",
              "name": "x",
              "type": "int16"
            },
            {
              "internalType": "int16",
              "name": "y",
              "type": "int16"
            }
          ],
          "internalType": "struct IBattleground.Coordinates",
          "name": "coordinates",
          "type": "tuple"
        },
        {
          "components": [
            {
              "internalType": "address",
              "name": "occupant",
              "type": "address"
            },
            {
              "internalType": "uint16",
              "name": "buildingId",
              "type": "uint16"
            },
            {
              "components": [
                {
                  "internalType": "uint16",
                  "name": "unitId",
                  "type": "uint16"
                },
                {
                  "internalType": "uint16",
                  "name": "quantity",
                  "type": "uint16"
                }
              ],
              "internalType": "struct UnitQuantityLib.UnitQuantity[]",
              "name": "units",
              "type": "tuple[]"
            },
            {
              "components": [
                {
                  "internalType": "enum TokenAmountLib.TokenType",
                  "name": "tokenType",
                  "type": "uint8"
                },
                {
                  "internalType": "address",
                  "name": "tokenAddress",
                  "type": "address"
                },
                {
                  "internalType": "uint256",
                  "name": "tokenId",
                  "type": "uint256"
                },
                {
                  "internalType": "uint256",
                  "name": "amount",
                  "type": "uint256"
                }
              ],
              "internalType": "struct TokenAmountLib.TokenAmount[]",
              "name": "loot",
              "type": "tuple[]"
            }
          ],
          "internalType": "struct IBattleground.Tile",
          "name": "tile",
          "type": "tuple"
        }
      ],
      "name": "updateTile",
      "outputs": [],
      "stateMutability": "nonpayable",
      "type": "function"
    },
    {
      "inputs": [],
      "name": "width",
      "outputs": [
        {
          "internalType": "uint16",
          "name": "",
          "type": "uint16"
        }
      ],
      "stateMutability": "view",
      "type": "function"
    }
  ],
  "bytecode": "0x60808060405234601557611e4b908161001b8239f35b600080fdfe6080604052600436101561001257600080fd5b6000803560e01c8063036f48c1146115705780630ef267431461154b57806313e7c9d81461150d57806324a3e964146114e05780633c84b5d314611362578063412f10801461130e57806359103462146112c957806360e4c393146112a0578063715018a6146112365780637b4f29e0146112125780637c11a6371461112c578063852df5b3146106795780638da5cb5b1461064357806391857971146105a05780639870d7fe1461049f5780639ededf771461047d578063ac8a584a146103ff578063d408354414610393578063db2869bb14610333578063f13ca34314610179578063f2fde38b1461014c5763f7625ef01461010f57600080fd5b34610149576020366003190112610149576020906040906001600160a01b036101366118de565b1681526004835220541515604051908152f35b80fd5b5034610149576020366003190112610149576101766101696118de565b610171611ce9565b611c73565b80f35b50346101495760403660031901126101495760406101963661189c565b60608083516101a48161182c565b85815285602082015281858201520152805160010b83526003602052602082842091015160010b9060009160010b825260205220604051906101e58261182c565b80546001600160a01b038116835260a01c61ffff16602083015260018101805461020e81611939565b9161021c604051938461187a565b81835285526020808620869184015b8383106103015787876002888860408401520191825461024a81611939565b91610258604051938461187a565b81835260208301948152602081209080955b8387106102935761028f868660608201526040519182916020835260208301906119a2565b0390f35b60405161029f8161182c565b835460ff811660028110156102ed57825260081c6001600160a01b0316602080830191909152600185810154604084015260028601546060840152918352970196600393909301920161026a565b634e487b7160e01b85526021600452602485fd5b6001602081926040516103138161185e565b61ffff8654818116835260101c168382015281520192019201919061022b565b50346101495760403660031901126101495761034d6118de565b6001600160a01b031681526004602052604081208054602435929083101561014957604061037b8484611951565b50548151908060010b825260101c60010b6020820152f35b503461014957604036600319011261014957600435908160010b80920361014957602435918260010b83036103fb579060409181526003602052209060010b6000526020526040806000205461ffff82519160018060a01b038116835260a01c166020820152f35b5080fd5b5034610149576020366003190112610149576104196118de565b610421611ce9565b6001600160a01b0316808252602082905260408220546104439060ff16611a81565b808252816020526040822060ff1981541690557f80c0b871b97b595b16a7741c1b06fed0c6f6f558639f18ccbce50724325dc40d8280a280f35b5034610149578060031936011261014957602061ffff60015416604051908152f35b5034610149576020366003190112610149576104b96118de565b6104c1611ce9565b6001600160a01b0316801561055b578082528160205260ff604083205416610520578082528160205260408220600160ff198254161790557fac6fa858e9350a46cec16539926e0fde25b7629f84b5a72bffaae4df888ae86d8280a280f35b60405162461bcd60e51b815260206004820152601360248201527220b63932b0b23c9030b71037b832b930ba37b960691b6044820152606490fd5b60405162461bcd60e51b815260206004820152601860248201527f496e76616c6964206f70657261746f72206164647265737300000000000000006044820152606490fd5b5034610149576020366003190112610149576105ba611908565b6105c2611ce9565b61ffff8116156105ec5765ffff000000006001549160201b169065ffff0000000019161760015580f35b60405162461bcd60e51b815260206004820152602960248201527f4d617820756e697473207065722074696c65206d75737420626520677265617460448201526806572207468616e20360bc1b6064820152608490fd5b5034610149578060031936011261014957600080516020611dd6833981519152546040516001600160a01b039091168152602090f35b5034610149576060366003190112610149576106943661189c565b60443567ffffffffffffffff8111611128576080600319823603011261112857604051916106c18361182c565b6106cd826004016118f4565b83526106db6024830161192a565b9260208101938452604483013567ffffffffffffffff81116110e157830192366023850112156110e157600484013561071381611939565b94610721604051968761187a565b818652602060048188019360061b83010101903682116110dd57602401915b8183106110e9575050506040820193845260648101359067ffffffffffffffff82116110e5570193366023860112156110e157600485013561078181611939565b9561078f604051978861187a565b818752602060048189019360071b83010101903682116110dd57602401915b8183106110805750505060608201948552338652856020526107d660ff604088205416611a81565b60015492617fff61ffff851660011c169161ffff6108016107fb82861660010b611abf565b94611ae8565b1660010b92617fff61ffff8760101c1660011c169061ffff61083061082a82851660010b611abf565b93611ae8565b1660010b94845160010b9160010b8212159182611075575b505015611039576020830193845160010b9160010b821215918261102e575b505015610ff2578795865b815180518910156108ba5761ffff60208082938c60051b01015101511691160161ffff81116108a657600190970196610872565b634e487b7160e01b8a52601160045260248afd5b50889061ffff808c989960201c16911611610fb457835160010b865260036020526040808720865160010b9060009160010b82526020522090604051926109008461182c565b82546001600160a01b038116855260a01c61ffff166020850190815260018401805491949161092e81611939565b9161093c604051938461187a565b8183528b526020808c208c9184015b838310610f825750505050604086015260020180549061096a82611939565b91610978604051938461187a565b80835260208301918b5260208b208b925b828410610f13575050505060608501528761ffff60018060a01b036002541694511660246040518096819363e667790760e01b835260048301525afa928315610f08578893610eec575b508551600190810b8952600360209081526040808b208a51840b6000908152925290208a518154885161ffff60a01b60a09190911b166001600160a01b039092166001600160b01b0319909116171781559151805191830190600160401b8311610ed8578154838355808410610eb2575b50602001908a5260208a208a915b838310610e725750505050600201905190815191600160401b8311610e5e578154838355808410610dfc575b506020019088526020882088915b838310610d8957505050508561ffff60018060a01b036002541694511660246040518096819363e667790760e01b835260048301525afa928315610d7e578693610d5a575b5081516001600160a01b031615159081610d4c575b5015610d0057805186516001600160a01b0391821691168114801590610cf4575b610ba8575b5051855194957f7f7c50e66616a5842d6b99587c789864578bc8cc2c3b24d078476016d7b184b295610b849391926001600160a01b039182169286929091168314159081610b9a575b50610b8a575b50505b6040519384935160010b84525160010b60208401526060604084015260608301906119a2565b0390a180f35b610b9391611d1f565b8683610b5b565b602091500151151589610b55565b8552600460205260408520805490865b828110610bc7575b5050610b0c565b610bd18183611951565b505460010b865160010b1480610cd6575b610bee57600101610bb8565b90916000198101908111610cc257610c09610c119184611951565b509183611951565b610c6657818103610c8e575b505080548015610c7a576000190190610c368282611951565b610c66578790555581837f7f7c50e66616a5842d6b99587c789864578bc8cc2c3b24d078476016d7b184b2610bc0565b634e487b7160e01b88526004889052602488fd5b634e487b7160e01b87526031600452602487fd5b8154815461ffff19811661ffff9092169182178355925463ffff00001663ffffffff19909316179190911790558780610c1d565b634e487b7160e01b88526011600452602488fd5b50610ce18183611951565b505460101c60010b875160010b14610be2565b50602083015115610b07565b507f7f7c50e66616a5842d6b99587c789864578bc8cc2c3b24d078476016d7b184b293946020610b8492015115610b5e578051610d479084906001600160a01b0316611d1f565b610b5e565b602091500151151587610ae6565b610d779193503d8088833e610d6f818361187a565b810190611b19565b9187610ad1565b6040513d88823e3d90fd5b805180516002811015610de8576001926060600393602093875460ff6101008960a81b038785015160081b169216906affffffffffffffffffffff60a81b16171787556040810151868801550151600286015501920192019190610a8c565b634e487b7160e01b8c52602160045260248cfd5b806003029060038204036108a65783600302600381048503610e4a57838b5260208b2091820191015b818110610e325750610a7e565b808b600392558b60018201558b600282015501610e25565b634e487b7160e01b8b52601160045260248bfd5b634e487b7160e01b89526041600452602489fd5b60016020828183945161ffff81511661ffff19885416178755015163ffff00008087549260101b16169063ffff0000191617855501920192019190610a52565b828c528360208d2091820191015b818110610ecd5750610a44565b8c8155600101610ec0565b634e487b7160e01b8b52604160045260248bfd5b610f019193503d808a833e610d6f818361187a565b91896109d3565b6040513d8a823e3d90fd5b604051610f1f8161182c565b825460ff81166002811015610f6d57825260081c6001600160a01b03166020808301919091526001848101546040840152600285015460608401529183529401936003929092019101610989565b50634e487b7160e01b8f52602160045260248ffd5b600160208192604051610f948161185e565b61ffff8654818116835260101c168382015281520192019201919061094b565b60405162461bcd60e51b8152602060048201526016602482015275546f6f206d616e7920756e697473206f6e2074696c6560501b6044820152606490fd5b60405162461bcd60e51b8152602060048201526014602482015273496e76616c6964207920636f6f7264696e61746560601b6044820152606490fd5b131590503880610867565b60405162461bcd60e51b8152602060048201526014602482015273496e76616c6964207820636f6f7264696e61746560601b6044820152606490fd5b131590503880610848565b6080833603126110dd57604051906110978261182c565b83359060028210156110d95782602092608094526110b68387016118f4565b8382015260408601356040820152606086013560608201528152019201916107ae565b8a80fd5b8880fd5b8580fd5b8680fd5b6040833603126110dd57602060409182516111038161185e565b61110c8661192a565b815261111983870161192a565b83820152815201920191610740565b8280fd5b503461014957604036600319011261014957611146611908565b61ffff611151611919565b9161115a611ce9565b1680156111cd5761ffff8216156111885763ffff00006001549260101b169163ffffffff1916171760015580f35b60405162461bcd60e51b815260206004820152601d60248201527f486569676874206d7573742062652067726561746572207468616e20300000006044820152606490fd5b60405162461bcd60e51b815260206004820152601c60248201527f5769647468206d7573742062652067726561746572207468616e2030000000006044820152606490fd5b5034610149578060031936011261014957602061ffff600154821c16604051908152f35b503461014957806003193601126101495761124f611ce9565b600080516020611dd683398151915280546001600160a01b0319811690915581906001600160a01b03167f8be0079c531659141344cd1fd0a4f28419497f9722a3daafe3b4186f6b6457e08280a380f35b50346101495780600319360112610149576002546040516001600160a01b039091168152602090f35b5034610149576020366003190112610149576112e36118de565b6112eb611ce9565b60018060a01b03166bffffffffffffffffffffffff60a01b600254161760025580f35b5034610149576020366003190112610149576113286118de565b611330611ce9565b600180546601000000000000600160d01b03191660309290921b6601000000000000600160d01b031691909117905580f35b50346101495760403660031901126101495761137c611908565b611384611919565b90600080516020611df6833981519152549160ff8360401c16159267ffffffffffffffff8116801590816114d8575b60011490816114ce575b1590816114c5575b506114b65767ffffffffffffffff198116600117600080516020611df68339815191525583611489575b506113f8611da7565b611400611da7565b61140933611c73565b61ffff63ffff00006001549260101b1692169063ffffffff1916171760015561142f5780f35b68ff000000000000000019600080516020611df68339815191525416600080516020611df6833981519152557fc7f505b2f371ae2175ee4913f4499e1f2633a7b5936321eed1cdaeb6115181d2602060405160018152a180f35b68ffffffffffffffffff19166801000000000000000117600080516020611df683398151915255386113ef565b63f92ee8a960e01b8552600485fd5b905015386113c5565b303b1591506113bd565b8591506113b3565b503461014957806003193601126101495760015460405160309190911c6001600160a01b03168152602090f35b50346101495760203660031901126101495760209060ff906040906001600160a01b036115386118de565b1681528084522054166040519015158152f35b5034610149578060031936011261014957602061ffff60015460101c16604051908152f35b50346101495760403660031901126101495761158b3661189c565b805160010b8252600360205260206040832091015160010b60010b8252602052604081209060018060a01b0382541633036117e7576001546002929092019160301c6001600160a01b0316803b156103fb5781604051809263450f339560e11b82526044820133600484015260406024840152865480915260648301908785526020852090855b818110611795575050508383809203925af1801561178a5761177a575b5060405190916020611641818461187a565b8383528392600160401b841161176657819083548585558086106116e8575b500191845280842084925b848410611676578580f35b8051805160028110156116d45760019260606003938793875460ff6101008960a81b038785015160081b169216906affffffffffffffffffffff60a81b1617178755604081015186880155015160028601550192019301929061166b565b634e487b7160e01b88526021600452602488fd5b80919250600302906003820403611752578460030260038104860361173e57848752838720849392810191015b8181106117225750611660565b8781556001810188905560028101889055849350600301611715565b634e487b7160e01b87526011600452602487fd5b634e487b7160e01b86526011600452602486fd5b634e487b7160e01b85526041600452602485fd5b816117849161187a565b3861162f565b6040513d84823e3d90fd5b92600391949650829550608090600193546117b38260ff831661197f565b848060a01b039060081c16602082015283870154604082015260028701546060820152019401910190869492869492611612565b60405162461bcd60e51b815260206004820152601860248201527f596f7520646f206e6f74206f776e20746869732074696c6500000000000000006044820152606490fd5b6080810190811067ffffffffffffffff82111761184857604052565b634e487b7160e01b600052604160045260246000fd5b6040810190811067ffffffffffffffff82111761184857604052565b90601f8019910116810190811067ffffffffffffffff82111761184857604052565b60409060031901126118d957604051906118b58261185e565b816004358060010b81036118d9578152602435908160010b82036118d95760200152565b600080fd5b600435906001600160a01b03821682036118d957565b35906001600160a01b03821682036118d957565b6004359061ffff821682036118d957565b6024359061ffff821682036118d957565b359061ffff821682036118d957565b67ffffffffffffffff81116118485760051b60200190565b80548210156119695760005260206000200190600090565b634e487b7160e01b600052603260045260246000fd5b90600282101561198c5752565b634e487b7160e01b600052602160045260246000fd5b80516001600160a01b0316825260208082015161ffff16818401526040808301516080918501829052805191850182905260a085019392019060005b818110611a5857505050606001519160608183039101526020808351928381520192019060005b818110611a125750505090565b9091926020608060019260608751611a2b83825161197f565b858060a01b0385820151168584015260408101516040840152015160608201520194019101919091611a05565b8251805161ffff90811687526020918201511681870152604090950194909201916001016119de565b15611a8857565b60405162461bcd60e51b815260206004820152600f60248201526e2737ba1030b71037b832b930ba37b960891b6044820152606490fd5b60010b617fff198114611ad25760000390565b634e487b7160e01b600052601160045260246000fd5b61ffff6000199116019061ffff8211611ad257565b519061ffff821682036118d957565b519081151582036118d957565b6020818303126118d95780519067ffffffffffffffff82116118d9570160c0818303126118d9576040519160c0830183811067ffffffffffffffff82111761184857604052611b6782611afd565b8352611b7560208301611b0c565b6020840152611b8660408301611afd565b604084015260608201516060840152608082015167ffffffffffffffff81116118d957820181601f820112156118d957805190611bc282611939565b92611bd0604051948561187a565b82845260208085019360071b830101918183116118d957602001925b828410611c1057505050506080830152611c089060a001611b0c565b60a082015290565b6080848303126118d95760405190611c278261182c565b845160028110156118d95782526020850151906001600160a01b03821682036118d957826020928360809501526040870151604082015260608701516060820152815201930192611bec565b6001600160a01b03168015611cd357600080516020611dd683398151915280546001600160a01b0319811683179091556001600160a01b03167f8be0079c531659141344cd1fd0a4f28419497f9722a3daafe3b4186f6b6457e0600080a3565b631e4fbdf760e01b600052600060045260246000fd5b600080516020611dd6833981519152546001600160a01b03163303611d0a57565b63118cdaa760e01b6000523360045260246000fd5b6001600160a01b031660009081526004602052604090208054600160401b81101561184857611d5391600182018155611951565b611d9157602082611d8f935160010b61ffff198454169061ffff16178355015160010b81549060101b63ffff0000169063ffff00001916179055565b565b634e487b7160e01b600052600060045260246000fd5b60ff600080516020611df68339815191525460401c1615611dc457565b631afcd79f60e31b60005260046000fdfe9016d09d72d40fdae2fd8ceac6b6234c7706214fd39c1cd1e609a0528c199300f0c57e16840df040f15088dc2f81fe391c3923bec73e23a9662efc9c229c6a00a2646970667358221220dfdfdc9ddb093a885a50ac0b199a7c5d77df97a84beb6c46f623619de0dca6ea64736f6c634300081c0033",
  "linkReferences": {},
  "deployedLinkReferences": {}
}